{
  "_format": "hh-sol-artifact-1",
  "contractName": "FactoryNFT",
  "sourceName": "contracts/FactoryNFT.sol",
  "abi": [
    {
      "inputs": [],
      "stateMutability": "nonpayable",
      "type": "constructor"
    },
    {
      "inputs": [
        {
          "internalType": "address",
          "name": "owner",
          "type": "address"
        }
      ],
      "name": "OwnableInvalidOwner",
      "type": "error"
    },
    {
      "inputs": [
        {
          "internalType": "address",
          "name": "account",
          "type": "address"
        }
      ],
      "name": "OwnableUnauthorizedAccount",
      "type": "error"
    },
    {
      "anonymous": false,
      "inputs": [
        {
          "indexed": false,
          "internalType": "address",
          "name": "collectionAddress",
          "type": "address"
        },
        {
          "indexed": false,
          "internalType": "address",
          "name": "owner",
          "type": "address"
        },
        {
          "indexed": false,
          "internalType": "string",
          "name": "name",
          "type": "string"
        },
        {
          "indexed": false,
          "internalType": "string",
          "name": "symbol",
          "type": "string"
        }
      ],
      "name": "CollectionCreated",
      "type": "event"
    },
    {
      "anonymous": false,
      "inputs": [
        {
          "indexed": false,
          "internalType": "address",
          "name": "collection",
          "type": "address"
        },
        {
          "indexed": false,
          "internalType": "address",
          "name": "to",
          "type": "address"
        },
        {
          "indexed": false,
          "internalType": "uint256",
          "name": "tokenId",
          "type": "uint256"
        },
        {
          "indexed": false,
          "internalType": "string",
          "name": "tokenURI",
          "type": "string"
        }
      ],
      "name": "MintedNFT",
      "type": "event"
    },
    {
      "anonymous": false,
      "inputs": [
        {
          "indexed": true,
          "internalType": "address",
          "name": "previousOwner",
          "type": "address"
        },
        {
          "indexed": true,
          "internalType": "address",
          "name": "newOwner",
          "type": "address"
        }
      ],
      "name": "OwnershipTransferred",
      "type": "event"
    },
    {
      "inputs": [
        {
          "internalType": "uint256",
          "name": "",
          "type": "uint256"
        }
      ],
      "name": "InfoCollections",
      "outputs": [
        {
          "internalType": "address",
          "name": "collectionAddress",
          "type": "address"
        },
        {
          "internalType": "string",
          "name": "name",
          "type": "string"
        },
        {
          "internalType": "string",
          "name": "symbol",
          "type": "string"
        },
        {
          "internalType": "string",
          "name": "uri",
          "type": "string"
        }
      ],
      "stateMutability": "view",
      "type": "function"
    },
    {
      "inputs": [],
      "name": "counter",
      "outputs": [
        {
          "internalType": "uint256",
          "name": "",
          "type": "uint256"
        }
      ],
      "stateMutability": "view",
      "type": "function"
    },
    {
      "inputs": [
        {
          "internalType": "string",
          "name": "_name",
          "type": "string"
        },
        {
          "internalType": "string",
          "name": "_symbol",
          "type": "string"
        },
        {
          "internalType": "string",
          "name": "_uri",
          "type": "string"
        },
        {
          "internalType": "string",
          "name": "_baseUri",
          "type": "string"
        }
      ],
      "name": "createCollection",
      "outputs": [],
      "stateMutability": "nonpayable",
      "type": "function"
    },
    {
      "inputs": [],
      "name": "getAllCollection",
      "outputs": [
        {
          "components": [
            {
              "internalType": "address",
              "name": "collectionAddress",
              "type": "address"
            },
            {
              "internalType": "string",
              "name": "name",
              "type": "string"
            },
            {
              "internalType": "string",
              "name": "symbol",
              "type": "string"
            },
            {
              "internalType": "string",
              "name": "uri",
              "type": "string"
            }
          ],
          "internalType": "struct FactoryNFT.CollectionInfo[]",
          "name": "",
          "type": "tuple[]"
        }
      ],
      "stateMutability": "view",
      "type": "function"
    },
    {
      "inputs": [
        {
          "internalType": "address",
          "name": "_collectionAddress",
          "type": "address"
        },
        {
          "internalType": "string",
          "name": "_tokenURI",
          "type": "string"
        }
      ],
      "name": "mintNFT",
      "outputs": [],
      "stateMutability": "nonpayable",
      "type": "function"
    },
    {
      "inputs": [],
      "name": "owner",
      "outputs": [
        {
          "internalType": "address",
          "name": "",
          "type": "address"
        }
      ],
      "stateMutability": "view",
      "type": "function"
    },
    {
      "inputs": [],
      "name": "renounceOwnership",
      "outputs": [],
      "stateMutability": "nonpayable",
      "type": "function"
    },
    {
      "inputs": [
        {
          "internalType": "address",
          "name": "newOwner",
          "type": "address"
        }
      ],
      "name": "transferOwnership",
      "outputs": [],
      "stateMutability": "nonpayable",
      "type": "function"
    }
  ],
  "bytecode": "0x6080604052348015600f57600080fd5b503380603557604051631e4fbdf760e01b81526000600482015260240160405180910390fd5b603c816046565b5060006001556096565b600080546001600160a01b038381166001600160a01b0319831681178455604051919092169283917f8be0079c531659141344cd1fd0a4f28419497f9722a3daafe3b4186f6b6457e09190a35050565b6130b1806100a56000396000f3fe608060405234801561001057600080fd5b50600436106100885760003560e01c8063eacabe141161005b578063eacabe14146100f1578063eec3104214610104578063f2fde38b14610119578063fa1592781461012c57600080fd5b806361bc221a1461008d578063715018a6146100a95780638da5cb5b146100b3578063d8205180146100ce575b600080fd5b61009660015481565b6040519081526020015b60405180910390f35b6100b161013f565b005b6000546040516001600160a01b0390911681526020016100a0565b6100e16100dc3660046108e0565b610153565b6040516100a0949392919061093f565b6100b16100ff366004610a55565b610331565b61010c610455565b6040516100a09190610aa3565b6100b1610127366004610b5e565b610680565b6100b161013a366004610b80565b6106be565b610147610856565b6101516000610883565b565b6002818154811061016357600080fd5b6000918252602090912060049091020180546001820180546001600160a01b0390921693509061019290610c40565b80601f01602080910402602001604051908101604052809291908181526020018280546101be90610c40565b801561020b5780601f106101e05761010080835404028352916020019161020b565b820191906000526020600020905b8154815290600101906020018083116101ee57829003601f168201915b50505050509080600201805461022090610c40565b80601f016020809104026020016040519081016040528092919081815260200182805461024c90610c40565b80156102995780601f1061026e57610100808354040283529160200191610299565b820191906000526020600020905b81548152906001019060200180831161027c57829003601f168201915b5050505050908060030180546102ae90610c40565b80601f01602080910402602001604051908101604052809291908181526020018280546102da90610c40565b80156103275780601f106102fc57610100808354040283529160200191610327565b820191906000526020600020905b81548152906001019060200180831161030a57829003601f168201915b5050505050905084565b6001600160a01b038216600090815260036020526040812054900361039d5760405162461bcd60e51b815260206004820152601960248201527f436f6c6c656374696f6e20646f6573206e6f742065786974730000000000000060448201526064015b60405180910390fd5b60405163a561403360e01b81526000906001600160a01b0384169063a5614033906103ce9033908690600401610c7a565b6020604051808303816000875af11580156103ed573d6000803e3d6000fd5b505050506040513d601f19601f820116820180604052508101906104119190610ca6565b90507fec10267cb586da200f0584439331b826534b0d6e4c34eb83211fa51157674845833383856040516104489493929190610cbf565b60405180910390a1505050565b60606002805480602002602001604051908101604052809291908181526020016000905b8282101561067757600084815260209081902060408051608081019091526004850290910180546001600160a01b0316825260018101805492939192918401916104c290610c40565b80601f01602080910402602001604051908101604052809291908181526020018280546104ee90610c40565b801561053b5780601f106105105761010080835404028352916020019161053b565b820191906000526020600020905b81548152906001019060200180831161051e57829003601f168201915b5050505050815260200160028201805461055490610c40565b80601f016020809104026020016040519081016040528092919081815260200182805461058090610c40565b80156105cd5780601f106105a2576101008083540402835291602001916105cd565b820191906000526020600020905b8154815290600101906020018083116105b057829003601f168201915b505050505081526020016003820180546105e690610c40565b80601f016020809104026020016040519081016040528092919081815260200182805461061290610c40565b801561065f5780601f106106345761010080835404028352916020019161065f565b820191906000526020600020905b81548152906001019060200180831161064257829003601f168201915b50505050508152505081526020019060010190610479565b50505050905090565b610688610856565b6001600160a01b0381166106b257604051631e4fbdf760e01b815260006004820152602401610394565b6106bb81610883565b50565b6106c6610856565b600084848484306040516106d9906108d3565b6106e7959493929190610cfc565b604051809103906000f080158015610703573d6000803e3d6000fd5b50905060006040518060800160405280836001600160a01b0316815260200187815260200186815260200185815250905060016000815461074390610d64565b91829055506001600160a01b03838116600090815260036020908152604082209390935560028054600181018255915283517f405787fa12a823e0f2b7631cc41b3ba8828b3321ca811111fa75cd3aa3bb5ace600490920291820180546001600160a01b031916919093161782559183015183927f405787fa12a823e0f2b7631cc41b3ba8828b3321ca811111fa75cd3aa3bb5acf01906107e49082610dda565b50604082015160028201906107f99082610dda565b506060820151600382019061080e9082610dda565b5050507f5fead977881b23a0dbf2f905699203f29cefea57a576d2d4f412523191258e84823088886040516108469493929190610e99565b60405180910390a1505050505050565b6000546001600160a01b031633146101515760405163118cdaa760e01b8152336004820152602401610394565b600080546001600160a01b038381166001600160a01b0319831681178455604051919092169283917f8be0079c531659141344cd1fd0a4f28419497f9722a3daafe3b4186f6b6457e09190a35050565b6121a480610ed883390190565b6000602082840312156108f257600080fd5b5035919050565b6000815180845260005b8181101561091f57602081850181015186830182015201610903565b506000602082860101526020601f19601f83011685010191505092915050565b6001600160a01b0385168152608060208201819052600090610963908301866108f9565b828103604084015261097581866108f9565b9050828103606084015261098981856108f9565b979650505050505050565b80356001600160a01b03811681146109ab57600080fd5b919050565b634e487b7160e01b600052604160045260246000fd5b600082601f8301126109d757600080fd5b813567ffffffffffffffff8111156109f1576109f16109b0565b604051601f8201601f19908116603f0116810167ffffffffffffffff81118282101715610a2057610a206109b0565b604052818152838201602001851015610a3857600080fd5b816020850160208301376000918101602001919091529392505050565b60008060408385031215610a6857600080fd5b610a7183610994565b9150602083013567ffffffffffffffff811115610a8d57600080fd5b610a99858286016109c6565b9150509250929050565b6000602082016020835280845180835260408501915060408160051b86010192506020860160005b82811015610b5257868503603f19018452815180516001600160a01b03168652602080820151608091880182905290610b06908801826108f9565b905060408201518782036040890152610b1f82826108f9565b915050606082015191508681036060880152610b3b81836108f9565b965050506020938401939190910190600101610acb565b50929695505050505050565b600060208284031215610b7057600080fd5b610b7982610994565b9392505050565b60008060008060808587031215610b9657600080fd5b843567ffffffffffffffff811115610bad57600080fd5b610bb9878288016109c6565b945050602085013567ffffffffffffffff811115610bd657600080fd5b610be2878288016109c6565b935050604085013567ffffffffffffffff811115610bff57600080fd5b610c0b878288016109c6565b925050606085013567ffffffffffffffff811115610c2857600080fd5b610c34878288016109c6565b91505092959194509250565b600181811c90821680610c5457607f821691505b602082108103610c7457634e487b7160e01b600052602260045260246000fd5b50919050565b6001600160a01b0383168152604060208201819052600090610c9e908301846108f9565b949350505050565b600060208284031215610cb857600080fd5b5051919050565b6001600160a01b0385811682528416602082015260408101839052608060608201819052600090610cf2908301846108f9565b9695505050505050565b60a081526000610d0f60a08301886108f9565b8281036020840152610d2181886108f9565b90508281036040840152610d3581876108f9565b90508281036060840152610d4981866108f9565b91505060018060a01b03831660808301529695505050505050565b600060018201610d8457634e487b7160e01b600052601160045260246000fd5b5060010190565b601f821115610dd557806000526020600020601f840160051c81016020851015610db25750805b601f840160051c820191505b81811015610dd25760008155600101610dbe565b50505b505050565b815167ffffffffffffffff811115610df457610df46109b0565b610e0881610e028454610c40565b84610d8b565b6020601f821160018114610e3c5760008315610e245750848201515b600019600385901b1c1916600184901b178455610dd2565b600084815260208120601f198516915b82811015610e6c5787850151825560209485019460019092019101610e4c565b5084821015610e8a5786840151600019600387901b60f8161c191681555b50505050600190811b01905550565b6001600160a01b03858116825284166020820152608060408201819052600090610ec5908301856108f9565b828103606084015261098981856108f956fe608060405234801561001057600080fd5b506040516121a43803806121a483398101604081905261002f916101ba565b808585600061003e8382610328565b50600161004b8282610328565b5050506001600160a01b03811661007c57604051631e4fbdf760e01b81526000600482015260240160405180910390fd5b610085816100af565b50600060085560096100978482610328565b50600a6100a48382610328565b5050505050506103e6565b600780546001600160a01b038381166001600160a01b0319831681179093556040519116919082907f8be0079c531659141344cd1fd0a4f28419497f9722a3daafe3b4186f6b6457e090600090a35050565b634e487b7160e01b600052604160045260246000fd5b600082601f83011261012857600080fd5b81516001600160401b0381111561014157610141610101565b604051601f8201601f19908116603f011681016001600160401b038111828210171561016f5761016f610101565b60405281815283820160200185101561018757600080fd5b60005b828110156101a65760208186018101518383018201520161018a565b506000918101602001919091529392505050565b600080600080600060a086880312156101d257600080fd5b85516001600160401b038111156101e857600080fd5b6101f488828901610117565b602088015190965090506001600160401b0381111561021257600080fd5b61021e88828901610117565b604088015190955090506001600160401b0381111561023c57600080fd5b61024888828901610117565b606088015190945090506001600160401b0381111561026657600080fd5b61027288828901610117565b608088015190935090506001600160a01b038116811461029157600080fd5b809150509295509295909350565b600181811c908216806102b357607f821691505b6020821081036102d357634e487b7160e01b600052602260045260246000fd5b50919050565b601f82111561032357806000526020600020601f840160051c810160208510156103005750805b601f840160051c820191505b81811015610320576000815560010161030c565b50505b505050565b81516001600160401b0381111561034157610341610101565b6103558161034f845461029f565b846102d9565b6020601f82116001811461038957600083156103715750848201515b600019600385901b1c1916600184901b178455610320565b600084815260208120601f198516915b828110156103b95787850151825560209485019460019092019101610399565b50848210156103d75786840151600019600387901b60f8161c191681555b50505050600190811b01905550565b611daf806103f56000396000f3fe60806040526004361061014b5760003560e01c806394383f14116100b6578063a82ba76f1161006f578063a82ba76f146103a2578063b88d4fde146103b5578063c87b56dd146103d5578063d188929f146103f5578063e985e9c514610422578063f2fde38b1461044257600080fd5b806394383f14146102f857806394ab67fe1461031857806395d89b4114610338578063a22cb4651461034d578063a5097ebf1461036d578063a56140331461038257600080fd5b806342842e0e1161010857806342842e0e1461024157806361bc221a146102615780636352211e1461028557806370a08231146102a5578063715018a6146102c55780638da5cb5b146102da57600080fd5b806301f3484c1461015057806301ffc9a71461017257806306fdde03146101a7578063081812fc146101c9578063095ea7b31461020157806323b872dd14610221575b600080fd5b34801561015c57600080fd5b5061017061016b36600461177b565b610462565b005b34801561017e57600080fd5b5061019261018d3660046117aa565b610509565b60405190151581526020015b60405180910390f35b3480156101b357600080fd5b506101bc610534565b60405161019e9190611817565b3480156101d557600080fd5b506101e96101e436600461177b565b6105c6565b6040516001600160a01b03909116815260200161019e565b34801561020d57600080fd5b5061017061021c366004611846565b6105ef565b34801561022d57600080fd5b5061017061023c366004611870565b6105fe565b34801561024d57600080fd5b5061017061025c366004611870565b610689565b34801561026d57600080fd5b5061027760085481565b60405190815260200161019e565b34801561029157600080fd5b506101e96102a036600461177b565b6106a9565b3480156102b157600080fd5b506102776102c03660046118ad565b6106b4565b3480156102d157600080fd5b506101706106fc565b3480156102e657600080fd5b506007546001600160a01b03166101e9565b34801561030457600080fd5b506101706103133660046118c8565b610710565b34801561032457600080fd5b50610170610333366004611846565b6107ba565b34801561034457600080fd5b506101bc610882565b34801561035957600080fd5b506101706103683660046118ea565b610891565b34801561037957600080fd5b506101bc61089c565b34801561038e57600080fd5b5061027761039d3660046119b6565b61092a565b6102776103b0366004611846565b6109db565b3480156103c157600080fd5b506101706103d0366004611a18565b610c13565b3480156103e157600080fd5b506101bc6103f036600461177b565b610c2a565b34801561040157600080fd5b5061041561041036600461177b565b610d2e565b60405161019e9190611a94565b34801561042e57600080fd5b5061019261043d366004611af1565b610dd5565b34801561044e57600080fd5b5061017061045d3660046118ad565b610e03565b3361046c826106a9565b6001600160a01b0316148061048e575061048e610488826106a9565b33610dd5565b6104b35760405162461bcd60e51b81526004016104aa90611b24565b60405180910390fd5b6000818152600b6020908152604091829020600101805460ff1916905581513381529081018390527f84f3cf51dfe6e1660feefcadf6502122f4a131a65cf722abfb1a84da7744a873910160405180910390a150565b60006001600160e01b03198216632483248360e11b148061052e575061052e82610e41565b92915050565b60606000805461054390611b59565b80601f016020809104026020016040519081016040528092919081815260200182805461056f90611b59565b80156105bc5780601f10610591576101008083540402835291602001916105bc565b820191906000526020600020905b81548152906001019060200180831161059f57829003601f168201915b5050505050905090565b60006105d182610e91565b506000828152600460205260409020546001600160a01b031661052e565b6105fa828233610eca565b5050565b6001600160a01b03821661062857604051633250574960e11b8152600060048201526024016104aa565b6000610635838333610ed7565b9050836001600160a01b0316816001600160a01b031614610683576040516364283d7b60e01b81526001600160a01b03808616600483015260248201849052821660448201526064016104aa565b50505050565b6106a483838360405180602001604052806000815250610c13565b505050565b600061052e82610e91565b60006001600160a01b0382166106e0576040516322718ad960e21b8152600060048201526024016104aa565b506001600160a01b031660009081526003602052604090205490565b610704610fd0565b61070e6000610ffd565b565b3361071a836106a9565b6001600160a01b031614806107365750610736610488836106a9565b6107525760405162461bcd60e51b81526004016104aa90611b24565b6000828152600b60209081526040918290208381556001908101805460ff1916909117905581513381529081018490529081018290527fbbf44e68296791df5535457da734bf1017c4b233a740af6d7a89b9f1af4ecb42906060015b60405180910390a15050565b336107c4826106a9565b6001600160a01b031614806107e057506107e0610488826106a9565b6107fc5760405162461bcd60e51b81526004016104aa90611b24565b60008181526002602052604090205461081f906001600160a01b0316838361104f565b6000818152600b6020908152604091829020600101805460ff1916905581513381526001600160a01b038516918101919091529081018290527ffd19e66d1a4315847e95661bab80aff36f6801c5b2eeeca82491034bd7660abe906060016107ae565b60606001805461054390611b59565b6105fa33838361106a565b600980546108a990611b59565b80601f01602080910402602001604051908101604052809291908181526020018280546108d590611b59565b80156109225780601f106108f757610100808354040283529160200191610922565b820191906000526020600020905b81548152906001019060200180831161090557829003601f168201915b505050505081565b6000610934610fd0565b600880546000918261094583611b93565b9190505590506109558482611109565b61095f8184611123565b60408051808201825260008082526020808301828152858352600b9091529083902091518255516001909101805460ff1916911515919091179055517f403f45e064e1472b925888509d0e5164b4642f3064c519d162e3b9261c204adc906109cc90869084908790611bba565b60405180910390a19392505050565b6000803411610a2c5760405162461bcd60e51b815260206004820181905260248201527f416d6f756e74206d7573742062652067726561746572207468616e207a65726f60448201526064016104aa565b6000828152600b60205260409020600181015460ff16610a7f5760405162461bcd60e51b815260206004820152600e60248201526d139195081b9bdd081b1a5cdd195960921b60448201526064016104aa565b33610a89846106a9565b6001600160a01b03161480610aa55750610aa5610488846106a9565b610ac15760405162461bcd60e51b81526004016104aa90611b24565b6000838152600260205260409020546001600160a01b03858116911603610b1a5760405162461bcd60e51b815260206004820152600d60248201526c2cb7ba9030b9329037bbb732b960991b60448201526064016104aa565b8054341015610b5f5760405162461bcd60e51b8152602060048201526011602482015270082dadeeadce840dcdee840cadcdeeaced607b1b60448201526064016104aa565b610b68836106a9565b6001600160a01b03166108fc349081150290604051600060405180830381858888f19350505050158015610ba0573d6000803e3d6000fd5b50610bb4610bad846106a9565b858561104f565b60018101805460ff191690558054604080516001600160a01b03871681526020810186905280820192909252517f38bb180d23818aef357ad4b3806bac3fa13c3492c0ac9d1727381fb2422aaada9181900360600190a1549392505050565b610c1e8484846105fe565b6106838484848461116c565b6060610c3582610e91565b5060008281526006602052604081208054610c4f90611b59565b80601f0160208091040260200160405190810160405280929190818152602001828054610c7b90611b59565b8015610cc85780601f10610c9d57610100808354040283529160200191610cc8565b820191906000526020600020905b815481529060010190602001808311610cab57829003601f168201915b505050505090506000610cd9611295565b90508051600003610ceb575092915050565b815115610d1d578082604051602001610d05929190611bea565b60405160208183030381529060405292505050919050565b610d26846112a4565b949350505050565b610d6b6040518060a0016040528060008152602001600081526020016060815260200160001515815260200160006001600160a01b031681525090565b6040805160a0810182528381526000848152600b60209081528382205490830152918101610d9885610c2a565b81526000858152600b60209081526040918290206001015460ff1615159083015201610dc3856106a9565b6001600160a01b031690529392505050565b6001600160a01b03918216600090815260056020908152604080832093909416825291909152205460ff1690565b610e0b610fd0565b6001600160a01b038116610e3557604051631e4fbdf760e01b8152600060048201526024016104aa565b610e3e81610ffd565b50565b60006001600160e01b031982166380ac58cd60e01b1480610e7257506001600160e01b03198216635b5e139f60e01b145b8061052e57506301ffc9a760e01b6001600160e01b031983161461052e565b6000818152600260205260408120546001600160a01b03168061052e57604051637e27328960e01b8152600481018490526024016104aa565b6106a4838383600161130c565b6000828152600260205260408120546001600160a01b0390811690831615610f0457610f04818486611412565b6001600160a01b03811615610f4257610f2160008560008061130c565b6001600160a01b038116600090815260036020526040902080546000190190555b6001600160a01b03851615610f71576001600160a01b0385166000908152600360205260409020805460010190555b60008481526002602052604080822080546001600160a01b0319166001600160a01b0389811691821790925591518793918516917fddf252ad1be2c89b69c2b068fc378daa952ba7f163c4a11628f55a4df523b3ef91a4949350505050565b6007546001600160a01b0316331461070e5760405163118cdaa760e01b81523360048201526024016104aa565b600780546001600160a01b038381166001600160a01b0319831681179093556040519116919082907f8be0079c531659141344cd1fd0a4f28419497f9722a3daafe3b4186f6b6457e090600090a35050565b6106a483838360405180602001604052806000815250611476565b6001600160a01b03821661109c57604051630b61174360e31b81526001600160a01b03831660048201526024016104aa565b6001600160a01b03838116600081815260056020908152604080832094871680845294825291829020805460ff191686151590811790915591519182527f17307eab39ab6107e8899845ad3d59bd9653f200f220920489ca2b5937696c31910160405180910390a3505050565b6105fa828260405180602001604052806000815250611481565b600082815260066020526040902061113b8282611c60565b506040518281527ff8e1a15aba9398e019f0b49df1a4fde98ee17ae345cb5f6b5e2c27f5033e8ce7906020016107ae565b6001600160a01b0383163b1561068357604051630a85bd0160e11b81526001600160a01b0384169063150b7a02906111ae903390889087908790600401611d1f565b6020604051808303816000875af19250505080156111e9575060408051601f3d908101601f191682019092526111e691810190611d5c565b60015b611252573d808015611217576040519150601f19603f3d011682016040523d82523d6000602084013e61121c565b606091505b50805160000361124a57604051633250574960e11b81526001600160a01b03851660048201526024016104aa565b805181602001fd5b6001600160e01b03198116630a85bd0160e11b1461128e57604051633250574960e11b81526001600160a01b03851660048201526024016104aa565b5050505050565b6060600a805461054390611b59565b60606112af82610e91565b5060006112ba611295565b905060008151116112da5760405180602001604052806000815250611305565b806112e484611498565b6040516020016112f5929190611bea565b6040516020818303038152906040525b9392505050565b808061132057506001600160a01b03821615155b156113e257600061133084610e91565b90506001600160a01b0383161580159061135c5750826001600160a01b0316816001600160a01b031614155b801561136f575061136d8184610dd5565b155b156113985760405163a9fbf51f60e01b81526001600160a01b03841660048201526024016104aa565b81156113e05783856001600160a01b0316826001600160a01b03167f8c5be1e5ebec7d5bd14f71427d1e84f3dd0314c0f7b2291e5b200ac8c7c3b92560405160405180910390a45b505b5050600090815260046020526040902080546001600160a01b0319166001600160a01b0392909216919091179055565b61141d83838361152b565b6106a4576001600160a01b03831661144b57604051637e27328960e01b8152600481018290526024016104aa565b60405163177e802f60e01b81526001600160a01b0383166004820152602481018290526044016104aa565b610c1e84848461158e565b61148b838361163e565b6106a4600084848461116c565b606060006114a5836116a3565b600101905060008167ffffffffffffffff8111156114c5576114c5611926565b6040519080825280601f01601f1916602001820160405280156114ef576020820181803683370190505b5090508181016020015b600019016f181899199a1a9b1b9c1cb0b131b232b360811b600a86061a8153600a85049450846114f957509392505050565b60006001600160a01b03831615801590610d265750826001600160a01b0316846001600160a01b0316148061156557506115658484610dd5565b80610d265750506000908152600460205260409020546001600160a01b03908116911614919050565b6001600160a01b0382166115b857604051633250574960e11b8152600060048201526024016104aa565b60006115c683836000610ed7565b90506001600160a01b0381166115f257604051637e27328960e01b8152600481018390526024016104aa565b836001600160a01b0316816001600160a01b031614610683576040516364283d7b60e01b81526001600160a01b03808616600483015260248201849052821660448201526064016104aa565b6001600160a01b03821661166857604051633250574960e11b8152600060048201526024016104aa565b600061167683836000610ed7565b90506001600160a01b038116156106a4576040516339e3563760e11b8152600060048201526024016104aa565b60008072184f03e93ff9f4daa797ed6e38ed64bf6a1f0160401b83106116e25772184f03e93ff9f4daa797ed6e38ed64bf6a1f0160401b830492506040015b6d04ee2d6d415b85acef8100000000831061170e576d04ee2d6d415b85acef8100000000830492506020015b662386f26fc10000831061172c57662386f26fc10000830492506010015b6305f5e1008310611744576305f5e100830492506008015b612710831061175857612710830492506004015b6064831061176a576064830492506002015b600a831061052e5760010192915050565b60006020828403121561178d57600080fd5b5035919050565b6001600160e01b031981168114610e3e57600080fd5b6000602082840312156117bc57600080fd5b813561130581611794565b60005b838110156117e25781810151838201526020016117ca565b50506000910152565b600081518084526118038160208601602086016117c7565b601f01601f19169290920160200192915050565b60208152600061130560208301846117eb565b80356001600160a01b038116811461184157600080fd5b919050565b6000806040838503121561185957600080fd5b6118628361182a565b946020939093013593505050565b60008060006060848603121561188557600080fd5b61188e8461182a565b925061189c6020850161182a565b929592945050506040919091013590565b6000602082840312156118bf57600080fd5b6113058261182a565b600080604083850312156118db57600080fd5b50508035926020909101359150565b600080604083850312156118fd57600080fd5b6119068361182a565b91506020830135801515811461191b57600080fd5b809150509250929050565b634e487b7160e01b600052604160045260246000fd5b60008067ffffffffffffffff84111561195757611957611926565b50604051601f19601f85018116603f0116810181811067ffffffffffffffff8211171561198657611986611926565b60405283815290508082840185101561199e57600080fd5b83836020830137600060208583010152509392505050565b600080604083850312156119c957600080fd5b6119d28361182a565b9150602083013567ffffffffffffffff8111156119ee57600080fd5b8301601f810185136119ff57600080fd5b611a0e8582356020840161193c565b9150509250929050565b60008060008060808587031215611a2e57600080fd5b611a378561182a565b9350611a456020860161182a565b925060408501359150606085013567ffffffffffffffff811115611a6857600080fd5b8501601f81018713611a7957600080fd5b611a888782356020840161193c565b91505092959194509250565b6020815281516020820152602082015160408201526000604083015160a06060840152611ac460c08401826117eb565b60608501511515608085810191909152909401516001600160a01b031660a0909301929092525090919050565b60008060408385031215611b0457600080fd5b611b0d8361182a565b9150611b1b6020840161182a565b90509250929050565b6020808252818101527f43616c6c6572206973206e6f74206f776e6572206e6f7220617070726f766564604082015260600190565b600181811c90821680611b6d57607f821691505b602082108103611b8d57634e487b7160e01b600052602260045260246000fd5b50919050565b600060018201611bb357634e487b7160e01b600052601160045260246000fd5b5060010190565b60018060a01b0384168152826020820152606060408201526000611be160608301846117eb565b95945050505050565b60008351611bfc8184602088016117c7565b835190830190611c108183602088016117c7565b01949350505050565b601f8211156106a457806000526020600020601f840160051c81016020851015611c405750805b601f840160051c820191505b8181101561128e5760008155600101611c4c565b815167ffffffffffffffff811115611c7a57611c7a611926565b611c8e81611c888454611b59565b84611c19565b6020601f821160018114611cc25760008315611caa5750848201515b600019600385901b1c1916600184901b17845561128e565b600084815260208120601f198516915b82811015611cf25787850151825560209485019460019092019101611cd2565b5084821015611d105786840151600019600387901b60f8161c191681555b50505050600190811b01905550565b6001600160a01b0385811682528416602082015260408101839052608060608201819052600090611d52908301846117eb565b9695505050505050565b600060208284031215611d6e57600080fd5b81516113058161179456fea264697066735822122052c14a69b117d5f228cc6f225d3aa2df7aaae32f1dc93d4af2294375c1a3698464736f6c634300081b0033a264697066735822122013edeac9883de6f4dc000799eb9af5bb2473186e94689a041397c7de90a231fa64736f6c634300081b0033",
  "linkReferences": {},
  "deployedLinkReferences": {}
}