{
  "_format": "hh-sol-artifact-1",
  "contractName": "FactoryToken",
  "sourceName": "contracts/FactoryToken.sol",
  "abi": [
    {
      "anonymous": false,
      "inputs": [
        {
          "indexed": false,
          "internalType": "address",
          "name": "_from",
          "type": "address"
        },
        {
          "indexed": false,
          "internalType": "address",
          "name": "tokenAddress",
          "type": "address"
        },
        {
          "indexed": false,
          "internalType": "uint256",
          "name": "_amount",
          "type": "uint256"
        }
      ],
      "name": "BURNUSD",
      "type": "event"
    },
    {
      "anonymous": false,
      "inputs": [
        {
          "indexed": false,
          "internalType": "address",
          "name": "_to",
          "type": "address"
        },
        {
          "indexed": false,
          "internalType": "address",
          "name": "tokenAddress",
          "type": "address"
        },
        {
          "indexed": false,
          "internalType": "uint256",
          "name": "_amount",
          "type": "uint256"
        }
      ],
      "name": "MINTUSD",
      "type": "event"
    },
    {
      "anonymous": false,
      "inputs": [
        {
          "indexed": true,
          "internalType": "address",
          "name": "tokenAddress",
          "type": "address"
        },
        {
          "indexed": true,
          "internalType": "address",
          "name": "owner",
          "type": "address"
        },
        {
          "indexed": false,
          "internalType": "string",
          "name": "name",
          "type": "string"
        },
        {
          "indexed": false,
          "internalType": "string",
          "name": "symbol",
          "type": "string"
        },
        {
          "indexed": false,
          "internalType": "uint8",
          "name": "decimals",
          "type": "uint8"
        },
        {
          "indexed": false,
          "internalType": "uint256",
          "name": "initialSupply",
          "type": "uint256"
        }
      ],
      "name": "TokenCreated",
      "type": "event"
    },
    {
      "inputs": [
        {
          "internalType": "uint256",
          "name": "",
          "type": "uint256"
        }
      ],
      "name": "allTokens",
      "outputs": [
        {
          "internalType": "string",
          "name": "name",
          "type": "string"
        },
        {
          "internalType": "string",
          "name": "symbol",
          "type": "string"
        },
        {
          "internalType": "string",
          "name": "img",
          "type": "string"
        },
        {
          "internalType": "uint8",
          "name": "decimals",
          "type": "uint8"
        },
        {
          "internalType": "address",
          "name": "owner",
          "type": "address"
        },
        {
          "internalType": "address",
          "name": "tokenAddress",
          "type": "address"
        }
      ],
      "stateMutability": "view",
      "type": "function"
    },
    {
      "inputs": [
        {
          "internalType": "address",
          "name": "_from",
          "type": "address"
        },
        {
          "internalType": "uint256",
          "name": "_amount",
          "type": "uint256"
        }
      ],
      "name": "burnUSD",
      "outputs": [],
      "stateMutability": "nonpayable",
      "type": "function"
    },
    {
      "inputs": [
        {
          "internalType": "string",
          "name": "name",
          "type": "string"
        },
        {
          "internalType": "string",
          "name": "symbol",
          "type": "string"
        },
        {
          "internalType": "string",
          "name": "img",
          "type": "string"
        },
        {
          "internalType": "uint8",
          "name": "decimals",
          "type": "uint8"
        },
        {
          "internalType": "address",
          "name": "initialOwner",
          "type": "address"
        },
        {
          "internalType": "uint256",
          "name": "initialSupply",
          "type": "uint256"
        }
      ],
      "name": "createToken",
      "outputs": [],
      "stateMutability": "nonpayable",
      "type": "function"
    },
    {
      "inputs": [],
      "name": "getAllTokens",
      "outputs": [
        {
          "components": [
            {
              "internalType": "string",
              "name": "name",
              "type": "string"
            },
            {
              "internalType": "string",
              "name": "symbol",
              "type": "string"
            },
            {
              "internalType": "string",
              "name": "img",
              "type": "string"
            },
            {
              "internalType": "uint8",
              "name": "decimals",
              "type": "uint8"
            },
            {
              "internalType": "address",
              "name": "owner",
              "type": "address"
            },
            {
              "internalType": "address",
              "name": "tokenAddress",
              "type": "address"
            }
          ],
          "internalType": "struct FactoryToken.Token[]",
          "name": "",
          "type": "tuple[]"
        }
      ],
      "stateMutability": "view",
      "type": "function"
    },
    {
      "inputs": [
        {
          "internalType": "address",
          "name": "_to",
          "type": "address"
        },
        {
          "internalType": "uint256",
          "name": "_amount",
          "type": "uint256"
        }
      ],
      "name": "mintUSD",
      "outputs": [],
      "stateMutability": "nonpayable",
      "type": "function"
    }
  ],
  "bytecode": "0x6080604052348015600f57600080fd5b506121828061001f6000396000f3fe608060405234801561001057600080fd5b50600436106100575760003560e01c80632a5c792a1461005c578063634282af1461007a5780636f943afd1461009f578063d80bf6f5146100b4578063e0ca65ec146100c7575b600080fd5b6100646100da565b6040516100719190610e26565b60405180910390f35b61008d610088366004610efc565b610323565b60405161007196959493929190610f15565b6100b26100ad366004610f96565b610518565b005b6100b26100c2366004611065565b610885565b6100b26100d5366004610f96565b610a12565b60606000805480602002602001604051908101604052809291908181526020016000905b8282101561031a57838290600052602060002090600502016040518060c00160405290816000820180546101319061112d565b80601f016020809104026020016040519081016040528092919081815260200182805461015d9061112d565b80156101aa5780601f1061017f576101008083540402835291602001916101aa565b820191906000526020600020905b81548152906001019060200180831161018d57829003601f168201915b505050505081526020016001820180546101c39061112d565b80601f01602080910402602001604051908101604052809291908181526020018280546101ef9061112d565b801561023c5780601f106102115761010080835404028352916020019161023c565b820191906000526020600020905b81548152906001019060200180831161021f57829003601f168201915b505050505081526020016002820180546102559061112d565b80601f01602080910402602001604051908101604052809291908181526020018280546102819061112d565b80156102ce5780601f106102a3576101008083540402835291602001916102ce565b820191906000526020600020905b8154815290600101906020018083116102b157829003601f168201915b5050509183525050600382015460ff81166020808401919091526001600160a01b03610100909204821660408401526004909301541660609091015290825260019290920191016100fe565b50505050905090565b6000818154811061033357600080fd5b90600052602060002090600502016000915090508060000180546103569061112d565b80601f01602080910402602001604051908101604052809291908181526020018280546103829061112d565b80156103cf5780601f106103a4576101008083540402835291602001916103cf565b820191906000526020600020905b8154815290600101906020018083116103b257829003601f168201915b5050505050908060010180546103e49061112d565b80601f01602080910402602001604051908101604052809291908181526020018280546104109061112d565b801561045d5780601f106104325761010080835404028352916020019161045d565b820191906000526020600020905b81548152906001019060200180831161044057829003601f168201915b5050505050908060020180546104729061112d565b80601f016020809104026020016040519081016040528092919081815260200182805461049e9061112d565b80156104eb5780601f106104c0576101008083540402835291602001916104eb565b820191906000526020600020905b8154815290600101906020018083116104ce57829003601f168201915b5050506003840154600490940154929360ff8116936001600160a01b036101009092048216935016905086565b610520610d88565b60005b6000548110156107c657604051621554d160ea1b6020820152602301604051602081830303815290604052805190602001206000828154811061056857610568611167565b9060005260206000209060050201600101604051602001610589919061117d565b60405160208183030381529060405280519060200120036107be57600081815481106105b7576105b7611167565b90600052602060002090600502016040518060c00160405290816000820180546105e09061112d565b80601f016020809104026020016040519081016040528092919081815260200182805461060c9061112d565b80156106595780601f1061062e57610100808354040283529160200191610659565b820191906000526020600020905b81548152906001019060200180831161063c57829003601f168201915b505050505081526020016001820180546106729061112d565b80601f016020809104026020016040519081016040528092919081815260200182805461069e9061112d565b80156106eb5780601f106106c0576101008083540402835291602001916106eb565b820191906000526020600020905b8154815290600101906020018083116106ce57829003601f168201915b505050505081526020016002820180546107049061112d565b80601f01602080910402602001604051908101604052809291908181526020018280546107309061112d565b801561077d5780601f106107525761010080835404028352916020019161077d565b820191906000526020600020905b81548152906001019060200180831161076057829003601f168201915b5050509183525050600382015460ff811660208301526001600160a01b036101009091048116604083015260049092015490911660609091015291506107c6565b600101610523565b5060a0810151604051633477cc1b60e21b81526001600160a01b038581166004830152602482018590529091169063d1df306c90604401600060405180830381600087803b15801561081757600080fd5b505af115801561082b573d6000803e3d6000fd5b50505060a0820151604080516001600160a01b038088168252909216602083015281018490527f701b5529965ebb86012428e015f6e2cd75a3d142ba53d6d4f916842b0c55361691506060015b60405180910390a1505050565b6000868684848760405161089890610dd3565b6108a69594939291906111f2565b604051809103906000f0801580156108c2573d6000803e3d6000fd5b506040805160c0810182528981526020810189905290810187905260ff861660608201526001600160a01b038086166080830152821660a0820152600080546001810182559080528151929350909160059091027f290decd9548b62a8d60345a988386fc84ba6bc95484008f6362f93160ef3e563019081906109459082611290565b506020820151600182019061095a9082611290565b506040820151600282019061096f9082611290565b506060820151600382018054608085015160ff9093166001600160a81b0319909116176101006001600160a01b039384160217905560a090920151600490910180546001600160a01b031916918316919091179055604051848216918316907f6aba688e0d9fb13e49808a9f69e09384142cd46853e4ecfcf79aa7e4d63c183290610a01908b908b908a90899061134f565b60405180910390a350505050505050565b610a1a610d88565b60005b600054811015610cc057604051621554d160ea1b60208201526023016040516020818303038152906040528051906020012060008281548110610a6257610a62611167565b9060005260206000209060050201600101604051602001610a83919061117d565b6040516020818303038152906040528051906020012003610cb85760008181548110610ab157610ab1611167565b90600052602060002090600502016040518060c0016040529081600082018054610ada9061112d565b80601f0160208091040260200160405190810160405280929190818152602001828054610b069061112d565b8015610b535780601f10610b2857610100808354040283529160200191610b53565b820191906000526020600020905b815481529060010190602001808311610b3657829003601f168201915b50505050508152602001600182018054610b6c9061112d565b80601f0160208091040260200160405190810160405280929190818152602001828054610b989061112d565b8015610be55780601f10610bba57610100808354040283529160200191610be5565b820191906000526020600020905b815481529060010190602001808311610bc857829003601f168201915b50505050508152602001600282018054610bfe9061112d565b80601f0160208091040260200160405190810160405280929190818152602001828054610c2a9061112d565b8015610c775780601f10610c4c57610100808354040283529160200191610c77565b820191906000526020600020905b815481529060010190602001808311610c5a57829003601f168201915b5050509183525050600382015460ff811660208301526001600160a01b03610100909104811660408301526004909201549091166060909101529150610cc0565b600101610a1d565b5060a0810151604051630f38ca0d60e31b81526001600160a01b03858116600483015260248201859052909116906379c65068906044016020604051808303816000875af1158015610d16573d6000803e3d6000fd5b505050506040513d601f19601f82011682018060405250810190610d3a919061138b565b5060a0810151604080516001600160a01b038087168252909216602083015281018390527fe6377df1cc7f4aab8a064e5678c466a503ab90acc02304607ebe814413839e2590606001610878565b6040518060c00160405280606081526020016060815260200160608152602001600060ff16815260200160006001600160a01b0316815260200160006001600160a01b031681525090565b610da8806113a583390190565b6000815180845260005b81811015610e0657602081850181015186830182015201610dea565b506000602082860101526020601f19601f83011685010191505092915050565b6000602082016020835280845180835260408501915060408160051b86010192506020860160005b82811015610ef057603f198786030184528151805160c08752610e7460c0880182610de0565b905060208201518782036020890152610e8d8282610de0565b91505060408201518782036040890152610ea78282610de0565b60608481015160ff16908a01526080808501516001600160a01b03908116918b019190915260a09485015116939098019290925250506020938401939190910190600101610e4e565b50929695505050505050565b600060208284031215610f0e57600080fd5b5035919050565b60c081526000610f2860c0830189610de0565b8281036020840152610f3a8189610de0565b90508281036040840152610f4e8188610de0565b60ff96909616606084015250506001600160a01b039283166080820152911660a0909101529392505050565b80356001600160a01b0381168114610f9157600080fd5b919050565b60008060408385031215610fa957600080fd5b610fb283610f7a565b946020939093013593505050565b634e487b7160e01b600052604160045260246000fd5b600082601f830112610fe757600080fd5b813567ffffffffffffffff81111561100157611001610fc0565b604051601f8201601f19908116603f0116810167ffffffffffffffff8111828210171561103057611030610fc0565b60405281815283820160200185101561104857600080fd5b816020850160208301376000918101602001919091529392505050565b60008060008060008060c0878903121561107e57600080fd5b863567ffffffffffffffff81111561109557600080fd5b6110a189828a01610fd6565b965050602087013567ffffffffffffffff8111156110be57600080fd5b6110ca89828a01610fd6565b955050604087013567ffffffffffffffff8111156110e757600080fd5b6110f389828a01610fd6565b945050606087013560ff8116811461110a57600080fd5b925061111860808801610f7a565b9598949750929591949360a090920135925050565b600181811c9082168061114157607f821691505b60208210810361116157634e487b7160e01b600052602260045260246000fd5b50919050565b634e487b7160e01b600052603260045260246000fd5b600080835461118b8161112d565b6001821680156111a257600181146111b7576111e7565b60ff19831686528115158202860193506111e7565b86600052602060002060005b838110156111df578154888201526001909101906020016111c3565b505081860193505b509195945050505050565b60a08152600061120560a0830188610de0565b82810360208401526112178188610de0565b6001600160a01b039690961660408401525050606081019290925260ff1660809091015292915050565b601f82111561128b57806000526020600020601f840160051c810160208510156112685750805b601f840160051c820191505b818110156112885760008155600101611274565b50505b505050565b815167ffffffffffffffff8111156112aa576112aa610fc0565b6112be816112b8845461112d565b84611241565b6020601f8211600181146112f257600083156112da5750848201515b600019600385901b1c1916600184901b178455611288565b600084815260208120601f198516915b828110156113225787850151825560209485019460019092019101611302565b50848210156113405786840151600019600387901b60f8161c191681555b50505050600190811b01905550565b6080815260006113626080830187610de0565b82810360208401526113748187610de0565b60ff95909516604084015250506060015292915050565b60006020828403121561139d57600080fd5b505191905056fe60806040526005805460ff1916601217905534801561001d57600080fd5b50604051610da8380380610da883398101604081905261003c9161029f565b8484600361004a83826103d7565b50600461005782826103d7565b50506005805460ff191660ff841617905550610073838361007d565b50505050506104bc565b6001600160a01b0382166100ac5760405163ec442f0560e01b8152600060048201526024015b60405180910390fd5b6100b8600083836100bc565b5050565b6001600160a01b0383166100e75780600260008282546100dc9190610495565b909155506101599050565b6001600160a01b0383166000908152602081905260409020548181101561013a5760405163391434e360e21b81526001600160a01b038516600482015260248101829052604481018390526064016100a3565b6001600160a01b03841660009081526020819052604090209082900390555b6001600160a01b03821661017557600280548290039055610194565b6001600160a01b03821660009081526020819052604090208054820190555b816001600160a01b0316836001600160a01b03167fddf252ad1be2c89b69c2b068fc378daa952ba7f163c4a11628f55a4df523b3ef836040516101d991815260200190565b60405180910390a3505050565b634e487b7160e01b600052604160045260246000fd5b600082601f83011261020d57600080fd5b81516001600160401b03811115610226576102266101e6565b604051601f8201601f19908116603f011681016001600160401b0381118282101715610254576102546101e6565b60405281815283820160200185101561026c57600080fd5b60005b8281101561028b5760208186018101518383018201520161026f565b506000918101602001919091529392505050565b600080600080600060a086880312156102b757600080fd5b85516001600160401b038111156102cd57600080fd5b6102d9888289016101fc565b602088015190965090506001600160401b038111156102f757600080fd5b610303888289016101fc565b604088015190955090506001600160a01b038116811461032257600080fd5b60608701516080880151919450925060ff8116811461034057600080fd5b809150509295509295909350565b600181811c9082168061036257607f821691505b60208210810361038257634e487b7160e01b600052602260045260246000fd5b50919050565b601f8211156103d257806000526020600020601f840160051c810160208510156103af5750805b601f840160051c820191505b818110156103cf57600081556001016103bb565b50505b505050565b81516001600160401b038111156103f0576103f06101e6565b610404816103fe845461034e565b84610388565b6020601f82116001811461043857600083156104205750848201515b600019600385901b1c1916600184901b1784556103cf565b600084815260208120601f198516915b828110156104685787850151825560209485019460019092019101610448565b50848210156104865786840151600019600387901b60f8161c191681555b50505050600190811b01905550565b808201808211156104b657634e487b7160e01b600052601160045260246000fd5b92915050565b6108dd806104cb6000396000f3fe608060405234801561001057600080fd5b50600436106100a95760003560e01c806370a082311161007157806370a082311461012957806379c650681461015257806395d89b4114610165578063a9059cbb1461016d578063d1df306c14610180578063dd62ed3e1461019557600080fd5b806306fdde03146100ae578063095ea7b3146100cc57806318160ddd146100ef57806323b872dd14610101578063313ce56714610114575b600080fd5b6100b66101ce565b6040516100c3919061072c565b60405180910390f35b6100df6100da366004610796565b610260565b60405190151581526020016100c3565b6002545b6040519081526020016100c3565b6100df61010f3660046107c0565b61027a565b60055460405160ff90911681526020016100c3565b6100f36101373660046107fd565b6001600160a01b031660009081526020819052604090205490565b6100f3610160366004610796565b61029e565b6100b6610300565b6100df61017b366004610796565b61030f565b61019361018e366004610796565b61031d565b005b6100f36101a336600461081f565b6001600160a01b03918216600090815260016020908152604080832093909416825291909152205490565b6060600380546101dd90610852565b80601f016020809104026020016040519081016040528092919081815260200182805461020990610852565b80156102565780601f1061022b57610100808354040283529160200191610256565b820191906000526020600020905b81548152906001019060200180831161023957829003601f168201915b5050505050905090565b60003361026e8185856103d2565b60019150505b92915050565b6000336102888582856103e4565b610293858585610462565b506001949350505050565b60008082116102f05760405162461bcd60e51b8152602060048201526019602482015278416d6f756e742063616e6e6f74206265206e6567617469766560381b60448201526064015b60405180910390fd5b6102fa83836104c1565b50919050565b6060600480546101dd90610852565b60003361026e818585610462565b600081116103695760405162461bcd60e51b8152602060048201526019602482015278416d6f756e742063616e6e6f74206265206e6567617469766560381b60448201526064016102e7565b6001600160a01b038216600090815260208190526040812054116103c45760405162461bcd60e51b8152602060048201526012602482015271084c2d8c2dcc6ca40dcdee840cadcdeeaced60731b60448201526064016102e7565b6103ce82826104f7565b5050565b6103df838383600161052d565b505050565b6001600160a01b03838116600090815260016020908152604080832093861683529290522054600019811461045c578181101561044d57604051637dc7a0d960e11b81526001600160a01b038416600482015260248101829052604481018390526064016102e7565b61045c8484848403600061052d565b50505050565b6001600160a01b03831661048c57604051634b637e8f60e11b8152600060048201526024016102e7565b6001600160a01b0382166104b65760405163ec442f0560e01b8152600060048201526024016102e7565b6103df838383610602565b6001600160a01b0382166104eb5760405163ec442f0560e01b8152600060048201526024016102e7565b6103ce60008383610602565b6001600160a01b03821661052157604051634b637e8f60e11b8152600060048201526024016102e7565b6103ce82600083610602565b6001600160a01b0384166105575760405163e602df0560e01b8152600060048201526024016102e7565b6001600160a01b03831661058157604051634a1406b160e11b8152600060048201526024016102e7565b6001600160a01b038085166000908152600160209081526040808320938716835292905220829055801561045c57826001600160a01b0316846001600160a01b03167f8c5be1e5ebec7d5bd14f71427d1e84f3dd0314c0f7b2291e5b200ac8c7c3b925846040516105f491815260200190565b60405180910390a350505050565b6001600160a01b03831661062d5780600260008282546106229190610886565b9091555061069f9050565b6001600160a01b038316600090815260208190526040902054818110156106805760405163391434e360e21b81526001600160a01b038516600482015260248101829052604481018390526064016102e7565b6001600160a01b03841660009081526020819052604090209082900390555b6001600160a01b0382166106bb576002805482900390556106da565b6001600160a01b03821660009081526020819052604090208054820190555b816001600160a01b0316836001600160a01b03167fddf252ad1be2c89b69c2b068fc378daa952ba7f163c4a11628f55a4df523b3ef8360405161071f91815260200190565b60405180910390a3505050565b602081526000825180602084015260005b8181101561075a576020818601810151604086840101520161073d565b506000604082850101526040601f19601f83011684010191505092915050565b80356001600160a01b038116811461079157600080fd5b919050565b600080604083850312156107a957600080fd5b6107b28361077a565b946020939093013593505050565b6000806000606084860312156107d557600080fd5b6107de8461077a565b92506107ec6020850161077a565b929592945050506040919091013590565b60006020828403121561080f57600080fd5b6108188261077a565b9392505050565b6000806040838503121561083257600080fd5b61083b8361077a565b91506108496020840161077a565b90509250929050565b600181811c9082168061086657607f821691505b6020821081036102fa57634e487b7160e01b600052602260045260246000fd5b8082018082111561027457634e487b7160e01b600052601160045260246000fdfea2646970667358221220f0fc64f0efabd711452bc51e8ffca963c61b149411e354a3ec3a02319c57675e64736f6c634300081b0033a264697066735822122018ffdcf8e065d67fbac3b5eb5637dec506b5360c2e1557ea540b264791d35ae964736f6c634300081b0033",
  "linkReferences": {},
  "deployedLinkReferences": {}
}