{
  "_format": "hh-sol-artifact-1",
  "contractName": "LiquidityPool",
  "sourceName": "contracts/LiquidityPool.sol",
  "abi": [
    {
      "inputs": [
        {
          "internalType": "address",
          "name": "_token1",
          "type": "address"
        },
        {
          "internalType": "address",
          "name": "_token2",
          "type": "address"
        }
      ],
      "stateMutability": "nonpayable",
      "type": "constructor"
    },
    {
      "anonymous": false,
      "inputs": [
        {
          "indexed": true,
          "internalType": "address",
          "name": "provider",
          "type": "address"
        },
        {
          "indexed": false,
          "internalType": "uint256",
          "name": "amount1",
          "type": "uint256"
        },
        {
          "indexed": false,
          "internalType": "uint256",
          "name": "amount2",
          "type": "uint256"
        },
        {
          "indexed": false,
          "internalType": "uint256",
          "name": "liquidityTokens",
          "type": "uint256"
        }
      ],
      "name": "LiquidityAdded",
      "type": "event"
    },
    {
      "anonymous": false,
      "inputs": [
        {
          "indexed": true,
          "internalType": "address",
          "name": "provider",
          "type": "address"
        },
        {
          "indexed": false,
          "internalType": "uint256",
          "name": "amount1",
          "type": "uint256"
        },
        {
          "indexed": false,
          "internalType": "uint256",
          "name": "amount2",
          "type": "uint256"
        },
        {
          "indexed": false,
          "internalType": "uint256",
          "name": "liquidityTokens",
          "type": "uint256"
        }
      ],
      "name": "LiquidityRemoved",
      "type": "event"
    },
    {
      "anonymous": false,
      "inputs": [
        {
          "indexed": true,
          "internalType": "address",
          "name": "provider",
          "type": "address"
        },
        {
          "indexed": true,
          "internalType": "address",
          "name": "fromToken",
          "type": "address"
        },
        {
          "indexed": true,
          "internalType": "address",
          "name": "toToken",
          "type": "address"
        },
        {
          "indexed": false,
          "internalType": "uint256",
          "name": "amountIn",
          "type": "uint256"
        },
        {
          "indexed": false,
          "internalType": "uint256",
          "name": "amountOut",
          "type": "uint256"
        }
      ],
      "name": "TokensSwapped",
      "type": "event"
    },
    {
      "inputs": [
        {
          "internalType": "uint256",
          "name": "amount1",
          "type": "uint256"
        },
        {
          "internalType": "uint256",
          "name": "amount2",
          "type": "uint256"
        }
      ],
      "name": "addLiquidity",
      "outputs": [
        {
          "internalType": "uint256",
          "name": "liquidityTokens",
          "type": "uint256"
        }
      ],
      "stateMutability": "nonpayable",
      "type": "function"
    },
    {
      "inputs": [
        {
          "internalType": "uint256",
          "name": "amountIn",
          "type": "uint256"
        },
        {
          "internalType": "uint256",
          "name": "reserveIn",
          "type": "uint256"
        },
        {
          "internalType": "uint256",
          "name": "reserveOut",
          "type": "uint256"
        }
      ],
      "name": "getAmountOutSwapToken",
      "outputs": [
        {
          "internalType": "uint256",
          "name": "",
          "type": "uint256"
        }
      ],
      "stateMutability": "pure",
      "type": "function"
    },
    {
      "inputs": [
        {
          "internalType": "address",
          "name": "",
          "type": "address"
        }
      ],
      "name": "liquidity",
      "outputs": [
        {
          "internalType": "uint256",
          "name": "",
          "type": "uint256"
        }
      ],
      "stateMutability": "view",
      "type": "function"
    },
    {
      "inputs": [],
      "name": "lpToken",
      "outputs": [
        {
          "internalType": "contract LPToken",
          "name": "",
          "type": "address"
        }
      ],
      "stateMutability": "view",
      "type": "function"
    },
    {
      "inputs": [
        {
          "internalType": "uint256",
          "name": "liquidityTokens",
          "type": "uint256"
        }
      ],
      "name": "removeLiquidity",
      "outputs": [
        {
          "internalType": "uint256",
          "name": "amount1",
          "type": "uint256"
        },
        {
          "internalType": "uint256",
          "name": "amount2",
          "type": "uint256"
        }
      ],
      "stateMutability": "nonpayable",
      "type": "function"
    },
    {
      "inputs": [],
      "name": "reserve1",
      "outputs": [
        {
          "internalType": "uint256",
          "name": "",
          "type": "uint256"
        }
      ],
      "stateMutability": "view",
      "type": "function"
    },
    {
      "inputs": [],
      "name": "reserve2",
      "outputs": [
        {
          "internalType": "uint256",
          "name": "",
          "type": "uint256"
        }
      ],
      "stateMutability": "view",
      "type": "function"
    },
    {
      "inputs": [
        {
          "internalType": "address",
          "name": "fromToken",
          "type": "address"
        },
        {
          "internalType": "uint256",
          "name": "amountIn",
          "type": "uint256"
        }
      ],
      "name": "swapToken",
      "outputs": [
        {
          "internalType": "uint256",
          "name": "amountOut",
          "type": "uint256"
        }
      ],
      "stateMutability": "nonpayable",
      "type": "function"
    },
    {
      "inputs": [],
      "name": "token1",
      "outputs": [
        {
          "internalType": "address",
          "name": "",
          "type": "address"
        }
      ],
      "stateMutability": "view",
      "type": "function"
    },
    {
      "inputs": [],
      "name": "token2",
      "outputs": [
        {
          "internalType": "address",
          "name": "",
          "type": "address"
        }
      ],
      "stateMutability": "view",
      "type": "function"
    },
    {
      "inputs": [],
      "name": "totalLiquidityPool",
      "outputs": [
        {
          "internalType": "uint256",
          "name": "",
          "type": "uint256"
        }
      ],
      "stateMutability": "view",
      "type": "function"
    }
  ],
  "bytecode": "0x608060405234801561001057600080fd5b506040516121e83803806121e883398101604081905261002f916102da565b600080546001600160a01b03199081166001600160a01b0385811691821784556001805490931690851617909155604080516306fdde0360e01b815290516306fdde039160048082019286929091908290030181865afa158015610097573d6000803e3d6000fd5b505050506040513d6000823e601f3d908101601f191682016040526100bf9190810190610347565b90506000826001600160a01b03166306fdde036040518163ffffffff1660e01b8152600401600060405180830381865afa158015610101573d6000803e3d6000fd5b505050506040513d6000823e601f3d908101601f191682016040526101299190810190610347565b90506000846001600160a01b03166395d89b416040518163ffffffff1660e01b8152600401600060405180830381865afa15801561016b573d6000803e3d6000fd5b505050506040513d6000823e601f3d908101601f191682016040526101939190810190610347565b90506000846001600160a01b03166395d89b416040518163ffffffff1660e01b8152600401600060405180830381865afa1580156101d5573d6000803e3d6000fd5b505050506040513d6000823e601f3d908101601f191682016040526101fd9190810190610347565b9050600084846040516020016102149291906103f9565b60405160208183030381529060405290506000838360405160200161023a929190610437565b604051602081830303815290604052905081813060405161025a906102b1565b6102669392919061049f565b604051809103906000f080158015610282573d6000803e3d6000fd5b50600580546001600160a01b0319166001600160a01b0392909216919091179055506104dd9650505050505050565b610cb18061153783390190565b80516001600160a01b03811681146102d557600080fd5b919050565b600080604083850312156102ed57600080fd5b6102f6836102be565b9150610304602084016102be565b90509250929050565b634e487b7160e01b600052604160045260246000fd5b60005b8381101561033e578181015183820152602001610326565b50506000910152565b60006020828403121561035957600080fd5b81516001600160401b0381111561036f57600080fd5b8201601f8101841361038057600080fd5b80516001600160401b038111156103995761039961030d565b604051601f8201601f19908116603f011681016001600160401b03811182821017156103c7576103c761030d565b6040528181528282016020018610156103df57600080fd5b6103f0826020830160208601610323565b95945050505050565b6000835161040b818460208801610323565b6201016960ed1b908301908152835161042b816003840160208801610323565b01600301949350505050565b60008351610449818460208801610323565b602f60f81b9083019081528351610467816001840160208801610323565b01600101949350505050565b6000815180845261048b816020860160208601610323565b601f01601f19169290920160200192915050565b6060815260006104b26060830186610473565b82810360208401526104c48186610473565b91505060018060a01b0383166040830152949350505050565b61104b806104ec6000396000f3fe608060405234801561001057600080fd5b50600436106100a95760003560e01c80639c8f9f23116100715780639c8f9f231461011a5780639cd441da14610142578063b61eb7cb14610155578063b8c876b114610168578063cc87ab2a14610188578063d21220a71461019b57600080fd5b80631ef7b430146100ae57806325be124e146100ca5780635a76f25e146100f55780635c0b9a2b146100fe5780635fcbd28514610107575b600080fd5b6100b760045481565b6040519081526020015b60405180910390f35b6001546100dd906001600160a01b031681565b6040516001600160a01b0390911681526020016100c1565b6100b760025481565b6100b760035481565b6005546100dd906001600160a01b031681565b61012d610128366004610e77565b6101ae565b604080519283526020830191909152016100c1565b6100b7610150366004610e90565b61044b565b6100b7610163366004610eb2565b610a46565b6100b7610176366004610ef5565b60066020526000908152604090205481565b6100b7610196366004610f10565b610a8b565b6000546100dd906001600160a01b031681565b3360009081526006602052604081205481908084111561020c5760405162461bcd60e51b81526020600482015260146024820152734e6f7420656e6f756768206c697175696469747960601b60448201526064015b60405180910390fd5b60045460025461021c9086610f50565b6102269190610f67565b9250600454600354856102399190610f50565b6102439190610f67565b915082600260008282546102579190610f89565b9250508190555081600360008282546102709190610f89565b9250508190555083600460008282546102899190610f89565b909155505033600090815260066020526040812080548692906102ad908490610f89565b909155505060005460405163a9059cbb60e01b8152336004820152602481018590526001600160a01b039091169063a9059cbb906044016020604051808303816000875af1158015610303573d6000803e3d6000fd5b505050506040513d601f19601f820116820180604052508101906103279190610f9c565b5060015460405163a9059cbb60e01b8152336004820152602481018490526001600160a01b039091169063a9059cbb906044016020604051808303816000875af1158015610379573d6000803e3d6000fd5b505050506040513d601f19601f8201168201806040525081019061039d9190610f9c565b50600554604051632770a7eb60e21b8152336004820152602481018690526001600160a01b0390911690639dc29fac90604401600060405180830381600087803b1580156103ea57600080fd5b505af11580156103fe573d6000803e3d6000fd5b505060408051868152602081018690529081018790523392507f64b83944e79c3ce8d4c297411de637c3e102d064677aac0c163976ebdcd6f50e915060600160405180910390a250915091565b6000808311801561045c5750600082115b6104b25760405162461bcd60e51b815260206004820152602160248201527f416d6f756e7473206d7573742062652067726561746572207468616e207a65726044820152606f60f81b6064820152608401610203565b600054604051636eb1769f60e11b815233600482015230602482015284916001600160a01b03169063dd62ed3e90604401602060405180830381865afa158015610500573d6000803e3d6000fd5b505050506040513d601f19601f820116820180604052508101906105249190610fc5565b101561057e5760405162461bcd60e51b815260206004820152602360248201527f496e73756666696369656e7420746f6b656e20616c6c6f77616e636520746f6b604482015262656e3160e81b6064820152608401610203565b600154604051636eb1769f60e11b815233600482015230602482015283916001600160a01b03169063dd62ed3e90604401602060405180830381865afa1580156105cc573d6000803e3d6000fd5b505050506040513d601f19601f820116820180604052508101906105f09190610fc5565b101561064a5760405162461bcd60e51b815260206004820152602360248201527f496e73756666696369656e7420746f6b656e20616c6c6f77616e636520746f6b60448201526232b71960e91b6064820152608401610203565b6000546040516323b872dd60e01b81526001600160a01b03909116906323b872dd9061067e90339030908890600401610fde565b6020604051808303816000875af115801561069d573d6000803e3d6000fd5b505050506040513d601f19601f820116820180604052508101906106c19190610f9c565b506001546040516323b872dd60e01b81526001600160a01b03909116906323b872dd906106f690339030908790600401610fde565b6020604051808303816000875af1158015610715573d6000803e3d6000fd5b505050506040513d601f19601f820116820180604052508101906107399190610f9c565b506002548390839015801561074e5750600354155b1561076c576107656107608587610f50565b610ded565b9250610800565b60006003546002548661077f9190610f50565b6107899190610f67565b905060006002546003548861079e9190610f50565b6107a89190610f67565b9050818711156107ba578193506107be565b8092505b6107fb600254600354866107d29190610f50565b6107dc9190610f67565b6003546002546107ec9087610f50565b6107f69190610f67565b610e5d565b945050505b81600260008282546108129190611002565b92505081905550806003600082825461082b9190611002565b9250508190555082600460008282546108449190611002565b90915550503360009081526006602052604081208054859290610868908490611002565b90915550506005546040516340c10f1960e01b8152336004820152602481018590526001600160a01b03909116906340c10f1990604401600060405180830381600087803b1580156108b957600080fd5b505af11580156108cd573d6000803e3d6000fd5b5050505081851115610966576000546001600160a01b031663a9059cbb336108f58589610f89565b6040516001600160e01b031960e085901b1681526001600160a01b03909216600483015260248201526044016020604051808303816000875af1158015610940573d6000803e3d6000fd5b505050506040513d601f19601f820116820180604052508101906109649190610f9c565b505b808411156109fb576001546001600160a01b031663a9059cbb3361098a8488610f89565b6040516001600160e01b031960e085901b1681526001600160a01b03909216600483015260248201526044016020604051808303816000875af11580156109d5573d6000803e3d6000fd5b505050506040513d601f19601f820116820180604052508101906109f99190610f9c565b505b604080518681526020810186905290810184905233907f64b83944e79c3ce8d4c297411de637c3e102d064677aac0c163976ebdcd6f50e9060600160405180910390a2505092915050565b600080610a55856103e3610f50565b905080610a64856103e8610f50565b610a6e9190611002565b610a788483610f50565b610a829190610f67565b95945050505050565b600080546001600160a01b0384811691161480610ab557506001546001600160a01b038481169116145b610af15760405162461bcd60e51b815260206004820152600d60248201526c24b73b30b634b2103a37b5b2b760991b6044820152606401610203565b6000546001600160a01b0390811690841603610c3b57610b1682600254600354610a46565b6000546040516323b872dd60e01b81529192506001600160a01b0316906323b872dd90610b4b90339030908790600401610fde565b6020604051808303816000875af1158015610b6a573d6000803e3d6000fd5b505050506040513d601f19601f82011682018060405250810190610b8e9190610f9c565b5060015460405163a9059cbb60e01b8152336004820152602481018390526001600160a01b039091169063a9059cbb906044016020604051808303816000875af1158015610be0573d6000803e3d6000fd5b505050506040513d601f19601f82011682018060405250810190610c049190610f9c565b508160026000828254610c179190611002565b925050819055508060036000828254610c309190610f89565b90915550610d6a9050565b610c4a82600354600254610a46565b6001546040516323b872dd60e01b81529192506001600160a01b0316906323b872dd90610c7f90339030908790600401610fde565b6020604051808303816000875af1158015610c9e573d6000803e3d6000fd5b505050506040513d601f19601f82011682018060405250810190610cc29190610f9c565b5060005460405163a9059cbb60e01b8152336004820152602481018390526001600160a01b039091169063a9059cbb906044016020604051808303816000875af1158015610d14573d6000803e3d6000fd5b505050506040513d601f19601f82011682018060405250810190610d389190610f9c565b508060026000828254610d4b9190610f89565b925050819055508160036000828254610d649190611002565b90915550505b6000546001600160a01b03848116911614610d90576001546001600160a01b0316610d9d565b6000546001600160a01b03165b60408051848152602081018490526001600160a01b039283169286169133917fad56699d0f375866eb895ed27203058a36a713382aaded78eb6b67da266d4332910160405180910390a492915050565b60006003821115610e4e5750806000610e07600283610f67565b610e12906001611002565b90505b81811015610e4857905080600281610e2d8186610f67565b610e379190611002565b610e419190610f67565b9050610e15565b50919050565b8115610e58575060015b919050565b6000818310610e6c5781610e6e565b825b90505b92915050565b600060208284031215610e8957600080fd5b5035919050565b60008060408385031215610ea357600080fd5b50508035926020909101359150565b600080600060608486031215610ec757600080fd5b505081359360208301359350604090920135919050565b80356001600160a01b0381168114610e5857600080fd5b600060208284031215610f0757600080fd5b610e6e82610ede565b60008060408385031215610f2357600080fd5b610f2c83610ede565b946020939093013593505050565b634e487b7160e01b600052601160045260246000fd5b8082028115828204841417610e7157610e71610f3a565b600082610f8457634e487b7160e01b600052601260045260246000fd5b500490565b81810381811115610e7157610e71610f3a565b600060208284031215610fae57600080fd5b81518015158114610fbe57600080fd5b9392505050565b600060208284031215610fd757600080fd5b5051919050565b6001600160a01b039384168152919092166020820152604081019190915260600190565b80820180821115610e7157610e71610f3a56fea2646970667358221220f7de978be051ba019f35a4b08ffa6e4476369c67ec64c817f6db25fb14c1049964736f6c634300081b0033608060405234801561001057600080fd5b50604051610cb1380380610cb183398101604081905261002f91610197565b8282826001600160a01b03811661006057604051631e4fbdf760e01b81526000600482015260240160405180910390fd5b6100698161008e565b50600461007683826102ab565b50600561008382826102ab565b505050505050610369565b600080546001600160a01b038381166001600160a01b0319831681178455604051919092169283917f8be0079c531659141344cd1fd0a4f28419497f9722a3daafe3b4186f6b6457e09190a35050565b634e487b7160e01b600052604160045260246000fd5b600082601f83011261010557600080fd5b81516001600160401b0381111561011e5761011e6100de565b604051601f8201601f19908116603f011681016001600160401b038111828210171561014c5761014c6100de565b60405281815283820160200185101561016457600080fd5b60005b8281101561018357602081860181015183830182015201610167565b506000918101602001919091529392505050565b6000806000606084860312156101ac57600080fd5b83516001600160401b038111156101c257600080fd5b6101ce868287016100f4565b602086015190945090506001600160401b038111156101ec57600080fd5b6101f8868287016100f4565b604086015190935090506001600160a01b038116811461021757600080fd5b809150509250925092565b600181811c9082168061023657607f821691505b60208210810361025657634e487b7160e01b600052602260045260246000fd5b50919050565b601f8211156102a657806000526020600020601f840160051c810160208510156102835750805b601f840160051c820191505b818110156102a3576000815560010161028f565b50505b505050565b81516001600160401b038111156102c4576102c46100de565b6102d8816102d28454610222565b8461025c565b6020601f82116001811461030c57600083156102f45750848201515b600019600385901b1c1916600184901b1784556102a3565b600084815260208120601f198516915b8281101561033c578785015182556020948501946001909201910161031c565b508482101561035a5786840151600019600387901b60f8161c191681555b50505050600190811b01905550565b610939806103786000396000f3fe608060405234801561001057600080fd5b50600436106100ea5760003560e01c8063715018a61161008c5780639dc29fac116100665780639dc29fac146101cd578063a9059cbb146101e0578063dd62ed3e146101f3578063f2fde38b1461022c57600080fd5b8063715018a6146101a25780638da5cb5b146101aa57806395d89b41146101c557600080fd5b806323b872dd116100c857806323b872dd14610142578063313ce5671461015557806340c10f191461016457806370a082311461017957600080fd5b806306fdde03146100ef578063095ea7b31461010d57806318160ddd14610130575b600080fd5b6100f761023f565b6040516101049190610782565b60405180910390f35b61012061011b3660046107ec565b6102d1565b6040519015158152602001610104565b6003545b604051908152602001610104565b610120610150366004610816565b6102eb565b60405160128152602001610104565b6101776101723660046107ec565b61030f565b005b610134610187366004610853565b6001600160a01b031660009081526001602052604090205490565b610177610325565b6000546040516001600160a01b039091168152602001610104565b6100f7610339565b6101776101db3660046107ec565b610348565b6101206101ee3660046107ec565b61035a565b610134610201366004610875565b6001600160a01b03918216600090815260026020908152604080832093909416825291909152205490565b61017761023a366004610853565b610368565b60606004805461024e906108a8565b80601f016020809104026020016040519081016040528092919081815260200182805461027a906108a8565b80156102c75780601f1061029c576101008083540402835291602001916102c7565b820191906000526020600020905b8154815290600101906020018083116102aa57829003601f168201915b5050505050905090565b6000336102df8185856103ab565b60019150505b92915050565b6000336102f98582856103bd565b61030485858561043b565b506001949350505050565b61031761049a565b61032182826104c7565b5050565b61032d61049a565b61033760006104fd565b565b60606005805461024e906108a8565b61035061049a565b610321828261054d565b6000336102df81858561043b565b61037061049a565b6001600160a01b03811661039f57604051631e4fbdf760e01b8152600060048201526024015b60405180910390fd5b6103a8816104fd565b50565b6103b88383836001610583565b505050565b6001600160a01b038381166000908152600260209081526040808320938616835292905220546000198114610435578181101561042657604051637dc7a0d960e11b81526001600160a01b03841660048201526024810182905260448101839052606401610396565b61043584848484036000610583565b50505050565b6001600160a01b03831661046557604051634b637e8f60e11b815260006004820152602401610396565b6001600160a01b03821661048f5760405163ec442f0560e01b815260006004820152602401610396565b6103b8838383610658565b6000546001600160a01b031633146103375760405163118cdaa760e01b8152336004820152602401610396565b6001600160a01b0382166104f15760405163ec442f0560e01b815260006004820152602401610396565b61032160008383610658565b600080546001600160a01b038381166001600160a01b0319831681178455604051919092169283917f8be0079c531659141344cd1fd0a4f28419497f9722a3daafe3b4186f6b6457e09190a35050565b6001600160a01b03821661057757604051634b637e8f60e11b815260006004820152602401610396565b61032182600083610658565b6001600160a01b0384166105ad5760405163e602df0560e01b815260006004820152602401610396565b6001600160a01b0383166105d757604051634a1406b160e11b815260006004820152602401610396565b6001600160a01b038085166000908152600260209081526040808320938716835292905220829055801561043557826001600160a01b0316846001600160a01b03167f8c5be1e5ebec7d5bd14f71427d1e84f3dd0314c0f7b2291e5b200ac8c7c3b9258460405161064a91815260200190565b60405180910390a350505050565b6001600160a01b03831661068357806003600082825461067891906108e2565b909155506106f59050565b6001600160a01b038316600090815260016020526040902054818110156106d65760405163391434e360e21b81526001600160a01b03851660048201526024810182905260448101839052606401610396565b6001600160a01b03841660009081526001602052604090209082900390555b6001600160a01b03821661071157600380548290039055610730565b6001600160a01b03821660009081526001602052604090208054820190555b816001600160a01b0316836001600160a01b03167fddf252ad1be2c89b69c2b068fc378daa952ba7f163c4a11628f55a4df523b3ef8360405161077591815260200190565b60405180910390a3505050565b602081526000825180602084015260005b818110156107b05760208186018101516040868401015201610793565b506000604082850101526040601f19601f83011684010191505092915050565b80356001600160a01b03811681146107e757600080fd5b919050565b600080604083850312156107ff57600080fd5b610808836107d0565b946020939093013593505050565b60008060006060848603121561082b57600080fd5b610834846107d0565b9250610842602085016107d0565b929592945050506040919091013590565b60006020828403121561086557600080fd5b61086e826107d0565b9392505050565b6000806040838503121561088857600080fd5b610891836107d0565b915061089f602084016107d0565b90509250929050565b600181811c908216806108bc57607f821691505b6020821081036108dc57634e487b7160e01b600052602260045260246000fd5b50919050565b808201808211156102e557634e487b7160e01b600052601160045260246000fdfea2646970667358221220c05f9db68238f9d49d74234ffde8ef323237e081fb6f28d9b77d9678c134f87364736f6c634300081b0033",
  "linkReferences": {},
  "deployedLinkReferences": {}
}