{
  "_format": "hh-sol-artifact-1",
  "contractName": "MarketNFT",
  "sourceName": "contracts/MarketNFT.sol",
  "abi": [
    {
      "inputs": [],
      "stateMutability": "nonpayable",
      "type": "constructor"
    },
    {
      "inputs": [
        {
          "internalType": "address",
          "name": "owner",
          "type": "address"
        }
      ],
      "name": "OwnableInvalidOwner",
      "type": "error"
    },
    {
      "inputs": [
        {
          "internalType": "address",
          "name": "account",
          "type": "address"
        }
      ],
      "name": "OwnableUnauthorizedAccount",
      "type": "error"
    },
    {
      "anonymous": false,
      "inputs": [
        {
          "indexed": false,
          "internalType": "address",
          "name": "owner",
          "type": "address"
        },
        {
          "indexed": false,
          "internalType": "address",
          "name": "collectionAddress",
          "type": "address"
        }
      ],
      "name": "CollectionAdded",
      "type": "event"
    },
    {
      "anonymous": false,
      "inputs": [
        {
          "indexed": false,
          "internalType": "address",
          "name": "collectionAddress",
          "type": "address"
        }
      ],
      "name": "CollectionRemoved",
      "type": "event"
    },
    {
      "anonymous": false,
      "inputs": [
        {
          "indexed": false,
          "internalType": "address",
          "name": "collection",
          "type": "address"
        },
        {
          "indexed": false,
          "internalType": "address",
          "name": "to",
          "type": "address"
        },
        {
          "indexed": false,
          "internalType": "uint256",
          "name": "tokenId",
          "type": "uint256"
        },
        {
          "indexed": false,
          "internalType": "uint256",
          "name": "price",
          "type": "uint256"
        }
      ],
      "name": "NFTBought",
      "type": "event"
    },
    {
      "anonymous": false,
      "inputs": [
        {
          "indexed": false,
          "internalType": "address",
          "name": "collection",
          "type": "address"
        },
        {
          "indexed": false,
          "internalType": "address",
          "name": "from",
          "type": "address"
        },
        {
          "indexed": false,
          "internalType": "uint256",
          "name": "tokenId",
          "type": "uint256"
        },
        {
          "indexed": false,
          "internalType": "uint256",
          "name": "price",
          "type": "uint256"
        }
      ],
      "name": "NFTListed",
      "type": "event"
    },
    {
      "anonymous": false,
      "inputs": [
        {
          "indexed": false,
          "internalType": "address",
          "name": "collection",
          "type": "address"
        },
        {
          "indexed": false,
          "internalType": "address",
          "name": "owner",
          "type": "address"
        },
        {
          "indexed": false,
          "internalType": "uint256",
          "name": "tokenId",
          "type": "uint256"
        }
      ],
      "name": "NFTListedRemove",
      "type": "event"
    },
    {
      "anonymous": false,
      "inputs": [
        {
          "indexed": false,
          "internalType": "address",
          "name": "collection",
          "type": "address"
        },
        {
          "indexed": false,
          "internalType": "address",
          "name": "from",
          "type": "address"
        },
        {
          "indexed": false,
          "internalType": "address",
          "name": "to",
          "type": "address"
        },
        {
          "indexed": false,
          "internalType": "uint256",
          "name": "nftId",
          "type": "uint256"
        }
      ],
      "name": "NFTTransfer",
      "type": "event"
    },
    {
      "anonymous": false,
      "inputs": [
        {
          "indexed": true,
          "internalType": "address",
          "name": "previousOwner",
          "type": "address"
        },
        {
          "indexed": true,
          "internalType": "address",
          "name": "newOwner",
          "type": "address"
        }
      ],
      "name": "OwnershipTransferred",
      "type": "event"
    },
    {
      "anonymous": false,
      "inputs": [
        {
          "indexed": false,
          "internalType": "address",
          "name": "from",
          "type": "address"
        },
        {
          "indexed": false,
          "internalType": "string",
          "name": "idCollection",
          "type": "string"
        },
        {
          "indexed": false,
          "internalType": "uint256",
          "name": "value",
          "type": "uint256"
        }
      ],
      "name": "PayedFeeCollection",
      "type": "event"
    },
    {
      "anonymous": false,
      "inputs": [
        {
          "indexed": false,
          "internalType": "address",
          "name": "from",
          "type": "address"
        },
        {
          "indexed": false,
          "internalType": "string",
          "name": "idCollection",
          "type": "string"
        },
        {
          "indexed": false,
          "internalType": "uint256",
          "name": "value",
          "type": "uint256"
        }
      ],
      "name": "PayedFeeExpert",
      "type": "event"
    },
    {
      "anonymous": false,
      "inputs": [
        {
          "indexed": false,
          "internalType": "address",
          "name": "from",
          "type": "address"
        },
        {
          "indexed": false,
          "internalType": "address",
          "name": "addressCollection",
          "type": "address"
        },
        {
          "indexed": false,
          "internalType": "uint256",
          "name": "tokenId",
          "type": "uint256"
        },
        {
          "indexed": false,
          "internalType": "uint256",
          "name": "value",
          "type": "uint256"
        }
      ],
      "name": "PayedFeeGetPhysicalNFT",
      "type": "event"
    },
    {
      "inputs": [
        {
          "internalType": "address",
          "name": "_collectionAddress",
          "type": "address"
        }
      ],
      "name": "addCollection",
      "outputs": [],
      "stateMutability": "payable",
      "type": "function"
    },
    {
      "inputs": [
        {
          "internalType": "address",
          "name": "_collectionAddress",
          "type": "address"
        },
        {
          "internalType": "uint256",
          "name": "_tokenId",
          "type": "uint256"
        }
      ],
      "name": "buyNFT",
      "outputs": [],
      "stateMutability": "payable",
      "type": "function"
    },
    {
      "inputs": [
        {
          "internalType": "address",
          "name": "",
          "type": "address"
        }
      ],
      "name": "collections",
      "outputs": [
        {
          "internalType": "uint256",
          "name": "",
          "type": "uint256"
        }
      ],
      "stateMutability": "view",
      "type": "function"
    },
    {
      "inputs": [],
      "name": "counter",
      "outputs": [
        {
          "internalType": "uint256",
          "name": "",
          "type": "uint256"
        }
      ],
      "stateMutability": "view",
      "type": "function"
    },
    {
      "inputs": [],
      "name": "getAllActiveCollection",
      "outputs": [
        {
          "components": [
            {
              "internalType": "address",
              "name": "collectionAddress",
              "type": "address"
            },
            {
              "internalType": "address",
              "name": "collectionOwner",
              "type": "address"
            },
            {
              "internalType": "string",
              "name": "uri",
              "type": "string"
            }
          ],
          "internalType": "struct MarketNFT.CollectionInfo[]",
          "name": "",
          "type": "tuple[]"
        }
      ],
      "stateMutability": "view",
      "type": "function"
    },
    {
      "inputs": [
        {
          "internalType": "address",
          "name": "_collectionAddress",
          "type": "address"
        },
        {
          "internalType": "uint256",
          "name": "_tokenId",
          "type": "uint256"
        },
        {
          "internalType": "uint256",
          "name": "_newPrice",
          "type": "uint256"
        }
      ],
      "name": "listNFT",
      "outputs": [],
      "stateMutability": "nonpayable",
      "type": "function"
    },
    {
      "inputs": [],
      "name": "owner",
      "outputs": [
        {
          "internalType": "address",
          "name": "",
          "type": "address"
        }
      ],
      "stateMutability": "view",
      "type": "function"
    },
    {
      "inputs": [
        {
          "internalType": "string",
          "name": "_id",
          "type": "string"
        },
        {
          "internalType": "uint256",
          "name": "value",
          "type": "uint256"
        }
      ],
      "name": "payFeeCollection",
      "outputs": [],
      "stateMutability": "payable",
      "type": "function"
    },
    {
      "inputs": [
        {
          "internalType": "string",
          "name": "_id",
          "type": "string"
        },
        {
          "internalType": "uint256",
          "name": "value",
          "type": "uint256"
        }
      ],
      "name": "payFeeExpert",
      "outputs": [],
      "stateMutability": "payable",
      "type": "function"
    },
    {
      "inputs": [
        {
          "internalType": "address",
          "name": "_collection",
          "type": "address"
        },
        {
          "internalType": "uint256",
          "name": "_tokenId",
          "type": "uint256"
        },
        {
          "internalType": "uint256",
          "name": "_value",
          "type": "uint256"
        }
      ],
      "name": "payFeeGetPhysicalNFT",
      "outputs": [],
      "stateMutability": "payable",
      "type": "function"
    },
    {
      "inputs": [
        {
          "internalType": "address",
          "name": "_collectionAddress",
          "type": "address"
        }
      ],
      "name": "removeCollection",
      "outputs": [],
      "stateMutability": "nonpayable",
      "type": "function"
    },
    {
      "inputs": [
        {
          "internalType": "address",
          "name": "_collectionAddress",
          "type": "address"
        },
        {
          "internalType": "uint256",
          "name": "_tokenId",
          "type": "uint256"
        }
      ],
      "name": "removeListedNFT",
      "outputs": [],
      "stateMutability": "nonpayable",
      "type": "function"
    },
    {
      "inputs": [],
      "name": "renounceOwnership",
      "outputs": [],
      "stateMutability": "nonpayable",
      "type": "function"
    },
    {
      "inputs": [
        {
          "internalType": "address",
          "name": "_collectionAddress",
          "type": "address"
        },
        {
          "internalType": "address",
          "name": "_to",
          "type": "address"
        },
        {
          "internalType": "uint256",
          "name": "_tokenId",
          "type": "uint256"
        }
      ],
      "name": "transferNFT",
      "outputs": [],
      "stateMutability": "nonpayable",
      "type": "function"
    },
    {
      "inputs": [
        {
          "internalType": "address",
          "name": "newOwner",
          "type": "address"
        }
      ],
      "name": "transferOwnership",
      "outputs": [],
      "stateMutability": "nonpayable",
      "type": "function"
    }
  ],
  "bytecode": "0x6080604052348015600f57600080fd5b503380603557604051631e4fbdf760e01b81526000600482015260240160405180910390fd5b603c816046565b5060006001556096565b600080546001600160a01b038381166001600160a01b0319831681178455604051919092169283917f8be0079c531659141344cd1fd0a4f28419497f9722a3daafe3b4186f6b6457e09190a35050565b6118e4806100a56000396000f3fe6080604052600436106100e85760003560e01c80638da5cb5b1161008a578063ad05f1b411610059578063ad05f1b41461022e578063b23e2ee11461024e578063e518384614610270578063f2fde38b1461028357600080fd5b80638da5cb5b146101cd578063967c61d2146101f5578063a174e77a14610208578063a82ba76f1461021b57600080fd5b80635028d05a116100c65780635028d05a1461016257806361bc221a1461018257806369e9cae114610198578063715018a6146101b857600080fd5b8063158e5e0f146100ed57806329847c501461010257806343add2e614610122575b600080fd5b6101006100fb366004611258565b6102a3565b005b34801561010e57600080fd5b5061010061011d3660046112ef565b61034d565b34801561012e57600080fd5b5061014f61013d36600461131b565b60036020526000908152604090205481565b6040519081526020015b60405180910390f35b34801561016e57600080fd5b5061010061017d36600461131b565b6104b5565b34801561018e57600080fd5b5061014f60015481565b3480156101a457600080fd5b506101006101b336600461133f565b6107ba565b3480156101c457600080fd5b506101006108b2565b3480156101d957600080fd5b506000546040516001600160a01b039091168152602001610159565b610100610203366004611258565b6108c6565b61010061021636600461131b565b61095b565b6101006102293660046112ef565b610c66565b34801561023a57600080fd5b50610100610249366004611380565b610d9a565b34801561025a57600080fd5b50610263610e69565b6040516101599190611405565b61010061027e366004611380565b610f7d565b34801561028f57600080fd5b5061010061029e36600461131b565b6110e0565b336102c95760405162461bcd60e51b81526004016102c090611499565b60405180910390fd5b8034101561030e5760405162461bcd60e51b815260206004820152601260248201527115985b1d59481a5cc81b9bdd081d985b1a5960721b60448201526064016102c0565b7fbcb0b25f60418d2ec6acc0a181e5e9acb6b08d41d06eb2f8e502e4ffcdd93474338334604051610341939291906114c2565b60405180910390a15050565b6001600160a01b03821660009081526003602052604081205490036103b45760405162461bcd60e51b815260206004820152601960248201527f436f6c6c656374696f6e20646f6573206e6f742065786973740000000000000060448201526064016102c0565b604051627cd21360e21b8152600481018290526001600160a01b038316906301f3484c90602401600060405180830381600087803b1580156103f557600080fd5b505af1158015610409573d6000803e3d6000fd5b505060405163095ea7b360e01b815260006004820152602481018490526001600160a01b038516925063095ea7b39150604401600060405180830381600087803b15801561045657600080fd5b505af115801561046a573d6000803e3d6000fd5b5050604080516001600160a01b03861681523360208201529081018490527f62e8b949c4adfc6890033cc77ec381fdce5ab26b2de894fcd2f8cc82a6a2c3e692506060019050610341565b6104bd61111e565b6001600160a01b03811660009081526003602052604081205490036104f45760405162461bcd60e51b81526004016102c0906114f6565b6001600160a01b03811660009081526003602052604081205461051990600190611543565b90506000600282815481106105305761053061155c565b600091825260209182902060408051606081018252600390930290910180546001600160a01b039081168452600182015416938301939093526002830180549293929184019161057f90611572565b80601f01602080910402602001604051908101604052809291908181526020018280546105ab90611572565b80156105f85780601f106105cd576101008083540402835291602001916105f8565b820191906000526020600020905b8154815290600101906020018083116105db57829003601f168201915b5050505050815250509050600180546106119190611543565b82146106f4576002600180546106279190611543565b815481106106375761063761155c565b9060005260206000209060030201600283815481106106585761065861155c565b60009182526020909120825460039092020180546001600160a01b039283166001600160a01b03199182161782556001808501549083018054919094169116179091556002808201906106ad908401826115fb565b509050508160036000600285815481106106c9576106c961155c565b600091825260208083206003909202909101546001600160a01b031683528201929092526040019020555b6002805480610705576107056116db565b60008281526020812060036000199093019283020180546001600160a01b03199081168255600182018054909116905590610743600283018261119b565b505090556001600160a01b03831660009081526003602052604081208190556001805491610770836116f1565b909155505080516040516001600160a01b0390911681527fa0691bd707b2f65c33c8343d61c274df72c6b5007937dcfbc31aa5a0d0f6fe3c906020015b60405180910390a1505050565b6001600160a01b03831660009081526003602052604081205490036107f15760405162461bcd60e51b81526004016102c0906114f6565b604051634a55b3ff60e11b81526001600160a01b038381166004830152602482018390528491908216906394ab67fe90604401600060405180830381600087803b15801561083e57600080fd5b505af1158015610852573d6000803e3d6000fd5b5050604080516001600160a01b038089168252336020830152871691810191909152606081018590527f3adb86e693e7d44dd93c3f0672625ce4b307fcccac08df4b7bb82f98f69469b5925060800190505b60405180910390a150505050565b6108ba61111e565b6108c4600061114b565b565b336108e35760405162461bcd60e51b81526004016102c090611499565b803410156109285760405162461bcd60e51b815260206004820152601260248201527115985b1d59481a5cc81b9bdd081d985b1a5960721b60448201526064016102c0565b7fd2668d4cb30a1b56f0f2b34987aa8c2371c0e8723dcd47105ee4a889d0fb127a338334604051610341939291906114c2565b6001600160a01b038116600090815260036020526040902054156109c15760405162461bcd60e51b815260206004820152601b60248201527f436f6c6c656374696f6e20686173206265656e2065786973746564000000000060448201526064016102c0565b670de0b6b3a7640000341015610a275760405162461bcd60e51b815260206004820152602560248201527f4e6f7420656e6f756768206665652061646420746f206d61726b657420697320604482015264062408aa8960db1b60648201526084016102c0565b600081905060026040518060600160405280846001600160a01b03168152602001836001600160a01b0316638da5cb5b6040518163ffffffff1660e01b8152600401602060405180830381865afa158015610a86573d6000803e3d6000fd5b505050506040513d601f19601f82011682018060405250810190610aaa9190611708565b6001600160a01b03168152602001836001600160a01b031663a5097ebf6040518163ffffffff1660e01b8152600401600060405180830381865afa158015610af6573d6000803e3d6000fd5b505050506040513d6000823e601f3d908101601f19168201604052610b1e9190810190611725565b90528154600181810184556000938452602093849020835160039093020180546001600160a01b039384166001600160a01b0319918216178255948401519181018054929093169190941617905560408101519091906002820190610b83908261179c565b505050600160008154610b9590611853565b91905081905560036000846001600160a01b03166001600160a01b03168152602001908152602001600020819055507fde026c5319b7c35f108a6ccfc922edc8008522079b610aee3c676bb7b7b7fb35816001600160a01b0316638da5cb5b6040518163ffffffff1660e01b8152600401602060405180830381865afa158015610c23573d6000803e3d6000fd5b505050506040513d601f19601f82011682018060405250810190610c479190611708565b604080516001600160a01b039283168152918516602083015201610341565b60003411610cb65760405162461bcd60e51b815260206004820181905260248201527f416d6f756e74206d7573742062652067726561746572207468616e207a65726f60448201526064016102c0565b6001600160a01b0382166000908152600360205260408120549003610ced5760405162461bcd60e51b81526004016102c0906114f6565b60405163a82ba76f60e01b8152336004820152602481018290526000906001600160a01b0384169063a82ba76f90349060440160206040518083038185885af1158015610d3e573d6000803e3d6000fd5b50505050506040513d601f19601f82011682018060405250810190610d63919061186c565b90507f5a55b2d970d079d39ce4c5dc9ec6de52ebfc2bbcfc7466d62eea534ee8736673833384846040516107ad9493929190611885565b6001600160a01b0383166000908152600360205260408120549003610dd15760405162461bcd60e51b81526004016102c0906114f6565b60405163250e0fc560e21b8152600481018390526024810182905283906001600160a01b038216906394383f1490604401600060405180830381600087803b158015610e1c57600080fd5b505af1158015610e30573d6000803e3d6000fd5b505050507fbeab3a2bb824b124a8a1eb465eec003338d61b414db132d37e9b3a984fdcf010843385856040516108a49493929190611885565b60606002805480602002602001604051908101604052809291908181526020016000905b82821015610f74576000848152602090819020604080516060810182526003860290920180546001600160a01b0390811684526001820154169383019390935260028301805492939291840191610ee390611572565b80601f0160208091040260200160405190810160405280929190818152602001828054610f0f90611572565b8015610f5c5780601f10610f3157610100808354040283529160200191610f5c565b820191906000526020600020905b815481529060010190602001808311610f3f57829003601f168201915b50505050508152505081526020019060010190610e8d565b50505050905090565b6040516331a9108f60e11b8152600481018390526001600160a01b03841690636352211e90602401602060405180830381865afa158015610fc2573d6000803e3d6000fd5b505050506040513d601f19601f82011682018060405250810190610fe69190611708565b6001600160a01b0316336001600160a01b0316146110465760405162461bcd60e51b815260206004820152601860248201527f596f7520617265206e6f74206f776e6572206f66204e4654000000000000000060448201526064016102c0565b336110635760405162461bcd60e51b81526004016102c090611499565b803410156110ab5760405162461bcd60e51b8152602060048201526015602482015274151a19481999595cc81a5cc81b9bdd081d985b1a59605a1b60448201526064016102c0565b7f1559e9253a035d3ab49178308ef66979ed0849d075717c659c2a9a0243eba75f338484346040516107ad9493929190611885565b6110e861111e565b6001600160a01b03811661111257604051631e4fbdf760e01b8152600060048201526024016102c0565b61111b8161114b565b50565b6000546001600160a01b031633146108c45760405163118cdaa760e01b81523360048201526024016102c0565b600080546001600160a01b038381166001600160a01b0319831681178455604051919092169283917f8be0079c531659141344cd1fd0a4f28419497f9722a3daafe3b4186f6b6457e09190a35050565b5080546111a790611572565b6000825580601f106111b7575050565b601f01602090049060005260206000209081019061111b91905b808211156111e557600081556001016111d1565b5090565b634e487b7160e01b600052604160045260246000fd5b604051601f8201601f1916810167ffffffffffffffff81118282101715611228576112286111e9565b604052919050565b600067ffffffffffffffff82111561124a5761124a6111e9565b50601f01601f191660200190565b6000806040838503121561126b57600080fd5b823567ffffffffffffffff81111561128257600080fd5b8301601f8101851361129357600080fd5b80356112a66112a182611230565b6111ff565b8181528660208385010111156112bb57600080fd5b8160208401602083013760006020928201830152969401359450505050565b6001600160a01b038116811461111b57600080fd5b6000806040838503121561130257600080fd5b823561130d816112da565b946020939093013593505050565b60006020828403121561132d57600080fd5b8135611338816112da565b9392505050565b60008060006060848603121561135457600080fd5b833561135f816112da565b9250602084013561136f816112da565b929592945050506040919091013590565b60008060006060848603121561139557600080fd5b83356113a0816112da565b95602085013595506040909401359392505050565b60005b838110156113d05781810151838201526020016113b8565b50506000910152565b600081518084526113f18160208601602086016113b5565b601f01601f19169290920160200192915050565b6000602082016020835280845180835260408501915060408160051b86010192506020860160005b8281101561148d57868503603f19018452815180516001600160a01b03908116875260208083015190911690870152604090810151606091870182905290611477908701826113d9565b955050602093840193919091019060010161142d565b50929695505050505050565b6020808252600f908201526e496e76616c6964206164647265737360881b604082015260600190565b6001600160a01b03841681526060602082018190526000906114e6908301856113d9565b9050826040830152949350505050565b60208082526019908201527f436f6c6c656374696f6e20646f6573206e6f7420657869747300000000000000604082015260600190565b634e487b7160e01b600052601160045260246000fd5b818103818111156115565761155661152d565b92915050565b634e487b7160e01b600052603260045260246000fd5b600181811c9082168061158657607f821691505b6020821081036115a657634e487b7160e01b600052602260045260246000fd5b50919050565b601f8211156115f657806000526020600020601f840160051c810160208510156115d35750805b601f840160051c820191505b818110156115f357600081556001016115df565b50505b505050565b818103611606575050565b6116108254611572565b67ffffffffffffffff811115611628576116286111e9565b61163c816116368454611572565b846115ac565b6000601f82116001811461167357600083156116585750848201545b600184901b600019600386901b1c198216175b8555506115f3565b600085815260209020601f19841690600086815260209020845b838110156116ad578286015482556001958601959091019060200161168d565b50858310156116cb5781850154600019600388901b60f8161c191681555b5050505050600190811b01905550565b634e487b7160e01b600052603160045260246000fd5b6000816117005761170061152d565b506000190190565b60006020828403121561171a57600080fd5b8151611338816112da565b60006020828403121561173757600080fd5b815167ffffffffffffffff81111561174e57600080fd5b8201601f8101841361175f57600080fd5b805161176d6112a182611230565b81815285602083850101111561178257600080fd5b6117938260208301602086016113b5565b95945050505050565b815167ffffffffffffffff8111156117b6576117b66111e9565b6117c4816116368454611572565b6020601f8211600181146117f65760008315611658575081850151600184901b600019600386901b1c1982161761166b565b600084815260208120601f198516915b828110156118265787850151825560209485019460019092019101611806565b50848210156118445786840151600019600387901b60f8161c191681555b50505050600190811b01905550565b6000600182016118655761186561152d565b5060010190565b60006020828403121561187e57600080fd5b5051919050565b6001600160a01b039485168152929093166020830152604082015260608101919091526080019056fea2646970667358221220c75d521db7c771c290dec7504f40b9be14a7e7b9081ad08081cfe0d99f6e56b064736f6c634300081b0033",
  "linkReferences": {},
  "deployedLinkReferences": {}
}