{
  "_format": "hh-sol-artifact-1",
  "contractName": "MarketNFT",
  "sourceName": "contracts/MarketNFT.sol",
  "abi": [
    {
      "inputs": [],
      "stateMutability": "nonpayable",
      "type": "constructor"
    },
    {
      "inputs": [
        {
          "internalType": "address",
          "name": "owner",
          "type": "address"
        }
      ],
      "name": "OwnableInvalidOwner",
      "type": "error"
    },
    {
      "inputs": [
        {
          "internalType": "address",
          "name": "account",
          "type": "address"
        }
      ],
      "name": "OwnableUnauthorizedAccount",
      "type": "error"
    },
    {
      "anonymous": false,
      "inputs": [
        {
          "indexed": false,
          "internalType": "address",
          "name": "owner",
          "type": "address"
        },
        {
          "indexed": false,
          "internalType": "address",
          "name": "collectionAddress",
          "type": "address"
        }
      ],
      "name": "CollectionAdded",
      "type": "event"
    },
    {
      "anonymous": false,
      "inputs": [
        {
          "indexed": false,
          "internalType": "address",
          "name": "collectionAddress",
          "type": "address"
        }
      ],
      "name": "CollectionRemoved",
      "type": "event"
    },
    {
      "anonymous": false,
      "inputs": [
        {
          "indexed": false,
          "internalType": "address",
          "name": "collection",
          "type": "address"
        },
        {
          "indexed": false,
          "internalType": "address",
          "name": "to",
          "type": "address"
        },
        {
          "indexed": false,
          "internalType": "uint256",
          "name": "tokenId",
          "type": "uint256"
        },
        {
          "indexed": false,
          "internalType": "uint256",
          "name": "price",
          "type": "uint256"
        }
      ],
      "name": "NFTBought",
      "type": "event"
    },
    {
      "anonymous": false,
      "inputs": [
        {
          "indexed": false,
          "internalType": "address",
          "name": "collection",
          "type": "address"
        },
        {
          "indexed": false,
          "internalType": "address",
          "name": "from",
          "type": "address"
        },
        {
          "indexed": false,
          "internalType": "uint256",
          "name": "tokenId",
          "type": "uint256"
        },
        {
          "indexed": false,
          "internalType": "uint256",
          "name": "price",
          "type": "uint256"
        }
      ],
      "name": "NFTListed",
      "type": "event"
    },
    {
      "anonymous": false,
      "inputs": [
        {
          "indexed": false,
          "internalType": "address",
          "name": "collection",
          "type": "address"
        },
        {
          "indexed": false,
          "internalType": "address",
          "name": "owner",
          "type": "address"
        },
        {
          "indexed": false,
          "internalType": "uint256",
          "name": "tokenId",
          "type": "uint256"
        }
      ],
      "name": "NFTListedRemove",
      "type": "event"
    },
    {
      "anonymous": false,
      "inputs": [
        {
          "indexed": false,
          "internalType": "address",
          "name": "collection",
          "type": "address"
        },
        {
          "indexed": false,
          "internalType": "address",
          "name": "from",
          "type": "address"
        },
        {
          "indexed": false,
          "internalType": "address",
          "name": "to",
          "type": "address"
        },
        {
          "indexed": false,
          "internalType": "uint256",
          "name": "nftId",
          "type": "uint256"
        }
      ],
      "name": "NFTTransfer",
      "type": "event"
    },
    {
      "anonymous": false,
      "inputs": [
        {
          "indexed": true,
          "internalType": "address",
          "name": "previousOwner",
          "type": "address"
        },
        {
          "indexed": true,
          "internalType": "address",
          "name": "newOwner",
          "type": "address"
        }
      ],
      "name": "OwnershipTransferred",
      "type": "event"
    },
    {
      "anonymous": false,
      "inputs": [
        {
          "indexed": false,
          "internalType": "address",
          "name": "from",
          "type": "address"
        },
        {
          "indexed": false,
          "internalType": "string",
          "name": "idCollection",
          "type": "string"
        },
        {
          "indexed": false,
          "internalType": "uint256",
          "name": "value",
          "type": "uint256"
        }
      ],
      "name": "PayedFeeCollection",
      "type": "event"
    },
    {
      "anonymous": false,
      "inputs": [
        {
          "indexed": false,
          "internalType": "address",
          "name": "from",
          "type": "address"
        },
        {
          "indexed": false,
          "internalType": "string",
          "name": "idCollection",
          "type": "string"
        },
        {
          "indexed": false,
          "internalType": "uint256",
          "name": "value",
          "type": "uint256"
        }
      ],
      "name": "PayedFeeExpert",
      "type": "event"
    },
    {
      "inputs": [
        {
          "internalType": "address",
          "name": "_collectionAddress",
          "type": "address"
        }
      ],
      "name": "addCollection",
      "outputs": [],
      "stateMutability": "payable",
      "type": "function"
    },
    {
      "inputs": [
        {
          "internalType": "address",
          "name": "_collectionAddress",
          "type": "address"
        },
        {
          "internalType": "uint256",
          "name": "_tokenId",
          "type": "uint256"
        }
      ],
      "name": "buyNFT",
      "outputs": [],
      "stateMutability": "payable",
      "type": "function"
    },
    {
      "inputs": [
        {
          "internalType": "address",
          "name": "",
          "type": "address"
        }
      ],
      "name": "collections",
      "outputs": [
        {
          "internalType": "uint256",
          "name": "",
          "type": "uint256"
        }
      ],
      "stateMutability": "view",
      "type": "function"
    },
    {
      "inputs": [],
      "name": "counter",
      "outputs": [
        {
          "internalType": "uint256",
          "name": "",
          "type": "uint256"
        }
      ],
      "stateMutability": "view",
      "type": "function"
    },
    {
      "inputs": [],
      "name": "getAllActiveCollection",
      "outputs": [
        {
          "components": [
            {
              "internalType": "address",
              "name": "collectionAddress",
              "type": "address"
            },
            {
              "internalType": "address",
              "name": "collectionOwner",
              "type": "address"
            },
            {
              "internalType": "string",
              "name": "uri",
              "type": "string"
            }
          ],
          "internalType": "struct MarketNFT.CollectionInfo[]",
          "name": "",
          "type": "tuple[]"
        }
      ],
      "stateMutability": "view",
      "type": "function"
    },
    {
      "inputs": [
        {
          "internalType": "address",
          "name": "_collectionAddress",
          "type": "address"
        },
        {
          "internalType": "uint256",
          "name": "_tokenId",
          "type": "uint256"
        },
        {
          "internalType": "uint256",
          "name": "_newPrice",
          "type": "uint256"
        }
      ],
      "name": "listNFT",
      "outputs": [],
      "stateMutability": "nonpayable",
      "type": "function"
    },
    {
      "inputs": [],
      "name": "owner",
      "outputs": [
        {
          "internalType": "address",
          "name": "",
          "type": "address"
        }
      ],
      "stateMutability": "view",
      "type": "function"
    },
    {
      "inputs": [
        {
          "internalType": "string",
          "name": "_id",
          "type": "string"
        },
        {
          "internalType": "uint256",
          "name": "value",
          "type": "uint256"
        }
      ],
      "name": "payFeeCollection",
      "outputs": [],
      "stateMutability": "payable",
      "type": "function"
    },
    {
      "inputs": [
        {
          "internalType": "string",
          "name": "_id",
          "type": "string"
        },
        {
          "internalType": "uint256",
          "name": "value",
          "type": "uint256"
        }
      ],
      "name": "payFeeExpert",
      "outputs": [],
      "stateMutability": "payable",
      "type": "function"
    },
    {
      "inputs": [
        {
          "internalType": "address",
          "name": "_collectionAddress",
          "type": "address"
        }
      ],
      "name": "removeCollection",
      "outputs": [],
      "stateMutability": "nonpayable",
      "type": "function"
    },
    {
      "inputs": [
        {
          "internalType": "address",
          "name": "_collectionAddress",
          "type": "address"
        },
        {
          "internalType": "uint256",
          "name": "_tokenId",
          "type": "uint256"
        }
      ],
      "name": "removeListedNFT",
      "outputs": [],
      "stateMutability": "nonpayable",
      "type": "function"
    },
    {
      "inputs": [],
      "name": "renounceOwnership",
      "outputs": [],
      "stateMutability": "nonpayable",
      "type": "function"
    },
    {
      "inputs": [
        {
          "internalType": "address",
          "name": "_collectionAddress",
          "type": "address"
        },
        {
          "internalType": "address",
          "name": "_to",
          "type": "address"
        },
        {
          "internalType": "uint256",
          "name": "_tokenId",
          "type": "uint256"
        }
      ],
      "name": "transferNFT",
      "outputs": [],
      "stateMutability": "nonpayable",
      "type": "function"
    },
    {
      "inputs": [
        {
          "internalType": "address",
          "name": "newOwner",
          "type": "address"
        }
      ],
      "name": "transferOwnership",
      "outputs": [],
      "stateMutability": "nonpayable",
      "type": "function"
    }
  ],
  "bytecode": "0x6080604052348015600f57600080fd5b503380603557604051631e4fbdf760e01b81526000600482015260240160405180910390fd5b603c816046565b5060006001556096565b600080546001600160a01b038381166001600160a01b0319831681178455604051919092169283917f8be0079c531659141344cd1fd0a4f28419497f9722a3daafe3b4186f6b6457e09190a35050565b611783806100a56000396000f3fe6080604052600436106100dd5760003560e01c80638da5cb5b1161007f578063a82ba76f11610059578063a82ba76f14610210578063ad05f1b414610223578063b23e2ee114610243578063f2fde38b1461026557600080fd5b80638da5cb5b146101c2578063967c61d2146101ea578063a174e77a146101fd57600080fd5b80635028d05a116100bb5780635028d05a1461015757806361bc221a1461017757806369e9cae11461018d578063715018a6146101ad57600080fd5b8063158e5e0f146100e257806329847c50146100f757806343add2e614610117575b600080fd5b6100f56100f0366004611149565b610285565b005b34801561010357600080fd5b506100f56101123660046111e0565b61034d565b34801561012357600080fd5b5061014461013236600461120c565b60036020526000908152604090205481565b6040519081526020015b60405180910390f35b34801561016357600080fd5b506100f561017236600461120c565b6104b5565b34801561018357600080fd5b5061014460015481565b34801561019957600080fd5b506100f56101a8366004611230565b6107ba565b3480156101b957600080fd5b506100f56108b2565b3480156101ce57600080fd5b506000546040516001600160a01b03909116815260200161014e565b6100f56101f8366004611149565b6108c6565b6100f561020b36600461120c565b61097d565b6100f561021e3660046111e0565b610c88565b34801561022f57600080fd5b506100f561023e366004611271565b610dd5565b34801561024f57600080fd5b50610258610ebd565b60405161014e91906112f6565b34801561027157600080fd5b506100f561028036600461120c565b610fd1565b336102c95760405162461bcd60e51b815260206004820152600f60248201526e496e76616c6964206164647265737360881b60448201526064015b60405180910390fd5b8034101561030e5760405162461bcd60e51b815260206004820152601260248201527115985b1d59481a5cc81b9bdd081d985b1a5960721b60448201526064016102c0565b7fbcb0b25f60418d2ec6acc0a181e5e9acb6b08d41d06eb2f8e502e4ffcdd934743383346040516103419392919061138a565b60405180910390a15050565b6001600160a01b03821660009081526003602052604081205490036103b45760405162461bcd60e51b815260206004820152601960248201527f436f6c6c656374696f6e20646f6573206e6f742065786973740000000000000060448201526064016102c0565b604051627cd21360e21b8152600481018290526001600160a01b038316906301f3484c90602401600060405180830381600087803b1580156103f557600080fd5b505af1158015610409573d6000803e3d6000fd5b505060405163095ea7b360e01b815260006004820152602481018490526001600160a01b038516925063095ea7b39150604401600060405180830381600087803b15801561045657600080fd5b505af115801561046a573d6000803e3d6000fd5b5050604080516001600160a01b03861681523360208201529081018490527f62e8b949c4adfc6890033cc77ec381fdce5ab26b2de894fcd2f8cc82a6a2c3e692506060019050610341565b6104bd61100f565b6001600160a01b03811660009081526003602052604081205490036104f45760405162461bcd60e51b81526004016102c0906113be565b6001600160a01b0381166000908152600360205260408120546105199060019061140b565b905060006002828154811061053057610530611424565b600091825260209182902060408051606081018252600390930290910180546001600160a01b039081168452600182015416938301939093526002830180549293929184019161057f9061143a565b80601f01602080910402602001604051908101604052809291908181526020018280546105ab9061143a565b80156105f85780601f106105cd576101008083540402835291602001916105f8565b820191906000526020600020905b8154815290600101906020018083116105db57829003601f168201915b505050505081525050905060018054610611919061140b565b82146106f457600260018054610627919061140b565b8154811061063757610637611424565b90600052602060002090600302016002838154811061065857610658611424565b60009182526020909120825460039092020180546001600160a01b039283166001600160a01b03199182161782556001808501549083018054919094169116179091556002808201906106ad908401826114c3565b509050508160036000600285815481106106c9576106c9611424565b600091825260208083206003909202909101546001600160a01b031683528201929092526040019020555b6002805480610705576107056115a3565b60008281526020812060036000199093019283020180546001600160a01b03199081168255600182018054909116905590610743600283018261108c565b505090556001600160a01b03831660009081526003602052604081208190556001805491610770836115b9565b909155505080516040516001600160a01b0390911681527fa0691bd707b2f65c33c8343d61c274df72c6b5007937dcfbc31aa5a0d0f6fe3c906020015b60405180910390a1505050565b6001600160a01b03831660009081526003602052604081205490036107f15760405162461bcd60e51b81526004016102c0906113be565b604051634a55b3ff60e11b81526001600160a01b038381166004830152602482018390528491908216906394ab67fe90604401600060405180830381600087803b15801561083e57600080fd5b505af1158015610852573d6000803e3d6000fd5b5050604080516001600160a01b038089168252336020830152871691810191909152606081018590527f3adb86e693e7d44dd93c3f0672625ce4b307fcccac08df4b7bb82f98f69469b5925060800190505b60405180910390a150505050565b6108ba61100f565b6108c4600061103c565b565b336109055760405162461bcd60e51b815260206004820152600f60248201526e496e76616c6964206164647265737360881b60448201526064016102c0565b8034101561094a5760405162461bcd60e51b815260206004820152601260248201527115985b1d59481a5cc81b9bdd081d985b1a5960721b60448201526064016102c0565b7fd2668d4cb30a1b56f0f2b34987aa8c2371c0e8723dcd47105ee4a889d0fb127a3383346040516103419392919061138a565b6001600160a01b038116600090815260036020526040902054156109e35760405162461bcd60e51b815260206004820152601b60248201527f436f6c6c656374696f6e20686173206265656e2065786973746564000000000060448201526064016102c0565b670de0b6b3a7640000341015610a495760405162461bcd60e51b815260206004820152602560248201527f4e6f7420656e6f756768206665652061646420746f206d61726b657420697320604482015264062408aa8960db1b60648201526084016102c0565b600081905060026040518060600160405280846001600160a01b03168152602001836001600160a01b0316638da5cb5b6040518163ffffffff1660e01b8152600401602060405180830381865afa158015610aa8573d6000803e3d6000fd5b505050506040513d601f19601f82011682018060405250810190610acc91906115d0565b6001600160a01b03168152602001836001600160a01b031663a5097ebf6040518163ffffffff1660e01b8152600401600060405180830381865afa158015610b18573d6000803e3d6000fd5b505050506040513d6000823e601f3d908101601f19168201604052610b4091908101906115ed565b90528154600181810184556000938452602093849020835160039093020180546001600160a01b039384166001600160a01b0319918216178255948401519181018054929093169190941617905560408101519091906002820190610ba59082611664565b505050600160008154610bb79061171b565b91905081905560036000846001600160a01b03166001600160a01b03168152602001908152602001600020819055507fde026c5319b7c35f108a6ccfc922edc8008522079b610aee3c676bb7b7b7fb35816001600160a01b0316638da5cb5b6040518163ffffffff1660e01b8152600401602060405180830381865afa158015610c45573d6000803e3d6000fd5b505050506040513d601f19601f82011682018060405250810190610c6991906115d0565b604080516001600160a01b039283168152918516602083015201610341565b60003411610cd85760405162461bcd60e51b815260206004820181905260248201527f416d6f756e74206d7573742062652067726561746572207468616e207a65726f60448201526064016102c0565b6001600160a01b0382166000908152600360205260408120549003610d0f5760405162461bcd60e51b81526004016102c0906113be565b60405163a82ba76f60e01b8152336004820152602481018290526000906001600160a01b0384169063a82ba76f90349060440160206040518083038185885af1158015610d60573d6000803e3d6000fd5b50505050506040513d601f19601f82011682018060405250810190610d859190611734565b604080516001600160a01b0386168152336020820152908101849052606081018290529091507f5a55b2d970d079d39ce4c5dc9ec6de52ebfc2bbcfc7466d62eea534ee8736673906080016107ad565b6001600160a01b0383166000908152600360205260408120549003610e0c5760405162461bcd60e51b81526004016102c0906113be565b60405163250e0fc560e21b8152600481018390526024810182905283906001600160a01b038216906394383f1490604401600060405180830381600087803b158015610e5757600080fd5b505af1158015610e6b573d6000803e3d6000fd5b5050604080516001600160a01b0388168152336020820152908101869052606081018590527fbeab3a2bb824b124a8a1eb465eec003338d61b414db132d37e9b3a984fdcf010925060800190506108a4565b60606002805480602002602001604051908101604052809291908181526020016000905b82821015610fc8576000848152602090819020604080516060810182526003860290920180546001600160a01b0390811684526001820154169383019390935260028301805492939291840191610f379061143a565b80601f0160208091040260200160405190810160405280929190818152602001828054610f639061143a565b8015610fb05780601f10610f8557610100808354040283529160200191610fb0565b820191906000526020600020905b815481529060010190602001808311610f9357829003601f168201915b50505050508152505081526020019060010190610ee1565b50505050905090565b610fd961100f565b6001600160a01b03811661100357604051631e4fbdf760e01b8152600060048201526024016102c0565b61100c8161103c565b50565b6000546001600160a01b031633146108c45760405163118cdaa760e01b81523360048201526024016102c0565b600080546001600160a01b038381166001600160a01b0319831681178455604051919092169283917f8be0079c531659141344cd1fd0a4f28419497f9722a3daafe3b4186f6b6457e09190a35050565b5080546110989061143a565b6000825580601f106110a8575050565b601f01602090049060005260206000209081019061100c91905b808211156110d657600081556001016110c2565b5090565b634e487b7160e01b600052604160045260246000fd5b604051601f8201601f1916810167ffffffffffffffff81118282101715611119576111196110da565b604052919050565b600067ffffffffffffffff82111561113b5761113b6110da565b50601f01601f191660200190565b6000806040838503121561115c57600080fd5b823567ffffffffffffffff81111561117357600080fd5b8301601f8101851361118457600080fd5b803561119761119282611121565b6110f0565b8181528660208385010111156111ac57600080fd5b8160208401602083013760006020928201830152969401359450505050565b6001600160a01b038116811461100c57600080fd5b600080604083850312156111f357600080fd5b82356111fe816111cb565b946020939093013593505050565b60006020828403121561121e57600080fd5b8135611229816111cb565b9392505050565b60008060006060848603121561124557600080fd5b8335611250816111cb565b92506020840135611260816111cb565b929592945050506040919091013590565b60008060006060848603121561128657600080fd5b8335611291816111cb565b95602085013595506040909401359392505050565b60005b838110156112c15781810151838201526020016112a9565b50506000910152565b600081518084526112e28160208601602086016112a6565b601f01601f19169290920160200192915050565b6000602082016020835280845180835260408501915060408160051b86010192506020860160005b8281101561137e57868503603f19018452815180516001600160a01b03908116875260208083015190911690870152604090810151606091870182905290611368908701826112ca565b955050602093840193919091019060010161131e565b50929695505050505050565b6001600160a01b03841681526060602082018190526000906113ae908301856112ca565b9050826040830152949350505050565b60208082526019908201527f436f6c6c656374696f6e20646f6573206e6f7420657869747300000000000000604082015260600190565b634e487b7160e01b600052601160045260246000fd5b8181038181111561141e5761141e6113f5565b92915050565b634e487b7160e01b600052603260045260246000fd5b600181811c9082168061144e57607f821691505b60208210810361146e57634e487b7160e01b600052602260045260246000fd5b50919050565b601f8211156114be57806000526020600020601f840160051c8101602085101561149b5750805b601f840160051c820191505b818110156114bb57600081556001016114a7565b50505b505050565b8181036114ce575050565b6114d8825461143a565b67ffffffffffffffff8111156114f0576114f06110da565b611504816114fe845461143a565b84611474565b6000601f82116001811461153b57600083156115205750848201545b600184901b600019600386901b1c198216175b8555506114bb565b600085815260209020601f19841690600086815260209020845b838110156115755782860154825560019586019590910190602001611555565b50858310156115935781850154600019600388901b60f8161c191681555b5050505050600190811b01905550565b634e487b7160e01b600052603160045260246000fd5b6000816115c8576115c86113f5565b506000190190565b6000602082840312156115e257600080fd5b8151611229816111cb565b6000602082840312156115ff57600080fd5b815167ffffffffffffffff81111561161657600080fd5b8201601f8101841361162757600080fd5b805161163561119282611121565b81815285602083850101111561164a57600080fd5b61165b8260208301602086016112a6565b95945050505050565b815167ffffffffffffffff81111561167e5761167e6110da565b61168c816114fe845461143a565b6020601f8211600181146116be5760008315611520575081850151600184901b600019600386901b1c19821617611533565b600084815260208120601f198516915b828110156116ee57878501518255602094850194600190920191016116ce565b508482101561170c5786840151600019600387901b60f8161c191681555b50505050600190811b01905550565b60006001820161172d5761172d6113f5565b5060010190565b60006020828403121561174657600080fd5b505191905056fea26469706673582212204882be80f6c2325bfc1e3c1b0d8642eb9e9461a7917f43e553bf51e575f8f99b64736f6c634300081b0033",
  "linkReferences": {},
  "deployedLinkReferences": {}
}