{
  "_format": "hh-sol-artifact-1",
  "contractName": "NFTCollection",
  "sourceName": "contracts/NFTCollection.sol",
  "abi": [
    {
      "inputs": [
        {
          "internalType": "string",
          "name": "_name",
          "type": "string"
        },
        {
          "internalType": "string",
          "name": "_symbol",
          "type": "string"
        },
        {
          "internalType": "string",
          "name": "_uri",
          "type": "string"
        },
        {
          "internalType": "address",
          "name": "_initialOwner",
          "type": "address"
        }
      ],
      "stateMutability": "nonpayable",
      "type": "constructor"
    },
    {
      "inputs": [
        {
          "internalType": "address",
          "name": "sender",
          "type": "address"
        },
        {
          "internalType": "uint256",
          "name": "tokenId",
          "type": "uint256"
        },
        {
          "internalType": "address",
          "name": "owner",
          "type": "address"
        }
      ],
      "name": "ERC721IncorrectOwner",
      "type": "error"
    },
    {
      "inputs": [
        {
          "internalType": "address",
          "name": "operator",
          "type": "address"
        },
        {
          "internalType": "uint256",
          "name": "tokenId",
          "type": "uint256"
        }
      ],
      "name": "ERC721InsufficientApproval",
      "type": "error"
    },
    {
      "inputs": [
        {
          "internalType": "address",
          "name": "approver",
          "type": "address"
        }
      ],
      "name": "ERC721InvalidApprover",
      "type": "error"
    },
    {
      "inputs": [
        {
          "internalType": "address",
          "name": "operator",
          "type": "address"
        }
      ],
      "name": "ERC721InvalidOperator",
      "type": "error"
    },
    {
      "inputs": [
        {
          "internalType": "address",
          "name": "owner",
          "type": "address"
        }
      ],
      "name": "ERC721InvalidOwner",
      "type": "error"
    },
    {
      "inputs": [
        {
          "internalType": "address",
          "name": "receiver",
          "type": "address"
        }
      ],
      "name": "ERC721InvalidReceiver",
      "type": "error"
    },
    {
      "inputs": [
        {
          "internalType": "address",
          "name": "sender",
          "type": "address"
        }
      ],
      "name": "ERC721InvalidSender",
      "type": "error"
    },
    {
      "inputs": [
        {
          "internalType": "uint256",
          "name": "tokenId",
          "type": "uint256"
        }
      ],
      "name": "ERC721NonexistentToken",
      "type": "error"
    },
    {
      "inputs": [
        {
          "internalType": "address",
          "name": "owner",
          "type": "address"
        }
      ],
      "name": "OwnableInvalidOwner",
      "type": "error"
    },
    {
      "inputs": [
        {
          "internalType": "address",
          "name": "account",
          "type": "address"
        }
      ],
      "name": "OwnableUnauthorizedAccount",
      "type": "error"
    },
    {
      "anonymous": false,
      "inputs": [
        {
          "indexed": true,
          "internalType": "address",
          "name": "owner",
          "type": "address"
        },
        {
          "indexed": true,
          "internalType": "address",
          "name": "approved",
          "type": "address"
        },
        {
          "indexed": true,
          "internalType": "uint256",
          "name": "tokenId",
          "type": "uint256"
        }
      ],
      "name": "Approval",
      "type": "event"
    },
    {
      "anonymous": false,
      "inputs": [
        {
          "indexed": true,
          "internalType": "address",
          "name": "owner",
          "type": "address"
        },
        {
          "indexed": true,
          "internalType": "address",
          "name": "operator",
          "type": "address"
        },
        {
          "indexed": false,
          "internalType": "bool",
          "name": "approved",
          "type": "bool"
        }
      ],
      "name": "ApprovalForAll",
      "type": "event"
    },
    {
      "anonymous": false,
      "inputs": [
        {
          "indexed": false,
          "internalType": "uint256",
          "name": "_fromTokenId",
          "type": "uint256"
        },
        {
          "indexed": false,
          "internalType": "uint256",
          "name": "_toTokenId",
          "type": "uint256"
        }
      ],
      "name": "BatchMetadataUpdate",
      "type": "event"
    },
    {
      "anonymous": false,
      "inputs": [
        {
          "indexed": false,
          "internalType": "uint256",
          "name": "_tokenId",
          "type": "uint256"
        }
      ],
      "name": "MetadataUpdate",
      "type": "event"
    },
    {
      "anonymous": false,
      "inputs": [
        {
          "indexed": false,
          "internalType": "address",
          "name": "buyer",
          "type": "address"
        },
        {
          "indexed": false,
          "internalType": "uint256",
          "name": "tokenId",
          "type": "uint256"
        },
        {
          "indexed": false,
          "internalType": "uint256",
          "name": "price",
          "type": "uint256"
        }
      ],
      "name": "NFTBought",
      "type": "event"
    },
    {
      "anonymous": false,
      "inputs": [
        {
          "indexed": false,
          "internalType": "address",
          "name": "to",
          "type": "address"
        },
        {
          "indexed": false,
          "internalType": "uint256",
          "name": "tokenId",
          "type": "uint256"
        },
        {
          "indexed": false,
          "internalType": "string",
          "name": "tokenURI",
          "type": "string"
        }
      ],
      "name": "NFTCreated",
      "type": "event"
    },
    {
      "anonymous": false,
      "inputs": [
        {
          "indexed": false,
          "internalType": "address",
          "name": "from",
          "type": "address"
        },
        {
          "indexed": false,
          "internalType": "uint256",
          "name": "tokenId",
          "type": "uint256"
        },
        {
          "indexed": false,
          "internalType": "uint256",
          "name": "price",
          "type": "uint256"
        }
      ],
      "name": "NFTListed",
      "type": "event"
    },
    {
      "anonymous": false,
      "inputs": [
        {
          "indexed": false,
          "internalType": "address",
          "name": "owner",
          "type": "address"
        },
        {
          "indexed": false,
          "internalType": "uint256",
          "name": "tokenId",
          "type": "uint256"
        }
      ],
      "name": "NFTListedRemove",
      "type": "event"
    },
    {
      "anonymous": false,
      "inputs": [
        {
          "indexed": false,
          "internalType": "address",
          "name": "from",
          "type": "address"
        },
        {
          "indexed": false,
          "internalType": "address",
          "name": "to",
          "type": "address"
        },
        {
          "indexed": false,
          "internalType": "uint256",
          "name": "nftId",
          "type": "uint256"
        }
      ],
      "name": "NFTTransfer",
      "type": "event"
    },
    {
      "anonymous": false,
      "inputs": [
        {
          "indexed": true,
          "internalType": "address",
          "name": "previousOwner",
          "type": "address"
        },
        {
          "indexed": true,
          "internalType": "address",
          "name": "newOwner",
          "type": "address"
        }
      ],
      "name": "OwnershipTransferred",
      "type": "event"
    },
    {
      "anonymous": false,
      "inputs": [
        {
          "indexed": true,
          "internalType": "address",
          "name": "from",
          "type": "address"
        },
        {
          "indexed": true,
          "internalType": "address",
          "name": "to",
          "type": "address"
        },
        {
          "indexed": true,
          "internalType": "uint256",
          "name": "tokenId",
          "type": "uint256"
        }
      ],
      "name": "Transfer",
      "type": "event"
    },
    {
      "inputs": [
        {
          "internalType": "address",
          "name": "to",
          "type": "address"
        },
        {
          "internalType": "uint256",
          "name": "tokenId",
          "type": "uint256"
        }
      ],
      "name": "approve",
      "outputs": [],
      "stateMutability": "nonpayable",
      "type": "function"
    },
    {
      "inputs": [
        {
          "internalType": "address",
          "name": "owner",
          "type": "address"
        }
      ],
      "name": "balanceOf",
      "outputs": [
        {
          "internalType": "uint256",
          "name": "",
          "type": "uint256"
        }
      ],
      "stateMutability": "view",
      "type": "function"
    },
    {
      "inputs": [
        {
          "internalType": "address",
          "name": "_to",
          "type": "address"
        },
        {
          "internalType": "uint256",
          "name": "_tokenId",
          "type": "uint256"
        }
      ],
      "name": "buyNFT",
      "outputs": [
        {
          "internalType": "uint256",
          "name": "",
          "type": "uint256"
        }
      ],
      "stateMutability": "payable",
      "type": "function"
    },
    {
      "inputs": [],
      "name": "collectionURI",
      "outputs": [
        {
          "internalType": "string",
          "name": "",
          "type": "string"
        }
      ],
      "stateMutability": "view",
      "type": "function"
    },
    {
      "inputs": [],
      "name": "counter",
      "outputs": [
        {
          "internalType": "uint256",
          "name": "",
          "type": "uint256"
        }
      ],
      "stateMutability": "view",
      "type": "function"
    },
    {
      "inputs": [
        {
          "internalType": "address",
          "name": "_to",
          "type": "address"
        },
        {
          "internalType": "string",
          "name": "_tokenURI",
          "type": "string"
        }
      ],
      "name": "createNFT",
      "outputs": [
        {
          "internalType": "uint256",
          "name": "",
          "type": "uint256"
        }
      ],
      "stateMutability": "nonpayable",
      "type": "function"
    },
    {
      "inputs": [],
      "name": "getAllNFTInfo",
      "outputs": [
        {
          "components": [
            {
              "internalType": "uint256",
              "name": "id",
              "type": "uint256"
            },
            {
              "internalType": "uint256",
              "name": "price",
              "type": "uint256"
            },
            {
              "internalType": "string",
              "name": "uri",
              "type": "string"
            },
            {
              "internalType": "bool",
              "name": "isListed",
              "type": "bool"
            },
            {
              "internalType": "address",
              "name": "owner",
              "type": "address"
            }
          ],
          "internalType": "struct NFTCollection.NFTInfo[]",
          "name": "",
          "type": "tuple[]"
        }
      ],
      "stateMutability": "view",
      "type": "function"
    },
    {
      "inputs": [
        {
          "internalType": "uint256",
          "name": "tokenId",
          "type": "uint256"
        }
      ],
      "name": "getApproved",
      "outputs": [
        {
          "internalType": "address",
          "name": "",
          "type": "address"
        }
      ],
      "stateMutability": "view",
      "type": "function"
    },
    {
      "inputs": [
        {
          "internalType": "address",
          "name": "owner",
          "type": "address"
        },
        {
          "internalType": "address",
          "name": "operator",
          "type": "address"
        }
      ],
      "name": "isApprovedForAll",
      "outputs": [
        {
          "internalType": "bool",
          "name": "",
          "type": "bool"
        }
      ],
      "stateMutability": "view",
      "type": "function"
    },
    {
      "inputs": [
        {
          "internalType": "uint256",
          "name": "_tokenId",
          "type": "uint256"
        },
        {
          "internalType": "uint256",
          "name": "_newPrice",
          "type": "uint256"
        }
      ],
      "name": "listNFT",
      "outputs": [],
      "stateMutability": "nonpayable",
      "type": "function"
    },
    {
      "inputs": [],
      "name": "name",
      "outputs": [
        {
          "internalType": "string",
          "name": "",
          "type": "string"
        }
      ],
      "stateMutability": "view",
      "type": "function"
    },
    {
      "inputs": [
        {
          "internalType": "uint256",
          "name": "",
          "type": "uint256"
        }
      ],
      "name": "nfts",
      "outputs": [
        {
          "internalType": "uint256",
          "name": "id",
          "type": "uint256"
        },
        {
          "internalType": "uint256",
          "name": "price",
          "type": "uint256"
        },
        {
          "internalType": "string",
          "name": "uri",
          "type": "string"
        },
        {
          "internalType": "bool",
          "name": "isListed",
          "type": "bool"
        },
        {
          "internalType": "address",
          "name": "owner",
          "type": "address"
        }
      ],
      "stateMutability": "view",
      "type": "function"
    },
    {
      "inputs": [],
      "name": "owner",
      "outputs": [
        {
          "internalType": "address",
          "name": "",
          "type": "address"
        }
      ],
      "stateMutability": "view",
      "type": "function"
    },
    {
      "inputs": [
        {
          "internalType": "uint256",
          "name": "tokenId",
          "type": "uint256"
        }
      ],
      "name": "ownerOf",
      "outputs": [
        {
          "internalType": "address",
          "name": "",
          "type": "address"
        }
      ],
      "stateMutability": "view",
      "type": "function"
    },
    {
      "inputs": [
        {
          "internalType": "uint256",
          "name": "_tokenId",
          "type": "uint256"
        }
      ],
      "name": "removeListedNFT",
      "outputs": [],
      "stateMutability": "nonpayable",
      "type": "function"
    },
    {
      "inputs": [],
      "name": "renounceOwnership",
      "outputs": [],
      "stateMutability": "nonpayable",
      "type": "function"
    },
    {
      "inputs": [
        {
          "internalType": "address",
          "name": "from",
          "type": "address"
        },
        {
          "internalType": "address",
          "name": "to",
          "type": "address"
        },
        {
          "internalType": "uint256",
          "name": "tokenId",
          "type": "uint256"
        }
      ],
      "name": "safeTransferFrom",
      "outputs": [],
      "stateMutability": "nonpayable",
      "type": "function"
    },
    {
      "inputs": [
        {
          "internalType": "address",
          "name": "from",
          "type": "address"
        },
        {
          "internalType": "address",
          "name": "to",
          "type": "address"
        },
        {
          "internalType": "uint256",
          "name": "tokenId",
          "type": "uint256"
        },
        {
          "internalType": "bytes",
          "name": "data",
          "type": "bytes"
        }
      ],
      "name": "safeTransferFrom",
      "outputs": [],
      "stateMutability": "nonpayable",
      "type": "function"
    },
    {
      "inputs": [
        {
          "internalType": "address",
          "name": "operator",
          "type": "address"
        },
        {
          "internalType": "bool",
          "name": "approved",
          "type": "bool"
        }
      ],
      "name": "setApprovalForAll",
      "outputs": [],
      "stateMutability": "nonpayable",
      "type": "function"
    },
    {
      "inputs": [
        {
          "internalType": "bytes4",
          "name": "interfaceId",
          "type": "bytes4"
        }
      ],
      "name": "supportsInterface",
      "outputs": [
        {
          "internalType": "bool",
          "name": "",
          "type": "bool"
        }
      ],
      "stateMutability": "view",
      "type": "function"
    },
    {
      "inputs": [],
      "name": "symbol",
      "outputs": [
        {
          "internalType": "string",
          "name": "",
          "type": "string"
        }
      ],
      "stateMutability": "view",
      "type": "function"
    },
    {
      "inputs": [
        {
          "internalType": "uint256",
          "name": "tokenId",
          "type": "uint256"
        }
      ],
      "name": "tokenURI",
      "outputs": [
        {
          "internalType": "string",
          "name": "",
          "type": "string"
        }
      ],
      "stateMutability": "view",
      "type": "function"
    },
    {
      "inputs": [
        {
          "internalType": "address",
          "name": "from",
          "type": "address"
        },
        {
          "internalType": "address",
          "name": "to",
          "type": "address"
        },
        {
          "internalType": "uint256",
          "name": "tokenId",
          "type": "uint256"
        }
      ],
      "name": "transferFrom",
      "outputs": [],
      "stateMutability": "nonpayable",
      "type": "function"
    },
    {
      "inputs": [
        {
          "internalType": "address",
          "name": "_to",
          "type": "address"
        },
        {
          "internalType": "uint256",
          "name": "_tokenId",
          "type": "uint256"
        }
      ],
      "name": "transferNFT",
      "outputs": [],
      "stateMutability": "nonpayable",
      "type": "function"
    },
    {
      "inputs": [
        {
          "internalType": "address",
          "name": "newOwner",
          "type": "address"
        }
      ],
      "name": "transferOwnership",
      "outputs": [],
      "stateMutability": "nonpayable",
      "type": "function"
    }
  ],
  "bytecode": "0x608060405234801561001057600080fd5b506040516124c53803806124c583398101604081905261002f916101ac565b808484600061003e83826102eb565b50600161004b82826102eb565b5050506001600160a01b03811661007c57604051631e4fbdf760e01b81526000600482015260240160405180910390fd5b610085816100a1565b506001600855600961009783826102eb565b50505050506103a9565b600780546001600160a01b038381166001600160a01b0319831681179093556040519116919082907f8be0079c531659141344cd1fd0a4f28419497f9722a3daafe3b4186f6b6457e090600090a35050565b634e487b7160e01b600052604160045260246000fd5b600082601f83011261011a57600080fd5b81516001600160401b03811115610133576101336100f3565b604051601f8201601f19908116603f011681016001600160401b0381118282101715610161576101616100f3565b60405281815283820160200185101561017957600080fd5b60005b828110156101985760208186018101518383018201520161017c565b506000918101602001919091529392505050565b600080600080608085870312156101c257600080fd5b84516001600160401b038111156101d857600080fd5b6101e487828801610109565b602087015190955090506001600160401b0381111561020257600080fd5b61020e87828801610109565b604087015190945090506001600160401b0381111561022c57600080fd5b61023887828801610109565b606087015190935090506001600160a01b038116811461025757600080fd5b939692955090935050565b600181811c9082168061027657607f821691505b60208210810361029657634e487b7160e01b600052602260045260246000fd5b50919050565b601f8211156102e657806000526020600020601f840160051c810160208510156102c35750805b601f840160051c820191505b818110156102e357600081556001016102cf565b50505b505050565b81516001600160401b03811115610304576103046100f3565b610318816103128454610262565b8461029c565b6020601f82116001811461034c57600083156103345750848201515b600019600385901b1c1916600184901b1784556102e3565b600084815260208120601f198516915b8281101561037c578785015182556020948501946001909201910161035c565b508482101561039a5786840151600019600387901b60f8161c191681555b50505050600190811b01905550565b61210d806103b86000396000f3fe6080604052600436106101665760003560e01c80638da5cb5b116100d1578063a56140331161008a578063c097649e11610064578063c097649e14610421578063c87b56dd14610443578063e985e9c514610463578063f2fde38b1461048357600080fd5b8063a5614033146103ce578063a82ba76f146103ee578063b88d4fde1461040157600080fd5b80638da5cb5b1461032657806394383f141461034457806394ab67fe1461036457806395d89b4114610384578063a22cb46514610399578063a5097ebf146103b957600080fd5b8063265aa62111610123578063265aa6211461025c57806342842e0e1461028d57806361bc221a146102ad5780636352211e146102d157806370a08231146102f1578063715018a61461031157600080fd5b806301f3484c1461016b57806301ffc9a71461018d57806306fdde03146101c2578063081812fc146101e4578063095ea7b31461021c57806323b872dd1461023c575b600080fd5b34801561017757600080fd5b5061018b610186366004611a40565b6104a3565b005b34801561019957600080fd5b506101ad6101a8366004611a6f565b61054a565b60405190151581526020015b60405180910390f35b3480156101ce57600080fd5b506101d7610575565b6040516101b99190611adc565b3480156101f057600080fd5b506102046101ff366004611a40565b610607565b6040516001600160a01b0390911681526020016101b9565b34801561022857600080fd5b5061018b610237366004611b0b565b610630565b34801561024857600080fd5b5061018b610257366004611b35565b61063f565b34801561026857600080fd5b5061027c610277366004611a40565b6106ca565b6040516101b9959493929190611b72565b34801561029957600080fd5b5061018b6102a8366004611b35565b61078f565b3480156102b957600080fd5b506102c360085481565b6040519081526020016101b9565b3480156102dd57600080fd5b506102046102ec366004611a40565b6107af565b3480156102fd57600080fd5b506102c361030c366004611bb3565b6107ba565b34801561031d57600080fd5b5061018b610802565b34801561033257600080fd5b506007546001600160a01b0316610204565b34801561035057600080fd5b5061018b61035f366004611bce565b610816565b34801561037057600080fd5b5061018b61037f366004611b0b565b6108c5565b34801561039057600080fd5b506101d761099f565b3480156103a557600080fd5b5061018b6103b4366004611bf0565b6109ae565b3480156103c557600080fd5b506101d76109b9565b3480156103da57600080fd5b506102c36103e9366004611cbc565b610a47565b6102c36103fc366004611b0b565b610b62565b34801561040d57600080fd5b5061018b61041c366004611d1e565b610dc1565b34801561042d57600080fd5b50610436610dd8565b6040516101b99190611d9a565b34801561044f57600080fd5b506101d761045e366004611a40565b610f8b565b34801561046f57600080fd5b506101ad61047e366004611e3f565b61109c565b34801561048f57600080fd5b5061018b61049e366004611bb3565b6110ca565b336104ad826107af565b6001600160a01b031614806104cf57506104cf6104c9826107af565b3361109c565b6104f45760405162461bcd60e51b81526004016104eb90611e72565b60405180910390fd5b6000818152600a6020908152604091829020600301805460ff1916905581513381529081018390527f84f3cf51dfe6e1660feefcadf6502122f4a131a65cf722abfb1a84da7744a873910160405180910390a150565b60006001600160e01b03198216632483248360e11b148061056f575061056f82611108565b92915050565b60606000805461058490611ea7565b80601f01602080910402602001604051908101604052809291908181526020018280546105b090611ea7565b80156105fd5780601f106105d2576101008083540402835291602001916105fd565b820191906000526020600020905b8154815290600101906020018083116105e057829003601f168201915b5050505050905090565b600061061282611158565b506000828152600460205260409020546001600160a01b031661056f565b61063b828233611191565b5050565b6001600160a01b03821661066957604051633250574960e11b8152600060048201526024016104eb565b600061067683833361119e565b9050836001600160a01b0316816001600160a01b0316146106c4576040516364283d7b60e01b81526001600160a01b03808616600483015260248201849052821660448201526064016104eb565b50505050565b600a60205260009081526040902080546001820154600283018054929391926106f290611ea7565b80601f016020809104026020016040519081016040528092919081815260200182805461071e90611ea7565b801561076b5780601f106107405761010080835404028352916020019161076b565b820191906000526020600020905b81548152906001019060200180831161074e57829003601f168201915b5050506003909301549192505060ff8116906001600160a01b036101009091041685565b6107aa83838360405180602001604052806000815250610dc1565b505050565b600061056f82611158565b60006001600160a01b0382166107e6576040516322718ad960e21b8152600060048201526024016104eb565b506001600160a01b031660009081526003602052604090205490565b61080a611297565b61081460006112c4565b565b33610820836107af565b6001600160a01b0316148061083c575061083c6104c9836107af565b6108585760405162461bcd60e51b81526004016104eb90611e72565b6000828152600a602090815260409182902060018082018590556003909101805460ff1916909117905581513381529081018490529081018290527fbbf44e68296791df5535457da734bf1017c4b233a740af6d7a89b9f1af4ecb42906060015b60405180910390a15050565b336108cf826107af565b6001600160a01b031614806108eb57506108eb6104c9826107af565b6109075760405162461bcd60e51b81526004016104eb90611e72565b60008181526002602052604090205461092a906001600160a01b03168383611316565b6000818152600a602090815260409182902060030180546001600160a81b0319166101006001600160a01b03871690810260ff1916919091179091558251338152918201529081018290527ffd19e66d1a4315847e95661bab80aff36f6801c5b2eeeca82491034bd7660abe906060016108b9565b60606001805461058490611ea7565b61063b338383611331565b600980546109c690611ea7565b80601f01602080910402602001604051908101604052809291908181526020018280546109f290611ea7565b8015610a3f5780601f10610a1457610100808354040283529160200191610a3f565b820191906000526020600020905b815481529060010190602001808311610a2257829003601f168201915b505050505081565b6000610a51611297565b6008805460009182610a6283611edb565b919050559050610a7284826113d0565b610a7c81846113ea565b6040805160a08101825282815260006020808301828152838501888152606085018490526001600160a01b038a166080860152868452600a90925293909120825181559251600184015551909182916002820190610ada9082611f49565b506060820151600390910180546080909301516001600160a01b031661010002610100600160a81b0319921515929092166001600160a81b0319909316929092171790556040517f403f45e064e1472b925888509d0e5164b4642f3064c519d162e3b9261c204adc90610b5290879085908890612008565b60405180910390a1509392505050565b6000803411610bb35760405162461bcd60e51b815260206004820181905260248201527f416d6f756e74206d7573742062652067726561746572207468616e207a65726f60448201526064016104eb565b6000828152600a60205260409020600381015460ff16610c065760405162461bcd60e51b815260206004820152600e60248201526d139195081b9bdd081b1a5cdd195960921b60448201526064016104eb565b33610c10846107af565b6001600160a01b03161480610c2c5750610c2c6104c9846107af565b610c485760405162461bcd60e51b81526004016104eb90611e72565b80546000908152600260205260409020546001600160a01b03858116911603610ca35760405162461bcd60e51b815260206004820152600d60248201526c2cb7ba9030b9329037bbb732b960991b60448201526064016104eb565b8060010154341015610ceb5760405162461bcd60e51b8152602060048201526011602482015270082dadeeadce840dcdee840cadcdeeaced607b1b60448201526064016104eb565b8054610cf6906107af565b6001600160a01b03166108fc349081150290604051600060405180830381858888f19350505050158015610d2e573d6000803e3d6000fd5b50610d48610d3f82600001546107af565b82548690611316565b6003810180546001600160a81b0319166101006001600160a01b0387169081029190911790915581546001830154604080519384526020840192909252908201527f38bb180d23818aef357ad4b3806bac3fa13c3492c0ac9d1727381fb2422aaada9060600160405180910390a1600101549392505050565b610dcc84848461063f565b6106c484848484611433565b6060600060085467ffffffffffffffff811115610df757610df7611c2c565b604051908082528060200260200182016040528015610e6557816020015b610e526040518060a0016040528060008152602001600081526020016060815260200160001515815260200160006001600160a01b031681525090565b815260200190600190039081610e155790505b50905060015b600854811015610f8557600a60008281526020019081526020016000206040518060a00160405290816000820154815260200160018201548152602001600282018054610eb790611ea7565b80601f0160208091040260200160405190810160405280929190818152602001828054610ee390611ea7565b8015610f305780601f10610f0557610100808354040283529160200191610f30565b820191906000526020600020905b815481529060010190602001808311610f1357829003601f168201915b50505091835250506003919091015460ff81161515602083015261010090046001600160a01b03166040909101528251839083908110610f7257610f72612038565b6020908102919091010152600101610e6b565b50919050565b6060610f9682611158565b5060008281526006602052604081208054610fb090611ea7565b80601f0160208091040260200160405190810160405280929190818152602001828054610fdc90611ea7565b80156110295780601f10610ffe57610100808354040283529160200191611029565b820191906000526020600020905b81548152906001019060200180831161100c57829003601f168201915b50505050509050600061104760408051602081019091526000815290565b90508051600003611059575092915050565b81511561108b57808260405160200161107392919061204e565b60405160208183030381529060405292505050919050565b6110948461155c565b949350505050565b6001600160a01b03918216600090815260056020908152604080832093909416825291909152205460ff1690565b6110d2611297565b6001600160a01b0381166110fc57604051631e4fbdf760e01b8152600060048201526024016104eb565b611105816112c4565b50565b60006001600160e01b031982166380ac58cd60e01b148061113957506001600160e01b03198216635b5e139f60e01b145b8061056f57506301ffc9a760e01b6001600160e01b031983161461056f565b6000818152600260205260408120546001600160a01b03168061056f57604051637e27328960e01b8152600481018490526024016104eb565b6107aa83838360016115d1565b6000828152600260205260408120546001600160a01b03908116908316156111cb576111cb8184866116d7565b6001600160a01b03811615611209576111e86000856000806115d1565b6001600160a01b038116600090815260036020526040902080546000190190555b6001600160a01b03851615611238576001600160a01b0385166000908152600360205260409020805460010190555b60008481526002602052604080822080546001600160a01b0319166001600160a01b0389811691821790925591518793918516917fddf252ad1be2c89b69c2b068fc378daa952ba7f163c4a11628f55a4df523b3ef91a4949350505050565b6007546001600160a01b031633146108145760405163118cdaa760e01b81523360048201526024016104eb565b600780546001600160a01b038381166001600160a01b0319831681179093556040519116919082907f8be0079c531659141344cd1fd0a4f28419497f9722a3daafe3b4186f6b6457e090600090a35050565b6107aa8383836040518060200160405280600081525061173b565b6001600160a01b03821661136357604051630b61174360e31b81526001600160a01b03831660048201526024016104eb565b6001600160a01b03838116600081815260056020908152604080832094871680845294825291829020805460ff191686151590811790915591519182527f17307eab39ab6107e8899845ad3d59bd9653f200f220920489ca2b5937696c31910160405180910390a3505050565b61063b828260405180602001604052806000815250611746565b60008281526006602052604090206114028282611f49565b506040518281527ff8e1a15aba9398e019f0b49df1a4fde98ee17ae345cb5f6b5e2c27f5033e8ce7906020016108b9565b6001600160a01b0383163b156106c457604051630a85bd0160e11b81526001600160a01b0384169063150b7a029061147590339088908790879060040161207d565b6020604051808303816000875af19250505080156114b0575060408051601f3d908101601f191682019092526114ad918101906120ba565b60015b611519573d8080156114de576040519150601f19603f3d011682016040523d82523d6000602084013e6114e3565b606091505b50805160000361151157604051633250574960e11b81526001600160a01b03851660048201526024016104eb565b805181602001fd5b6001600160e01b03198116630a85bd0160e11b1461155557604051633250574960e11b81526001600160a01b03851660048201526024016104eb565b5050505050565b606061156782611158565b50600061157f60408051602081019091526000815290565b9050600081511161159f57604051806020016040528060008152506115ca565b806115a98461175d565b6040516020016115ba92919061204e565b6040516020818303038152906040525b9392505050565b80806115e557506001600160a01b03821615155b156116a75760006115f584611158565b90506001600160a01b038316158015906116215750826001600160a01b0316816001600160a01b031614155b80156116345750611632818461109c565b155b1561165d5760405163a9fbf51f60e01b81526001600160a01b03841660048201526024016104eb565b81156116a55783856001600160a01b0316826001600160a01b03167f8c5be1e5ebec7d5bd14f71427d1e84f3dd0314c0f7b2291e5b200ac8c7c3b92560405160405180910390a45b505b5050600090815260046020526040902080546001600160a01b0319166001600160a01b0392909216919091179055565b6116e28383836117f0565b6107aa576001600160a01b03831661171057604051637e27328960e01b8152600481018290526024016104eb565b60405163177e802f60e01b81526001600160a01b0383166004820152602481018290526044016104eb565b610dcc848484611853565b6117508383611903565b6107aa6000848484611433565b6060600061176a83611968565b600101905060008167ffffffffffffffff81111561178a5761178a611c2c565b6040519080825280601f01601f1916602001820160405280156117b4576020820181803683370190505b5090508181016020015b600019016f181899199a1a9b1b9c1cb0b131b232b360811b600a86061a8153600a85049450846117be57509392505050565b60006001600160a01b038316158015906110945750826001600160a01b0316846001600160a01b0316148061182a575061182a848461109c565b806110945750506000908152600460205260409020546001600160a01b03908116911614919050565b6001600160a01b03821661187d57604051633250574960e11b8152600060048201526024016104eb565b600061188b8383600061119e565b90506001600160a01b0381166118b757604051637e27328960e01b8152600481018390526024016104eb565b836001600160a01b0316816001600160a01b0316146106c4576040516364283d7b60e01b81526001600160a01b03808616600483015260248201849052821660448201526064016104eb565b6001600160a01b03821661192d57604051633250574960e11b8152600060048201526024016104eb565b600061193b8383600061119e565b90506001600160a01b038116156107aa576040516339e3563760e11b8152600060048201526024016104eb565b60008072184f03e93ff9f4daa797ed6e38ed64bf6a1f0160401b83106119a75772184f03e93ff9f4daa797ed6e38ed64bf6a1f0160401b830492506040015b6d04ee2d6d415b85acef810000000083106119d3576d04ee2d6d415b85acef8100000000830492506020015b662386f26fc1000083106119f157662386f26fc10000830492506010015b6305f5e1008310611a09576305f5e100830492506008015b6127108310611a1d57612710830492506004015b60648310611a2f576064830492506002015b600a831061056f5760010192915050565b600060208284031215611a5257600080fd5b5035919050565b6001600160e01b03198116811461110557600080fd5b600060208284031215611a8157600080fd5b81356115ca81611a59565b60005b83811015611aa7578181015183820152602001611a8f565b50506000910152565b60008151808452611ac8816020860160208601611a8c565b601f01601f19169290920160200192915050565b6020815260006115ca6020830184611ab0565b80356001600160a01b0381168114611b0657600080fd5b919050565b60008060408385031215611b1e57600080fd5b611b2783611aef565b946020939093013593505050565b600080600060608486031215611b4a57600080fd5b611b5384611aef565b9250611b6160208501611aef565b929592945050506040919091013590565b85815284602082015260a060408201526000611b9160a0830186611ab0565b9315156060830152506001600160a01b03919091166080909101529392505050565b600060208284031215611bc557600080fd5b6115ca82611aef565b60008060408385031215611be157600080fd5b50508035926020909101359150565b60008060408385031215611c0357600080fd5b611c0c83611aef565b915060208301358015158114611c2157600080fd5b809150509250929050565b634e487b7160e01b600052604160045260246000fd5b60008067ffffffffffffffff841115611c5d57611c5d611c2c565b50604051601f19601f85018116603f0116810181811067ffffffffffffffff82111715611c8c57611c8c611c2c565b604052838152905080828401851015611ca457600080fd5b83836020830137600060208583010152509392505050565b60008060408385031215611ccf57600080fd5b611cd883611aef565b9150602083013567ffffffffffffffff811115611cf457600080fd5b8301601f81018513611d0557600080fd5b611d1485823560208401611c42565b9150509250929050565b60008060008060808587031215611d3457600080fd5b611d3d85611aef565b9350611d4b60208601611aef565b925060408501359150606085013567ffffffffffffffff811115611d6e57600080fd5b8501601f81018713611d7f57600080fd5b611d8e87823560208401611c42565b91505092959194509250565b6000602082016020835280845180835260408501915060408160051b86010192506020860160005b82811015611e3357603f1987860301845281518051865260208101516020870152604081015160a06040880152611dfc60a0880182611ab0565b6060838101511515908901526080928301516001600160a01b03169290970191909152506020938401939190910190600101611dc2565b50929695505050505050565b60008060408385031215611e5257600080fd5b611e5b83611aef565b9150611e6960208401611aef565b90509250929050565b6020808252818101527f43616c6c6572206973206e6f74206f776e6572206e6f7220617070726f766564604082015260600190565b600181811c90821680611ebb57607f821691505b602082108103610f8557634e487b7160e01b600052602260045260246000fd5b600060018201611efb57634e487b7160e01b600052601160045260246000fd5b5060010190565b601f8211156107aa57806000526020600020601f840160051c81016020851015611f295750805b601f840160051c820191505b818110156115555760008155600101611f35565b815167ffffffffffffffff811115611f6357611f63611c2c565b611f7781611f718454611ea7565b84611f02565b6020601f821160018114611fab5760008315611f935750848201515b600019600385901b1c1916600184901b178455611555565b600084815260208120601f198516915b82811015611fdb5787850151825560209485019460019092019101611fbb565b5084821015611ff95786840151600019600387901b60f8161c191681555b50505050600190811b01905550565b60018060a01b038416815282602082015260606040820152600061202f6060830184611ab0565b95945050505050565b634e487b7160e01b600052603260045260246000fd5b60008351612060818460208801611a8c565b835190830190612074818360208801611a8c565b01949350505050565b6001600160a01b03858116825284166020820152604081018390526080606082018190526000906120b090830184611ab0565b9695505050505050565b6000602082840312156120cc57600080fd5b81516115ca81611a5956fea26469706673582212208663a852a5d0359f6f8ae6e82c974a6f8473bb5961a2f1117e9727d25270b50864736f6c634300081b0033",
  "linkReferences": {},
  "deployedLinkReferences": {}
}