{
  "_format": "hh-sol-artifact-1",
  "contractName": "NFTCollection",
  "sourceName": "contracts/NFTCollection.sol",
  "abi": [
    {
      "inputs": [
        {
          "internalType": "string",
          "name": "_name",
          "type": "string"
        },
        {
          "internalType": "string",
          "name": "_symbol",
          "type": "string"
        },
        {
          "internalType": "address",
          "name": "_initialOwner",
          "type": "address"
        }
      ],
      "stateMutability": "nonpayable",
      "type": "constructor"
    },
    {
      "inputs": [
        {
          "internalType": "address",
          "name": "sender",
          "type": "address"
        },
        {
          "internalType": "uint256",
          "name": "tokenId",
          "type": "uint256"
        },
        {
          "internalType": "address",
          "name": "owner",
          "type": "address"
        }
      ],
      "name": "ERC721IncorrectOwner",
      "type": "error"
    },
    {
      "inputs": [
        {
          "internalType": "address",
          "name": "operator",
          "type": "address"
        },
        {
          "internalType": "uint256",
          "name": "tokenId",
          "type": "uint256"
        }
      ],
      "name": "ERC721InsufficientApproval",
      "type": "error"
    },
    {
      "inputs": [
        {
          "internalType": "address",
          "name": "approver",
          "type": "address"
        }
      ],
      "name": "ERC721InvalidApprover",
      "type": "error"
    },
    {
      "inputs": [
        {
          "internalType": "address",
          "name": "operator",
          "type": "address"
        }
      ],
      "name": "ERC721InvalidOperator",
      "type": "error"
    },
    {
      "inputs": [
        {
          "internalType": "address",
          "name": "owner",
          "type": "address"
        }
      ],
      "name": "ERC721InvalidOwner",
      "type": "error"
    },
    {
      "inputs": [
        {
          "internalType": "address",
          "name": "receiver",
          "type": "address"
        }
      ],
      "name": "ERC721InvalidReceiver",
      "type": "error"
    },
    {
      "inputs": [
        {
          "internalType": "address",
          "name": "sender",
          "type": "address"
        }
      ],
      "name": "ERC721InvalidSender",
      "type": "error"
    },
    {
      "inputs": [
        {
          "internalType": "uint256",
          "name": "tokenId",
          "type": "uint256"
        }
      ],
      "name": "ERC721NonexistentToken",
      "type": "error"
    },
    {
      "inputs": [
        {
          "internalType": "address",
          "name": "owner",
          "type": "address"
        }
      ],
      "name": "OwnableInvalidOwner",
      "type": "error"
    },
    {
      "inputs": [
        {
          "internalType": "address",
          "name": "account",
          "type": "address"
        }
      ],
      "name": "OwnableUnauthorizedAccount",
      "type": "error"
    },
    {
      "anonymous": false,
      "inputs": [
        {
          "indexed": true,
          "internalType": "address",
          "name": "owner",
          "type": "address"
        },
        {
          "indexed": true,
          "internalType": "address",
          "name": "approved",
          "type": "address"
        },
        {
          "indexed": true,
          "internalType": "uint256",
          "name": "tokenId",
          "type": "uint256"
        }
      ],
      "name": "Approval",
      "type": "event"
    },
    {
      "anonymous": false,
      "inputs": [
        {
          "indexed": true,
          "internalType": "address",
          "name": "owner",
          "type": "address"
        },
        {
          "indexed": true,
          "internalType": "address",
          "name": "operator",
          "type": "address"
        },
        {
          "indexed": false,
          "internalType": "bool",
          "name": "approved",
          "type": "bool"
        }
      ],
      "name": "ApprovalForAll",
      "type": "event"
    },
    {
      "anonymous": false,
      "inputs": [
        {
          "indexed": false,
          "internalType": "uint256",
          "name": "_fromTokenId",
          "type": "uint256"
        },
        {
          "indexed": false,
          "internalType": "uint256",
          "name": "_toTokenId",
          "type": "uint256"
        }
      ],
      "name": "BatchMetadataUpdate",
      "type": "event"
    },
    {
      "anonymous": false,
      "inputs": [
        {
          "indexed": false,
          "internalType": "uint256",
          "name": "_tokenId",
          "type": "uint256"
        }
      ],
      "name": "MetadataUpdate",
      "type": "event"
    },
    {
      "anonymous": false,
      "inputs": [
        {
          "indexed": false,
          "internalType": "address",
          "name": "buyer",
          "type": "address"
        },
        {
          "indexed": false,
          "internalType": "uint256",
          "name": "tokenId",
          "type": "uint256"
        },
        {
          "indexed": false,
          "internalType": "uint256",
          "name": "price",
          "type": "uint256"
        }
      ],
      "name": "NFTBought",
      "type": "event"
    },
    {
      "anonymous": false,
      "inputs": [
        {
          "indexed": false,
          "internalType": "address",
          "name": "to",
          "type": "address"
        },
        {
          "indexed": false,
          "internalType": "uint256",
          "name": "tokenId",
          "type": "uint256"
        },
        {
          "indexed": false,
          "internalType": "string",
          "name": "tokenURI",
          "type": "string"
        }
      ],
      "name": "NFTCreated",
      "type": "event"
    },
    {
      "anonymous": false,
      "inputs": [
        {
          "indexed": false,
          "internalType": "uint256",
          "name": "tokenId",
          "type": "uint256"
        },
        {
          "indexed": false,
          "internalType": "uint256",
          "name": "price",
          "type": "uint256"
        }
      ],
      "name": "NFTListed",
      "type": "event"
    },
    {
      "anonymous": false,
      "inputs": [
        {
          "indexed": false,
          "internalType": "address",
          "name": "owner",
          "type": "address"
        },
        {
          "indexed": false,
          "internalType": "uint256",
          "name": "tokenId",
          "type": "uint256"
        }
      ],
      "name": "NFTListedRemove",
      "type": "event"
    },
    {
      "anonymous": false,
      "inputs": [
        {
          "indexed": false,
          "internalType": "address",
          "name": "receiver",
          "type": "address"
        },
        {
          "indexed": false,
          "internalType": "uint256",
          "name": "nftId",
          "type": "uint256"
        }
      ],
      "name": "NFTTransfer",
      "type": "event"
    },
    {
      "anonymous": false,
      "inputs": [
        {
          "indexed": true,
          "internalType": "address",
          "name": "previousOwner",
          "type": "address"
        },
        {
          "indexed": true,
          "internalType": "address",
          "name": "newOwner",
          "type": "address"
        }
      ],
      "name": "OwnershipTransferred",
      "type": "event"
    },
    {
      "anonymous": false,
      "inputs": [
        {
          "indexed": true,
          "internalType": "address",
          "name": "from",
          "type": "address"
        },
        {
          "indexed": true,
          "internalType": "address",
          "name": "to",
          "type": "address"
        },
        {
          "indexed": true,
          "internalType": "uint256",
          "name": "tokenId",
          "type": "uint256"
        }
      ],
      "name": "Transfer",
      "type": "event"
    },
    {
      "inputs": [
        {
          "internalType": "address",
          "name": "to",
          "type": "address"
        },
        {
          "internalType": "uint256",
          "name": "tokenId",
          "type": "uint256"
        }
      ],
      "name": "approve",
      "outputs": [],
      "stateMutability": "nonpayable",
      "type": "function"
    },
    {
      "inputs": [
        {
          "internalType": "address",
          "name": "owner",
          "type": "address"
        }
      ],
      "name": "balanceOf",
      "outputs": [
        {
          "internalType": "uint256",
          "name": "",
          "type": "uint256"
        }
      ],
      "stateMutability": "view",
      "type": "function"
    },
    {
      "inputs": [
        {
          "internalType": "uint256",
          "name": "_tokenId",
          "type": "uint256"
        }
      ],
      "name": "buyNFT",
      "outputs": [],
      "stateMutability": "payable",
      "type": "function"
    },
    {
      "inputs": [],
      "name": "counter",
      "outputs": [
        {
          "internalType": "uint256",
          "name": "",
          "type": "uint256"
        }
      ],
      "stateMutability": "view",
      "type": "function"
    },
    {
      "inputs": [
        {
          "internalType": "address",
          "name": "_to",
          "type": "address"
        },
        {
          "internalType": "string",
          "name": "_tokenURI",
          "type": "string"
        }
      ],
      "name": "createNFT",
      "outputs": [],
      "stateMutability": "nonpayable",
      "type": "function"
    },
    {
      "inputs": [],
      "name": "getAllNFTInfo",
      "outputs": [
        {
          "components": [
            {
              "internalType": "uint256",
              "name": "id",
              "type": "uint256"
            },
            {
              "internalType": "uint256",
              "name": "price",
              "type": "uint256"
            },
            {
              "internalType": "string",
              "name": "uri",
              "type": "string"
            },
            {
              "internalType": "bool",
              "name": "isListed",
              "type": "bool"
            },
            {
              "internalType": "address",
              "name": "owner",
              "type": "address"
            }
          ],
          "internalType": "struct NFTCollection.NFTInfo[]",
          "name": "",
          "type": "tuple[]"
        }
      ],
      "stateMutability": "view",
      "type": "function"
    },
    {
      "inputs": [
        {
          "internalType": "uint256",
          "name": "tokenId",
          "type": "uint256"
        }
      ],
      "name": "getApproved",
      "outputs": [
        {
          "internalType": "address",
          "name": "",
          "type": "address"
        }
      ],
      "stateMutability": "view",
      "type": "function"
    },
    {
      "inputs": [
        {
          "internalType": "address",
          "name": "owner",
          "type": "address"
        },
        {
          "internalType": "address",
          "name": "operator",
          "type": "address"
        }
      ],
      "name": "isApprovedForAll",
      "outputs": [
        {
          "internalType": "bool",
          "name": "",
          "type": "bool"
        }
      ],
      "stateMutability": "view",
      "type": "function"
    },
    {
      "inputs": [
        {
          "internalType": "uint256",
          "name": "_tokenId",
          "type": "uint256"
        },
        {
          "internalType": "uint256",
          "name": "_newPrice",
          "type": "uint256"
        }
      ],
      "name": "listNFT",
      "outputs": [],
      "stateMutability": "nonpayable",
      "type": "function"
    },
    {
      "inputs": [],
      "name": "name",
      "outputs": [
        {
          "internalType": "string",
          "name": "",
          "type": "string"
        }
      ],
      "stateMutability": "view",
      "type": "function"
    },
    {
      "inputs": [
        {
          "internalType": "uint256",
          "name": "",
          "type": "uint256"
        }
      ],
      "name": "nfts",
      "outputs": [
        {
          "internalType": "uint256",
          "name": "id",
          "type": "uint256"
        },
        {
          "internalType": "uint256",
          "name": "price",
          "type": "uint256"
        },
        {
          "internalType": "string",
          "name": "uri",
          "type": "string"
        },
        {
          "internalType": "bool",
          "name": "isListed",
          "type": "bool"
        },
        {
          "internalType": "address",
          "name": "owner",
          "type": "address"
        }
      ],
      "stateMutability": "view",
      "type": "function"
    },
    {
      "inputs": [],
      "name": "owner",
      "outputs": [
        {
          "internalType": "address",
          "name": "",
          "type": "address"
        }
      ],
      "stateMutability": "view",
      "type": "function"
    },
    {
      "inputs": [
        {
          "internalType": "uint256",
          "name": "tokenId",
          "type": "uint256"
        }
      ],
      "name": "ownerOf",
      "outputs": [
        {
          "internalType": "address",
          "name": "",
          "type": "address"
        }
      ],
      "stateMutability": "view",
      "type": "function"
    },
    {
      "inputs": [
        {
          "internalType": "uint256",
          "name": "_tokenId",
          "type": "uint256"
        }
      ],
      "name": "removeListedNFT",
      "outputs": [],
      "stateMutability": "nonpayable",
      "type": "function"
    },
    {
      "inputs": [],
      "name": "renounceOwnership",
      "outputs": [],
      "stateMutability": "nonpayable",
      "type": "function"
    },
    {
      "inputs": [
        {
          "internalType": "address",
          "name": "from",
          "type": "address"
        },
        {
          "internalType": "address",
          "name": "to",
          "type": "address"
        },
        {
          "internalType": "uint256",
          "name": "tokenId",
          "type": "uint256"
        }
      ],
      "name": "safeTransferFrom",
      "outputs": [],
      "stateMutability": "nonpayable",
      "type": "function"
    },
    {
      "inputs": [
        {
          "internalType": "address",
          "name": "from",
          "type": "address"
        },
        {
          "internalType": "address",
          "name": "to",
          "type": "address"
        },
        {
          "internalType": "uint256",
          "name": "tokenId",
          "type": "uint256"
        },
        {
          "internalType": "bytes",
          "name": "data",
          "type": "bytes"
        }
      ],
      "name": "safeTransferFrom",
      "outputs": [],
      "stateMutability": "nonpayable",
      "type": "function"
    },
    {
      "inputs": [
        {
          "internalType": "address",
          "name": "operator",
          "type": "address"
        },
        {
          "internalType": "bool",
          "name": "approved",
          "type": "bool"
        }
      ],
      "name": "setApprovalForAll",
      "outputs": [],
      "stateMutability": "nonpayable",
      "type": "function"
    },
    {
      "inputs": [
        {
          "internalType": "bytes4",
          "name": "interfaceId",
          "type": "bytes4"
        }
      ],
      "name": "supportsInterface",
      "outputs": [
        {
          "internalType": "bool",
          "name": "",
          "type": "bool"
        }
      ],
      "stateMutability": "view",
      "type": "function"
    },
    {
      "inputs": [],
      "name": "symbol",
      "outputs": [
        {
          "internalType": "string",
          "name": "",
          "type": "string"
        }
      ],
      "stateMutability": "view",
      "type": "function"
    },
    {
      "inputs": [
        {
          "internalType": "uint256",
          "name": "tokenId",
          "type": "uint256"
        }
      ],
      "name": "tokenURI",
      "outputs": [
        {
          "internalType": "string",
          "name": "",
          "type": "string"
        }
      ],
      "stateMutability": "view",
      "type": "function"
    },
    {
      "inputs": [
        {
          "internalType": "address",
          "name": "from",
          "type": "address"
        },
        {
          "internalType": "address",
          "name": "to",
          "type": "address"
        },
        {
          "internalType": "uint256",
          "name": "tokenId",
          "type": "uint256"
        }
      ],
      "name": "transferFrom",
      "outputs": [],
      "stateMutability": "nonpayable",
      "type": "function"
    },
    {
      "inputs": [
        {
          "internalType": "address",
          "name": "_to",
          "type": "address"
        },
        {
          "internalType": "uint256",
          "name": "_tokenId",
          "type": "uint256"
        }
      ],
      "name": "transferNFT",
      "outputs": [],
      "stateMutability": "nonpayable",
      "type": "function"
    },
    {
      "inputs": [
        {
          "internalType": "address",
          "name": "newOwner",
          "type": "address"
        }
      ],
      "name": "transferOwnership",
      "outputs": [],
      "stateMutability": "nonpayable",
      "type": "function"
    }
  ],
  "bytecode": "0x608060405234801561001057600080fd5b506040516123fa3803806123fa83398101604081905261002f9161019f565b808383600061003e83826102b3565b50600161004b82826102b3565b5050506001600160a01b03811661007c57604051631e4fbdf760e01b81526000600482015260240160405180910390fd5b61008581610094565b50506001600855506103719050565b600780546001600160a01b038381166001600160a01b0319831681179093556040519116919082907f8be0079c531659141344cd1fd0a4f28419497f9722a3daafe3b4186f6b6457e090600090a35050565b634e487b7160e01b600052604160045260246000fd5b600082601f83011261010d57600080fd5b81516001600160401b03811115610126576101266100e6565b604051601f8201601f19908116603f011681016001600160401b0381118282101715610154576101546100e6565b60405281815283820160200185101561016c57600080fd5b60005b8281101561018b5760208186018101518383018201520161016f565b506000918101602001919091529392505050565b6000806000606084860312156101b457600080fd5b83516001600160401b038111156101ca57600080fd5b6101d6868287016100fc565b602086015190945090506001600160401b038111156101f457600080fd5b610200868287016100fc565b604086015190935090506001600160a01b038116811461021f57600080fd5b809150509250925092565b600181811c9082168061023e57607f821691505b60208210810361025e57634e487b7160e01b600052602260045260246000fd5b50919050565b601f8211156102ae57806000526020600020601f840160051c8101602085101561028b5750805b601f840160051c820191505b818110156102ab5760008155600101610297565b50505b505050565b81516001600160401b038111156102cc576102cc6100e6565b6102e0816102da845461022a565b84610264565b6020601f82116001811461031457600083156102fc5750848201515b600019600385901b1c1916600184901b1784556102ab565b600084815260208120601f198516915b828110156103445787850151825560209485019460019092019101610324565b50848210156103625786840151600019600387901b60f8161c191681555b50505050600190811b01905550565b61207a806103806000396000f3fe60806040526004361061014b5760003560e01c8063715018a6116100b6578063a56140331161006f578063a5614033146103b1578063b88d4fde146103d1578063c097649e146103f1578063c87b56dd14610413578063e985e9c514610433578063f2fde38b1461045357600080fd5b8063715018a6146103095780638da5cb5b1461031e57806394383f141461033c57806394ab67fe1461035c57806395d89b411461037c578063a22cb4651461039157600080fd5b8063265aa62111610108578063265aa6211461024157806342842e0e1461027257806351ed82881461029257806361bc221a146102a55780636352211e146102c957806370a08231146102e957600080fd5b806301f3484c1461015057806301ffc9a71461017257806306fdde03146101a7578063081812fc146101c9578063095ea7b31461020157806323b872dd14610221575b600080fd5b34801561015c57600080fd5b5061017061016b3660046119b7565b610473565b005b34801561017e57600080fd5b5061019261018d3660046119e6565b610502565b60405190151581526020015b60405180910390f35b3480156101b357600080fd5b506101bc61052d565b60405161019e9190611a53565b3480156101d557600080fd5b506101e96101e43660046119b7565b6105bf565b6040516001600160a01b03909116815260200161019e565b34801561020d57600080fd5b5061017061021c366004611a82565b6105e8565b34801561022d57600080fd5b5061017061023c366004611aac565b6105f7565b34801561024d57600080fd5b5061026161025c3660046119b7565b610682565b60405161019e959493929190611ae9565b34801561027e57600080fd5b5061017061028d366004611aac565b610747565b6101706102a03660046119b7565b610767565b3480156102b157600080fd5b506102bb60085481565b60405190815260200161019e565b3480156102d557600080fd5b506101e96102e43660046119b7565b6109cd565b3480156102f557600080fd5b506102bb610304366004611b2a565b6109d8565b34801561031557600080fd5b50610170610a20565b34801561032a57600080fd5b506007546001600160a01b03166101e9565b34801561034857600080fd5b50610170610357366004611b45565b610a34565b34801561036857600080fd5b50610170610377366004611a82565b610acb565b34801561038857600080fd5b506101bc610bf2565b34801561039d57600080fd5b506101706103ac366004611b67565b610c01565b3480156103bd57600080fd5b506101706103cc366004611c33565b610c0c565b3480156103dd57600080fd5b506101706103ec366004611c95565b610d23565b3480156103fd57600080fd5b50610406610d3a565b60405161019e9190611d11565b34801561041f57600080fd5b506101bc61042e3660046119b7565b610eed565b34801561043f57600080fd5b5061019261044e366004611db6565b610ffe565b34801561045f57600080fd5b5061017061046e366004611b2a565b61102c565b3361047d8261106a565b6001600160a01b0316146104ac5760405162461bcd60e51b81526004016104a390611de9565b60405180910390fd5b600081815260096020908152604091829020600301805460ff1916905581513381529081018390527f84f3cf51dfe6e1660feefcadf6502122f4a131a65cf722abfb1a84da7744a873910160405180910390a150565b60006001600160e01b03198216632483248360e11b1480610527575061052782611085565b92915050565b60606000805461053c90611e14565b80601f016020809104026020016040519081016040528092919081815260200182805461056890611e14565b80156105b55780601f1061058a576101008083540402835291602001916105b5565b820191906000526020600020905b81548152906001019060200180831161059857829003601f168201915b5050505050905090565b60006105ca826110d5565b506000828152600460205260409020546001600160a01b0316610527565b6105f382823361110d565b5050565b6001600160a01b03821661062157604051633250574960e11b8152600060048201526024016104a3565b600061062e83833361111a565b9050836001600160a01b0316816001600160a01b03161461067c576040516364283d7b60e01b81526001600160a01b03808616600483015260248201849052821660448201526064016104a3565b50505050565b600960205260009081526040902080546001820154600283018054929391926106aa90611e14565b80601f01602080910402602001604051908101604052809291908181526020018280546106d690611e14565b80156107235780601f106106f857610100808354040283529160200191610723565b820191906000526020600020905b81548152906001019060200180831161070657829003601f168201915b5050506003909301549192505060ff8116906001600160a01b036101009091041685565b61076283838360405180602001604052806000815250610d23565b505050565b600034116107b75760405162461bcd60e51b815260206004820181905260248201527f416d6f756e74206d7573742062652067726561746572207468616e207a65726f60448201526064016104a3565b6000818152600960205260409020600381015460ff1661080a5760405162461bcd60e51b815260206004820152600e60248201526d139195081b9bdd081b1a5cdd195960921b60448201526064016104a3565b61082361081a826000015461106a565b8254309061120e565b61086b5760405162461bcd60e51b8152602060048201526019602482015278151a19481d1bdad95b881a5cc81b9bdd08185c1c1c9bdd9959603a1b60448201526064016104a3565b805433906108789061106a565b6001600160a01b0316036108be5760405162461bcd60e51b815260206004820152600d60248201526c2cb7ba9030b9329037bbb732b960991b60448201526064016104a3565b80600101543410156109065760405162461bcd60e51b8152602060048201526011602482015270082dadeeadce840dcdee840cadcdeeaced607b1b60448201526064016104a3565b8054610911906109cd565b6001600160a01b03166108fc349081150290604051600060405180830381858888f19350505050158015610949573d6000803e3d6000fd5b5061096361095a82600001546109cd565b82543390611271565b6003810180546001600160a81b031916610100339081029190911790915581546001830154604080519384526020840192909252908201527f38bb180d23818aef357ad4b3806bac3fa13c3492c0ac9d1727381fb2422aaada906060015b60405180910390a15050565b6000610527826110d5565b60006001600160a01b038216610a04576040516322718ad960e21b8152600060048201526024016104a3565b506001600160a01b031660009081526003602052604090205490565b610a2861128c565b610a3260006112b9565b565b33610a3e8361106a565b6001600160a01b031614610a645760405162461bcd60e51b81526004016104a390611de9565b610a6e30836105e8565b60008281526009602090815260409182902060018082018590556003909101805460ff1916909117905581518481529081018390527fa6cd73580a273eec6c1026108f6b63479fbaef5356dde4ff43e4b38dd187485f91016109c1565b33610ad58261106a565b6001600160a01b031614610afb5760405162461bcd60e51b81526004016104a390611de9565b610b0e610b078261106a565b308361120e565b610b1c57610b1c30826105e8565b610b28610b078261106a565b610b705760405162461bcd60e51b8152602060048201526019602482015278151a19481d1bdad95b881a5cc81b9bdd08185c1c1c9bdd9959603a1b60448201526064016104a3565b610b83610b7c8261106a565b8383611271565b60008181526009602090815260409182902060030180546001600160a81b0319166101006001600160a01b03871690810260ff19169190911790915582519081529081018390527f4beb284ded570f9274d681f37b987c82fe53628d20969d02cd65f72453d3f79c91016109c1565b60606001805461053c90611e14565b6105f333838361130b565b610c1461128c565b6008805460009182610c2583611e48565b919050559050610c3583826113aa565b610c3f81836113c4565b6040805160a08101825282815260006020808301828152838501878152606085018490526001600160a01b0389166080860152868452600990925293909120825181559251600184015551909182916002820190610c9d9082611eb6565b506060820151600390910180546080909301516001600160a01b031661010002610100600160a81b0319921515929092166001600160a81b0319909316929092171790556040517f403f45e064e1472b925888509d0e5164b4642f3064c519d162e3b9261c204adc90610d1590869085908790611f75565b60405180910390a150505050565b610d2e8484846105f7565b61067c8484848461140d565b6060600060085467ffffffffffffffff811115610d5957610d59611ba3565b604051908082528060200260200182016040528015610dc757816020015b610db46040518060a0016040528060008152602001600081526020016060815260200160001515815260200160006001600160a01b031681525090565b815260200190600190039081610d775790505b50905060015b600854811015610ee757600960008281526020019081526020016000206040518060a00160405290816000820154815260200160018201548152602001600282018054610e1990611e14565b80601f0160208091040260200160405190810160405280929190818152602001828054610e4590611e14565b8015610e925780601f10610e6757610100808354040283529160200191610e92565b820191906000526020600020905b815481529060010190602001808311610e7557829003601f168201915b50505091835250506003919091015460ff81161515602083015261010090046001600160a01b03166040909101528251839083908110610ed457610ed4611fa5565b6020908102919091010152600101610dcd565b50919050565b6060610ef8826110d5565b5060008281526006602052604081208054610f1290611e14565b80601f0160208091040260200160405190810160405280929190818152602001828054610f3e90611e14565b8015610f8b5780601f10610f6057610100808354040283529160200191610f8b565b820191906000526020600020905b815481529060010190602001808311610f6e57829003601f168201915b505050505090506000610fa960408051602081019091526000815290565b90508051600003610fbb575092915050565b815115610fed578082604051602001610fd5929190611fbb565b60405160208183030381529060405292505050919050565b610ff684611536565b949350505050565b6001600160a01b03918216600090815260056020908152604080832093909416825291909152205460ff1690565b61103461128c565b6001600160a01b03811661105e57604051631e4fbdf760e01b8152600060048201526024016104a3565b611067816112b9565b50565b6000908152600260205260409020546001600160a01b031690565b60006001600160e01b031982166380ac58cd60e01b14806110b657506001600160e01b03198216635b5e139f60e01b145b8061052757506301ffc9a760e01b6001600160e01b0319831614610527565b6000806110e18361106a565b90506001600160a01b03811661052757604051637e27328960e01b8152600481018490526024016104a3565b61076283838360016115ab565b6000806111268461106a565b90506001600160a01b03831615611142576111428184866116b1565b6001600160a01b038116156111805761115f6000856000806115ab565b6001600160a01b038116600090815260036020526040902080546000190190555b6001600160a01b038516156111af576001600160a01b0385166000908152600360205260409020805460010190555b60008481526002602052604080822080546001600160a01b0319166001600160a01b0389811691821790925591518793918516917fddf252ad1be2c89b69c2b068fc378daa952ba7f163c4a11628f55a4df523b3ef91a4949350505050565b60006001600160a01b03831615801590610ff65750826001600160a01b0316846001600160a01b0316148061124857506112488484610ffe565b80610ff65750506000908152600460205260409020546001600160a01b03908116911614919050565b61076283838360405180602001604052806000815250611715565b6007546001600160a01b03163314610a325760405163118cdaa760e01b81523360048201526024016104a3565b600780546001600160a01b038381166001600160a01b0319831681179093556040519116919082907f8be0079c531659141344cd1fd0a4f28419497f9722a3daafe3b4186f6b6457e090600090a35050565b6001600160a01b03821661133d57604051630b61174360e31b81526001600160a01b03831660048201526024016104a3565b6001600160a01b03838116600081815260056020908152604080832094871680845294825291829020805460ff191686151590811790915591519182527f17307eab39ab6107e8899845ad3d59bd9653f200f220920489ca2b5937696c31910160405180910390a3505050565b6105f3828260405180602001604052806000815250611720565b60008281526006602052604090206113dc8282611eb6565b506040518281527ff8e1a15aba9398e019f0b49df1a4fde98ee17ae345cb5f6b5e2c27f5033e8ce7906020016109c1565b6001600160a01b0383163b1561067c57604051630a85bd0160e11b81526001600160a01b0384169063150b7a029061144f903390889087908790600401611fea565b6020604051808303816000875af192505050801561148a575060408051601f3d908101601f1916820190925261148791810190612027565b60015b6114f3573d8080156114b8576040519150601f19603f3d011682016040523d82523d6000602084013e6114bd565b606091505b5080516000036114eb57604051633250574960e11b81526001600160a01b03851660048201526024016104a3565b805181602001fd5b6001600160e01b03198116630a85bd0160e11b1461152f57604051633250574960e11b81526001600160a01b03851660048201526024016104a3565b5050505050565b6060611541826110d5565b50600061155960408051602081019091526000815290565b9050600081511161157957604051806020016040528060008152506115a4565b8061158384611737565b604051602001611594929190611fbb565b6040516020818303038152906040525b9392505050565b80806115bf57506001600160a01b03821615155b156116815760006115cf846110d5565b90506001600160a01b038316158015906115fb5750826001600160a01b0316816001600160a01b031614155b801561160e575061160c8184610ffe565b155b156116375760405163a9fbf51f60e01b81526001600160a01b03841660048201526024016104a3565b811561167f5783856001600160a01b0316826001600160a01b03167f8c5be1e5ebec7d5bd14f71427d1e84f3dd0314c0f7b2291e5b200ac8c7c3b92560405160405180910390a45b505b5050600090815260046020526040902080546001600160a01b0319166001600160a01b0392909216919091179055565b6116bc83838361120e565b610762576001600160a01b0383166116ea57604051637e27328960e01b8152600481018290526024016104a3565b60405163177e802f60e01b81526001600160a01b0383166004820152602481018290526044016104a3565b610d2e8484846117ca565b61172a838361187a565b610762600084848461140d565b60606000611744836118df565b600101905060008167ffffffffffffffff81111561176457611764611ba3565b6040519080825280601f01601f19166020018201604052801561178e576020820181803683370190505b5090508181016020015b600019016f181899199a1a9b1b9c1cb0b131b232b360811b600a86061a8153600a850494508461179857509392505050565b6001600160a01b0382166117f457604051633250574960e11b8152600060048201526024016104a3565b60006118028383600061111a565b90506001600160a01b03811661182e57604051637e27328960e01b8152600481018390526024016104a3565b836001600160a01b0316816001600160a01b03161461067c576040516364283d7b60e01b81526001600160a01b03808616600483015260248201849052821660448201526064016104a3565b6001600160a01b0382166118a457604051633250574960e11b8152600060048201526024016104a3565b60006118b28383600061111a565b90506001600160a01b03811615610762576040516339e3563760e11b8152600060048201526024016104a3565b60008072184f03e93ff9f4daa797ed6e38ed64bf6a1f0160401b831061191e5772184f03e93ff9f4daa797ed6e38ed64bf6a1f0160401b830492506040015b6d04ee2d6d415b85acef8100000000831061194a576d04ee2d6d415b85acef8100000000830492506020015b662386f26fc10000831061196857662386f26fc10000830492506010015b6305f5e1008310611980576305f5e100830492506008015b612710831061199457612710830492506004015b606483106119a6576064830492506002015b600a83106105275760010192915050565b6000602082840312156119c957600080fd5b5035919050565b6001600160e01b03198116811461106757600080fd5b6000602082840312156119f857600080fd5b81356115a4816119d0565b60005b83811015611a1e578181015183820152602001611a06565b50506000910152565b60008151808452611a3f816020860160208601611a03565b601f01601f19169290920160200192915050565b6020815260006115a46020830184611a27565b80356001600160a01b0381168114611a7d57600080fd5b919050565b60008060408385031215611a9557600080fd5b611a9e83611a66565b946020939093013593505050565b600080600060608486031215611ac157600080fd5b611aca84611a66565b9250611ad860208501611a66565b929592945050506040919091013590565b85815284602082015260a060408201526000611b0860a0830186611a27565b9315156060830152506001600160a01b03919091166080909101529392505050565b600060208284031215611b3c57600080fd5b6115a482611a66565b60008060408385031215611b5857600080fd5b50508035926020909101359150565b60008060408385031215611b7a57600080fd5b611b8383611a66565b915060208301358015158114611b9857600080fd5b809150509250929050565b634e487b7160e01b600052604160045260246000fd5b60008067ffffffffffffffff841115611bd457611bd4611ba3565b50604051601f19601f85018116603f0116810181811067ffffffffffffffff82111715611c0357611c03611ba3565b604052838152905080828401851015611c1b57600080fd5b83836020830137600060208583010152509392505050565b60008060408385031215611c4657600080fd5b611c4f83611a66565b9150602083013567ffffffffffffffff811115611c6b57600080fd5b8301601f81018513611c7c57600080fd5b611c8b85823560208401611bb9565b9150509250929050565b60008060008060808587031215611cab57600080fd5b611cb485611a66565b9350611cc260208601611a66565b925060408501359150606085013567ffffffffffffffff811115611ce557600080fd5b8501601f81018713611cf657600080fd5b611d0587823560208401611bb9565b91505092959194509250565b6000602082016020835280845180835260408501915060408160051b86010192506020860160005b82811015611daa57603f1987860301845281518051865260208101516020870152604081015160a06040880152611d7360a0880182611a27565b6060838101511515908901526080928301516001600160a01b03169290970191909152506020938401939190910190600101611d39565b50929695505050505050565b60008060408385031215611dc957600080fd5b611dd283611a66565b9150611de060208401611a66565b90509250929050565b6020808252601190820152702cb7ba9030b932903737ba1037bbb732b960791b604082015260600190565b600181811c90821680611e2857607f821691505b602082108103610ee757634e487b7160e01b600052602260045260246000fd5b600060018201611e6857634e487b7160e01b600052601160045260246000fd5b5060010190565b601f82111561076257806000526020600020601f840160051c81016020851015611e965750805b601f840160051c820191505b8181101561152f5760008155600101611ea2565b815167ffffffffffffffff811115611ed057611ed0611ba3565b611ee481611ede8454611e14565b84611e6f565b6020601f821160018114611f185760008315611f005750848201515b600019600385901b1c1916600184901b17845561152f565b600084815260208120601f198516915b82811015611f485787850151825560209485019460019092019101611f28565b5084821015611f665786840151600019600387901b60f8161c191681555b50505050600190811b01905550565b60018060a01b0384168152826020820152606060408201526000611f9c6060830184611a27565b95945050505050565b634e487b7160e01b600052603260045260246000fd5b60008351611fcd818460208801611a03565b835190830190611fe1818360208801611a03565b01949350505050565b6001600160a01b038581168252841660208201526040810183905260806060820181905260009061201d90830184611a27565b9695505050505050565b60006020828403121561203957600080fd5b81516115a4816119d056fea26469706673582212209941ccf983892ef462df451e71323b84d02948904b816bbd13cf3a222248470c64736f6c634300081b0033",
  "linkReferences": {},
  "deployedLinkReferences": {}
}