{
  "_format": "hh-sol-artifact-1",
  "contractName": "OrderLimit",
  "sourceName": "contracts/OrderLimit.sol",
  "abi": [
    {
      "inputs": [],
      "stateMutability": "nonpayable",
      "type": "constructor"
    },
    {
      "anonymous": false,
      "inputs": [
        {
          "indexed": false,
          "internalType": "uint256",
          "name": "orderId",
          "type": "uint256"
        },
        {
          "indexed": true,
          "internalType": "address",
          "name": "from",
          "type": "address"
        },
        {
          "indexed": true,
          "internalType": "address",
          "name": "to",
          "type": "address"
        },
        {
          "indexed": false,
          "internalType": "address",
          "name": "token",
          "type": "address"
        },
        {
          "indexed": false,
          "internalType": "uint256",
          "name": "amount",
          "type": "uint256"
        }
      ],
      "name": "CancelOrder",
      "type": "event"
    },
    {
      "anonymous": false,
      "inputs": [
        {
          "indexed": false,
          "internalType": "uint256",
          "name": "orderId",
          "type": "uint256"
        },
        {
          "indexed": true,
          "internalType": "address",
          "name": "from",
          "type": "address"
        },
        {
          "indexed": true,
          "internalType": "address",
          "name": "to",
          "type": "address"
        },
        {
          "indexed": true,
          "internalType": "address",
          "name": "pool",
          "type": "address"
        },
        {
          "indexed": false,
          "internalType": "address",
          "name": "token",
          "type": "address"
        },
        {
          "indexed": false,
          "internalType": "uint256",
          "name": "amount",
          "type": "uint256"
        },
        {
          "indexed": false,
          "internalType": "uint256",
          "name": "amountOut",
          "type": "uint256"
        }
      ],
      "name": "ExchangedOrder",
      "type": "event"
    },
    {
      "anonymous": false,
      "inputs": [
        {
          "indexed": false,
          "internalType": "uint256",
          "name": "orderId",
          "type": "uint256"
        },
        {
          "indexed": true,
          "internalType": "address",
          "name": "from",
          "type": "address"
        },
        {
          "indexed": true,
          "internalType": "address",
          "name": "to",
          "type": "address"
        },
        {
          "indexed": true,
          "internalType": "address",
          "name": "pool",
          "type": "address"
        },
        {
          "indexed": false,
          "internalType": "address",
          "name": "token",
          "type": "address"
        },
        {
          "indexed": false,
          "internalType": "uint256",
          "name": "amount",
          "type": "uint256"
        },
        {
          "indexed": false,
          "internalType": "uint256",
          "name": "reserve",
          "type": "uint256"
        }
      ],
      "name": "OrderCreated",
      "type": "event"
    },
    {
      "anonymous": false,
      "inputs": [
        {
          "indexed": false,
          "internalType": "address",
          "name": "from",
          "type": "address"
        },
        {
          "indexed": false,
          "internalType": "address",
          "name": "to",
          "type": "address"
        },
        {
          "indexed": false,
          "internalType": "uint256",
          "name": "amount",
          "type": "uint256"
        }
      ],
      "name": "ReceivedEther",
      "type": "event"
    },
    {
      "inputs": [
        {
          "internalType": "uint256",
          "name": "_id",
          "type": "uint256"
        }
      ],
      "name": "cancelOrder",
      "outputs": [],
      "stateMutability": "nonpayable",
      "type": "function"
    },
    {
      "inputs": [],
      "name": "counter",
      "outputs": [
        {
          "internalType": "uint256",
          "name": "",
          "type": "uint256"
        }
      ],
      "stateMutability": "view",
      "type": "function"
    },
    {
      "inputs": [
        {
          "internalType": "address",
          "name": "_pool",
          "type": "address"
        },
        {
          "internalType": "address",
          "name": "_token1",
          "type": "address"
        },
        {
          "internalType": "address",
          "name": "_token2",
          "type": "address"
        },
        {
          "internalType": "uint256",
          "name": "_amount",
          "type": "uint256"
        },
        {
          "internalType": "uint256",
          "name": "_reserve",
          "type": "uint256"
        }
      ],
      "name": "createOrder",
      "outputs": [
        {
          "internalType": "uint256",
          "name": "orderId",
          "type": "uint256"
        }
      ],
      "stateMutability": "payable",
      "type": "function"
    },
    {
      "inputs": [
        {
          "internalType": "uint256",
          "name": "_id",
          "type": "uint256"
        }
      ],
      "name": "exchangedOrder",
      "outputs": [
        {
          "internalType": "uint256",
          "name": "amountOut",
          "type": "uint256"
        }
      ],
      "stateMutability": "payable",
      "type": "function"
    },
    {
      "inputs": [
        {
          "internalType": "uint256",
          "name": "",
          "type": "uint256"
        }
      ],
      "name": "orders",
      "outputs": [
        {
          "internalType": "address",
          "name": "from",
          "type": "address"
        },
        {
          "internalType": "address",
          "name": "pool",
          "type": "address"
        },
        {
          "internalType": "address",
          "name": "token1",
          "type": "address"
        },
        {
          "internalType": "address",
          "name": "token2",
          "type": "address"
        },
        {
          "internalType": "uint256",
          "name": "amount",
          "type": "uint256"
        },
        {
          "internalType": "uint256",
          "name": "reserve",
          "type": "uint256"
        },
        {
          "internalType": "string",
          "name": "status",
          "type": "string"
        }
      ],
      "stateMutability": "view",
      "type": "function"
    },
    {
      "stateMutability": "payable",
      "type": "receive"
    }
  ],
  "bytecode": "0x6080604052348015600f57600080fd5b50600080556113c0806100236000396000f3fe60806040526004361061004e5760003560e01c80631a8596d514610098578063409397e9146100be578063514fcac7146100d157806361bc221a146100f3578063a85c38ef1461010957600080fd5b366100935760408051338152306020820152348183015290517feeec398a06c4cfafcea2052bdb0817bab61da1505bf6b2a84e69deb00815f2939181900360600190a1005b600080fd5b6100ab6100a6366004611086565b61013c565b6040519081526020015b60405180910390f35b6100ab6100cc3660046110db565b6104cf565b3480156100dd57600080fd5b506100f16100ec3660046110db565b610c40565b005b3480156100ff57600080fd5b506100ab60005481565b34801561011557600080fd5b506101296101243660046110db565b610f7e565b6040516100b59796959493929190611118565b60006001600160a01b03861661018d5760405162461bcd60e51b81526020600482015260116024820152704144445245535320504f4f4c205a45524f60781b60448201526064015b60405180910390fd5b600083118061019c5750600034115b6101e85760405162461bcd60e51b815260206004820181905260248201527f416d6f756e74206d7573742062652067726561746572207468616e207a65726f6044820152606401610184565b821561033057604051636eb1769f60e11b815233600482015230602482015283906001600160a01b0387169063dd62ed3e90604401602060405180830381865afa15801561023a573d6000803e3d6000fd5b505050506040513d601f19601f8201168201806040525081019061025e9190611191565b10156102b75760405162461bcd60e51b815260206004820152602260248201527f496e73756666696369656e7420746f6b656e20616c6c6f77616e636520746f6b60448201526132b760f11b6064820152608401610184565b6040516323b872dd60e01b8152336004820152306024820152604481018490526001600160a01b038616906323b872dd906064016020604051808303816000875af115801561030a573d6000803e3d6000fd5b505050506040513d601f19601f8201168201806040525081019061032e91906111aa565b505b60016040518060e00160405280336001600160a01b03168152602001886001600160a01b03168152602001876001600160a01b03168152602001866001600160a01b03168152602001600086116103875734610389565b855b8152602080820186905260408051808201825260078082526650656e64696e6760c81b828501529382015284546001818101875560009687529583902085519190940290930180546001600160a01b039485166001600160a01b03199182161782559285015195810180549685169684169690961790955583015160028501805491841691831691909117905560608301516003850180549190931691161790556080810151600483015560a0810151600583015560c081015190919060068201906104559082611272565b50506000805491508061046783611331565b90915550604080518281526001600160a01b03888116602083015291810186905260608101859052919250871690309033907f4e89d8940dd343f8259d713adcba69ba56a5254ebf9c680e47023fefa471b26f9060800160405180910390a495945050505050565b600080600183815481106104e5576104e5611358565b60009182526020918290206040805160e081018252600790930290910180546001600160a01b039081168452600182015481169484019490945260028101548416918301919091526003810154909216606082015260048201546080820152600582015460a082015260068201805491929160c084019190610566906111e9565b80601f0160208091040260200160405190810160405280929190818152602001828054610592906111e9565b80156105df5780601f106105b4576101008083540402835291602001916105df565b820191906000526020600020905b8154815290600101906020018083116105c257829003601f168201915b5050505050815250509050604051602001610607906650656e64696e6760c81b815260070190565b604051602081830303815290604052805190602001208160c00151604051602001610632919061136e565b604051602081830303815290604052805190602001201461068b5760405162461bcd60e51b815260206004820152601360248201527213dc99195c881a185cc8195e18da185b99d959606a1b6044820152606401610184565b60408101516001600160a01b031615806106b0575060608101516001600160a01b0316155b156109dc57602081015160408201516001600160a01b03166107cc5760808201516040808401519051636643d59560e11b81526001600160a01b039182166004820152600060248201529083169163cc87ab2a9160440160206040518083038185885af1158015610725573d6000803e3d6000fd5b50505050506040513d601f19601f8201168201806040525081019061074a9190611191565b6060830151835160405163a9059cbb60e01b81526001600160a01b03918216600482015260248101849052929550169063a9059cbb906044016020604051808303816000875af11580156107a2573d6000803e3d6000fd5b505050506040513d601f19601f820116820180604052508101906107c691906111aa565b506109d6565b60408083015160208401516080850151925163095ea7b360e01b81526001600160a01b0391821660048201526024810193909352169063095ea7b3906044016020604051808303816000875af115801561082a573d6000803e3d6000fd5b505050506040513d601f19601f8201168201806040525081019061084e91906111aa565b50608082015160408084015160208501519151636eb1769f60e11b81523060048201526001600160a01b03928316602482015291169063dd62ed3e90604401602060405180830381865afa1580156108aa573d6000803e3d6000fd5b505050506040513d601f19601f820116820180604052508101906108ce9190611191565b101561091c5760405162461bcd60e51b815260206004820152601b60248201527f416c6c6f77616e6365206973206e6f742073756666696369656e7400000000006044820152606401610184565b60408083015160808401519151636643d59560e11b81526001600160a01b039182166004820152602481019290925282169063cc87ab2a906044016020604051808303816000875af1158015610976573d6000803e3d6000fd5b505050506040513d601f19601f8201168201806040525081019061099a9190611191565b82516040519194506001600160a01b03169084156108fc029085906000818181858888f193505050501580156109d4573d6000803e3d6000fd5b505b50610b5d565b60208101516040808301516080840151915163095ea7b360e01b81526001600160a01b038085166004830152602482019390935291169063095ea7b3906044016020604051808303816000875af1158015610a3b573d6000803e3d6000fd5b505050506040513d601f19601f82011682018060405250810190610a5f91906111aa565b5060408083015160808401519151636643d59560e11b81526001600160a01b039182166004820152602481019290925282169063cc87ab2a906044016020604051808303816000875af1158015610aba573d6000803e3d6000fd5b505050506040513d601f19601f82011682018060405250810190610ade9190611191565b6060830151835160405163a9059cbb60e01b81526001600160a01b03918216600482015260248101849052929550169063a9059cbb906044016020604051808303816000875af1158015610b36573d6000803e3d6000fd5b505050506040513d601f19601f82011682018060405250810190610b5a91906111aa565b50505b6040518060400160405280600981526020016810dbdb5c1b195d195960ba1b81525060018481548110610b9257610b92611358565b90600052602060002090600702016006019081610baf9190611272565b5080602001516001600160a01b031681600001516001600160a01b0316306001600160a01b03167f5eec5dc1ec01b7b301de9ece6b3451f518515f3dffeed1c59bd04d06fcb69075868560400151866080015188604051610c3294939291909384526001600160a01b039290921660208401526040830152606082015260800190565b60405180910390a450919050565b600060018281548110610c5557610c55611358565b60009182526020918290206040805160e081018252600790930290910180546001600160a01b039081168452600182015481169484019490945260028101548416918301919091526003810154909216606082015260048201546080820152600582015460a082015260068201805491929160c084019190610cd6906111e9565b80601f0160208091040260200160405190810160405280929190818152602001828054610d02906111e9565b8015610d4f5780601f10610d2457610100808354040283529160200191610d4f565b820191906000526020600020905b815481529060010190602001808311610d3257829003601f168201915b5050505050815250509050604051602001610d77906650656e64696e6760c81b815260070190565b604051602081830303815290604052805190602001208160c00151604051602001610da2919061136e565b6040516020818303038152906040528051906020012014610dfb5760405162461bcd60e51b815260206004820152601360248201527213dc99195c881a185cc8195e18da185b99d959606a1b6044820152606401610184565b60408101516001600160a01b0316610e5057805160808201516040516001600160a01b039092169181156108fc0291906000818181858888f19350505050158015610e4a573d6000803e3d6000fd5b50610ed1565b60408181015182516080840151925163a9059cbb60e01b81526001600160a01b0391821660048201526024810193909352169063a9059cbb906044016020604051808303816000875af1158015610eab573d6000803e3d6000fd5b505050506040513d601f19601f82011682018060405250810190610ecf91906111aa565b505b6040518060400160405280600681526020016511985a5b195960d21b81525060018381548110610f0357610f03611358565b90600052602060002090600702016006019081610f209190611272565b508051604080830151608084015182518681526001600160a01b039283166020820152928301529091169030907f2d258ff67f0d4c075d4557022ff899a0aaabadce346b2a289c8d9fd8ff42d5679060600160405180910390a35050565b60018181548110610f8e57600080fd5b600091825260209091206007909102018054600182015460028301546003840154600485015460058601546006870180546001600160a01b039788169950958716979487169690931694919390929091610fe7906111e9565b80601f0160208091040260200160405190810160405280929190818152602001828054611013906111e9565b80156110605780601f1061103557610100808354040283529160200191611060565b820191906000526020600020905b81548152906001019060200180831161104357829003601f168201915b5050505050905087565b80356001600160a01b038116811461108157600080fd5b919050565b600080600080600060a0868803121561109e57600080fd5b6110a78661106a565b94506110b56020870161106a565b93506110c36040870161106a565b94979396509394606081013594506080013592915050565b6000602082840312156110ed57600080fd5b5035919050565b60005b8381101561110f5781810151838201526020016110f7565b50506000910152565b6001600160a01b038881168252878116602080840191909152878216604084015290861660608301526080820185905260a0820184905260e060c08301819052835190830181905260009161117690829061010086019087016110f4565b601f01601f1916919091016101000198975050505050505050565b6000602082840312156111a357600080fd5b5051919050565b6000602082840312156111bc57600080fd5b815180151581146111cc57600080fd5b9392505050565b634e487b7160e01b600052604160045260246000fd5b600181811c908216806111fd57607f821691505b60208210810361121d57634e487b7160e01b600052602260045260246000fd5b50919050565b601f82111561126d57806000526020600020601f840160051c8101602085101561124a5750805b601f840160051c820191505b8181101561126a5760008155600101611256565b50505b505050565b815167ffffffffffffffff81111561128c5761128c6111d3565b6112a08161129a84546111e9565b84611223565b6020601f8211600181146112d457600083156112bc5750848201515b600019600385901b1c1916600184901b17845561126a565b600084815260208120601f198516915b8281101561130457878501518255602094850194600190920191016112e4565b50848210156113225786840151600019600387901b60f8161c191681555b50505050600190811b01905550565b60006001820161135157634e487b7160e01b600052601160045260246000fd5b5060010190565b634e487b7160e01b600052603260045260246000fd5b600082516113808184602087016110f4565b919091019291505056fea26469706673582212206e5f066760c5a9443cf8807c3f45e2eb507e37b878227cb4055eca709d61b23764736f6c634300081b0033",
  "linkReferences": {},
  "deployedLinkReferences": {}
}