{
  "_format": "hh-sol-artifact-1",
  "contractName": "TokenERC20",
  "sourceName": "contracts/TokenERC20.sol",
  "abi": [
    {
      "inputs": [
        {
          "internalType": "string",
          "name": "nameERC20",
          "type": "string"
        },
        {
          "internalType": "string",
          "name": "symbolERC20",
          "type": "string"
        },
        {
          "internalType": "address",
          "name": "initialOwner",
          "type": "address"
        },
        {
          "internalType": "uint256",
          "name": "initialSupply",
          "type": "uint256"
        },
        {
          "internalType": "uint8",
          "name": "_decimal",
          "type": "uint8"
        }
      ],
      "stateMutability": "nonpayable",
      "type": "constructor"
    },
    {
      "inputs": [
        {
          "internalType": "address",
          "name": "spender",
          "type": "address"
        },
        {
          "internalType": "uint256",
          "name": "allowance",
          "type": "uint256"
        },
        {
          "internalType": "uint256",
          "name": "needed",
          "type": "uint256"
        }
      ],
      "name": "ERC20InsufficientAllowance",
      "type": "error"
    },
    {
      "inputs": [
        {
          "internalType": "address",
          "name": "sender",
          "type": "address"
        },
        {
          "internalType": "uint256",
          "name": "balance",
          "type": "uint256"
        },
        {
          "internalType": "uint256",
          "name": "needed",
          "type": "uint256"
        }
      ],
      "name": "ERC20InsufficientBalance",
      "type": "error"
    },
    {
      "inputs": [
        {
          "internalType": "address",
          "name": "approver",
          "type": "address"
        }
      ],
      "name": "ERC20InvalidApprover",
      "type": "error"
    },
    {
      "inputs": [
        {
          "internalType": "address",
          "name": "receiver",
          "type": "address"
        }
      ],
      "name": "ERC20InvalidReceiver",
      "type": "error"
    },
    {
      "inputs": [
        {
          "internalType": "address",
          "name": "sender",
          "type": "address"
        }
      ],
      "name": "ERC20InvalidSender",
      "type": "error"
    },
    {
      "inputs": [
        {
          "internalType": "address",
          "name": "spender",
          "type": "address"
        }
      ],
      "name": "ERC20InvalidSpender",
      "type": "error"
    },
    {
      "anonymous": false,
      "inputs": [
        {
          "indexed": true,
          "internalType": "address",
          "name": "owner",
          "type": "address"
        },
        {
          "indexed": true,
          "internalType": "address",
          "name": "spender",
          "type": "address"
        },
        {
          "indexed": false,
          "internalType": "uint256",
          "name": "value",
          "type": "uint256"
        }
      ],
      "name": "Approval",
      "type": "event"
    },
    {
      "anonymous": false,
      "inputs": [
        {
          "indexed": true,
          "internalType": "address",
          "name": "from",
          "type": "address"
        },
        {
          "indexed": true,
          "internalType": "address",
          "name": "to",
          "type": "address"
        },
        {
          "indexed": false,
          "internalType": "uint256",
          "name": "value",
          "type": "uint256"
        }
      ],
      "name": "Transfer",
      "type": "event"
    },
    {
      "inputs": [
        {
          "internalType": "address",
          "name": "owner",
          "type": "address"
        },
        {
          "internalType": "address",
          "name": "spender",
          "type": "address"
        }
      ],
      "name": "allowance",
      "outputs": [
        {
          "internalType": "uint256",
          "name": "",
          "type": "uint256"
        }
      ],
      "stateMutability": "view",
      "type": "function"
    },
    {
      "inputs": [
        {
          "internalType": "address",
          "name": "spender",
          "type": "address"
        },
        {
          "internalType": "uint256",
          "name": "value",
          "type": "uint256"
        }
      ],
      "name": "approve",
      "outputs": [
        {
          "internalType": "bool",
          "name": "",
          "type": "bool"
        }
      ],
      "stateMutability": "nonpayable",
      "type": "function"
    },
    {
      "inputs": [
        {
          "internalType": "address",
          "name": "account",
          "type": "address"
        }
      ],
      "name": "balanceOf",
      "outputs": [
        {
          "internalType": "uint256",
          "name": "",
          "type": "uint256"
        }
      ],
      "stateMutability": "view",
      "type": "function"
    },
    {
      "inputs": [
        {
          "internalType": "address",
          "name": "from",
          "type": "address"
        },
        {
          "internalType": "uint256",
          "name": "amount",
          "type": "uint256"
        }
      ],
      "name": "burnToken",
      "outputs": [],
      "stateMutability": "nonpayable",
      "type": "function"
    },
    {
      "inputs": [],
      "name": "decimals",
      "outputs": [
        {
          "internalType": "uint8",
          "name": "",
          "type": "uint8"
        }
      ],
      "stateMutability": "view",
      "type": "function"
    },
    {
      "inputs": [
        {
          "internalType": "address",
          "name": "receiver",
          "type": "address"
        },
        {
          "internalType": "uint256",
          "name": "amount",
          "type": "uint256"
        }
      ],
      "name": "mintToken",
      "outputs": [
        {
          "internalType": "uint256",
          "name": "",
          "type": "uint256"
        }
      ],
      "stateMutability": "nonpayable",
      "type": "function"
    },
    {
      "inputs": [],
      "name": "name",
      "outputs": [
        {
          "internalType": "string",
          "name": "",
          "type": "string"
        }
      ],
      "stateMutability": "view",
      "type": "function"
    },
    {
      "inputs": [],
      "name": "symbol",
      "outputs": [
        {
          "internalType": "string",
          "name": "",
          "type": "string"
        }
      ],
      "stateMutability": "view",
      "type": "function"
    },
    {
      "inputs": [],
      "name": "totalSupply",
      "outputs": [
        {
          "internalType": "uint256",
          "name": "",
          "type": "uint256"
        }
      ],
      "stateMutability": "view",
      "type": "function"
    },
    {
      "inputs": [
        {
          "internalType": "address",
          "name": "to",
          "type": "address"
        },
        {
          "internalType": "uint256",
          "name": "value",
          "type": "uint256"
        }
      ],
      "name": "transfer",
      "outputs": [
        {
          "internalType": "bool",
          "name": "",
          "type": "bool"
        }
      ],
      "stateMutability": "nonpayable",
      "type": "function"
    },
    {
      "inputs": [
        {
          "internalType": "address",
          "name": "from",
          "type": "address"
        },
        {
          "internalType": "address",
          "name": "to",
          "type": "address"
        },
        {
          "internalType": "uint256",
          "name": "value",
          "type": "uint256"
        }
      ],
      "name": "transferFrom",
      "outputs": [
        {
          "internalType": "bool",
          "name": "",
          "type": "bool"
        }
      ],
      "stateMutability": "nonpayable",
      "type": "function"
    }
  ],
  "bytecode": "0x60806040526005805460ff1916601217905534801561001d57600080fd5b50604051610da8380380610da883398101604081905261003c9161029f565b8484600361004a83826103d7565b50600461005782826103d7565b50506005805460ff191660ff841617905550610073838361007d565b50505050506104bc565b6001600160a01b0382166100ac5760405163ec442f0560e01b8152600060048201526024015b60405180910390fd5b6100b8600083836100bc565b5050565b6001600160a01b0383166100e75780600260008282546100dc9190610495565b909155506101599050565b6001600160a01b0383166000908152602081905260409020548181101561013a5760405163391434e360e21b81526001600160a01b038516600482015260248101829052604481018390526064016100a3565b6001600160a01b03841660009081526020819052604090209082900390555b6001600160a01b03821661017557600280548290039055610194565b6001600160a01b03821660009081526020819052604090208054820190555b816001600160a01b0316836001600160a01b03167fddf252ad1be2c89b69c2b068fc378daa952ba7f163c4a11628f55a4df523b3ef836040516101d991815260200190565b60405180910390a3505050565b634e487b7160e01b600052604160045260246000fd5b600082601f83011261020d57600080fd5b81516001600160401b03811115610226576102266101e6565b604051601f8201601f19908116603f011681016001600160401b0381118282101715610254576102546101e6565b60405281815283820160200185101561026c57600080fd5b60005b8281101561028b5760208186018101518383018201520161026f565b506000918101602001919091529392505050565b600080600080600060a086880312156102b757600080fd5b85516001600160401b038111156102cd57600080fd5b6102d9888289016101fc565b602088015190965090506001600160401b038111156102f757600080fd5b610303888289016101fc565b604088015190955090506001600160a01b038116811461032257600080fd5b60608701516080880151919450925060ff8116811461034057600080fd5b809150509295509295909350565b600181811c9082168061036257607f821691505b60208210810361038257634e487b7160e01b600052602260045260246000fd5b50919050565b601f8211156103d257806000526020600020601f840160051c810160208510156103af5750805b601f840160051c820191505b818110156103cf57600081556001016103bb565b50505b505050565b81516001600160401b038111156103f0576103f06101e6565b610404816103fe845461034e565b84610388565b6020601f82116001811461043857600083156104205750848201515b600019600385901b1c1916600184901b1784556103cf565b600084815260208120601f198516915b828110156104685787850151825560209485019460019092019101610448565b50848210156104865786840151600019600387901b60f8161c191681555b50505050600190811b01905550565b808201808211156104b657634e487b7160e01b600052601160045260246000fd5b92915050565b6108dd806104cb6000396000f3fe608060405234801561001057600080fd5b50600436106100a95760003560e01c806370a082311161007157806370a082311461012957806379c650681461015257806395d89b4114610165578063a9059cbb1461016d578063d1df306c14610180578063dd62ed3e1461019557600080fd5b806306fdde03146100ae578063095ea7b3146100cc57806318160ddd146100ef57806323b872dd14610101578063313ce56714610114575b600080fd5b6100b66101ce565b6040516100c3919061072c565b60405180910390f35b6100df6100da366004610796565b610260565b60405190151581526020016100c3565b6002545b6040519081526020016100c3565b6100df61010f3660046107c0565b61027a565b60055460405160ff90911681526020016100c3565b6100f36101373660046107fd565b6001600160a01b031660009081526020819052604090205490565b6100f3610160366004610796565b61029e565b6100b6610300565b6100df61017b366004610796565b61030f565b61019361018e366004610796565b61031d565b005b6100f36101a336600461081f565b6001600160a01b03918216600090815260016020908152604080832093909416825291909152205490565b6060600380546101dd90610852565b80601f016020809104026020016040519081016040528092919081815260200182805461020990610852565b80156102565780601f1061022b57610100808354040283529160200191610256565b820191906000526020600020905b81548152906001019060200180831161023957829003601f168201915b5050505050905090565b60003361026e8185856103d2565b60019150505b92915050565b6000336102888582856103e4565b610293858585610462565b506001949350505050565b60008082116102f05760405162461bcd60e51b8152602060048201526019602482015278416d6f756e742063616e6e6f74206265206e6567617469766560381b60448201526064015b60405180910390fd5b6102fa83836104c1565b50919050565b6060600480546101dd90610852565b60003361026e818585610462565b600081116103695760405162461bcd60e51b8152602060048201526019602482015278416d6f756e742063616e6e6f74206265206e6567617469766560381b60448201526064016102e7565b6001600160a01b038216600090815260208190526040812054116103c45760405162461bcd60e51b8152602060048201526012602482015271084c2d8c2dcc6ca40dcdee840cadcdeeaced60731b60448201526064016102e7565b6103ce82826104f7565b5050565b6103df838383600161052d565b505050565b6001600160a01b03838116600090815260016020908152604080832093861683529290522054600019811461045c578181101561044d57604051637dc7a0d960e11b81526001600160a01b038416600482015260248101829052604481018390526064016102e7565b61045c8484848403600061052d565b50505050565b6001600160a01b03831661048c57604051634b637e8f60e11b8152600060048201526024016102e7565b6001600160a01b0382166104b65760405163ec442f0560e01b8152600060048201526024016102e7565b6103df838383610602565b6001600160a01b0382166104eb5760405163ec442f0560e01b8152600060048201526024016102e7565b6103ce60008383610602565b6001600160a01b03821661052157604051634b637e8f60e11b8152600060048201526024016102e7565b6103ce82600083610602565b6001600160a01b0384166105575760405163e602df0560e01b8152600060048201526024016102e7565b6001600160a01b03831661058157604051634a1406b160e11b8152600060048201526024016102e7565b6001600160a01b038085166000908152600160209081526040808320938716835292905220829055801561045c57826001600160a01b0316846001600160a01b03167f8c5be1e5ebec7d5bd14f71427d1e84f3dd0314c0f7b2291e5b200ac8c7c3b925846040516105f491815260200190565b60405180910390a350505050565b6001600160a01b03831661062d5780600260008282546106229190610886565b9091555061069f9050565b6001600160a01b038316600090815260208190526040902054818110156106805760405163391434e360e21b81526001600160a01b038516600482015260248101829052604481018390526064016102e7565b6001600160a01b03841660009081526020819052604090209082900390555b6001600160a01b0382166106bb576002805482900390556106da565b6001600160a01b03821660009081526020819052604090208054820190555b816001600160a01b0316836001600160a01b03167fddf252ad1be2c89b69c2b068fc378daa952ba7f163c4a11628f55a4df523b3ef8360405161071f91815260200190565b60405180910390a3505050565b602081526000825180602084015260005b8181101561075a576020818601810151604086840101520161073d565b506000604082850101526040601f19601f83011684010191505092915050565b80356001600160a01b038116811461079157600080fd5b919050565b600080604083850312156107a957600080fd5b6107b28361077a565b946020939093013593505050565b6000806000606084860312156107d557600080fd5b6107de8461077a565b92506107ec6020850161077a565b929592945050506040919091013590565b60006020828403121561080f57600080fd5b6108188261077a565b9392505050565b6000806040838503121561083257600080fd5b61083b8361077a565b91506108496020840161077a565b90509250929050565b600181811c9082168061086657607f821691505b6020821081036102fa57634e487b7160e01b600052602260045260246000fd5b8082018082111561027457634e487b7160e01b600052601160045260246000fdfea2646970667358221220f0fc64f0efabd711452bc51e8ffca963c61b149411e354a3ec3a02319c57675e64736f6c634300081b0033",
  "linkReferences": {},
  "deployedLinkReferences": {}
}