{
  "_format": "hh-sol-artifact-1",
  "contractName": "FactoryToken",
  "sourceName": "contracts/FactoryToken.sol",
  "abi": [
    {
      "anonymous": false,
      "inputs": [
        {
          "indexed": true,
          "internalType": "address",
          "name": "tokenAddress",
          "type": "address"
        },
        {
          "indexed": true,
          "internalType": "address",
          "name": "owner",
          "type": "address"
        },
        {
          "indexed": false,
          "internalType": "string",
          "name": "name",
          "type": "string"
        },
        {
          "indexed": false,
          "internalType": "string",
          "name": "symbol",
          "type": "string"
        },
        {
          "indexed": false,
          "internalType": "uint8",
          "name": "decimals",
          "type": "uint8"
        },
        {
          "indexed": false,
          "internalType": "uint256",
          "name": "initialSupply",
          "type": "uint256"
        }
      ],
      "name": "TokenCreated",
      "type": "event"
    },
    {
      "inputs": [
        {
          "internalType": "uint256",
          "name": "",
          "type": "uint256"
        }
      ],
      "name": "allTokens",
      "outputs": [
        {
          "internalType": "string",
          "name": "name",
          "type": "string"
        },
        {
          "internalType": "string",
          "name": "symbol",
          "type": "string"
        },
        {
          "internalType": "string",
          "name": "img",
          "type": "string"
        },
        {
          "internalType": "uint8",
          "name": "decimals",
          "type": "uint8"
        },
        {
          "internalType": "address",
          "name": "owner",
          "type": "address"
        },
        {
          "internalType": "address",
          "name": "tokenAddress",
          "type": "address"
        }
      ],
      "stateMutability": "view",
      "type": "function"
    },
    {
      "inputs": [
        {
          "internalType": "string",
          "name": "name",
          "type": "string"
        },
        {
          "internalType": "string",
          "name": "symbol",
          "type": "string"
        },
        {
          "internalType": "string",
          "name": "img",
          "type": "string"
        },
        {
          "internalType": "uint8",
          "name": "decimals",
          "type": "uint8"
        },
        {
          "internalType": "address",
          "name": "initialOwner",
          "type": "address"
        },
        {
          "internalType": "uint256",
          "name": "initialSupply",
          "type": "uint256"
        }
      ],
      "name": "createToken",
      "outputs": [],
      "stateMutability": "nonpayable",
      "type": "function"
    },
    {
      "inputs": [],
      "name": "getAllTokens",
      "outputs": [
        {
          "components": [
            {
              "internalType": "string",
              "name": "name",
              "type": "string"
            },
            {
              "internalType": "string",
              "name": "symbol",
              "type": "string"
            },
            {
              "internalType": "string",
              "name": "img",
              "type": "string"
            },
            {
              "internalType": "uint8",
              "name": "decimals",
              "type": "uint8"
            },
            {
              "internalType": "address",
              "name": "owner",
              "type": "address"
            },
            {
              "internalType": "address",
              "name": "tokenAddress",
              "type": "address"
            }
          ],
          "internalType": "struct FactoryToken.Token[]",
          "name": "",
          "type": "tuple[]"
        }
      ],
      "stateMutability": "view",
      "type": "function"
    }
  ],
  "bytecode": "0x6080604052348015600f57600080fd5b506118478061001f6000396000f3fe608060405234801561001057600080fd5b50600436106100415760003560e01c80632a5c792a14610046578063634282af14610064578063d80bf6f514610089575b600080fd5b61004e61009e565b60405161005b91906106bc565b60405180910390f35b610077610072366004610792565b6102e7565b60405161005b969594939291906107ab565b61009c6100973660046108d1565b6104dc565b005b60606000805480602002602001604051908101604052809291908181526020016000905b828210156102de57838290600052602060002090600502016040518060c00160405290816000820180546100f590610999565b80601f016020809104026020016040519081016040528092919081815260200182805461012190610999565b801561016e5780601f106101435761010080835404028352916020019161016e565b820191906000526020600020905b81548152906001019060200180831161015157829003601f168201915b5050505050815260200160018201805461018790610999565b80601f01602080910402602001604051908101604052809291908181526020018280546101b390610999565b80156102005780601f106101d557610100808354040283529160200191610200565b820191906000526020600020905b8154815290600101906020018083116101e357829003601f168201915b5050505050815260200160028201805461021990610999565b80601f016020809104026020016040519081016040528092919081815260200182805461024590610999565b80156102925780601f1061026757610100808354040283529160200191610292565b820191906000526020600020905b81548152906001019060200180831161027557829003601f168201915b5050509183525050600382015460ff81166020808401919091526001600160a01b03610100909204821660408401526004909301541660609091015290825260019290920191016100c2565b50505050905090565b600081815481106102f757600080fd5b906000526020600020906005020160009150905080600001805461031a90610999565b80601f016020809104026020016040519081016040528092919081815260200182805461034690610999565b80156103935780601f1061036857610100808354040283529160200191610393565b820191906000526020600020905b81548152906001019060200180831161037657829003601f168201915b5050505050908060010180546103a890610999565b80601f01602080910402602001604051908101604052809291908181526020018280546103d490610999565b80156104215780601f106103f657610100808354040283529160200191610421565b820191906000526020600020905b81548152906001019060200180831161040457829003601f168201915b50505050509080600201805461043690610999565b80601f016020809104026020016040519081016040528092919081815260200182805461046290610999565b80156104af5780601f10610484576101008083540402835291602001916104af565b820191906000526020600020905b81548152906001019060200180831161049257829003601f168201915b5050506003840154600490940154929360ff8116936001600160a01b036101009092048216935016905086565b600086868484876040516104ef90610669565b6104fd9594939291906109d3565b604051809103906000f080158015610519573d6000803e3d6000fd5b506040805160c0810182528981526020810189905290810187905260ff861660608201526001600160a01b038086166080830152821660a0820152600080546001810182559080528151929350909160059091027f290decd9548b62a8d60345a988386fc84ba6bc95484008f6362f93160ef3e5630190819061059c9082610a71565b50602082015160018201906105b19082610a71565b50604082015160028201906105c69082610a71565b506060820151600382018054608085015160ff9093166001600160a81b0319909116176101006001600160a01b039384160217905560a090920151600490910180546001600160a01b031916918316919091179055604051848216918316907f6aba688e0d9fb13e49808a9f69e09384142cd46853e4ecfcf79aa7e4d63c183290610658908b908b908a908990610b30565b60405180910390a350505050505050565b610ca580610b6d83390190565b6000815180845260005b8181101561069c57602081850181015186830182015201610680565b506000602082860101526020601f19601f83011685010191505092915050565b6000602082016020835280845180835260408501915060408160051b86010192506020860160005b8281101561078657603f198786030184528151805160c0875261070a60c0880182610676565b9050602082015187820360208901526107238282610676565b9150506040820151878203604089015261073d8282610676565b60608481015160ff16908a01526080808501516001600160a01b03908116918b019190915260a094850151169390980192909252505060209384019391909101906001016106e4565b50929695505050505050565b6000602082840312156107a457600080fd5b5035919050565b60c0815260006107be60c0830189610676565b82810360208401526107d08189610676565b905082810360408401526107e48188610676565b60ff96909616606084015250506001600160a01b039283166080820152911660a0909101529392505050565b634e487b7160e01b600052604160045260246000fd5b600082601f83011261083757600080fd5b813567ffffffffffffffff81111561085157610851610810565b604051601f8201601f19908116603f0116810167ffffffffffffffff8111828210171561088057610880610810565b60405281815283820160200185101561089857600080fd5b816020850160208301376000918101602001919091529392505050565b80356001600160a01b03811681146108cc57600080fd5b919050565b60008060008060008060c087890312156108ea57600080fd5b863567ffffffffffffffff81111561090157600080fd5b61090d89828a01610826565b965050602087013567ffffffffffffffff81111561092a57600080fd5b61093689828a01610826565b955050604087013567ffffffffffffffff81111561095357600080fd5b61095f89828a01610826565b945050606087013560ff8116811461097657600080fd5b9250610984608088016108b5565b9598949750929591949360a090920135925050565b600181811c908216806109ad57607f821691505b6020821081036109cd57634e487b7160e01b600052602260045260246000fd5b50919050565b60a0815260006109e660a0830188610676565b82810360208401526109f88188610676565b6001600160a01b039690961660408401525050606081019290925260ff1660809091015292915050565b601f821115610a6c57806000526020600020601f840160051c81016020851015610a495750805b601f840160051c820191505b81811015610a695760008155600101610a55565b50505b505050565b815167ffffffffffffffff811115610a8b57610a8b610810565b610a9f81610a998454610999565b84610a22565b6020601f821160018114610ad35760008315610abb5750848201515b600019600385901b1c1916600184901b178455610a69565b600084815260208120601f198516915b82811015610b035787850151825560209485019460019092019101610ae3565b5084821015610b215786840151600019600387901b60f8161c191681555b50505050600190811b01905550565b608081526000610b436080830187610676565b8281036020840152610b558187610676565b60ff9590951660408401525050606001529291505056fe60806040526005805460ff1916601217905534801561001d57600080fd5b50604051610ca5380380610ca583398101604081905261003c9161029f565b8484600361004a83826103d7565b50600461005782826103d7565b50506005805460ff191660ff841617905550610073838361007d565b50505050506104bc565b6001600160a01b0382166100ac5760405163ec442f0560e01b8152600060048201526024015b60405180910390fd5b6100b8600083836100bc565b5050565b6001600160a01b0383166100e75780600260008282546100dc9190610495565b909155506101599050565b6001600160a01b0383166000908152602081905260409020548181101561013a5760405163391434e360e21b81526001600160a01b038516600482015260248101829052604481018390526064016100a3565b6001600160a01b03841660009081526020819052604090209082900390555b6001600160a01b03821661017557600280548290039055610194565b6001600160a01b03821660009081526020819052604090208054820190555b816001600160a01b0316836001600160a01b03167fddf252ad1be2c89b69c2b068fc378daa952ba7f163c4a11628f55a4df523b3ef836040516101d991815260200190565b60405180910390a3505050565b634e487b7160e01b600052604160045260246000fd5b600082601f83011261020d57600080fd5b81516001600160401b03811115610226576102266101e6565b604051601f8201601f19908116603f011681016001600160401b0381118282101715610254576102546101e6565b60405281815283820160200185101561026c57600080fd5b60005b8281101561028b5760208186018101518383018201520161026f565b506000918101602001919091529392505050565b600080600080600060a086880312156102b757600080fd5b85516001600160401b038111156102cd57600080fd5b6102d9888289016101fc565b602088015190965090506001600160401b038111156102f757600080fd5b610303888289016101fc565b604088015190955090506001600160a01b038116811461032257600080fd5b60608701516080880151919450925060ff8116811461034057600080fd5b809150509295509295909350565b600181811c9082168061036257607f821691505b60208210810361038257634e487b7160e01b600052602260045260246000fd5b50919050565b601f8211156103d257806000526020600020601f840160051c810160208510156103af5750805b601f840160051c820191505b818110156103cf57600081556001016103bb565b50505b505050565b81516001600160401b038111156103f0576103f06101e6565b610404816103fe845461034e565b84610388565b6020601f82116001811461043857600083156104205750848201515b600019600385901b1c1916600184901b1784556103cf565b600084815260208120601f198516915b828110156104685787850151825560209485019460019092019101610448565b50848210156104865786840151600019600387901b60f8161c191681555b50505050600190811b01905550565b808201808211156104b657634e487b7160e01b600052601160045260246000fd5b92915050565b6107da806104cb6000396000f3fe608060405234801561001057600080fd5b506004361061009e5760003560e01c806370a082311161006657806370a082311461011e57806379c650681461014757806395d89b411461015a578063a9059cbb14610162578063dd62ed3e1461017557600080fd5b806306fdde03146100a3578063095ea7b3146100c157806318160ddd146100e457806323b872dd146100f6578063313ce56714610109575b600080fd5b6100ab6101ae565b6040516100b89190610629565b60405180910390f35b6100d46100cf366004610693565b610240565b60405190151581526020016100b8565b6002545b6040519081526020016100b8565b6100d46101043660046106bd565b61025a565b60055460405160ff90911681526020016100b8565b6100e861012c3660046106fa565b6001600160a01b031660009081526020819052604090205490565b6100e8610155366004610693565b61027e565b6100ab6102e4565b6100d4610170366004610693565b6102f3565b6100e861018336600461071c565b6001600160a01b03918216600090815260016020908152604080832093909416825291909152205490565b6060600380546101bd9061074f565b80601f01602080910402602001604051908101604052809291908181526020018280546101e99061074f565b80156102365780601f1061020b57610100808354040283529160200191610236565b820191906000526020600020905b81548152906001019060200180831161021957829003601f168201915b5050505050905090565b60003361024e818585610301565b60019150505b92915050565b600033610268858285610313565b610273858585610391565b506001949350505050565b60008082116102d45760405162461bcd60e51b815260206004820152601960248201527f416d6f756e742063616e6e6f74206265206e656761746976650000000000000060448201526064015b60405180910390fd5b6102de83836103f0565b50919050565b6060600480546101bd9061074f565b60003361024e818585610391565b61030e838383600161042a565b505050565b6001600160a01b03838116600090815260016020908152604080832093861683529290522054600019811461038b578181101561037c57604051637dc7a0d960e11b81526001600160a01b038416600482015260248101829052604481018390526064016102cb565b61038b8484848403600061042a565b50505050565b6001600160a01b0383166103bb57604051634b637e8f60e11b8152600060048201526024016102cb565b6001600160a01b0382166103e55760405163ec442f0560e01b8152600060048201526024016102cb565b61030e8383836104ff565b6001600160a01b03821661041a5760405163ec442f0560e01b8152600060048201526024016102cb565b610426600083836104ff565b5050565b6001600160a01b0384166104545760405163e602df0560e01b8152600060048201526024016102cb565b6001600160a01b03831661047e57604051634a1406b160e11b8152600060048201526024016102cb565b6001600160a01b038085166000908152600160209081526040808320938716835292905220829055801561038b57826001600160a01b0316846001600160a01b03167f8c5be1e5ebec7d5bd14f71427d1e84f3dd0314c0f7b2291e5b200ac8c7c3b925846040516104f191815260200190565b60405180910390a350505050565b6001600160a01b03831661052a57806002600082825461051f9190610783565b9091555061059c9050565b6001600160a01b0383166000908152602081905260409020548181101561057d5760405163391434e360e21b81526001600160a01b038516600482015260248101829052604481018390526064016102cb565b6001600160a01b03841660009081526020819052604090209082900390555b6001600160a01b0382166105b8576002805482900390556105d7565b6001600160a01b03821660009081526020819052604090208054820190555b816001600160a01b0316836001600160a01b03167fddf252ad1be2c89b69c2b068fc378daa952ba7f163c4a11628f55a4df523b3ef8360405161061c91815260200190565b60405180910390a3505050565b602081526000825180602084015260005b81811015610657576020818601810151604086840101520161063a565b506000604082850101526040601f19601f83011684010191505092915050565b80356001600160a01b038116811461068e57600080fd5b919050565b600080604083850312156106a657600080fd5b6106af83610677565b946020939093013593505050565b6000806000606084860312156106d257600080fd5b6106db84610677565b92506106e960208501610677565b929592945050506040919091013590565b60006020828403121561070c57600080fd5b61071582610677565b9392505050565b6000806040838503121561072f57600080fd5b61073883610677565b915061074660208401610677565b90509250929050565b600181811c9082168061076357607f821691505b6020821081036102de57634e487b7160e01b600052602260045260246000fd5b8082018082111561025457634e487b7160e01b600052601160045260246000fdfea2646970667358221220178ad3607c46e9e8da8244572d05d3c7e942a61fc1f4d2152aea551c4aa2884564736f6c634300081b0033a264697066735822122003e670fca31e0c170b212030371ae051c27ee7f164ebddef6149ca8e7b96515264736f6c634300081b0033",
  "linkReferences": {},
  "deployedLinkReferences": {}
}