{
  "_format": "hh-sol-artifact-1",
  "contractName": "FactoryToken",
  "sourceName": "contracts/FactoryToken.sol",
  "abi": [
    {
      "anonymous": false,
      "inputs": [
        {
          "indexed": false,
          "internalType": "address",
          "name": "_from",
          "type": "address"
        },
        {
          "indexed": false,
          "internalType": "address",
          "name": "tokenAddress",
          "type": "address"
        },
        {
          "indexed": false,
          "internalType": "uint256",
          "name": "_amount",
          "type": "uint256"
        }
      ],
      "name": "BURNUSD",
      "type": "event"
    },
    {
      "anonymous": false,
      "inputs": [
        {
          "indexed": false,
          "internalType": "address",
          "name": "_to",
          "type": "address"
        },
        {
          "indexed": false,
          "internalType": "address",
          "name": "tokenAddress",
          "type": "address"
        },
        {
          "indexed": false,
          "internalType": "uint256",
          "name": "_amount",
          "type": "uint256"
        }
      ],
      "name": "MINTUSD",
      "type": "event"
    },
    {
      "anonymous": false,
      "inputs": [
        {
          "indexed": true,
          "internalType": "address",
          "name": "tokenAddress",
          "type": "address"
        },
        {
          "indexed": true,
          "internalType": "address",
          "name": "sender",
          "type": "address"
        },
        {
          "indexed": false,
          "internalType": "string",
          "name": "name",
          "type": "string"
        },
        {
          "indexed": false,
          "internalType": "string",
          "name": "symbol",
          "type": "string"
        },
        {
          "indexed": false,
          "internalType": "uint8",
          "name": "decimals",
          "type": "uint8"
        },
        {
          "indexed": false,
          "internalType": "uint256",
          "name": "initialSupply",
          "type": "uint256"
        }
      ],
      "name": "TokenAdded",
      "type": "event"
    },
    {
      "anonymous": false,
      "inputs": [
        {
          "indexed": true,
          "internalType": "address",
          "name": "tokenAddress",
          "type": "address"
        },
        {
          "indexed": true,
          "internalType": "address",
          "name": "owner",
          "type": "address"
        },
        {
          "indexed": false,
          "internalType": "string",
          "name": "name",
          "type": "string"
        },
        {
          "indexed": false,
          "internalType": "string",
          "name": "symbol",
          "type": "string"
        },
        {
          "indexed": false,
          "internalType": "uint8",
          "name": "decimals",
          "type": "uint8"
        },
        {
          "indexed": false,
          "internalType": "uint256",
          "name": "initialSupply",
          "type": "uint256"
        }
      ],
      "name": "TokenCreated",
      "type": "event"
    },
    {
      "inputs": [
        {
          "internalType": "string",
          "name": "_img",
          "type": "string"
        },
        {
          "internalType": "address",
          "name": "_address",
          "type": "address"
        }
      ],
      "name": "addToken",
      "outputs": [],
      "stateMutability": "nonpayable",
      "type": "function"
    },
    {
      "inputs": [
        {
          "internalType": "uint256",
          "name": "",
          "type": "uint256"
        }
      ],
      "name": "allTokens",
      "outputs": [
        {
          "internalType": "string",
          "name": "name",
          "type": "string"
        },
        {
          "internalType": "string",
          "name": "symbol",
          "type": "string"
        },
        {
          "internalType": "string",
          "name": "img",
          "type": "string"
        },
        {
          "internalType": "uint8",
          "name": "decimals",
          "type": "uint8"
        },
        {
          "internalType": "address",
          "name": "owner",
          "type": "address"
        },
        {
          "internalType": "address",
          "name": "tokenAddress",
          "type": "address"
        }
      ],
      "stateMutability": "view",
      "type": "function"
    },
    {
      "inputs": [
        {
          "internalType": "address",
          "name": "_from",
          "type": "address"
        },
        {
          "internalType": "uint256",
          "name": "_amount",
          "type": "uint256"
        }
      ],
      "name": "burnUSD",
      "outputs": [],
      "stateMutability": "nonpayable",
      "type": "function"
    },
    {
      "inputs": [
        {
          "internalType": "string",
          "name": "name",
          "type": "string"
        },
        {
          "internalType": "string",
          "name": "symbol",
          "type": "string"
        },
        {
          "internalType": "string",
          "name": "img",
          "type": "string"
        },
        {
          "internalType": "uint8",
          "name": "decimals",
          "type": "uint8"
        },
        {
          "internalType": "address",
          "name": "initialOwner",
          "type": "address"
        },
        {
          "internalType": "uint256",
          "name": "initialSupply",
          "type": "uint256"
        }
      ],
      "name": "createToken",
      "outputs": [],
      "stateMutability": "nonpayable",
      "type": "function"
    },
    {
      "inputs": [],
      "name": "getAllTokens",
      "outputs": [
        {
          "components": [
            {
              "internalType": "string",
              "name": "name",
              "type": "string"
            },
            {
              "internalType": "string",
              "name": "symbol",
              "type": "string"
            },
            {
              "internalType": "string",
              "name": "img",
              "type": "string"
            },
            {
              "internalType": "uint8",
              "name": "decimals",
              "type": "uint8"
            },
            {
              "internalType": "address",
              "name": "owner",
              "type": "address"
            },
            {
              "internalType": "address",
              "name": "tokenAddress",
              "type": "address"
            }
          ],
          "internalType": "struct FactoryToken.Token[]",
          "name": "",
          "type": "tuple[]"
        }
      ],
      "stateMutability": "view",
      "type": "function"
    },
    {
      "inputs": [
        {
          "internalType": "address",
          "name": "_to",
          "type": "address"
        },
        {
          "internalType": "uint256",
          "name": "_amount",
          "type": "uint256"
        }
      ],
      "name": "mintUSD",
      "outputs": [],
      "stateMutability": "payable",
      "type": "function"
    }
  ],
  "bytecode": "0x6080604052348015600f57600080fd5b5061286f8061001f6000396000f3fe6080604052600436106100555760003560e01c80632a5c792a1461005a578063634282af146100855780636f943afd146100b7578063b0b22c2c146100d9578063d80bf6f5146100f9578063e0ca65ec14610119575b600080fd5b34801561006657600080fd5b5061006f61012c565b60405161007c91906113b2565b60405180910390f35b34801561009157600080fd5b506100a56100a0366004611488565b610375565b60405161007c969594939291906114a1565b3480156100c357600080fd5b506100d76100d2366004611522565b61056a565b005b3480156100e557600080fd5b506100d76100f4366004611611565b6108d6565b34801561010557600080fd5b506100d7610114366004611671565b610cbb565b6100d7610127366004611522565b610e48565b60606000805480602002602001604051908101604052809291908181526020016000905b8282101561036c57838290600052602060002090600502016040518060c001604052908160008201805461018390611733565b80601f01602080910402602001604051908101604052809291908181526020018280546101af90611733565b80156101fc5780601f106101d1576101008083540402835291602001916101fc565b820191906000526020600020905b8154815290600101906020018083116101df57829003601f168201915b5050505050815260200160018201805461021590611733565b80601f016020809104026020016040519081016040528092919081815260200182805461024190611733565b801561028e5780601f106102635761010080835404028352916020019161028e565b820191906000526020600020905b81548152906001019060200180831161027157829003601f168201915b505050505081526020016002820180546102a790611733565b80601f01602080910402602001604051908101604052809291908181526020018280546102d390611733565b80156103205780601f106102f557610100808354040283529160200191610320565b820191906000526020600020905b81548152906001019060200180831161030357829003601f168201915b5050509183525050600382015460ff81166020808401919091526001600160a01b0361010090920482166040840152600490930154166060909101529082526001929092019101610150565b50505050905090565b6000818154811061038557600080fd5b90600052602060002090600502016000915090508060000180546103a890611733565b80601f01602080910402602001604051908101604052809291908181526020018280546103d490611733565b80156104215780601f106103f657610100808354040283529160200191610421565b820191906000526020600020905b81548152906001019060200180831161040457829003601f168201915b50505050509080600101805461043690611733565b80601f016020809104026020016040519081016040528092919081815260200182805461046290611733565b80156104af5780601f10610484576101008083540402835291602001916104af565b820191906000526020600020905b81548152906001019060200180831161049257829003601f168201915b5050505050908060020180546104c490611733565b80601f01602080910402602001604051908101604052809291908181526020018280546104f090611733565b801561053d5780601f106105125761010080835404028352916020019161053d565b820191906000526020600020905b81548152906001019060200180831161052057829003601f168201915b5050506003840154600490940154929360ff8116936001600160a01b036101009092048216935016905086565b61057261130a565b60005b60005481101561081857604051621554d160ea1b602082015260230160405160208183030381529060405280519060200120600082815481106105ba576105ba61176d565b90600052602060002090600502016001016040516020016105db9190611783565b604051602081830303815290604052805190602001200361081057600081815481106106095761060961176d565b90600052602060002090600502016040518060c001604052908160008201805461063290611733565b80601f016020809104026020016040519081016040528092919081815260200182805461065e90611733565b80156106ab5780601f10610680576101008083540402835291602001916106ab565b820191906000526020600020905b81548152906001019060200180831161068e57829003601f168201915b505050505081526020016001820180546106c490611733565b80601f01602080910402602001604051908101604052809291908181526020018280546106f090611733565b801561073d5780601f106107125761010080835404028352916020019161073d565b820191906000526020600020905b81548152906001019060200180831161072057829003601f168201915b5050505050815260200160028201805461075690611733565b80601f016020809104026020016040519081016040528092919081815260200182805461078290611733565b80156107cf5780601f106107a4576101008083540402835291602001916107cf565b820191906000526020600020905b8154815290600101906020018083116107b257829003601f168201915b5050509183525050600382015460ff811660208301526001600160a01b03610100909104811660408301526004909201549091166060909101529150610818565b600101610575565b5060a0810151604051633477cc1b60e21b81526001600160a01b038581166004830152602482018590529091169063d1df306c90604401600060405180830381600087803b15801561086957600080fd5b505af115801561087d573d6000803e3d6000fd5b50505060a0820151604080516001600160a01b038088168252909216602083015281018490527f701b5529965ebb86012428e015f6e2cd75a3d142ba53d6d4f916842b0c553616915060600160405180910390a1505050565b600081905060006040518060c00160405280836001600160a01b03166306fdde036040518163ffffffff1660e01b8152600401600060405180830381865afa158015610926573d6000803e3d6000fd5b505050506040513d6000823e601f3d908101601f1916820160405261094e91908101906117f8565b8152602001836001600160a01b03166395d89b416040518163ffffffff1660e01b8152600401600060405180830381865afa158015610991573d6000803e3d6000fd5b505050506040513d6000823e601f3d908101601f191682016040526109b991908101906117f8565b8152602001858152602001836001600160a01b031663313ce5676040518163ffffffff1660e01b8152600401602060405180830381865afa158015610a02573d6000803e3d6000fd5b505050506040513d601f19601f82011682018060405250810190610a26919061186f565b60ff168152336020808301919091526001600160a01b0385166040909201919091528254600181018455600093845292208151919260050201908190610a6c90826118e1565b5060208201516001820190610a8190826118e1565b5060408201516002820190610a9690826118e1565b506060820151600382018054608085015160ff9093166001600160a81b0319909116176101006001600160a01b039384160217905560a090920151600491820180546001600160a01b031916918416919091179055604080516306fdde0360e01b8152905133938516927f9f3a99fc2f8d42e35f79e33dac87f5b0e1a6b4dcc1e1efd76a118d2d4306c1cf9284926306fdde03928281019260009291908290030181865afa158015610b4c573d6000803e3d6000fd5b505050506040513d6000823e601f3d908101601f19168201604052610b7491908101906117f8565b846001600160a01b03166395d89b416040518163ffffffff1660e01b8152600401600060405180830381865afa158015610bb2573d6000803e3d6000fd5b505050506040513d6000823e601f3d908101601f19168201604052610bda91908101906117f8565b856001600160a01b031663313ce5676040518163ffffffff1660e01b8152600401602060405180830381865afa158015610c18573d6000803e3d6000fd5b505050506040513d601f19601f82011682018060405250810190610c3c919061186f565b866001600160a01b03166318160ddd6040518163ffffffff1660e01b8152600401602060405180830381865afa158015610c7a573d6000803e3d6000fd5b505050506040513d601f19601f82011682018060405250810190610c9e91906119a0565b604051610cae94939291906119b9565b60405180910390a3505050565b60008686848487604051610cce90611355565b610cdc9594939291906119f5565b604051809103906000f080158015610cf8573d6000803e3d6000fd5b506040805160c0810182528981526020810189905290810187905260ff861660608201526001600160a01b038086166080830152821660a0820152600080546001810182559080528151929350909160059091027f290decd9548b62a8d60345a988386fc84ba6bc95484008f6362f93160ef3e56301908190610d7b90826118e1565b5060208201516001820190610d9090826118e1565b5060408201516002820190610da590826118e1565b506060820151600382018054608085015160ff9093166001600160a81b0319909116176101006001600160a01b039384160217905560a090920151600490910180546001600160a01b031916918316919091179055604051848216918316907f6aba688e0d9fb13e49808a9f69e09384142cd46853e4ecfcf79aa7e4d63c183290610e37908b908b908a9089906119b9565b60405180910390a350505050505050565b6001600160a01b038216610ea35760405162461bcd60e51b815260206004820152601960248201527f496e76616c696420726563697069656e7420616464726573730000000000000060448201526064015b60405180910390fd5b610eab61130a565b60005b60005481101561115157604051621554d160ea1b60208201526023016040516020818303038152906040528051906020012060008281548110610ef357610ef361176d565b9060005260206000209060050201600101604051602001610f149190611783565b60405160208183030381529060405280519060200120036111495760008181548110610f4257610f4261176d565b90600052602060002090600502016040518060c0016040529081600082018054610f6b90611733565b80601f0160208091040260200160405190810160405280929190818152602001828054610f9790611733565b8015610fe45780601f10610fb957610100808354040283529160200191610fe4565b820191906000526020600020905b815481529060010190602001808311610fc757829003601f168201915b50505050508152602001600182018054610ffd90611733565b80601f016020809104026020016040519081016040528092919081815260200182805461102990611733565b80156110765780601f1061104b57610100808354040283529160200191611076565b820191906000526020600020905b81548152906001019060200180831161105957829003601f168201915b5050505050815260200160028201805461108f90611733565b80601f01602080910402602001604051908101604052809291908181526020018280546110bb90611733565b80156111085780601f106110dd57610100808354040283529160200191611108565b820191906000526020600020905b8154815290600101906020018083116110eb57829003601f168201915b5050509183525050600382015460ff811660208301526001600160a01b03610100909104811660408301526004909201549091166060909101529150611151565b600101610eae565b5060a08101516001600160a01b03166379c65068846064611173866061611a44565b61117d9190611a6f565b6040516001600160e01b031960e085901b1681526001600160a01b03909216600483015260248201526044016020604051808303816000875af11580156111c8573d6000803e3d6000fd5b505050506040513d601f19601f820116820180604052508101906111ec91906119a0565b507fe6377df1cc7f4aab8a064e5678c466a503ab90acc02304607ebe814413839e25838260a0015160648560616112239190611a44565b61122d9190611a6f565b604080516001600160a01b0394851681529390921660208401529082015260600160405180910390a134156113055760006001600160a01b038416606461127534605f611a44565b61127f9190611a6f565b604051600081818185875af1925050503d80600081146112bb576040519150601f19603f3d011682016040523d82523d6000602084013e6112c0565b606091505b50509050806113035760405162461bcd60e51b815260206004820152600f60248201526e151c985b9cd9995c8819985a5b1959608a1b6044820152606401610e9a565b505b505050565b6040518060c00160405280606081526020016060815260200160608152602001600060ff16815260200160006001600160a01b0316815260200160006001600160a01b031681525090565b610da880611a9283390190565b60005b8381101561137d578181015183820152602001611365565b50506000910152565b6000815180845261139e816020860160208601611362565b601f01601f19169290920160200192915050565b6000602082016020835280845180835260408501915060408160051b86010192506020860160005b8281101561147c57603f198786030184528151805160c0875261140060c0880182611386565b9050602082015187820360208901526114198282611386565b915050604082015187820360408901526114338282611386565b60608481015160ff16908a01526080808501516001600160a01b03908116918b019190915260a094850151169390980192909252505060209384019391909101906001016113da565b50929695505050505050565b60006020828403121561149a57600080fd5b5035919050565b60c0815260006114b460c0830189611386565b82810360208401526114c68189611386565b905082810360408401526114da8188611386565b60ff96909616606084015250506001600160a01b039283166080820152911660a0909101529392505050565b80356001600160a01b038116811461151d57600080fd5b919050565b6000806040838503121561153557600080fd5b61153e83611506565b946020939093013593505050565b634e487b7160e01b600052604160045260246000fd5b604051601f8201601f1916810167ffffffffffffffff8111828210171561158b5761158b61154c565b604052919050565b600067ffffffffffffffff8211156115ad576115ad61154c565b50601f01601f191660200190565b600082601f8301126115cc57600080fd5b81356115df6115da82611593565b611562565b8181528460208386010111156115f457600080fd5b816020850160208301376000918101602001919091529392505050565b6000806040838503121561162457600080fd5b823567ffffffffffffffff81111561163b57600080fd5b611647858286016115bb565b92505061165660208401611506565b90509250929050565b60ff8116811461166e57600080fd5b50565b60008060008060008060c0878903121561168a57600080fd5b863567ffffffffffffffff8111156116a157600080fd5b6116ad89828a016115bb565b965050602087013567ffffffffffffffff8111156116ca57600080fd5b6116d689828a016115bb565b955050604087013567ffffffffffffffff8111156116f357600080fd5b6116ff89828a016115bb565b94505060608701356117108161165f565b925061171e60808801611506565b9598949750929591949360a090920135925050565b600181811c9082168061174757607f821691505b60208210810361176757634e487b7160e01b600052602260045260246000fd5b50919050565b634e487b7160e01b600052603260045260246000fd5b600080835461179181611733565b6001821680156117a857600181146117bd576117ed565b60ff19831686528115158202860193506117ed565b86600052602060002060005b838110156117e5578154888201526001909101906020016117c9565b505081860193505b509195945050505050565b60006020828403121561180a57600080fd5b815167ffffffffffffffff81111561182157600080fd5b8201601f8101841361183257600080fd5b80516118406115da82611593565b81815285602083850101111561185557600080fd5b611866826020830160208601611362565b95945050505050565b60006020828403121561188157600080fd5b815161188c8161165f565b9392505050565b601f82111561130557806000526020600020601f840160051c810160208510156118ba5750805b601f840160051c820191505b818110156118da57600081556001016118c6565b5050505050565b815167ffffffffffffffff8111156118fb576118fb61154c565b61190f816119098454611733565b84611893565b6020601f821160018114611943576000831561192b5750848201515b600019600385901b1c1916600184901b1784556118da565b600084815260208120601f198516915b828110156119735787850151825560209485019460019092019101611953565b50848210156119915786840151600019600387901b60f8161c191681555b50505050600190811b01905550565b6000602082840312156119b257600080fd5b5051919050565b6080815260006119cc6080830187611386565b82810360208401526119de8187611386565b60ff95909516604084015250506060015292915050565b60a081526000611a0860a0830188611386565b8281036020840152611a1a8188611386565b6001600160a01b039690961660408401525050606081019290925260ff1660809091015292915050565b8082028115828204841417611a6957634e487b7160e01b600052601160045260246000fd5b92915050565b600082611a8c57634e487b7160e01b600052601260045260246000fd5b50049056fe60806040526005805460ff1916601217905534801561001d57600080fd5b50604051610da8380380610da883398101604081905261003c9161029f565b8484600361004a83826103d7565b50600461005782826103d7565b50506005805460ff191660ff841617905550610073838361007d565b50505050506104bc565b6001600160a01b0382166100ac5760405163ec442f0560e01b8152600060048201526024015b60405180910390fd5b6100b8600083836100bc565b5050565b6001600160a01b0383166100e75780600260008282546100dc9190610495565b909155506101599050565b6001600160a01b0383166000908152602081905260409020548181101561013a5760405163391434e360e21b81526001600160a01b038516600482015260248101829052604481018390526064016100a3565b6001600160a01b03841660009081526020819052604090209082900390555b6001600160a01b03821661017557600280548290039055610194565b6001600160a01b03821660009081526020819052604090208054820190555b816001600160a01b0316836001600160a01b03167fddf252ad1be2c89b69c2b068fc378daa952ba7f163c4a11628f55a4df523b3ef836040516101d991815260200190565b60405180910390a3505050565b634e487b7160e01b600052604160045260246000fd5b600082601f83011261020d57600080fd5b81516001600160401b03811115610226576102266101e6565b604051601f8201601f19908116603f011681016001600160401b0381118282101715610254576102546101e6565b60405281815283820160200185101561026c57600080fd5b60005b8281101561028b5760208186018101518383018201520161026f565b506000918101602001919091529392505050565b600080600080600060a086880312156102b757600080fd5b85516001600160401b038111156102cd57600080fd5b6102d9888289016101fc565b602088015190965090506001600160401b038111156102f757600080fd5b610303888289016101fc565b604088015190955090506001600160a01b038116811461032257600080fd5b60608701516080880151919450925060ff8116811461034057600080fd5b809150509295509295909350565b600181811c9082168061036257607f821691505b60208210810361038257634e487b7160e01b600052602260045260246000fd5b50919050565b601f8211156103d257806000526020600020601f840160051c810160208510156103af5750805b601f840160051c820191505b818110156103cf57600081556001016103bb565b50505b505050565b81516001600160401b038111156103f0576103f06101e6565b610404816103fe845461034e565b84610388565b6020601f82116001811461043857600083156104205750848201515b600019600385901b1c1916600184901b1784556103cf565b600084815260208120601f198516915b828110156104685787850151825560209485019460019092019101610448565b50848210156104865786840151600019600387901b60f8161c191681555b50505050600190811b01905550565b808201808211156104b657634e487b7160e01b600052601160045260246000fd5b92915050565b6108dd806104cb6000396000f3fe608060405234801561001057600080fd5b50600436106100a95760003560e01c806370a082311161007157806370a082311461012957806379c650681461015257806395d89b4114610165578063a9059cbb1461016d578063d1df306c14610180578063dd62ed3e1461019557600080fd5b806306fdde03146100ae578063095ea7b3146100cc57806318160ddd146100ef57806323b872dd14610101578063313ce56714610114575b600080fd5b6100b66101ce565b6040516100c3919061072c565b60405180910390f35b6100df6100da366004610796565b610260565b60405190151581526020016100c3565b6002545b6040519081526020016100c3565b6100df61010f3660046107c0565b61027a565b60055460405160ff90911681526020016100c3565b6100f36101373660046107fd565b6001600160a01b031660009081526020819052604090205490565b6100f3610160366004610796565b61029e565b6100b6610300565b6100df61017b366004610796565b61030f565b61019361018e366004610796565b61031d565b005b6100f36101a336600461081f565b6001600160a01b03918216600090815260016020908152604080832093909416825291909152205490565b6060600380546101dd90610852565b80601f016020809104026020016040519081016040528092919081815260200182805461020990610852565b80156102565780601f1061022b57610100808354040283529160200191610256565b820191906000526020600020905b81548152906001019060200180831161023957829003601f168201915b5050505050905090565b60003361026e8185856103d2565b60019150505b92915050565b6000336102888582856103e4565b610293858585610462565b506001949350505050565b60008082116102f05760405162461bcd60e51b8152602060048201526019602482015278416d6f756e742063616e6e6f74206265206e6567617469766560381b60448201526064015b60405180910390fd5b6102fa83836104c1565b50919050565b6060600480546101dd90610852565b60003361026e818585610462565b600081116103695760405162461bcd60e51b8152602060048201526019602482015278416d6f756e742063616e6e6f74206265206e6567617469766560381b60448201526064016102e7565b6001600160a01b038216600090815260208190526040812054116103c45760405162461bcd60e51b8152602060048201526012602482015271084c2d8c2dcc6ca40dcdee840cadcdeeaced60731b60448201526064016102e7565b6103ce82826104f7565b5050565b6103df838383600161052d565b505050565b6001600160a01b03838116600090815260016020908152604080832093861683529290522054600019811461045c578181101561044d57604051637dc7a0d960e11b81526001600160a01b038416600482015260248101829052604481018390526064016102e7565b61045c8484848403600061052d565b50505050565b6001600160a01b03831661048c57604051634b637e8f60e11b8152600060048201526024016102e7565b6001600160a01b0382166104b65760405163ec442f0560e01b8152600060048201526024016102e7565b6103df838383610602565b6001600160a01b0382166104eb5760405163ec442f0560e01b8152600060048201526024016102e7565b6103ce60008383610602565b6001600160a01b03821661052157604051634b637e8f60e11b8152600060048201526024016102e7565b6103ce82600083610602565b6001600160a01b0384166105575760405163e602df0560e01b8152600060048201526024016102e7565b6001600160a01b03831661058157604051634a1406b160e11b8152600060048201526024016102e7565b6001600160a01b038085166000908152600160209081526040808320938716835292905220829055801561045c57826001600160a01b0316846001600160a01b03167f8c5be1e5ebec7d5bd14f71427d1e84f3dd0314c0f7b2291e5b200ac8c7c3b925846040516105f491815260200190565b60405180910390a350505050565b6001600160a01b03831661062d5780600260008282546106229190610886565b9091555061069f9050565b6001600160a01b038316600090815260208190526040902054818110156106805760405163391434e360e21b81526001600160a01b038516600482015260248101829052604481018390526064016102e7565b6001600160a01b03841660009081526020819052604090209082900390555b6001600160a01b0382166106bb576002805482900390556106da565b6001600160a01b03821660009081526020819052604090208054820190555b816001600160a01b0316836001600160a01b03167fddf252ad1be2c89b69c2b068fc378daa952ba7f163c4a11628f55a4df523b3ef8360405161071f91815260200190565b60405180910390a3505050565b602081526000825180602084015260005b8181101561075a576020818601810151604086840101520161073d565b506000604082850101526040601f19601f83011684010191505092915050565b80356001600160a01b038116811461079157600080fd5b919050565b600080604083850312156107a957600080fd5b6107b28361077a565b946020939093013593505050565b6000806000606084860312156107d557600080fd5b6107de8461077a565b92506107ec6020850161077a565b929592945050506040919091013590565b60006020828403121561080f57600080fd5b6108188261077a565b9392505050565b6000806040838503121561083257600080fd5b61083b8361077a565b91506108496020840161077a565b90509250929050565b600181811c9082168061086657607f821691505b6020821081036102fa57634e487b7160e01b600052602260045260246000fd5b8082018082111561027457634e487b7160e01b600052601160045260246000fdfea2646970667358221220f0fc64f0efabd711452bc51e8ffca963c61b149411e354a3ec3a02319c57675e64736f6c634300081b0033a2646970667358221220cd70204b79afb48b51c2dcdb2e0f4f7c835f7b619d777416c6b347e8170ca35764736f6c634300081b0033",
  "linkReferences": {},
  "deployedLinkReferences": {}
}