{
  "_format": "hh-sol-artifact-1",
  "contractName": "FactoryToken",
  "sourceName": "contracts/FactoryToken.sol",
  "abi": [
    {
      "anonymous": false,
      "inputs": [
        {
          "indexed": false,
          "internalType": "address",
          "name": "_from",
          "type": "address"
        },
        {
          "indexed": false,
          "internalType": "address",
          "name": "tokenAddress",
          "type": "address"
        },
        {
          "indexed": false,
          "internalType": "uint256",
          "name": "_amount",
          "type": "uint256"
        }
      ],
      "name": "BURNUSD",
      "type": "event"
    },
    {
      "anonymous": false,
      "inputs": [
        {
          "indexed": false,
          "internalType": "address",
          "name": "_to",
          "type": "address"
        },
        {
          "indexed": false,
          "internalType": "address",
          "name": "tokenAddress",
          "type": "address"
        },
        {
          "indexed": false,
          "internalType": "uint256",
          "name": "_amount",
          "type": "uint256"
        }
      ],
      "name": "MINTUSD",
      "type": "event"
    },
    {
      "anonymous": false,
      "inputs": [
        {
          "indexed": true,
          "internalType": "address",
          "name": "tokenAddress",
          "type": "address"
        },
        {
          "indexed": true,
          "internalType": "address",
          "name": "owner",
          "type": "address"
        },
        {
          "indexed": false,
          "internalType": "string",
          "name": "name",
          "type": "string"
        },
        {
          "indexed": false,
          "internalType": "string",
          "name": "symbol",
          "type": "string"
        },
        {
          "indexed": false,
          "internalType": "uint8",
          "name": "decimals",
          "type": "uint8"
        },
        {
          "indexed": false,
          "internalType": "uint256",
          "name": "initialSupply",
          "type": "uint256"
        }
      ],
      "name": "TokenCreated",
      "type": "event"
    },
    {
      "inputs": [
        {
          "internalType": "uint256",
          "name": "",
          "type": "uint256"
        }
      ],
      "name": "allTokens",
      "outputs": [
        {
          "internalType": "string",
          "name": "name",
          "type": "string"
        },
        {
          "internalType": "string",
          "name": "symbol",
          "type": "string"
        },
        {
          "internalType": "string",
          "name": "img",
          "type": "string"
        },
        {
          "internalType": "uint8",
          "name": "decimals",
          "type": "uint8"
        },
        {
          "internalType": "address",
          "name": "owner",
          "type": "address"
        },
        {
          "internalType": "address",
          "name": "tokenAddress",
          "type": "address"
        }
      ],
      "stateMutability": "view",
      "type": "function"
    },
    {
      "inputs": [
        {
          "internalType": "address",
          "name": "_from",
          "type": "address"
        },
        {
          "internalType": "uint256",
          "name": "_amount",
          "type": "uint256"
        }
      ],
      "name": "burnUSD",
      "outputs": [],
      "stateMutability": "nonpayable",
      "type": "function"
    },
    {
      "inputs": [
        {
          "internalType": "string",
          "name": "name",
          "type": "string"
        },
        {
          "internalType": "string",
          "name": "symbol",
          "type": "string"
        },
        {
          "internalType": "string",
          "name": "img",
          "type": "string"
        },
        {
          "internalType": "uint8",
          "name": "decimals",
          "type": "uint8"
        },
        {
          "internalType": "address",
          "name": "initialOwner",
          "type": "address"
        },
        {
          "internalType": "uint256",
          "name": "initialSupply",
          "type": "uint256"
        }
      ],
      "name": "createToken",
      "outputs": [],
      "stateMutability": "nonpayable",
      "type": "function"
    },
    {
      "inputs": [],
      "name": "getAllTokens",
      "outputs": [
        {
          "components": [
            {
              "internalType": "string",
              "name": "name",
              "type": "string"
            },
            {
              "internalType": "string",
              "name": "symbol",
              "type": "string"
            },
            {
              "internalType": "string",
              "name": "img",
              "type": "string"
            },
            {
              "internalType": "uint8",
              "name": "decimals",
              "type": "uint8"
            },
            {
              "internalType": "address",
              "name": "owner",
              "type": "address"
            },
            {
              "internalType": "address",
              "name": "tokenAddress",
              "type": "address"
            }
          ],
          "internalType": "struct FactoryToken.Token[]",
          "name": "",
          "type": "tuple[]"
        }
      ],
      "stateMutability": "view",
      "type": "function"
    },
    {
      "inputs": [
        {
          "internalType": "address",
          "name": "_to",
          "type": "address"
        },
        {
          "internalType": "uint256",
          "name": "_amount",
          "type": "uint256"
        }
      ],
      "name": "mintUSD",
      "outputs": [],
      "stateMutability": "payable",
      "type": "function"
    }
  ],
  "bytecode": "0x6080604052348015600f57600080fd5b506122f88061001f6000396000f3fe60806040526004361061004a5760003560e01c80632a5c792a1461004f578063634282af1461007a5780636f943afd146100ac578063d80bf6f5146100ce578063e0ca65ec146100ee575b600080fd5b34801561005b57600080fd5b50610064610101565b6040516100719190610f9d565b60405180910390f35b34801561008657600080fd5b5061009a610095366004611073565b61034a565b6040516100719695949392919061108c565b3480156100b857600080fd5b506100cc6100c736600461110d565b61053f565b005b3480156100da57600080fd5b506100cc6100e93660046111dc565b6108ab565b6100cc6100fc36600461110d565b610a38565b60606000805480602002602001604051908101604052809291908181526020016000905b8282101561034157838290600052602060002090600502016040518060c0016040529081600082018054610158906112a4565b80601f0160208091040260200160405190810160405280929190818152602001828054610184906112a4565b80156101d15780601f106101a6576101008083540402835291602001916101d1565b820191906000526020600020905b8154815290600101906020018083116101b457829003601f168201915b505050505081526020016001820180546101ea906112a4565b80601f0160208091040260200160405190810160405280929190818152602001828054610216906112a4565b80156102635780601f1061023857610100808354040283529160200191610263565b820191906000526020600020905b81548152906001019060200180831161024657829003601f168201915b5050505050815260200160028201805461027c906112a4565b80601f01602080910402602001604051908101604052809291908181526020018280546102a8906112a4565b80156102f55780601f106102ca576101008083540402835291602001916102f5565b820191906000526020600020905b8154815290600101906020018083116102d857829003601f168201915b5050509183525050600382015460ff81166020808401919091526001600160a01b0361010090920482166040840152600490930154166060909101529082526001929092019101610125565b50505050905090565b6000818154811061035a57600080fd5b906000526020600020906005020160009150905080600001805461037d906112a4565b80601f01602080910402602001604051908101604052809291908181526020018280546103a9906112a4565b80156103f65780601f106103cb576101008083540402835291602001916103f6565b820191906000526020600020905b8154815290600101906020018083116103d957829003601f168201915b50505050509080600101805461040b906112a4565b80601f0160208091040260200160405190810160405280929190818152602001828054610437906112a4565b80156104845780601f1061045957610100808354040283529160200191610484565b820191906000526020600020905b81548152906001019060200180831161046757829003601f168201915b505050505090806002018054610499906112a4565b80601f01602080910402602001604051908101604052809291908181526020018280546104c5906112a4565b80156105125780601f106104e757610100808354040283529160200191610512565b820191906000526020600020905b8154815290600101906020018083116104f557829003601f168201915b5050506003840154600490940154929360ff8116936001600160a01b036101009092048216935016905086565b610547610eff565b60005b6000548110156107ed57604051621554d160ea1b6020820152602301604051602081830303815290604052805190602001206000828154811061058f5761058f6112de565b90600052602060002090600502016001016040516020016105b091906112f4565b60405160208183030381529060405280519060200120036107e557600081815481106105de576105de6112de565b90600052602060002090600502016040518060c0016040529081600082018054610607906112a4565b80601f0160208091040260200160405190810160405280929190818152602001828054610633906112a4565b80156106805780601f1061065557610100808354040283529160200191610680565b820191906000526020600020905b81548152906001019060200180831161066357829003601f168201915b50505050508152602001600182018054610699906112a4565b80601f01602080910402602001604051908101604052809291908181526020018280546106c5906112a4565b80156107125780601f106106e757610100808354040283529160200191610712565b820191906000526020600020905b8154815290600101906020018083116106f557829003601f168201915b5050505050815260200160028201805461072b906112a4565b80601f0160208091040260200160405190810160405280929190818152602001828054610757906112a4565b80156107a45780601f10610779576101008083540402835291602001916107a4565b820191906000526020600020905b81548152906001019060200180831161078757829003601f168201915b5050509183525050600382015460ff811660208301526001600160a01b036101009091048116604083015260049092015490911660609091015291506107ed565b60010161054a565b5060a0810151604051633477cc1b60e21b81526001600160a01b038581166004830152602482018590529091169063d1df306c90604401600060405180830381600087803b15801561083e57600080fd5b505af1158015610852573d6000803e3d6000fd5b50505060a0820151604080516001600160a01b038088168252909216602083015281018490527f701b5529965ebb86012428e015f6e2cd75a3d142ba53d6d4f916842b0c553616915060600160405180910390a1505050565b600086868484876040516108be90610f4a565b6108cc959493929190611369565b604051809103906000f0801580156108e8573d6000803e3d6000fd5b506040805160c0810182528981526020810189905290810187905260ff861660608201526001600160a01b038086166080830152821660a0820152600080546001810182559080528151929350909160059091027f290decd9548b62a8d60345a988386fc84ba6bc95484008f6362f93160ef3e5630190819061096b9082611406565b50602082015160018201906109809082611406565b50604082015160028201906109959082611406565b506060820151600382018054608085015160ff9093166001600160a81b0319909116176101006001600160a01b039384160217905560a090920151600490910180546001600160a01b031916918316919091179055604051848216918316907f6aba688e0d9fb13e49808a9f69e09384142cd46853e4ecfcf79aa7e4d63c183290610a27908b908b908a9089906114c5565b60405180910390a350505050505050565b6001600160a01b038216610a935760405162461bcd60e51b815260206004820152601960248201527f496e76616c696420726563697069656e7420616464726573730000000000000060448201526064015b60405180910390fd5b610a9b610eff565b60005b600054811015610d4157604051621554d160ea1b60208201526023016040516020818303038152906040528051906020012060008281548110610ae357610ae36112de565b9060005260206000209060050201600101604051602001610b0491906112f4565b6040516020818303038152906040528051906020012003610d395760008181548110610b3257610b326112de565b90600052602060002090600502016040518060c0016040529081600082018054610b5b906112a4565b80601f0160208091040260200160405190810160405280929190818152602001828054610b87906112a4565b8015610bd45780601f10610ba957610100808354040283529160200191610bd4565b820191906000526020600020905b815481529060010190602001808311610bb757829003601f168201915b50505050508152602001600182018054610bed906112a4565b80601f0160208091040260200160405190810160405280929190818152602001828054610c19906112a4565b8015610c665780601f10610c3b57610100808354040283529160200191610c66565b820191906000526020600020905b815481529060010190602001808311610c4957829003601f168201915b50505050508152602001600282018054610c7f906112a4565b80601f0160208091040260200160405190810160405280929190818152602001828054610cab906112a4565b8015610cf85780601f10610ccd57610100808354040283529160200191610cf8565b820191906000526020600020905b815481529060010190602001808311610cdb57829003601f168201915b5050509183525050600382015460ff811660208301526001600160a01b03610100909104811660408301526004909201549091166060909101529150610d41565b600101610a9e565b5060a0810151604051630f38ca0d60e31b81526001600160a01b03858116600483015260248201859052909116906379c65068906044016020604051808303816000875af1158015610d97573d6000803e3d6000fd5b505050506040513d601f19601f82011682018060405250810190610dbb9190611501565b5060a0810151604080516001600160a01b038087168252909216602083015281018390527fe6377df1cc7f4aab8a064e5678c466a503ab90acc02304607ebe814413839e259060600160405180910390a13415610efa573433311015610e635760405162461bcd60e51b815260206004820152601a60248201527f496e73756666696369656e742045746865722062616c616e63650000000000006044820152606401610a8a565b6000836001600160a01b03163460405160006040518083038185875af1925050503d8060008114610eb0576040519150601f19603f3d011682016040523d82523d6000602084013e610eb5565b606091505b5050905080610ef85760405162461bcd60e51b815260206004820152600f60248201526e151c985b9cd9995c8819985a5b1959608a1b6044820152606401610a8a565b505b505050565b6040518060c00160405280606081526020016060815260200160608152602001600060ff16815260200160006001600160a01b0316815260200160006001600160a01b031681525090565b610da88061151b83390190565b6000815180845260005b81811015610f7d57602081850181015186830182015201610f61565b506000602082860101526020601f19601f83011685010191505092915050565b6000602082016020835280845180835260408501915060408160051b86010192506020860160005b8281101561106757603f198786030184528151805160c08752610feb60c0880182610f57565b9050602082015187820360208901526110048282610f57565b9150506040820151878203604089015261101e8282610f57565b60608481015160ff16908a01526080808501516001600160a01b03908116918b019190915260a09485015116939098019290925250506020938401939190910190600101610fc5565b50929695505050505050565b60006020828403121561108557600080fd5b5035919050565b60c08152600061109f60c0830189610f57565b82810360208401526110b18189610f57565b905082810360408401526110c58188610f57565b60ff96909616606084015250506001600160a01b039283166080820152911660a0909101529392505050565b80356001600160a01b038116811461110857600080fd5b919050565b6000806040838503121561112057600080fd5b611129836110f1565b946020939093013593505050565b634e487b7160e01b600052604160045260246000fd5b600082601f83011261115e57600080fd5b813567ffffffffffffffff81111561117857611178611137565b604051601f8201601f19908116603f0116810167ffffffffffffffff811182821017156111a7576111a7611137565b6040528181528382016020018510156111bf57600080fd5b816020850160208301376000918101602001919091529392505050565b60008060008060008060c087890312156111f557600080fd5b863567ffffffffffffffff81111561120c57600080fd5b61121889828a0161114d565b965050602087013567ffffffffffffffff81111561123557600080fd5b61124189828a0161114d565b955050604087013567ffffffffffffffff81111561125e57600080fd5b61126a89828a0161114d565b945050606087013560ff8116811461128157600080fd5b925061128f608088016110f1565b9598949750929591949360a090920135925050565b600181811c908216806112b857607f821691505b6020821081036112d857634e487b7160e01b600052602260045260246000fd5b50919050565b634e487b7160e01b600052603260045260246000fd5b6000808354611302816112a4565b600182168015611319576001811461132e5761135e565b60ff198316865281151582028601935061135e565b86600052602060002060005b838110156113565781548882015260019091019060200161133a565b505081860193505b509195945050505050565b60a08152600061137c60a0830188610f57565b828103602084015261138e8188610f57565b6001600160a01b039690961660408401525050606081019290925260ff1660809091015292915050565b601f821115610efa57806000526020600020601f840160051c810160208510156113df5750805b601f840160051c820191505b818110156113ff57600081556001016113eb565b5050505050565b815167ffffffffffffffff81111561142057611420611137565b6114348161142e84546112a4565b846113b8565b6020601f82116001811461146857600083156114505750848201515b600019600385901b1c1916600184901b1784556113ff565b600084815260208120601f198516915b828110156114985787850151825560209485019460019092019101611478565b50848210156114b65786840151600019600387901b60f8161c191681555b50505050600190811b01905550565b6080815260006114d86080830187610f57565b82810360208401526114ea8187610f57565b60ff95909516604084015250506060015292915050565b60006020828403121561151357600080fd5b505191905056fe60806040526005805460ff1916601217905534801561001d57600080fd5b50604051610da8380380610da883398101604081905261003c9161029f565b8484600361004a83826103d7565b50600461005782826103d7565b50506005805460ff191660ff841617905550610073838361007d565b50505050506104bc565b6001600160a01b0382166100ac5760405163ec442f0560e01b8152600060048201526024015b60405180910390fd5b6100b8600083836100bc565b5050565b6001600160a01b0383166100e75780600260008282546100dc9190610495565b909155506101599050565b6001600160a01b0383166000908152602081905260409020548181101561013a5760405163391434e360e21b81526001600160a01b038516600482015260248101829052604481018390526064016100a3565b6001600160a01b03841660009081526020819052604090209082900390555b6001600160a01b03821661017557600280548290039055610194565b6001600160a01b03821660009081526020819052604090208054820190555b816001600160a01b0316836001600160a01b03167fddf252ad1be2c89b69c2b068fc378daa952ba7f163c4a11628f55a4df523b3ef836040516101d991815260200190565b60405180910390a3505050565b634e487b7160e01b600052604160045260246000fd5b600082601f83011261020d57600080fd5b81516001600160401b03811115610226576102266101e6565b604051601f8201601f19908116603f011681016001600160401b0381118282101715610254576102546101e6565b60405281815283820160200185101561026c57600080fd5b60005b8281101561028b5760208186018101518383018201520161026f565b506000918101602001919091529392505050565b600080600080600060a086880312156102b757600080fd5b85516001600160401b038111156102cd57600080fd5b6102d9888289016101fc565b602088015190965090506001600160401b038111156102f757600080fd5b610303888289016101fc565b604088015190955090506001600160a01b038116811461032257600080fd5b60608701516080880151919450925060ff8116811461034057600080fd5b809150509295509295909350565b600181811c9082168061036257607f821691505b60208210810361038257634e487b7160e01b600052602260045260246000fd5b50919050565b601f8211156103d257806000526020600020601f840160051c810160208510156103af5750805b601f840160051c820191505b818110156103cf57600081556001016103bb565b50505b505050565b81516001600160401b038111156103f0576103f06101e6565b610404816103fe845461034e565b84610388565b6020601f82116001811461043857600083156104205750848201515b600019600385901b1c1916600184901b1784556103cf565b600084815260208120601f198516915b828110156104685787850151825560209485019460019092019101610448565b50848210156104865786840151600019600387901b60f8161c191681555b50505050600190811b01905550565b808201808211156104b657634e487b7160e01b600052601160045260246000fd5b92915050565b6108dd806104cb6000396000f3fe608060405234801561001057600080fd5b50600436106100a95760003560e01c806370a082311161007157806370a082311461012957806379c650681461015257806395d89b4114610165578063a9059cbb1461016d578063d1df306c14610180578063dd62ed3e1461019557600080fd5b806306fdde03146100ae578063095ea7b3146100cc57806318160ddd146100ef57806323b872dd14610101578063313ce56714610114575b600080fd5b6100b66101ce565b6040516100c3919061072c565b60405180910390f35b6100df6100da366004610796565b610260565b60405190151581526020016100c3565b6002545b6040519081526020016100c3565b6100df61010f3660046107c0565b61027a565b60055460405160ff90911681526020016100c3565b6100f36101373660046107fd565b6001600160a01b031660009081526020819052604090205490565b6100f3610160366004610796565b61029e565b6100b6610300565b6100df61017b366004610796565b61030f565b61019361018e366004610796565b61031d565b005b6100f36101a336600461081f565b6001600160a01b03918216600090815260016020908152604080832093909416825291909152205490565b6060600380546101dd90610852565b80601f016020809104026020016040519081016040528092919081815260200182805461020990610852565b80156102565780601f1061022b57610100808354040283529160200191610256565b820191906000526020600020905b81548152906001019060200180831161023957829003601f168201915b5050505050905090565b60003361026e8185856103d2565b60019150505b92915050565b6000336102888582856103e4565b610293858585610462565b506001949350505050565b60008082116102f05760405162461bcd60e51b8152602060048201526019602482015278416d6f756e742063616e6e6f74206265206e6567617469766560381b60448201526064015b60405180910390fd5b6102fa83836104c1565b50919050565b6060600480546101dd90610852565b60003361026e818585610462565b600081116103695760405162461bcd60e51b8152602060048201526019602482015278416d6f756e742063616e6e6f74206265206e6567617469766560381b60448201526064016102e7565b6001600160a01b038216600090815260208190526040812054116103c45760405162461bcd60e51b8152602060048201526012602482015271084c2d8c2dcc6ca40dcdee840cadcdeeaced60731b60448201526064016102e7565b6103ce82826104f7565b5050565b6103df838383600161052d565b505050565b6001600160a01b03838116600090815260016020908152604080832093861683529290522054600019811461045c578181101561044d57604051637dc7a0d960e11b81526001600160a01b038416600482015260248101829052604481018390526064016102e7565b61045c8484848403600061052d565b50505050565b6001600160a01b03831661048c57604051634b637e8f60e11b8152600060048201526024016102e7565b6001600160a01b0382166104b65760405163ec442f0560e01b8152600060048201526024016102e7565b6103df838383610602565b6001600160a01b0382166104eb5760405163ec442f0560e01b8152600060048201526024016102e7565b6103ce60008383610602565b6001600160a01b03821661052157604051634b637e8f60e11b8152600060048201526024016102e7565b6103ce82600083610602565b6001600160a01b0384166105575760405163e602df0560e01b8152600060048201526024016102e7565b6001600160a01b03831661058157604051634a1406b160e11b8152600060048201526024016102e7565b6001600160a01b038085166000908152600160209081526040808320938716835292905220829055801561045c57826001600160a01b0316846001600160a01b03167f8c5be1e5ebec7d5bd14f71427d1e84f3dd0314c0f7b2291e5b200ac8c7c3b925846040516105f491815260200190565b60405180910390a350505050565b6001600160a01b03831661062d5780600260008282546106229190610886565b9091555061069f9050565b6001600160a01b038316600090815260208190526040902054818110156106805760405163391434e360e21b81526001600160a01b038516600482015260248101829052604481018390526064016102e7565b6001600160a01b03841660009081526020819052604090209082900390555b6001600160a01b0382166106bb576002805482900390556106da565b6001600160a01b03821660009081526020819052604090208054820190555b816001600160a01b0316836001600160a01b03167fddf252ad1be2c89b69c2b068fc378daa952ba7f163c4a11628f55a4df523b3ef8360405161071f91815260200190565b60405180910390a3505050565b602081526000825180602084015260005b8181101561075a576020818601810151604086840101520161073d565b506000604082850101526040601f19601f83011684010191505092915050565b80356001600160a01b038116811461079157600080fd5b919050565b600080604083850312156107a957600080fd5b6107b28361077a565b946020939093013593505050565b6000806000606084860312156107d557600080fd5b6107de8461077a565b92506107ec6020850161077a565b929592945050506040919091013590565b60006020828403121561080f57600080fd5b6108188261077a565b9392505050565b6000806040838503121561083257600080fd5b61083b8361077a565b91506108496020840161077a565b90509250929050565b600181811c9082168061086657607f821691505b6020821081036102fa57634e487b7160e01b600052602260045260246000fd5b8082018082111561027457634e487b7160e01b600052601160045260246000fdfea2646970667358221220f0fc64f0efabd711452bc51e8ffca963c61b149411e354a3ec3a02319c57675e64736f6c634300081b0033a26469706673582212204ec8f2e0cabf544c17038564f4b38031a0a691b74bf60439378a283c76878c2364736f6c634300081b0033",
  "linkReferences": {},
  "deployedLinkReferences": {}
}