{
  "_format": "hh-sol-artifact-1",
  "contractName": "FactoryLiquidityPool",
  "sourceName": "contracts/FactoryLiquidityPool.sol",
  "abi": [
    {
      "anonymous": false,
      "inputs": [
        {
          "indexed": true,
          "internalType": "address",
          "name": "token1",
          "type": "address"
        },
        {
          "indexed": true,
          "internalType": "address",
          "name": "token2",
          "type": "address"
        },
        {
          "indexed": false,
          "internalType": "address",
          "name": "pool",
          "type": "address"
        },
        {
          "indexed": false,
          "internalType": "uint256",
          "name": "pollCount",
          "type": "uint256"
        }
      ],
      "name": "PoolCreated",
      "type": "event"
    },
    {
      "inputs": [
        {
          "internalType": "uint256",
          "name": "",
          "type": "uint256"
        }
      ],
      "name": "allPools",
      "outputs": [
        {
          "internalType": "address",
          "name": "",
          "type": "address"
        }
      ],
      "stateMutability": "view",
      "type": "function"
    },
    {
      "inputs": [],
      "name": "allPoolsLength",
      "outputs": [
        {
          "internalType": "uint256",
          "name": "",
          "type": "uint256"
        }
      ],
      "stateMutability": "view",
      "type": "function"
    },
    {
      "inputs": [
        {
          "internalType": "address",
          "name": "token1",
          "type": "address"
        },
        {
          "internalType": "address",
          "name": "token2",
          "type": "address"
        }
      ],
      "name": "createLiquidityPool",
      "outputs": [
        {
          "internalType": "address",
          "name": "pool",
          "type": "address"
        }
      ],
      "stateMutability": "nonpayable",
      "type": "function"
    },
    {
      "inputs": [
        {
          "internalType": "address",
          "name": "token1",
          "type": "address"
        },
        {
          "internalType": "address",
          "name": "token2",
          "type": "address"
        }
      ],
      "name": "getPoolAddress",
      "outputs": [
        {
          "internalType": "address",
          "name": "",
          "type": "address"
        }
      ],
      "stateMutability": "view",
      "type": "function"
    }
  ],
  "bytecode": "0x6080604052348015600f57600080fd5b5061257e8061001f6000396000f3fe608060405234801561001057600080fd5b506004361061004c5760003560e01c80632384d3d0146100515780633fa1e0c81461008157806341d1de97146100b7578063efde4e64146100ca575b600080fd5b61006461005f36600461035a565b6100db565b6040516001600160a01b0390911681526020015b60405180910390f35b61006461008f36600461035a565b6001600160a01b03918216600090815260208181526040808320938516835292905220541690565b6100646100c536600461038d565b610307565b600154604051908152602001610078565b6000816001600160a01b0316836001600160a01b0316036101375760405162461bcd60e51b81526020600482015260116024820152704944454e544943414c5f4144445245535360781b60448201526064015b60405180910390fd5b6001600160a01b0383161580159061015757506001600160a01b03821615155b6101925760405162461bcd60e51b815260206004820152600c60248201526b5a45524f5f4144445245535360a01b604482015260640161012e565b6001600160a01b03838116600090815260208181526040808320868516845290915290205416156101f35760405162461bcd60e51b815260206004820152600b60248201526a504f4f4c5f45584953545360a81b604482015260640161012e565b828260405161020190610331565b6001600160a01b03928316815291166020820152604001604051809103906000f080158015610234573d6000803e3d6000fd5b506001600160a01b0384811660008181526020818152604080832088861680855290835281842080546001600160a01b031990811697891697881790915584845282852086865284528285208054821688179055600180548082018255958190527fb10e2d527612073b26eecdfd717e6a320cf44b4afac2b0732d9fcbe2b7fa0cf690950180549091168717905592548151958652918501919091529394509290917febbbe9dc3a19d2f959ac76ac0372b4983cdfb945f5d6aef4873c36fabb2ba8aa910160405180910390a392915050565b6001818154811061031757600080fd5b6000918252602090912001546001600160a01b0316905081565b6121a2806103a783390190565b80356001600160a01b038116811461035557600080fd5b919050565b6000806040838503121561036d57600080fd5b6103768361033e565b91506103846020840161033e565b90509250929050565b60006020828403121561039f57600080fd5b503591905056fe608060405234801561001057600080fd5b506040516121a23803806121a283398101604081905261002f916102da565b600080546001600160a01b03199081166001600160a01b0385811691821784556001805490931690851617909155604080516306fdde0360e01b815290516306fdde039160048082019286929091908290030181865afa158015610097573d6000803e3d6000fd5b505050506040513d6000823e601f3d908101601f191682016040526100bf9190810190610347565b90506000826001600160a01b03166306fdde036040518163ffffffff1660e01b8152600401600060405180830381865afa158015610101573d6000803e3d6000fd5b505050506040513d6000823e601f3d908101601f191682016040526101299190810190610347565b90506000846001600160a01b03166395d89b416040518163ffffffff1660e01b8152600401600060405180830381865afa15801561016b573d6000803e3d6000fd5b505050506040513d6000823e601f3d908101601f191682016040526101939190810190610347565b90506000846001600160a01b03166395d89b416040518163ffffffff1660e01b8152600401600060405180830381865afa1580156101d5573d6000803e3d6000fd5b505050506040513d6000823e601f3d908101601f191682016040526101fd9190810190610347565b9050600084846040516020016102149291906103f9565b60405160208183030381529060405290506000838360405160200161023a9291906103f9565b604051602081830303815290604052905081813060405161025a906102b1565b61026693929190610471565b604051809103906000f080158015610282573d6000803e3d6000fd5b50600580546001600160a01b0319166001600160a01b0392909216919091179055506104af9650505050505050565b610cb1806114f183390190565b80516001600160a01b03811681146102d557600080fd5b919050565b600080604083850312156102ed57600080fd5b6102f6836102be565b9150610304602084016102be565b90509250929050565b634e487b7160e01b600052604160045260246000fd5b60005b8381101561033e578181015183820152602001610326565b50506000910152565b60006020828403121561035957600080fd5b81516001600160401b0381111561036f57600080fd5b8201601f8101841361038057600080fd5b80516001600160401b038111156103995761039961030d565b604051601f8201601f19908116603f011681016001600160401b03811182821017156103c7576103c761030d565b6040528181528282016020018610156103df57600080fd5b6103f0826020830160208601610323565b95945050505050565b6000835161040b818460208801610323565b600160fd1b9083019081528351610429816001840160208801610323565b620204c560ec1b60019290910191820152600401949350505050565b6000815180845261045d816020860160208601610323565b601f01601f19169290920160200192915050565b6060815260006104846060830186610445565b82810360208401526104968186610445565b91505060018060a01b0383166040830152949350505050565b611033806104be6000396000f3fe608060405234801561001057600080fd5b50600436106100a95760003560e01c80639c8f9f23116100715780639c8f9f231461011a5780639cd441da14610142578063b61eb7cb14610155578063b8c876b114610168578063cc87ab2a14610188578063d21220a71461019b57600080fd5b80631ef7b430146100ae57806325be124e146100ca5780635a76f25e146100f55780635c0b9a2b146100fe5780635fcbd28514610107575b600080fd5b6100b760045481565b6040519081526020015b60405180910390f35b6001546100dd906001600160a01b031681565b6040516001600160a01b0390911681526020016100c1565b6100b760025481565b6100b760035481565b6005546100dd906001600160a01b031681565b61012d610128366004610e5f565b6101ae565b604080519283526020830191909152016100c1565b6100b7610150366004610e78565b61044b565b6100b7610163366004610e9a565b610a2e565b6100b7610176366004610edd565b60066020526000908152604090205481565b6100b7610196366004610ef8565b610a73565b6000546100dd906001600160a01b031681565b3360009081526006602052604081205481908084111561020c5760405162461bcd60e51b81526020600482015260146024820152734e6f7420656e6f756768206c697175696469747960601b60448201526064015b60405180910390fd5b60045460025461021c9086610f38565b6102269190610f4f565b9250600454600354856102399190610f38565b6102439190610f4f565b915082600260008282546102579190610f71565b9250508190555081600360008282546102709190610f71565b9250508190555083600460008282546102899190610f71565b909155505033600090815260066020526040812080548692906102ad908490610f71565b909155505060005460405163a9059cbb60e01b8152336004820152602481018590526001600160a01b039091169063a9059cbb906044016020604051808303816000875af1158015610303573d6000803e3d6000fd5b505050506040513d601f19601f820116820180604052508101906103279190610f84565b5060015460405163a9059cbb60e01b8152336004820152602481018490526001600160a01b039091169063a9059cbb906044016020604051808303816000875af1158015610379573d6000803e3d6000fd5b505050506040513d601f19601f8201168201806040525081019061039d9190610f84565b50600554604051632770a7eb60e21b8152336004820152602481018690526001600160a01b0390911690639dc29fac90604401600060405180830381600087803b1580156103ea57600080fd5b505af11580156103fe573d6000803e3d6000fd5b505060408051868152602081018690529081018790523392507f64b83944e79c3ce8d4c297411de637c3e102d064677aac0c163976ebdcd6f50e915060600160405180910390a250915091565b6000808311801561045c5750600082115b6104b25760405162461bcd60e51b815260206004820152602160248201527f416d6f756e7473206d7573742062652067726561746572207468616e207a65726044820152606f60f81b6064820152608401610203565b600054604051636eb1769f60e11b815233600482015230602482015284916001600160a01b03169063dd62ed3e90604401602060405180830381865afa158015610500573d6000803e3d6000fd5b505050506040513d601f19601f820116820180604052508101906105249190610fad565b10156105725760405162461bcd60e51b815260206004820152601c60248201527f496e73756666696369656e7420746f6b656e20616c6c6f77616e6365000000006044820152606401610203565b600154604051636eb1769f60e11b815233600482015230602482015283916001600160a01b03169063dd62ed3e90604401602060405180830381865afa1580156105c0573d6000803e3d6000fd5b505050506040513d601f19601f820116820180604052508101906105e49190610fad565b10156106325760405162461bcd60e51b815260206004820152601c60248201527f496e73756666696369656e7420746f6b656e20616c6c6f77616e6365000000006044820152606401610203565b6000546040516323b872dd60e01b81526001600160a01b03909116906323b872dd9061066690339030908890600401610fc6565b6020604051808303816000875af1158015610685573d6000803e3d6000fd5b505050506040513d601f19601f820116820180604052508101906106a99190610f84565b506001546040516323b872dd60e01b81526001600160a01b03909116906323b872dd906106de90339030908790600401610fc6565b6020604051808303816000875af11580156106fd573d6000803e3d6000fd5b505050506040513d601f19601f820116820180604052508101906107219190610f84565b50600254839083901580156107365750600354155b156107545761074d6107488587610f38565b610dd5565b92506107e8565b6000600354600254866107679190610f38565b6107719190610f4f565b90506000600254600354886107869190610f38565b6107909190610f4f565b9050818711156107a2578193506107a6565b8092505b6107e3600254600354866107ba9190610f38565b6107c49190610f4f565b6003546002546107d49087610f38565b6107de9190610f4f565b610e45565b945050505b81600260008282546107fa9190610fea565b9250508190555080600360008282546108139190610fea565b92505081905550826004600082825461082c9190610fea565b90915550503360009081526006602052604081208054859290610850908490610fea565b90915550506005546040516340c10f1960e01b8152336004820152602481018590526001600160a01b03909116906340c10f1990604401600060405180830381600087803b1580156108a157600080fd5b505af11580156108b5573d6000803e3d6000fd5b505050508185111561094e576000546001600160a01b031663a9059cbb336108dd8589610f71565b6040516001600160e01b031960e085901b1681526001600160a01b03909216600483015260248201526044016020604051808303816000875af1158015610928573d6000803e3d6000fd5b505050506040513d601f19601f8201168201806040525081019061094c9190610f84565b505b808411156109e3576001546001600160a01b031663a9059cbb336109728488610f71565b6040516001600160e01b031960e085901b1681526001600160a01b03909216600483015260248201526044016020604051808303816000875af11580156109bd573d6000803e3d6000fd5b505050506040513d601f19601f820116820180604052508101906109e19190610f84565b505b604080518681526020810186905290810184905233907f64b83944e79c3ce8d4c297411de637c3e102d064677aac0c163976ebdcd6f50e9060600160405180910390a2505092915050565b600080610a3d856103e3610f38565b905080610a4c856103e8610f38565b610a569190610fea565b610a608483610f38565b610a6a9190610f4f565b95945050505050565b600080546001600160a01b0384811691161480610a9d57506001546001600160a01b038481169116145b610ad95760405162461bcd60e51b815260206004820152600d60248201526c24b73b30b634b2103a37b5b2b760991b6044820152606401610203565b6000546001600160a01b0390811690841603610c2357610afe82600254600354610a2e565b6000546040516323b872dd60e01b81529192506001600160a01b0316906323b872dd90610b3390339030908790600401610fc6565b6020604051808303816000875af1158015610b52573d6000803e3d6000fd5b505050506040513d601f19601f82011682018060405250810190610b769190610f84565b5060015460405163a9059cbb60e01b8152336004820152602481018390526001600160a01b039091169063a9059cbb906044016020604051808303816000875af1158015610bc8573d6000803e3d6000fd5b505050506040513d601f19601f82011682018060405250810190610bec9190610f84565b508160026000828254610bff9190610fea565b925050819055508060036000828254610c189190610f71565b90915550610d529050565b610c3282600354600254610a2e565b6001546040516323b872dd60e01b81529192506001600160a01b0316906323b872dd90610c6790339030908790600401610fc6565b6020604051808303816000875af1158015610c86573d6000803e3d6000fd5b505050506040513d601f19601f82011682018060405250810190610caa9190610f84565b5060005460405163a9059cbb60e01b8152336004820152602481018390526001600160a01b039091169063a9059cbb906044016020604051808303816000875af1158015610cfc573d6000803e3d6000fd5b505050506040513d601f19601f82011682018060405250810190610d209190610f84565b508060026000828254610d339190610f71565b925050819055508160036000828254610d4c9190610fea565b90915550505b6000546001600160a01b03848116911614610d78576001546001600160a01b0316610d85565b6000546001600160a01b03165b60408051848152602081018490526001600160a01b039283169286169133917fad56699d0f375866eb895ed27203058a36a713382aaded78eb6b67da266d4332910160405180910390a492915050565b60006003821115610e365750806000610def600283610f4f565b610dfa906001610fea565b90505b81811015610e3057905080600281610e158186610f4f565b610e1f9190610fea565b610e299190610f4f565b9050610dfd565b50919050565b8115610e40575060015b919050565b6000818310610e545781610e56565b825b90505b92915050565b600060208284031215610e7157600080fd5b5035919050565b60008060408385031215610e8b57600080fd5b50508035926020909101359150565b600080600060608486031215610eaf57600080fd5b505081359360208301359350604090920135919050565b80356001600160a01b0381168114610e4057600080fd5b600060208284031215610eef57600080fd5b610e5682610ec6565b60008060408385031215610f0b57600080fd5b610f1483610ec6565b946020939093013593505050565b634e487b7160e01b600052601160045260246000fd5b8082028115828204841417610e5957610e59610f22565b600082610f6c57634e487b7160e01b600052601260045260246000fd5b500490565b81810381811115610e5957610e59610f22565b600060208284031215610f9657600080fd5b81518015158114610fa657600080fd5b9392505050565b600060208284031215610fbf57600080fd5b5051919050565b6001600160a01b039384168152919092166020820152604081019190915260600190565b80820180821115610e5957610e59610f2256fea2646970667358221220557511b460b105684451d0b22c3092bf4277dd0275d491aa1df37d84abb8aae364736f6c634300081b0033608060405234801561001057600080fd5b50604051610cb1380380610cb183398101604081905261002f91610197565b8282826001600160a01b03811661006057604051631e4fbdf760e01b81526000600482015260240160405180910390fd5b6100698161008e565b50600461007683826102ab565b50600561008382826102ab565b505050505050610369565b600080546001600160a01b038381166001600160a01b0319831681178455604051919092169283917f8be0079c531659141344cd1fd0a4f28419497f9722a3daafe3b4186f6b6457e09190a35050565b634e487b7160e01b600052604160045260246000fd5b600082601f83011261010557600080fd5b81516001600160401b0381111561011e5761011e6100de565b604051601f8201601f19908116603f011681016001600160401b038111828210171561014c5761014c6100de565b60405281815283820160200185101561016457600080fd5b60005b8281101561018357602081860181015183830182015201610167565b506000918101602001919091529392505050565b6000806000606084860312156101ac57600080fd5b83516001600160401b038111156101c257600080fd5b6101ce868287016100f4565b602086015190945090506001600160401b038111156101ec57600080fd5b6101f8868287016100f4565b604086015190935090506001600160a01b038116811461021757600080fd5b809150509250925092565b600181811c9082168061023657607f821691505b60208210810361025657634e487b7160e01b600052602260045260246000fd5b50919050565b601f8211156102a657806000526020600020601f840160051c810160208510156102835750805b601f840160051c820191505b818110156102a3576000815560010161028f565b50505b505050565b81516001600160401b038111156102c4576102c46100de565b6102d8816102d28454610222565b8461025c565b6020601f82116001811461030c57600083156102f45750848201515b600019600385901b1c1916600184901b1784556102a3565b600084815260208120601f198516915b8281101561033c578785015182556020948501946001909201910161031c565b508482101561035a5786840151600019600387901b60f8161c191681555b50505050600190811b01905550565b610939806103786000396000f3fe608060405234801561001057600080fd5b50600436106100ea5760003560e01c8063715018a61161008c5780639dc29fac116100665780639dc29fac146101cd578063a9059cbb146101e0578063dd62ed3e146101f3578063f2fde38b1461022c57600080fd5b8063715018a6146101a25780638da5cb5b146101aa57806395d89b41146101c557600080fd5b806323b872dd116100c857806323b872dd14610142578063313ce5671461015557806340c10f191461016457806370a082311461017957600080fd5b806306fdde03146100ef578063095ea7b31461010d57806318160ddd14610130575b600080fd5b6100f761023f565b6040516101049190610782565b60405180910390f35b61012061011b3660046107ec565b6102d1565b6040519015158152602001610104565b6003545b604051908152602001610104565b610120610150366004610816565b6102eb565b60405160128152602001610104565b6101776101723660046107ec565b61030f565b005b610134610187366004610853565b6001600160a01b031660009081526001602052604090205490565b610177610325565b6000546040516001600160a01b039091168152602001610104565b6100f7610339565b6101776101db3660046107ec565b610348565b6101206101ee3660046107ec565b61035a565b610134610201366004610875565b6001600160a01b03918216600090815260026020908152604080832093909416825291909152205490565b61017761023a366004610853565b610368565b60606004805461024e906108a8565b80601f016020809104026020016040519081016040528092919081815260200182805461027a906108a8565b80156102c75780601f1061029c576101008083540402835291602001916102c7565b820191906000526020600020905b8154815290600101906020018083116102aa57829003601f168201915b5050505050905090565b6000336102df8185856103ab565b60019150505b92915050565b6000336102f98582856103bd565b61030485858561043b565b506001949350505050565b61031761049a565b61032182826104c7565b5050565b61032d61049a565b61033760006104fd565b565b60606005805461024e906108a8565b61035061049a565b610321828261054d565b6000336102df81858561043b565b61037061049a565b6001600160a01b03811661039f57604051631e4fbdf760e01b8152600060048201526024015b60405180910390fd5b6103a8816104fd565b50565b6103b88383836001610583565b505050565b6001600160a01b038381166000908152600260209081526040808320938616835292905220546000198114610435578181101561042657604051637dc7a0d960e11b81526001600160a01b03841660048201526024810182905260448101839052606401610396565b61043584848484036000610583565b50505050565b6001600160a01b03831661046557604051634b637e8f60e11b815260006004820152602401610396565b6001600160a01b03821661048f5760405163ec442f0560e01b815260006004820152602401610396565b6103b8838383610658565b6000546001600160a01b031633146103375760405163118cdaa760e01b8152336004820152602401610396565b6001600160a01b0382166104f15760405163ec442f0560e01b815260006004820152602401610396565b61032160008383610658565b600080546001600160a01b038381166001600160a01b0319831681178455604051919092169283917f8be0079c531659141344cd1fd0a4f28419497f9722a3daafe3b4186f6b6457e09190a35050565b6001600160a01b03821661057757604051634b637e8f60e11b815260006004820152602401610396565b61032182600083610658565b6001600160a01b0384166105ad5760405163e602df0560e01b815260006004820152602401610396565b6001600160a01b0383166105d757604051634a1406b160e11b815260006004820152602401610396565b6001600160a01b038085166000908152600260209081526040808320938716835292905220829055801561043557826001600160a01b0316846001600160a01b03167f8c5be1e5ebec7d5bd14f71427d1e84f3dd0314c0f7b2291e5b200ac8c7c3b9258460405161064a91815260200190565b60405180910390a350505050565b6001600160a01b03831661068357806003600082825461067891906108e2565b909155506106f59050565b6001600160a01b038316600090815260016020526040902054818110156106d65760405163391434e360e21b81526001600160a01b03851660048201526024810182905260448101839052606401610396565b6001600160a01b03841660009081526001602052604090209082900390555b6001600160a01b03821661071157600380548290039055610730565b6001600160a01b03821660009081526001602052604090208054820190555b816001600160a01b0316836001600160a01b03167fddf252ad1be2c89b69c2b068fc378daa952ba7f163c4a11628f55a4df523b3ef8360405161077591815260200190565b60405180910390a3505050565b602081526000825180602084015260005b818110156107b05760208186018101516040868401015201610793565b506000604082850101526040601f19601f83011684010191505092915050565b80356001600160a01b03811681146107e757600080fd5b919050565b600080604083850312156107ff57600080fd5b610808836107d0565b946020939093013593505050565b60008060006060848603121561082b57600080fd5b610834846107d0565b9250610842602085016107d0565b929592945050506040919091013590565b60006020828403121561086557600080fd5b61086e826107d0565b9392505050565b6000806040838503121561088857600080fd5b610891836107d0565b915061089f602084016107d0565b90509250929050565b600181811c908216806108bc57607f821691505b6020821081036108dc57634e487b7160e01b600052602260045260246000fd5b50919050565b808201808211156102e557634e487b7160e01b600052601160045260246000fdfea2646970667358221220c05f9db68238f9d49d74234ffde8ef323237e081fb6f28d9b77d9678c134f87364736f6c634300081b0033a2646970667358221220c28a68305fc1c3f2f1edbbce34a3e4c3193c400cfeb9f7ddf35ca55d73dcc0f864736f6c634300081b0033",
  "linkReferences": {},
  "deployedLinkReferences": {}
}