{
  "_format": "hh-sol-artifact-1",
  "contractName": "FactoryLiquidityPool",
  "sourceName": "contracts/FactoryLiquidityPool.sol",
  "abi": [
    {
      "anonymous": false,
      "inputs": [
        {
          "indexed": true,
          "internalType": "address",
          "name": "token1",
          "type": "address"
        },
        {
          "indexed": true,
          "internalType": "address",
          "name": "token2",
          "type": "address"
        },
        {
          "indexed": false,
          "internalType": "address",
          "name": "poolAddress",
          "type": "address"
        },
        {
          "indexed": false,
          "internalType": "uint256",
          "name": "poolCount",
          "type": "uint256"
        }
      ],
      "name": "PoolCreated",
      "type": "event"
    },
    {
      "inputs": [
        {
          "internalType": "uint256",
          "name": "",
          "type": "uint256"
        }
      ],
      "name": "allPoolsInfo",
      "outputs": [
        {
          "internalType": "string",
          "name": "poolName",
          "type": "string"
        },
        {
          "internalType": "address",
          "name": "poolAddress",
          "type": "address"
        },
        {
          "internalType": "address",
          "name": "lpt",
          "type": "address"
        },
        {
          "internalType": "uint8",
          "name": "decimals1",
          "type": "uint8"
        },
        {
          "internalType": "address",
          "name": "token1",
          "type": "address"
        },
        {
          "internalType": "uint8",
          "name": "decimals2",
          "type": "uint8"
        },
        {
          "internalType": "address",
          "name": "token2",
          "type": "address"
        }
      ],
      "stateMutability": "view",
      "type": "function"
    },
    {
      "inputs": [
        {
          "internalType": "address",
          "name": "token1",
          "type": "address"
        },
        {
          "internalType": "address",
          "name": "token2",
          "type": "address"
        }
      ],
      "name": "createLiquidityPool",
      "outputs": [
        {
          "internalType": "address",
          "name": "",
          "type": "address"
        }
      ],
      "stateMutability": "nonpayable",
      "type": "function"
    },
    {
      "inputs": [
        {
          "internalType": "address",
          "name": "token1",
          "type": "address"
        }
      ],
      "name": "createLiquidityPoolETH",
      "outputs": [
        {
          "internalType": "address",
          "name": "",
          "type": "address"
        }
      ],
      "stateMutability": "payable",
      "type": "function"
    },
    {
      "inputs": [],
      "name": "getAllPool",
      "outputs": [
        {
          "components": [
            {
              "internalType": "string",
              "name": "poolName",
              "type": "string"
            },
            {
              "internalType": "address",
              "name": "poolAddress",
              "type": "address"
            },
            {
              "internalType": "address",
              "name": "lpt",
              "type": "address"
            },
            {
              "internalType": "uint8",
              "name": "decimals1",
              "type": "uint8"
            },
            {
              "internalType": "address",
              "name": "token1",
              "type": "address"
            },
            {
              "internalType": "uint8",
              "name": "decimals2",
              "type": "uint8"
            },
            {
              "internalType": "address",
              "name": "token2",
              "type": "address"
            }
          ],
          "internalType": "struct FactoryLiquidityPool.PoolInfo[]",
          "name": "",
          "type": "tuple[]"
        }
      ],
      "stateMutability": "view",
      "type": "function"
    }
  ],
  "bytecode": "0x6080604052348015600f57600080fd5b506153758061001f6000396000f3fe60806040526004361061003f5760003560e01c80632384d3d01461004457806347bfd0a614610081578063a20a4cb4146100b4578063dcbc7282146100d6575b600080fd5b34801561005057600080fd5b5061006461005f366004610c88565b6100e9565b6040516001600160a01b0390911681526020015b60405180910390f35b34801561008d57600080fd5b506100a161009c366004610cc1565b6105e3565b6040516100789796959493929190610d2a565b3480156100c057600080fd5b506100c96106d6565b6040516100789190610d7f565b6100646100e4366004610e6e565b610823565b60006001600160a01b0383161580159061010b57506001600160a01b03821615155b61014b5760405162461bcd60e51b815260206004820152600c60248201526b41444452455353205a45524f60a01b60448201526064015b60405180910390fd5b816001600160a01b0316836001600160a01b0316036101a05760405162461bcd60e51b81526020600482015260116024820152704944454e544943414c5f4144445245535360781b6044820152606401610142565b6001600160a01b038381166000908152600160209081526040808320868516845290915290205416156102035760405162461bcd60e51b815260206004820152600b60248201526a504f4f4c5f45584953545360a81b6044820152606401610142565b6000838360405161021390610c56565b6001600160a01b03928316815291166020820152604001604051809103906000f080158015610246573d6000803e3d6000fd5b506001600160a01b0380861660008181526001602081815260408084208a87168552825280842080549688166001600160a01b0319978816811790915592825280842094845293815283832080549095168217909455825160e08101808552635fcbd28560e01b90529251949550909391928392635fcbd2859160e480860192908187030181865afa1580156102e0573d6000803e3d6000fd5b505050506040513d601f19601f820116820180604052508101906103049190610e92565b6001600160a01b03166395d89b416040518163ffffffff1660e01b8152600401600060405180830381865afa158015610341573d6000803e3d6000fd5b505050506040513d6000823e601f3d908101601f191682016040526103699190810190610ec5565b8152602001836001600160a01b03168152602001836001600160a01b0316635fcbd2856040518163ffffffff1660e01b8152600401602060405180830381865afa1580156103bb573d6000803e3d6000fd5b505050506040513d601f19601f820116820180604052508101906103df9190610e92565b6001600160a01b03168152602001866001600160a01b031663313ce5676040518163ffffffff1660e01b8152600401602060405180830381865afa15801561042b573d6000803e3d6000fd5b505050506040513d601f19601f8201168201806040525081019061044f9190610f7a565b60ff168152602001866001600160a01b03168152602001856001600160a01b031663313ce5676040518163ffffffff1660e01b8152600401602060405180830381865afa1580156104a4573d6000803e3d6000fd5b505050506040513d601f19601f820116820180604052508101906104c89190610f7a565b60ff1681526001600160a01b03861660209182015282546001810184556000938452922081519192600502019081906105019082611026565b506020828101516001830180546001600160a01b03199081166001600160a01b039384161790915560408086015160028601805460608901519286166001600160a81b031991821617600160a01b60ff948516810291909117909255608089015160038901805460a08c0151928916931692909217931690910291909117905560c0909501516004909401805490911693821693909317909255600054835185841681529182015285821692918716917febbbe9dc3a19d2f959ac76ac0372b4983cdfb945f5d6aef4873c36fabb2ba8aa910160405180910390a39392505050565b600081815481106105f357600080fd5b906000526020600020906005020160009150905080600001805461061690610f9d565b80601f016020809104026020016040519081016040528092919081815260200182805461064290610f9d565b801561068f5780601f106106645761010080835404028352916020019161068f565b820191906000526020600020905b81548152906001019060200180831161067257829003601f168201915b5050505060018301546002840154600385015460049095015493946001600160a01b0392831694838316945060ff600160a01b938490048116948084169490930416911687565b60606000805480602002602001604051908101604052809291908181526020016000905b8282101561081a57838290600052602060002090600502016040518060e001604052908160008201805461072d90610f9d565b80601f016020809104026020016040519081016040528092919081815260200182805461075990610f9d565b80156107a65780601f1061077b576101008083540402835291602001916107a6565b820191906000526020600020905b81548152906001019060200180831161078957829003601f168201915b50505091835250506001828101546001600160a01b039081166020808501919091526002850154808316604086015260ff600160a01b918290048116606087015260038701548085166080880152919091041660a08501526004909401541660c090920191909152918352920191016106fa565b50505050905090565b60006001600160a01b03821661086f5760405162461bcd60e51b81526020600482015260116024820152704944454e544943414c5f4144445245535360781b6044820152606401610142565b6001600160a01b03828116600090815260016020908152604080832083805290915290205416156108d05760405162461bcd60e51b815260206004820152600b60248201526a504f4f4c5f45584953545360a81b6044820152606401610142565b6000826040516108df90610c63565b6001600160a01b039091168152602001604051809103906000f08015801561090b573d6000803e3d6000fd5b506001600160a01b038085166000818152600160209081526040808320838052825280832080549587166001600160a01b031996871681179091559383527fa6eef7e35abe7026729641147f7915573c7e97b47efa546f5f6e3230263bcb49825280832080549095168417909455835160e08101808652635fcbd28560e01b905293519495509093839291635fcbd2859160e48086019291908187030181865afa1580156109bd573d6000803e3d6000fd5b505050506040513d601f19601f820116820180604052508101906109e19190610e92565b6001600160a01b03166395d89b416040518163ffffffff1660e01b8152600401600060405180830381865afa158015610a1e573d6000803e3d6000fd5b505050506040513d6000823e601f3d908101601f19168201604052610a469190810190610ec5565b8152602001836001600160a01b03168152602001836001600160a01b0316635fcbd2856040518163ffffffff1660e01b8152600401602060405180830381865afa158015610a98573d6000803e3d6000fd5b505050506040513d601f19601f82011682018060405250810190610abc9190610e92565b6001600160a01b03168152602001856001600160a01b031663313ce5676040518163ffffffff1660e01b8152600401602060405180830381865afa158015610b08573d6000803e3d6000fd5b505050506040513d601f19601f82011682018060405250810190610b2c9190610f7a565b60ff1681526001600160a01b0386166020808301919091526012604083015260006060909201829052835460018101855593825290208151919260050201908190610b779082611026565b506020828101516001830180546001600160a01b03199081166001600160a01b039384161790915560408086015160028601805460608901519286166001600160a81b031991821617600160a01b60ff948516810291909117909255608089015160038901805460a08c0151928916931692909217931690910291909117905560c090950151600490940180549091169382169390931790925560008054845186851681529283015292918616917febbbe9dc3a19d2f959ac76ac0372b4983cdfb945f5d6aef4873c36fabb2ba8aa910160405180910390a392915050565b612368806110e683390190565b611ef28061344e83390190565b6001600160a01b0381168114610c8557600080fd5b50565b60008060408385031215610c9b57600080fd5b8235610ca681610c70565b91506020830135610cb681610c70565b809150509250929050565b600060208284031215610cd357600080fd5b5035919050565b60005b83811015610cf5578181015183820152602001610cdd565b50506000910152565b60008151808452610d16816020860160208601610cda565b601f01601f19169290920160200192915050565b60e081526000610d3d60e083018a610cfe565b6001600160a01b03988916602084015296881660408301525060ff94851660608201529286166080840152921660a0820152921660c090920191909152919050565b6000602082016020835280845180835260408501915060408160051b86010192506020860160005b82811015610e6257603f198786030184528151805160e08752610dcd60e0880182610cfe565b905060018060a01b03602083015116602088015260018060a01b03604083015116604088015260ff60608301511660608801526080820151610e1a60808901826001600160a01b03169052565b5060a0820151610e2f60a089018260ff169052565b5060c08201519150610e4c60c08801836001600160a01b03169052565b9550506020938401939190910190600101610da7565b50929695505050505050565b600060208284031215610e8057600080fd5b8135610e8b81610c70565b9392505050565b600060208284031215610ea457600080fd5b8151610e8b81610c70565b634e487b7160e01b600052604160045260246000fd5b600060208284031215610ed757600080fd5b815167ffffffffffffffff811115610eee57600080fd5b8201601f81018413610eff57600080fd5b805167ffffffffffffffff811115610f1957610f19610eaf565b604051601f8201601f19908116603f0116810167ffffffffffffffff81118282101715610f4857610f48610eaf565b604052818152828201602001861015610f6057600080fd5b610f71826020830160208601610cda565b95945050505050565b600060208284031215610f8c57600080fd5b815160ff81168114610e8b57600080fd5b600181811c90821680610fb157607f821691505b602082108103610fd157634e487b7160e01b600052602260045260246000fd5b50919050565b601f82111561102157806000526020600020601f840160051c81016020851015610ffe5750805b601f840160051c820191505b8181101561101e576000815560010161100a565b50505b505050565b815167ffffffffffffffff81111561104057611040610eaf565b6110548161104e8454610f9d565b84610fd7565b6020601f82116001811461108857600083156110705750848201515b600019600385901b1c1916600184901b17845561101e565b600084815260208120601f198516915b828110156110b85787850151825560209485019460019092019101611098565b50848210156110d65786840151600019600387901b60f8161c191681555b50505050600190811b0190555056fe608060405234801561001057600080fd5b5060405161236838038061236883398101604081905261002f916102da565b600080546001600160a01b03199081166001600160a01b0385811691821784556001805490931690851617909155604080516306fdde0360e01b815290516306fdde039160048082019286929091908290030181865afa158015610097573d6000803e3d6000fd5b505050506040513d6000823e601f3d908101601f191682016040526100bf9190810190610347565b90506000826001600160a01b03166306fdde036040518163ffffffff1660e01b8152600401600060405180830381865afa158015610101573d6000803e3d6000fd5b505050506040513d6000823e601f3d908101601f191682016040526101299190810190610347565b90506000846001600160a01b03166395d89b416040518163ffffffff1660e01b8152600401600060405180830381865afa15801561016b573d6000803e3d6000fd5b505050506040513d6000823e601f3d908101601f191682016040526101939190810190610347565b90506000846001600160a01b03166395d89b416040518163ffffffff1660e01b8152600401600060405180830381865afa1580156101d5573d6000803e3d6000fd5b505050506040513d6000823e601f3d908101601f191682016040526101fd9190810190610347565b9050600084846040516020016102149291906103f9565b60405160208183030381529060405290506000838360405160200161023a929190610437565b604051602081830303815290604052905081813060405161025a906102b1565b6102669392919061049f565b604051809103906000f080158015610282573d6000803e3d6000fd5b50600580546001600160a01b0319166001600160a01b0392909216919091179055506104dd9650505050505050565b610cb1806116b783390190565b80516001600160a01b03811681146102d557600080fd5b919050565b600080604083850312156102ed57600080fd5b6102f6836102be565b9150610304602084016102be565b90509250929050565b634e487b7160e01b600052604160045260246000fd5b60005b8381101561033e578181015183820152602001610326565b50506000910152565b60006020828403121561035957600080fd5b81516001600160401b0381111561036f57600080fd5b8201601f8101841361038057600080fd5b80516001600160401b038111156103995761039961030d565b604051601f8201601f19908116603f011681016001600160401b03811182821017156103c7576103c761030d565b6040528181528282016020018610156103df57600080fd5b6103f0826020830160208601610323565b95945050505050565b6000835161040b818460208801610323565b6201016960ed1b908301908152835161042b816003840160208801610323565b01600301949350505050565b60008351610449818460208801610323565b602f60f81b9083019081528351610467816001840160208801610323565b01600101949350505050565b6000815180845261048b816020860160208601610323565b601f01601f19169290920160200192915050565b6060815260006104b26060830186610473565b82810360208401526104c48186610473565b91505060018060a01b0383166040830152949350505050565b6111cb806104ec6000396000f3fe608060405234801561001057600080fd5b50600436106100a95760003560e01c80639c8f9f23116100715780639c8f9f231461011a5780639cd441da14610142578063b61eb7cb14610155578063b8c876b114610168578063cc87ab2a14610188578063d21220a71461019b57600080fd5b80631ef7b430146100ae57806325be124e146100ca5780635a76f25e146100f55780635c0b9a2b146100fe5780635fcbd28514610107575b600080fd5b6100b760045481565b6040519081526020015b60405180910390f35b6001546100dd906001600160a01b031681565b6040516001600160a01b0390911681526020016100c1565b6100b760025481565b6100b760035481565b6005546100dd906001600160a01b031681565b61012d610128366004610ff7565b6101ae565b604080519283526020830191909152016100c1565b6100b7610150366004611010565b61044b565b6100b7610163366004611032565b610a46565b6100b7610176366004611075565b60066020526000908152604090205481565b6100b7610196366004611090565b610a8b565b6000546100dd906001600160a01b031681565b3360009081526006602052604081205481908084111561020c5760405162461bcd60e51b81526020600482015260146024820152734e6f7420656e6f756768206c697175696469747960601b60448201526064015b60405180910390fd5b60045460025461021c90866110d0565b61022691906110e7565b92506004546003548561023991906110d0565b61024391906110e7565b915082600260008282546102579190611109565b9250508190555081600360008282546102709190611109565b9250508190555083600460008282546102899190611109565b909155505033600090815260066020526040812080548692906102ad908490611109565b909155505060005460405163a9059cbb60e01b8152336004820152602481018590526001600160a01b039091169063a9059cbb906044016020604051808303816000875af1158015610303573d6000803e3d6000fd5b505050506040513d601f19601f82011682018060405250810190610327919061111c565b5060015460405163a9059cbb60e01b8152336004820152602481018490526001600160a01b039091169063a9059cbb906044016020604051808303816000875af1158015610379573d6000803e3d6000fd5b505050506040513d601f19601f8201168201806040525081019061039d919061111c565b50600554604051632770a7eb60e21b8152336004820152602481018690526001600160a01b0390911690639dc29fac90604401600060405180830381600087803b1580156103ea57600080fd5b505af11580156103fe573d6000803e3d6000fd5b505060408051868152602081018690529081018790523392507f64b83944e79c3ce8d4c297411de637c3e102d064677aac0c163976ebdcd6f50e915060600160405180910390a250915091565b6000808311801561045c5750600082115b6104b25760405162461bcd60e51b815260206004820152602160248201527f416d6f756e7473206d7573742062652067726561746572207468616e207a65726044820152606f60f81b6064820152608401610203565b600054604051636eb1769f60e11b815233600482015230602482015284916001600160a01b03169063dd62ed3e90604401602060405180830381865afa158015610500573d6000803e3d6000fd5b505050506040513d601f19601f820116820180604052508101906105249190611145565b101561057e5760405162461bcd60e51b815260206004820152602360248201527f496e73756666696369656e7420746f6b656e20616c6c6f77616e636520746f6b604482015262656e3160e81b6064820152608401610203565b600154604051636eb1769f60e11b815233600482015230602482015283916001600160a01b03169063dd62ed3e90604401602060405180830381865afa1580156105cc573d6000803e3d6000fd5b505050506040513d601f19601f820116820180604052508101906105f09190611145565b101561064a5760405162461bcd60e51b815260206004820152602360248201527f496e73756666696369656e7420746f6b656e20616c6c6f77616e636520746f6b60448201526232b71960e91b6064820152608401610203565b6000546040516323b872dd60e01b81526001600160a01b03909116906323b872dd9061067e9033903090889060040161115e565b6020604051808303816000875af115801561069d573d6000803e3d6000fd5b505050506040513d601f19601f820116820180604052508101906106c1919061111c565b506001546040516323b872dd60e01b81526001600160a01b03909116906323b872dd906106f69033903090879060040161115e565b6020604051808303816000875af1158015610715573d6000803e3d6000fd5b505050506040513d601f19601f82011682018060405250810190610739919061111c565b506002548390839015801561074e5750600354155b1561076c5761076561076085876110d0565b610f6d565b9250610800565b60006003546002548661077f91906110d0565b61078991906110e7565b905060006002546003548861079e91906110d0565b6107a891906110e7565b9050818711156107ba578193506107be565b8092505b6107fb600254600354866107d291906110d0565b6107dc91906110e7565b6003546002546107ec90876110d0565b6107f691906110e7565b610fdd565b945050505b81600260008282546108129190611182565b92505081905550806003600082825461082b9190611182565b9250508190555082600460008282546108449190611182565b90915550503360009081526006602052604081208054859290610868908490611182565b90915550506005546040516340c10f1960e01b8152336004820152602481018590526001600160a01b03909116906340c10f1990604401600060405180830381600087803b1580156108b957600080fd5b505af11580156108cd573d6000803e3d6000fd5b5050505081851115610966576000546001600160a01b031663a9059cbb336108f58589611109565b6040516001600160e01b031960e085901b1681526001600160a01b03909216600483015260248201526044016020604051808303816000875af1158015610940573d6000803e3d6000fd5b505050506040513d601f19601f82011682018060405250810190610964919061111c565b505b808411156109fb576001546001600160a01b031663a9059cbb3361098a8488611109565b6040516001600160e01b031960e085901b1681526001600160a01b03909216600483015260248201526044016020604051808303816000875af11580156109d5573d6000803e3d6000fd5b505050506040513d601f19601f820116820180604052508101906109f9919061111c565b505b604080518681526020810186905290810184905233907f64b83944e79c3ce8d4c297411de637c3e102d064677aac0c163976ebdcd6f50e9060600160405180910390a2505092915050565b600080610a55856103e36110d0565b905080610a64856103e86110d0565b610a6e9190611182565b610a7884836110d0565b610a8291906110e7565b95945050505050565b600080546001600160a01b0384811691161480610ab557506001546001600160a01b038481169116145b610af15760405162461bcd60e51b815260206004820152600d60248201526c24b73b30b634b2103a37b5b2b760991b6044820152606401610203565b6000546001600160a01b0390811690841603610cfb57600054604051636eb1769f60e11b815233600482015230602482015283916001600160a01b03169063dd62ed3e90604401602060405180830381865afa158015610b55573d6000803e3d6000fd5b505050506040513d601f19601f82011682018060405250810190610b799190611145565b1015610bc75760405162461bcd60e51b815260206004820152601c60248201527f496e73756666696369656e7420746f6b656e20616c6c6f77616e6365000000006044820152606401610203565b610bd682600254600354610a46565b6000546040516323b872dd60e01b81529192506001600160a01b0316906323b872dd90610c0b9033903090879060040161115e565b6020604051808303816000875af1158015610c2a573d6000803e3d6000fd5b505050506040513d601f19601f82011682018060405250810190610c4e919061111c565b5060015460405163a9059cbb60e01b8152336004820152602481018390526001600160a01b039091169063a9059cbb906044016020604051808303816000875af1158015610ca0573d6000803e3d6000fd5b505050506040513d601f19601f82011682018060405250810190610cc4919061111c565b508160026000828254610cd79190611182565b925050819055508060036000828254610cf09190611109565b90915550610eea9050565b600154604051636eb1769f60e11b815233600482015230602482015283916001600160a01b03169063dd62ed3e90604401602060405180830381865afa158015610d49573d6000803e3d6000fd5b505050506040513d601f19601f82011682018060405250810190610d6d9190611145565b1015610dbb5760405162461bcd60e51b815260206004820152601c60248201527f496e73756666696369656e7420746f6b656e20616c6c6f77616e6365000000006044820152606401610203565b610dca82600354600254610a46565b6001546040516323b872dd60e01b81529192506001600160a01b0316906323b872dd90610dff9033903090879060040161115e565b6020604051808303816000875af1158015610e1e573d6000803e3d6000fd5b505050506040513d601f19601f82011682018060405250810190610e42919061111c565b5060005460405163a9059cbb60e01b8152336004820152602481018390526001600160a01b039091169063a9059cbb906044016020604051808303816000875af1158015610e94573d6000803e3d6000fd5b505050506040513d601f19601f82011682018060405250810190610eb8919061111c565b508060026000828254610ecb9190611109565b925050819055508160036000828254610ee49190611182565b90915550505b6000546001600160a01b03848116911614610f10576001546001600160a01b0316610f1d565b6000546001600160a01b03165b60408051848152602081018490526001600160a01b039283169286169133917fad56699d0f375866eb895ed27203058a36a713382aaded78eb6b67da266d4332910160405180910390a492915050565b60006003821115610fce5750806000610f876002836110e7565b610f92906001611182565b90505b81811015610fc857905080600281610fad81866110e7565b610fb79190611182565b610fc191906110e7565b9050610f95565b50919050565b8115610fd8575060015b919050565b6000818310610fec5781610fee565b825b90505b92915050565b60006020828403121561100957600080fd5b5035919050565b6000806040838503121561102357600080fd5b50508035926020909101359150565b60008060006060848603121561104757600080fd5b505081359360208301359350604090920135919050565b80356001600160a01b0381168114610fd857600080fd5b60006020828403121561108757600080fd5b610fee8261105e565b600080604083850312156110a357600080fd5b6110ac8361105e565b946020939093013593505050565b634e487b7160e01b600052601160045260246000fd5b8082028115828204841417610ff157610ff16110ba565b60008261110457634e487b7160e01b600052601260045260246000fd5b500490565b81810381811115610ff157610ff16110ba565b60006020828403121561112e57600080fd5b8151801515811461113e57600080fd5b9392505050565b60006020828403121561115757600080fd5b5051919050565b6001600160a01b039384168152919092166020820152604081019190915260600190565b80820180821115610ff157610ff16110ba56fea26469706673582212200e492d4007a3caea857c316503f6956fbcf76cd7602f333d293eecdff2e0db6e64736f6c634300081b0033608060405234801561001057600080fd5b50604051610cb1380380610cb183398101604081905261002f91610197565b8282826001600160a01b03811661006057604051631e4fbdf760e01b81526000600482015260240160405180910390fd5b6100698161008e565b50600461007683826102ab565b50600561008382826102ab565b505050505050610369565b600080546001600160a01b038381166001600160a01b0319831681178455604051919092169283917f8be0079c531659141344cd1fd0a4f28419497f9722a3daafe3b4186f6b6457e09190a35050565b634e487b7160e01b600052604160045260246000fd5b600082601f83011261010557600080fd5b81516001600160401b0381111561011e5761011e6100de565b604051601f8201601f19908116603f011681016001600160401b038111828210171561014c5761014c6100de565b60405281815283820160200185101561016457600080fd5b60005b8281101561018357602081860181015183830182015201610167565b506000918101602001919091529392505050565b6000806000606084860312156101ac57600080fd5b83516001600160401b038111156101c257600080fd5b6101ce868287016100f4565b602086015190945090506001600160401b038111156101ec57600080fd5b6101f8868287016100f4565b604086015190935090506001600160a01b038116811461021757600080fd5b809150509250925092565b600181811c9082168061023657607f821691505b60208210810361025657634e487b7160e01b600052602260045260246000fd5b50919050565b601f8211156102a657806000526020600020601f840160051c810160208510156102835750805b601f840160051c820191505b818110156102a3576000815560010161028f565b50505b505050565b81516001600160401b038111156102c4576102c46100de565b6102d8816102d28454610222565b8461025c565b6020601f82116001811461030c57600083156102f45750848201515b600019600385901b1c1916600184901b1784556102a3565b600084815260208120601f198516915b8281101561033c578785015182556020948501946001909201910161031c565b508482101561035a5786840151600019600387901b60f8161c191681555b50505050600190811b01905550565b610939806103786000396000f3fe608060405234801561001057600080fd5b50600436106100ea5760003560e01c8063715018a61161008c5780639dc29fac116100665780639dc29fac146101cd578063a9059cbb146101e0578063dd62ed3e146101f3578063f2fde38b1461022c57600080fd5b8063715018a6146101a25780638da5cb5b146101aa57806395d89b41146101c557600080fd5b806323b872dd116100c857806323b872dd14610142578063313ce5671461015557806340c10f191461016457806370a082311461017957600080fd5b806306fdde03146100ef578063095ea7b31461010d57806318160ddd14610130575b600080fd5b6100f761023f565b6040516101049190610782565b60405180910390f35b61012061011b3660046107ec565b6102d1565b6040519015158152602001610104565b6003545b604051908152602001610104565b610120610150366004610816565b6102eb565b60405160128152602001610104565b6101776101723660046107ec565b61030f565b005b610134610187366004610853565b6001600160a01b031660009081526001602052604090205490565b610177610325565b6000546040516001600160a01b039091168152602001610104565b6100f7610339565b6101776101db3660046107ec565b610348565b6101206101ee3660046107ec565b61035a565b610134610201366004610875565b6001600160a01b03918216600090815260026020908152604080832093909416825291909152205490565b61017761023a366004610853565b610368565b60606004805461024e906108a8565b80601f016020809104026020016040519081016040528092919081815260200182805461027a906108a8565b80156102c75780601f1061029c576101008083540402835291602001916102c7565b820191906000526020600020905b8154815290600101906020018083116102aa57829003601f168201915b5050505050905090565b6000336102df8185856103ab565b60019150505b92915050565b6000336102f98582856103bd565b61030485858561043b565b506001949350505050565b61031761049a565b61032182826104c7565b5050565b61032d61049a565b61033760006104fd565b565b60606005805461024e906108a8565b61035061049a565b610321828261054d565b6000336102df81858561043b565b61037061049a565b6001600160a01b03811661039f57604051631e4fbdf760e01b8152600060048201526024015b60405180910390fd5b6103a8816104fd565b50565b6103b88383836001610583565b505050565b6001600160a01b038381166000908152600260209081526040808320938616835292905220546000198114610435578181101561042657604051637dc7a0d960e11b81526001600160a01b03841660048201526024810182905260448101839052606401610396565b61043584848484036000610583565b50505050565b6001600160a01b03831661046557604051634b637e8f60e11b815260006004820152602401610396565b6001600160a01b03821661048f5760405163ec442f0560e01b815260006004820152602401610396565b6103b8838383610658565b6000546001600160a01b031633146103375760405163118cdaa760e01b8152336004820152602401610396565b6001600160a01b0382166104f15760405163ec442f0560e01b815260006004820152602401610396565b61032160008383610658565b600080546001600160a01b038381166001600160a01b0319831681178455604051919092169283917f8be0079c531659141344cd1fd0a4f28419497f9722a3daafe3b4186f6b6457e09190a35050565b6001600160a01b03821661057757604051634b637e8f60e11b815260006004820152602401610396565b61032182600083610658565b6001600160a01b0384166105ad5760405163e602df0560e01b815260006004820152602401610396565b6001600160a01b0383166105d757604051634a1406b160e11b815260006004820152602401610396565b6001600160a01b038085166000908152600260209081526040808320938716835292905220829055801561043557826001600160a01b0316846001600160a01b03167f8c5be1e5ebec7d5bd14f71427d1e84f3dd0314c0f7b2291e5b200ac8c7c3b9258460405161064a91815260200190565b60405180910390a350505050565b6001600160a01b03831661068357806003600082825461067891906108e2565b909155506106f59050565b6001600160a01b038316600090815260016020526040902054818110156106d65760405163391434e360e21b81526001600160a01b03851660048201526024810182905260448101839052606401610396565b6001600160a01b03841660009081526001602052604090209082900390555b6001600160a01b03821661071157600380548290039055610730565b6001600160a01b03821660009081526001602052604090208054820190555b816001600160a01b0316836001600160a01b03167fddf252ad1be2c89b69c2b068fc378daa952ba7f163c4a11628f55a4df523b3ef8360405161077591815260200190565b60405180910390a3505050565b602081526000825180602084015260005b818110156107b05760208186018101516040868401015201610793565b506000604082850101526040601f19601f83011684010191505092915050565b80356001600160a01b03811681146107e757600080fd5b919050565b600080604083850312156107ff57600080fd5b610808836107d0565b946020939093013593505050565b60008060006060848603121561082b57600080fd5b610834846107d0565b9250610842602085016107d0565b929592945050506040919091013590565b60006020828403121561086557600080fd5b61086e826107d0565b9392505050565b6000806040838503121561088857600080fd5b610891836107d0565b915061089f602084016107d0565b90509250929050565b600181811c908216806108bc57607f821691505b6020821081036108dc57634e487b7160e01b600052602260045260246000fd5b50919050565b808201808211156102e557634e487b7160e01b600052601160045260246000fdfea2646970667358221220c05f9db68238f9d49d74234ffde8ef323237e081fb6f28d9b77d9678c134f87364736f6c634300081b0033608060405234801561001057600080fd5b50604051611ef2380380611ef283398101604081905261002f916101d2565b600080546001600160a01b0319166001600160a01b0383169081178255604080516306fdde0360e01b815290516306fdde039160048082019286929091908290030181865afa158015610086573d6000803e3d6000fd5b505050506040513d6000823e601f3d908101601f191682016040526100ae919081019061023c565b90506000826001600160a01b03166395d89b416040518163ffffffff1660e01b8152600401600060405180830381865afa1580156100f0573d6000803e3d6000fd5b505050506040513d6000823e601f3d908101601f19168201604052610118919081019061023c565b905060008260405160200161012d91906102ee565b60405160208183030381529060405290506000826040516020016101519190610326565b6040516020818303038152906040529050818130604051610171906101c5565b61017d93929190610383565b604051809103906000f080158015610199573d6000803e3d6000fd5b50600480546001600160a01b0319166001600160a01b0392909216919091179055506103c19350505050565b610cb18061124183390190565b6000602082840312156101e457600080fd5b81516001600160a01b03811681146101fb57600080fd5b9392505050565b634e487b7160e01b600052604160045260246000fd5b60005b8381101561023357818101518382015260200161021b565b50506000910152565b60006020828403121561024e57600080fd5b81516001600160401b0381111561026457600080fd5b8201601f8101841361027557600080fd5b80516001600160401b0381111561028e5761028e610202565b604051601f8201601f19908116603f011681016001600160401b03811182821017156102bc576102bc610202565b6040528181528282016020018610156102d457600080fd5b6102e5826020830160208601610218565b95945050505050565b60008251610300818460208701610218565b6201016960ed1b92019182525067457468657265756d60c01b6003820152600b01919050565b60008251610338818460208701610218565b602f60f81b9201918252506208aa8960eb1b6001820152600401919050565b6000815180845261036f816020860160208601610218565b601f01601f19169290920160200192915050565b6060815260006103966060830186610357565b82810360208401526103a88186610357565b91505060018060a01b0383166040830152949350505050565b610e71806103d06000396000f3fe6080604052600436106100955760003560e01c80639c8f9f23116100595780639c8f9f2314610141578063b61eb7cb14610176578063b8c876b114610196578063cc87ab2a146101c3578063d21220a7146101d657600080fd5b80631ef7b430146100a157806351c6590a146100ca5780635a76f25e146100dd5780635c0b9a2b146100f35780635fcbd2851461010957600080fd5b3661009c57005b600080fd5b3480156100ad57600080fd5b506100b760035481565b6040519081526020015b60405180910390f35b6100b76100d8366004610ce3565b6101f6565b3480156100e957600080fd5b506100b760015481565b3480156100ff57600080fd5b506100b760025481565b34801561011557600080fd5b50600454610129906001600160a01b031681565b6040516001600160a01b0390911681526020016100c1565b34801561014d57600080fd5b5061016161015c366004610ce3565b610657565b604080519283526020830191909152016100c1565b34801561018257600080fd5b506100b7610191366004610cfc565b6108a8565b3480156101a257600080fd5b506100b76101b1366004610d3f565b60056020526000908152604090205481565b6100b76101d1366004610d5a565b6108ed565b3480156101e257600080fd5b50600054610129906001600160a01b031681565b60003482158015906102085750600081115b6102635760405162461bcd60e51b815260206004820152602160248201527f416d6f756e7473206d7573742062652067726561746572207468616e207a65726044820152606f60f81b60648201526084015b60405180910390fd5b600054604051636eb1769f60e11b815233600482015230602482015284916001600160a01b03169063dd62ed3e90604401602060405180830381865afa1580156102b1573d6000803e3d6000fd5b505050506040513d601f19601f820116820180604052508101906102d59190610d84565b10156103235760405162461bcd60e51b815260206004820152601c60248201527f496e73756666696369656e7420746f6b656e20616c6c6f77616e636500000000604482015260640161025a565b6000546040516323b872dd60e01b8152336004820152306024820152604481018590526001600160a01b03909116906323b872dd906064016020604051808303816000875af115801561037a573d6000803e3d6000fd5b505050506040513d601f19601f8201168201806040525081019061039e9190610d9d565b50600154839082901580156103b35750600254155b156103d1576103ca6103c58487610ddc565b610c59565b9350610465565b6000600254600154856103e49190610ddc565b6103ee9190610df3565b90506000600154600254886104039190610ddc565b61040d9190610df3565b90508187111561041f57819350610423565b8092505b610460600154600254866104379190610ddc565b6104419190610df3565b6002546001546104519087610ddc565b61045b9190610df3565b610cc9565b955050505b81600160008282546104779190610e15565b9250508190555080600260008282546104909190610e15565b9250508190555083600360008282546104a99190610e15565b909155505033600090815260056020526040812080548692906104cd908490610e15565b9091555050600480546040516340c10f1960e01b81523392810192909252602482018690526001600160a01b0316906340c10f1990604401600060405180830381600087803b15801561051f57600080fd5b505af1158015610533573d6000803e3d6000fd5b50505050818511156105cc576000546001600160a01b031663a9059cbb3361055b8589610e28565b6040516001600160e01b031960e085901b1681526001600160a01b03909216600483015260248201526044016020604051808303816000875af11580156105a6573d6000803e3d6000fd5b505050506040513d601f19601f820116820180604052508101906105ca9190610d9d565b505b8083111561060c57336108fc6105e28386610e28565b6040518115909202916000818181858888f1935050505015801561060a573d6000803e3d6000fd5b505b604080518681526020810185905290810185905233907f64b83944e79c3ce8d4c297411de637c3e102d064677aac0c163976ebdcd6f50e9060600160405180910390a2505050919050565b336000908152600560205260408120548190808411156106b05760405162461bcd60e51b81526020600482015260146024820152734e6f7420656e6f756768206c697175696469747960601b604482015260640161025a565b6003546001546106c09086610ddc565b6106ca9190610df3565b9250600354600254856106dd9190610ddc565b6106e79190610df3565b915082600160008282546106fb9190610e28565b9250508190555081600260008282546107149190610e28565b92505081905550836003600082825461072d9190610e28565b90915550503360009081526005602052604081208054869290610751908490610e28565b909155505060005460405163a9059cbb60e01b8152336004820152602481018590526001600160a01b039091169063a9059cbb906044016020604051808303816000875af11580156107a7573d6000803e3d6000fd5b505050506040513d601f19601f820116820180604052508101906107cb9190610d9d565b50604051339083156108fc029084906000818181858888f193505050501580156107f9573d6000803e3d6000fd5b5060048054604051632770a7eb60e21b81523392810192909252602482018690526001600160a01b031690639dc29fac90604401600060405180830381600087803b15801561084757600080fd5b505af115801561085b573d6000803e3d6000fd5b505060408051868152602081018690529081018790523392507f1dc8bb69df2b8e91fbdcbfcf93d951b3f0000f085a95fe3f7946d6161439245d915060600160405180910390a250915091565b6000806108b7856103e3610ddc565b9050806108c6856103e8610ddc565b6108d09190610e15565b6108da8483610ddc565b6108e49190610df3565b95945050505050565b600080546001600160a01b038481169116148061091157506001600160a01b038316155b61094d5760405162461bcd60e51b815260206004820152600d60248201526c24b73b30b634b2103a37b5b2b760991b604482015260640161025a565b60005434906001600160a01b0390811690851603610b1557600054604051636eb1769f60e11b815233600482015230602482015284916001600160a01b03169063dd62ed3e90604401602060405180830381865afa1580156109b3573d6000803e3d6000fd5b505050506040513d601f19601f820116820180604052508101906109d79190610d84565b1015610a255760405162461bcd60e51b815260206004820152601c60248201527f496e73756666696369656e7420746f6b656e20616c6c6f77616e636500000000604482015260640161025a565b610a34836001546002546108a8565b6000546040516323b872dd60e01b8152336004820152306024820152604481018690529193506001600160a01b0316906323b872dd906064016020604051808303816000875af1158015610a8c573d6000803e3d6000fd5b505050506040513d601f19601f82011682018060405250810190610ab09190610d9d565b50604051339083156108fc029084906000818181858888f19350505050158015610ade573d6000803e3d6000fd5b508260016000828254610af19190610e15565b925050819055508160026000828254610b0a9190610e28565b90915550610bcc9050565b610b24816002546001546108a8565b60005460405163a9059cbb60e01b8152336004820152602481018390529193506001600160a01b03169063a9059cbb906044016020604051808303816000875af1158015610b76573d6000803e3d6000fd5b505050506040513d601f19601f82011682018060405250810190610b9a9190610d9d565b508160016000828254610bad9190610e28565b925050819055508060026000828254610bc69190610e15565b90915550505b6000546001600160a01b03858116911614610bf2576000546001600160a01b0316610bf5565b60005b6000546001600160a01b03918216918681169133917fad56699d0f375866eb895ed27203058a36a713382aaded78eb6b67da266d433291168314610c395784610c3b565b865b60408051918252602082018890520160405180910390a45092915050565b60006003821115610cba5750806000610c73600283610df3565b610c7e906001610e15565b90505b81811015610cb457905080600281610c998186610df3565b610ca39190610e15565b610cad9190610df3565b9050610c81565b50919050565b8115610cc4575060015b919050565b6000818310610cd85781610cda565b825b90505b92915050565b600060208284031215610cf557600080fd5b5035919050565b600080600060608486031215610d1157600080fd5b505081359360208301359350604090920135919050565b80356001600160a01b0381168114610cc457600080fd5b600060208284031215610d5157600080fd5b610cda82610d28565b60008060408385031215610d6d57600080fd5b610d7683610d28565b946020939093013593505050565b600060208284031215610d9657600080fd5b5051919050565b600060208284031215610daf57600080fd5b81518015158114610dbf57600080fd5b9392505050565b634e487b7160e01b600052601160045260246000fd5b8082028115828204841417610cdd57610cdd610dc6565b600082610e1057634e487b7160e01b600052601260045260246000fd5b500490565b80820180821115610cdd57610cdd610dc6565b81810381811115610cdd57610cdd610dc656fea26469706673582212208ea34d9a9cb202f60e359401b5a6130d0f5ed68dc4c86d26df265203b050e1fa64736f6c634300081b0033608060405234801561001057600080fd5b50604051610cb1380380610cb183398101604081905261002f91610197565b8282826001600160a01b03811661006057604051631e4fbdf760e01b81526000600482015260240160405180910390fd5b6100698161008e565b50600461007683826102ab565b50600561008382826102ab565b505050505050610369565b600080546001600160a01b038381166001600160a01b0319831681178455604051919092169283917f8be0079c531659141344cd1fd0a4f28419497f9722a3daafe3b4186f6b6457e09190a35050565b634e487b7160e01b600052604160045260246000fd5b600082601f83011261010557600080fd5b81516001600160401b0381111561011e5761011e6100de565b604051601f8201601f19908116603f011681016001600160401b038111828210171561014c5761014c6100de565b60405281815283820160200185101561016457600080fd5b60005b8281101561018357602081860181015183830182015201610167565b506000918101602001919091529392505050565b6000806000606084860312156101ac57600080fd5b83516001600160401b038111156101c257600080fd5b6101ce868287016100f4565b602086015190945090506001600160401b038111156101ec57600080fd5b6101f8868287016100f4565b604086015190935090506001600160a01b038116811461021757600080fd5b809150509250925092565b600181811c9082168061023657607f821691505b60208210810361025657634e487b7160e01b600052602260045260246000fd5b50919050565b601f8211156102a657806000526020600020601f840160051c810160208510156102835750805b601f840160051c820191505b818110156102a3576000815560010161028f565b50505b505050565b81516001600160401b038111156102c4576102c46100de565b6102d8816102d28454610222565b8461025c565b6020601f82116001811461030c57600083156102f45750848201515b600019600385901b1c1916600184901b1784556102a3565b600084815260208120601f198516915b8281101561033c578785015182556020948501946001909201910161031c565b508482101561035a5786840151600019600387901b60f8161c191681555b50505050600190811b01905550565b610939806103786000396000f3fe608060405234801561001057600080fd5b50600436106100ea5760003560e01c8063715018a61161008c5780639dc29fac116100665780639dc29fac146101cd578063a9059cbb146101e0578063dd62ed3e146101f3578063f2fde38b1461022c57600080fd5b8063715018a6146101a25780638da5cb5b146101aa57806395d89b41146101c557600080fd5b806323b872dd116100c857806323b872dd14610142578063313ce5671461015557806340c10f191461016457806370a082311461017957600080fd5b806306fdde03146100ef578063095ea7b31461010d57806318160ddd14610130575b600080fd5b6100f761023f565b6040516101049190610782565b60405180910390f35b61012061011b3660046107ec565b6102d1565b6040519015158152602001610104565b6003545b604051908152602001610104565b610120610150366004610816565b6102eb565b60405160128152602001610104565b6101776101723660046107ec565b61030f565b005b610134610187366004610853565b6001600160a01b031660009081526001602052604090205490565b610177610325565b6000546040516001600160a01b039091168152602001610104565b6100f7610339565b6101776101db3660046107ec565b610348565b6101206101ee3660046107ec565b61035a565b610134610201366004610875565b6001600160a01b03918216600090815260026020908152604080832093909416825291909152205490565b61017761023a366004610853565b610368565b60606004805461024e906108a8565b80601f016020809104026020016040519081016040528092919081815260200182805461027a906108a8565b80156102c75780601f1061029c576101008083540402835291602001916102c7565b820191906000526020600020905b8154815290600101906020018083116102aa57829003601f168201915b5050505050905090565b6000336102df8185856103ab565b60019150505b92915050565b6000336102f98582856103bd565b61030485858561043b565b506001949350505050565b61031761049a565b61032182826104c7565b5050565b61032d61049a565b61033760006104fd565b565b60606005805461024e906108a8565b61035061049a565b610321828261054d565b6000336102df81858561043b565b61037061049a565b6001600160a01b03811661039f57604051631e4fbdf760e01b8152600060048201526024015b60405180910390fd5b6103a8816104fd565b50565b6103b88383836001610583565b505050565b6001600160a01b038381166000908152600260209081526040808320938616835292905220546000198114610435578181101561042657604051637dc7a0d960e11b81526001600160a01b03841660048201526024810182905260448101839052606401610396565b61043584848484036000610583565b50505050565b6001600160a01b03831661046557604051634b637e8f60e11b815260006004820152602401610396565b6001600160a01b03821661048f5760405163ec442f0560e01b815260006004820152602401610396565b6103b8838383610658565b6000546001600160a01b031633146103375760405163118cdaa760e01b8152336004820152602401610396565b6001600160a01b0382166104f15760405163ec442f0560e01b815260006004820152602401610396565b61032160008383610658565b600080546001600160a01b038381166001600160a01b0319831681178455604051919092169283917f8be0079c531659141344cd1fd0a4f28419497f9722a3daafe3b4186f6b6457e09190a35050565b6001600160a01b03821661057757604051634b637e8f60e11b815260006004820152602401610396565b61032182600083610658565b6001600160a01b0384166105ad5760405163e602df0560e01b815260006004820152602401610396565b6001600160a01b0383166105d757604051634a1406b160e11b815260006004820152602401610396565b6001600160a01b038085166000908152600260209081526040808320938716835292905220829055801561043557826001600160a01b0316846001600160a01b03167f8c5be1e5ebec7d5bd14f71427d1e84f3dd0314c0f7b2291e5b200ac8c7c3b9258460405161064a91815260200190565b60405180910390a350505050565b6001600160a01b03831661068357806003600082825461067891906108e2565b909155506106f59050565b6001600160a01b038316600090815260016020526040902054818110156106d65760405163391434e360e21b81526001600160a01b03851660048201526024810182905260448101839052606401610396565b6001600160a01b03841660009081526001602052604090209082900390555b6001600160a01b03821661071157600380548290039055610730565b6001600160a01b03821660009081526001602052604090208054820190555b816001600160a01b0316836001600160a01b03167fddf252ad1be2c89b69c2b068fc378daa952ba7f163c4a11628f55a4df523b3ef8360405161077591815260200190565b60405180910390a3505050565b602081526000825180602084015260005b818110156107b05760208186018101516040868401015201610793565b506000604082850101526040601f19601f83011684010191505092915050565b80356001600160a01b03811681146107e757600080fd5b919050565b600080604083850312156107ff57600080fd5b610808836107d0565b946020939093013593505050565b60008060006060848603121561082b57600080fd5b610834846107d0565b9250610842602085016107d0565b929592945050506040919091013590565b60006020828403121561086557600080fd5b61086e826107d0565b9392505050565b6000806040838503121561088857600080fd5b610891836107d0565b915061089f602084016107d0565b90509250929050565b600181811c908216806108bc57607f821691505b6020821081036108dc57634e487b7160e01b600052602260045260246000fd5b50919050565b808201808211156102e557634e487b7160e01b600052601160045260246000fdfea2646970667358221220c05f9db68238f9d49d74234ffde8ef323237e081fb6f28d9b77d9678c134f87364736f6c634300081b0033a2646970667358221220ab782e99f9f73ee2fe238290a366a7a486f46acee88c4e34dd7a41cf80ebfd0964736f6c634300081b0033",
  "linkReferences": {},
  "deployedLinkReferences": {}
}