{
  "_format": "hh-sol-artifact-1",
  "contractName": "MarketNFT",
  "sourceName": "contracts/MarketNFT.sol",
  "abi": [
    {
      "inputs": [],
      "stateMutability": "nonpayable",
      "type": "constructor"
    },
    {
      "inputs": [
        {
          "internalType": "address",
          "name": "owner",
          "type": "address"
        }
      ],
      "name": "OwnableInvalidOwner",
      "type": "error"
    },
    {
      "inputs": [
        {
          "internalType": "address",
          "name": "account",
          "type": "address"
        }
      ],
      "name": "OwnableUnauthorizedAccount",
      "type": "error"
    },
    {
      "anonymous": false,
      "inputs": [
        {
          "indexed": false,
          "internalType": "address",
          "name": "owner",
          "type": "address"
        },
        {
          "indexed": false,
          "internalType": "address",
          "name": "collectionAddress",
          "type": "address"
        }
      ],
      "name": "CollectionAdded",
      "type": "event"
    },
    {
      "anonymous": false,
      "inputs": [
        {
          "indexed": false,
          "internalType": "address",
          "name": "collectionAddress",
          "type": "address"
        }
      ],
      "name": "CollectionRemoved",
      "type": "event"
    },
    {
      "anonymous": false,
      "inputs": [
        {
          "indexed": false,
          "internalType": "address",
          "name": "collection",
          "type": "address"
        },
        {
          "indexed": false,
          "internalType": "address",
          "name": "to",
          "type": "address"
        },
        {
          "indexed": false,
          "internalType": "uint256",
          "name": "tokenId",
          "type": "uint256"
        },
        {
          "indexed": false,
          "internalType": "uint256",
          "name": "price",
          "type": "uint256"
        }
      ],
      "name": "NFTBought",
      "type": "event"
    },
    {
      "anonymous": false,
      "inputs": [
        {
          "indexed": false,
          "internalType": "address",
          "name": "collection",
          "type": "address"
        },
        {
          "indexed": false,
          "internalType": "address",
          "name": "from",
          "type": "address"
        },
        {
          "indexed": false,
          "internalType": "uint256",
          "name": "tokenId",
          "type": "uint256"
        },
        {
          "indexed": false,
          "internalType": "uint256",
          "name": "price",
          "type": "uint256"
        }
      ],
      "name": "NFTListed",
      "type": "event"
    },
    {
      "anonymous": false,
      "inputs": [
        {
          "indexed": false,
          "internalType": "address",
          "name": "collection",
          "type": "address"
        },
        {
          "indexed": false,
          "internalType": "address",
          "name": "owner",
          "type": "address"
        },
        {
          "indexed": false,
          "internalType": "uint256",
          "name": "tokenId",
          "type": "uint256"
        }
      ],
      "name": "NFTListedRemove",
      "type": "event"
    },
    {
      "anonymous": false,
      "inputs": [
        {
          "indexed": false,
          "internalType": "address",
          "name": "collection",
          "type": "address"
        },
        {
          "indexed": false,
          "internalType": "address",
          "name": "from",
          "type": "address"
        },
        {
          "indexed": false,
          "internalType": "address",
          "name": "to",
          "type": "address"
        },
        {
          "indexed": false,
          "internalType": "uint256",
          "name": "nftId",
          "type": "uint256"
        }
      ],
      "name": "NFTTransfer",
      "type": "event"
    },
    {
      "anonymous": false,
      "inputs": [
        {
          "indexed": true,
          "internalType": "address",
          "name": "previousOwner",
          "type": "address"
        },
        {
          "indexed": true,
          "internalType": "address",
          "name": "newOwner",
          "type": "address"
        }
      ],
      "name": "OwnershipTransferred",
      "type": "event"
    },
    {
      "inputs": [
        {
          "internalType": "address",
          "name": "_collectionAddress",
          "type": "address"
        }
      ],
      "name": "addCollection",
      "outputs": [],
      "stateMutability": "payable",
      "type": "function"
    },
    {
      "inputs": [
        {
          "internalType": "address",
          "name": "_collectionAddress",
          "type": "address"
        },
        {
          "internalType": "uint256",
          "name": "_tokenId",
          "type": "uint256"
        }
      ],
      "name": "buyNFT",
      "outputs": [],
      "stateMutability": "payable",
      "type": "function"
    },
    {
      "inputs": [
        {
          "internalType": "address",
          "name": "",
          "type": "address"
        }
      ],
      "name": "collections",
      "outputs": [
        {
          "internalType": "uint256",
          "name": "",
          "type": "uint256"
        }
      ],
      "stateMutability": "view",
      "type": "function"
    },
    {
      "inputs": [],
      "name": "counter",
      "outputs": [
        {
          "internalType": "uint256",
          "name": "",
          "type": "uint256"
        }
      ],
      "stateMutability": "view",
      "type": "function"
    },
    {
      "inputs": [],
      "name": "getAllActiveCollection",
      "outputs": [
        {
          "components": [
            {
              "internalType": "address",
              "name": "collectionAddress",
              "type": "address"
            },
            {
              "internalType": "address",
              "name": "collectionOwner",
              "type": "address"
            },
            {
              "internalType": "string",
              "name": "uri",
              "type": "string"
            }
          ],
          "internalType": "struct MarketNFT.CollectionInfo[]",
          "name": "",
          "type": "tuple[]"
        }
      ],
      "stateMutability": "view",
      "type": "function"
    },
    {
      "inputs": [
        {
          "internalType": "address",
          "name": "_collectionAddress",
          "type": "address"
        },
        {
          "internalType": "uint256",
          "name": "_tokenId",
          "type": "uint256"
        },
        {
          "internalType": "uint256",
          "name": "_newPrice",
          "type": "uint256"
        }
      ],
      "name": "listNFT",
      "outputs": [],
      "stateMutability": "nonpayable",
      "type": "function"
    },
    {
      "inputs": [],
      "name": "owner",
      "outputs": [
        {
          "internalType": "address",
          "name": "",
          "type": "address"
        }
      ],
      "stateMutability": "view",
      "type": "function"
    },
    {
      "inputs": [
        {
          "internalType": "address",
          "name": "_collectionAddress",
          "type": "address"
        }
      ],
      "name": "removeCollection",
      "outputs": [],
      "stateMutability": "nonpayable",
      "type": "function"
    },
    {
      "inputs": [
        {
          "internalType": "address",
          "name": "_collectionAddress",
          "type": "address"
        },
        {
          "internalType": "uint256",
          "name": "_tokenId",
          "type": "uint256"
        }
      ],
      "name": "removeListedNFT",
      "outputs": [],
      "stateMutability": "nonpayable",
      "type": "function"
    },
    {
      "inputs": [],
      "name": "renounceOwnership",
      "outputs": [],
      "stateMutability": "nonpayable",
      "type": "function"
    },
    {
      "inputs": [
        {
          "internalType": "address",
          "name": "_collectionAddress",
          "type": "address"
        },
        {
          "internalType": "address",
          "name": "_to",
          "type": "address"
        },
        {
          "internalType": "uint256",
          "name": "_tokenId",
          "type": "uint256"
        }
      ],
      "name": "transferNFT",
      "outputs": [],
      "stateMutability": "nonpayable",
      "type": "function"
    },
    {
      "inputs": [
        {
          "internalType": "address",
          "name": "newOwner",
          "type": "address"
        }
      ],
      "name": "transferOwnership",
      "outputs": [],
      "stateMutability": "nonpayable",
      "type": "function"
    }
  ],
  "bytecode": "0x6080604052348015600f57600080fd5b503380603557604051631e4fbdf760e01b81526000600482015260240160405180910390fd5b603c816046565b5060006001556096565b600080546001600160a01b038381166001600160a01b0319831681178455604051919092169283917f8be0079c531659141344cd1fd0a4f28419497f9722a3daafe3b4186f6b6457e09190a35050565b6114d3806100a56000396000f3fe6080604052600436106100a75760003560e01c80638da5cb5b116100645780638da5cb5b14610179578063a174e77a146101a1578063a82ba76f146101b4578063ad05f1b4146101c7578063b23e2ee1146101e7578063f2fde38b1461020957600080fd5b806329847c50146100ac57806343add2e6146100ce5780635028d05a1461010e57806361bc221a1461012e57806369e9cae114610144578063715018a614610164575b600080fd5b3480156100b857600080fd5b506100cc6100c7366004610f21565b610229565b005b3480156100da57600080fd5b506100fb6100e9366004610f4d565b60036020526000908152604090205481565b6040519081526020015b60405180910390f35b34801561011a57600080fd5b506100cc610129366004610f4d565b61039e565b34801561013a57600080fd5b506100fb60015481565b34801561015057600080fd5b506100cc61015f366004610f71565b6106a3565b34801561017057600080fd5b506100cc61079b565b34801561018557600080fd5b506000546040516001600160a01b039091168152602001610105565b6100cc6101af366004610f4d565b6107af565b6100cc6101c2366004610f21565b610aba565b3480156101d357600080fd5b506100cc6101e2366004610fb2565b610c07565b3480156101f357600080fd5b506101fc610cef565b604051610105919061100b565b34801561021557600080fd5b506100cc610224366004610f4d565b610e03565b6001600160a01b03821660009081526003602052604081205490036102955760405162461bcd60e51b815260206004820152601960248201527f436f6c6c656374696f6e20646f6573206e6f742065786973740000000000000060448201526064015b60405180910390fd5b604051627cd21360e21b8152600481018290526001600160a01b038316906301f3484c90602401600060405180830381600087803b1580156102d657600080fd5b505af11580156102ea573d6000803e3d6000fd5b505060405163095ea7b360e01b815260006004820152602481018490526001600160a01b038516925063095ea7b39150604401600060405180830381600087803b15801561033757600080fd5b505af115801561034b573d6000803e3d6000fd5b5050604080516001600160a01b03861681523360208201529081018490527f62e8b949c4adfc6890033cc77ec381fdce5ab26b2de894fcd2f8cc82a6a2c3e6925060600190505b60405180910390a15050565b6103a6610e41565b6001600160a01b03811660009081526003602052604081205490036103dd5760405162461bcd60e51b815260040161028c906110ba565b6001600160a01b03811660009081526003602052604081205461040290600190611107565b905060006002828154811061041957610419611120565b600091825260209182902060408051606081018252600390930290910180546001600160a01b039081168452600182015416938301939093526002830180549293929184019161046890611136565b80601f016020809104026020016040519081016040528092919081815260200182805461049490611136565b80156104e15780601f106104b6576101008083540402835291602001916104e1565b820191906000526020600020905b8154815290600101906020018083116104c457829003601f168201915b5050505050815250509050600180546104fa9190611107565b82146105dd576002600180546105109190611107565b8154811061052057610520611120565b90600052602060002090600302016002838154811061054157610541611120565b60009182526020909120825460039092020180546001600160a01b039283166001600160a01b0319918216178255600180850154908301805491909416911617909155600280820190610596908401826111d5565b509050508160036000600285815481106105b2576105b2611120565b600091825260208083206003909202909101546001600160a01b031683528201929092526040019020555b60028054806105ee576105ee6112b5565b60008281526020812060036000199093019283020180546001600160a01b0319908116825560018201805490911690559061062c6002830182610ebe565b505090556001600160a01b03831660009081526003602052604081208190556001805491610659836112cb565b909155505080516040516001600160a01b0390911681527fa0691bd707b2f65c33c8343d61c274df72c6b5007937dcfbc31aa5a0d0f6fe3c906020015b60405180910390a1505050565b6001600160a01b03831660009081526003602052604081205490036106da5760405162461bcd60e51b815260040161028c906110ba565b604051634a55b3ff60e11b81526001600160a01b038381166004830152602482018390528491908216906394ab67fe90604401600060405180830381600087803b15801561072757600080fd5b505af115801561073b573d6000803e3d6000fd5b5050604080516001600160a01b038089168252336020830152871691810191909152606081018590527f3adb86e693e7d44dd93c3f0672625ce4b307fcccac08df4b7bb82f98f69469b5925060800190505b60405180910390a150505050565b6107a3610e41565b6107ad6000610e6e565b565b6001600160a01b038116600090815260036020526040902054156108155760405162461bcd60e51b815260206004820152601b60248201527f436f6c6c656374696f6e20686173206265656e20657869737465640000000000604482015260640161028c565b670de0b6b3a764000034101561087b5760405162461bcd60e51b815260206004820152602560248201527f4e6f7420656e6f756768206665652061646420746f206d61726b657420697320604482015264062408aa8960db1b606482015260840161028c565b600081905060026040518060600160405280846001600160a01b03168152602001836001600160a01b0316638da5cb5b6040518163ffffffff1660e01b8152600401602060405180830381865afa1580156108da573d6000803e3d6000fd5b505050506040513d601f19601f820116820180604052508101906108fe91906112e2565b6001600160a01b03168152602001836001600160a01b031663a5097ebf6040518163ffffffff1660e01b8152600401600060405180830381865afa15801561094a573d6000803e3d6000fd5b505050506040513d6000823e601f3d908101601f1916820160405261097291908101906112ff565b90528154600181810184556000938452602093849020835160039093020180546001600160a01b039384166001600160a01b03199182161782559484015191810180549290931691909416179055604081015190919060028201906109d790826113b4565b5050506001600081546109e99061146b565b91905081905560036000846001600160a01b03166001600160a01b03168152602001908152602001600020819055507fde026c5319b7c35f108a6ccfc922edc8008522079b610aee3c676bb7b7b7fb35816001600160a01b0316638da5cb5b6040518163ffffffff1660e01b8152600401602060405180830381865afa158015610a77573d6000803e3d6000fd5b505050506040513d601f19601f82011682018060405250810190610a9b91906112e2565b604080516001600160a01b039283168152918516602083015201610392565b60003411610b0a5760405162461bcd60e51b815260206004820181905260248201527f416d6f756e74206d7573742062652067726561746572207468616e207a65726f604482015260640161028c565b6001600160a01b0382166000908152600360205260408120549003610b415760405162461bcd60e51b815260040161028c906110ba565b60405163a82ba76f60e01b8152336004820152602481018290526000906001600160a01b0384169063a82ba76f90349060440160206040518083038185885af1158015610b92573d6000803e3d6000fd5b50505050506040513d601f19601f82011682018060405250810190610bb79190611484565b604080516001600160a01b0386168152336020820152908101849052606081018290529091507f5a55b2d970d079d39ce4c5dc9ec6de52ebfc2bbcfc7466d62eea534ee873667390608001610696565b6001600160a01b0383166000908152600360205260408120549003610c3e5760405162461bcd60e51b815260040161028c906110ba565b60405163250e0fc560e21b8152600481018390526024810182905283906001600160a01b038216906394383f1490604401600060405180830381600087803b158015610c8957600080fd5b505af1158015610c9d573d6000803e3d6000fd5b5050604080516001600160a01b0388168152336020820152908101869052606081018590527fbeab3a2bb824b124a8a1eb465eec003338d61b414db132d37e9b3a984fdcf0109250608001905061078d565b60606002805480602002602001604051908101604052809291908181526020016000905b82821015610dfa576000848152602090819020604080516060810182526003860290920180546001600160a01b0390811684526001820154169383019390935260028301805492939291840191610d6990611136565b80601f0160208091040260200160405190810160405280929190818152602001828054610d9590611136565b8015610de25780601f10610db757610100808354040283529160200191610de2565b820191906000526020600020905b815481529060010190602001808311610dc557829003601f168201915b50505050508152505081526020019060010190610d13565b50505050905090565b610e0b610e41565b6001600160a01b038116610e3557604051631e4fbdf760e01b81526000600482015260240161028c565b610e3e81610e6e565b50565b6000546001600160a01b031633146107ad5760405163118cdaa760e01b815233600482015260240161028c565b600080546001600160a01b038381166001600160a01b0319831681178455604051919092169283917f8be0079c531659141344cd1fd0a4f28419497f9722a3daafe3b4186f6b6457e09190a35050565b508054610eca90611136565b6000825580601f10610eda575050565b601f016020900490600052602060002090810190610e3e91905b80821115610f085760008155600101610ef4565b5090565b6001600160a01b0381168114610e3e57600080fd5b60008060408385031215610f3457600080fd5b8235610f3f81610f0c565b946020939093013593505050565b600060208284031215610f5f57600080fd5b8135610f6a81610f0c565b9392505050565b600080600060608486031215610f8657600080fd5b8335610f9181610f0c565b92506020840135610fa181610f0c565b929592945050506040919091013590565b600080600060608486031215610fc757600080fd5b8335610fd281610f0c565b95602085013595506040909401359392505050565b60005b83811015611002578181015183820152602001610fea565b50506000910152565b6000602082016020835280845180835260408501915060408160051b86010192506020860160005b828110156110ae57603f19878603018452815160018060a01b03815116865260018060a01b0360208201511660208701526040810151905060606040870152805180606088015261108b816080890160208501610fe7565b601f01601f19169590950160800194506020938401939190910190600101611033565b50929695505050505050565b60208082526019908201527f436f6c6c656374696f6e20646f6573206e6f7420657869747300000000000000604082015260600190565b634e487b7160e01b600052601160045260246000fd5b8181038181111561111a5761111a6110f1565b92915050565b634e487b7160e01b600052603260045260246000fd5b600181811c9082168061114a57607f821691505b60208210810361116a57634e487b7160e01b600052602260045260246000fd5b50919050565b634e487b7160e01b600052604160045260246000fd5b601f8211156111d057806000526020600020601f840160051c810160208510156111ad5750805b601f840160051c820191505b818110156111cd57600081556001016111b9565b50505b505050565b8181036111e0575050565b6111ea8254611136565b67ffffffffffffffff81111561120257611202611170565b611216816112108454611136565b84611186565b6000601f82116001811461124d57600083156112325750848201545b600184901b600019600386901b1c198216175b8555506111cd565b600085815260209020601f19841690600086815260209020845b838110156112875782860154825560019586019590910190602001611267565b50858310156112a55781850154600019600388901b60f8161c191681555b5050505050600190811b01905550565b634e487b7160e01b600052603160045260246000fd5b6000816112da576112da6110f1565b506000190190565b6000602082840312156112f457600080fd5b8151610f6a81610f0c565b60006020828403121561131157600080fd5b815167ffffffffffffffff81111561132857600080fd5b8201601f8101841361133957600080fd5b805167ffffffffffffffff81111561135357611353611170565b604051601f8201601f19908116603f0116810167ffffffffffffffff8111828210171561138257611382611170565b60405281815282820160200186101561139a57600080fd5b6113ab826020830160208601610fe7565b95945050505050565b815167ffffffffffffffff8111156113ce576113ce611170565b6113dc816112108454611136565b6020601f82116001811461140e5760008315611232575081850151600184901b600019600386901b1c19821617611245565b600084815260208120601f198516915b8281101561143e578785015182556020948501946001909201910161141e565b508482101561145c5786840151600019600387901b60f8161c191681555b50505050600190811b01905550565b60006001820161147d5761147d6110f1565b5060010190565b60006020828403121561149657600080fd5b505191905056fea2646970667358221220cb86a77c8af855465fdaf4d18dceafd655041a8778ee450e8d178abc6dd992bf64736f6c634300081b0033",
  "linkReferences": {},
  "deployedLinkReferences": {}
}