{
  "_format": "hh-sol-artifact-1",
  "contractName": "NFTCollection",
  "sourceName": "contracts/NFTCollection.sol",
  "abi": [
    {
      "inputs": [
        {
          "internalType": "string",
          "name": "_name",
          "type": "string"
        },
        {
          "internalType": "string",
          "name": "_symbol",
          "type": "string"
        },
        {
          "internalType": "string",
          "name": "_uri",
          "type": "string"
        },
        {
          "internalType": "string",
          "name": "_baseUri",
          "type": "string"
        },
        {
          "internalType": "address",
          "name": "_initialOwner",
          "type": "address"
        }
      ],
      "stateMutability": "nonpayable",
      "type": "constructor"
    },
    {
      "inputs": [
        {
          "internalType": "address",
          "name": "sender",
          "type": "address"
        },
        {
          "internalType": "uint256",
          "name": "tokenId",
          "type": "uint256"
        },
        {
          "internalType": "address",
          "name": "owner",
          "type": "address"
        }
      ],
      "name": "ERC721IncorrectOwner",
      "type": "error"
    },
    {
      "inputs": [
        {
          "internalType": "address",
          "name": "operator",
          "type": "address"
        },
        {
          "internalType": "uint256",
          "name": "tokenId",
          "type": "uint256"
        }
      ],
      "name": "ERC721InsufficientApproval",
      "type": "error"
    },
    {
      "inputs": [
        {
          "internalType": "address",
          "name": "approver",
          "type": "address"
        }
      ],
      "name": "ERC721InvalidApprover",
      "type": "error"
    },
    {
      "inputs": [
        {
          "internalType": "address",
          "name": "operator",
          "type": "address"
        }
      ],
      "name": "ERC721InvalidOperator",
      "type": "error"
    },
    {
      "inputs": [
        {
          "internalType": "address",
          "name": "owner",
          "type": "address"
        }
      ],
      "name": "ERC721InvalidOwner",
      "type": "error"
    },
    {
      "inputs": [
        {
          "internalType": "address",
          "name": "receiver",
          "type": "address"
        }
      ],
      "name": "ERC721InvalidReceiver",
      "type": "error"
    },
    {
      "inputs": [
        {
          "internalType": "address",
          "name": "sender",
          "type": "address"
        }
      ],
      "name": "ERC721InvalidSender",
      "type": "error"
    },
    {
      "inputs": [
        {
          "internalType": "uint256",
          "name": "tokenId",
          "type": "uint256"
        }
      ],
      "name": "ERC721NonexistentToken",
      "type": "error"
    },
    {
      "inputs": [
        {
          "internalType": "address",
          "name": "owner",
          "type": "address"
        }
      ],
      "name": "OwnableInvalidOwner",
      "type": "error"
    },
    {
      "inputs": [
        {
          "internalType": "address",
          "name": "account",
          "type": "address"
        }
      ],
      "name": "OwnableUnauthorizedAccount",
      "type": "error"
    },
    {
      "anonymous": false,
      "inputs": [
        {
          "indexed": true,
          "internalType": "address",
          "name": "owner",
          "type": "address"
        },
        {
          "indexed": true,
          "internalType": "address",
          "name": "approved",
          "type": "address"
        },
        {
          "indexed": true,
          "internalType": "uint256",
          "name": "tokenId",
          "type": "uint256"
        }
      ],
      "name": "Approval",
      "type": "event"
    },
    {
      "anonymous": false,
      "inputs": [
        {
          "indexed": true,
          "internalType": "address",
          "name": "owner",
          "type": "address"
        },
        {
          "indexed": true,
          "internalType": "address",
          "name": "operator",
          "type": "address"
        },
        {
          "indexed": false,
          "internalType": "bool",
          "name": "approved",
          "type": "bool"
        }
      ],
      "name": "ApprovalForAll",
      "type": "event"
    },
    {
      "anonymous": false,
      "inputs": [
        {
          "indexed": false,
          "internalType": "uint256",
          "name": "_fromTokenId",
          "type": "uint256"
        },
        {
          "indexed": false,
          "internalType": "uint256",
          "name": "_toTokenId",
          "type": "uint256"
        }
      ],
      "name": "BatchMetadataUpdate",
      "type": "event"
    },
    {
      "anonymous": false,
      "inputs": [
        {
          "indexed": false,
          "internalType": "uint256",
          "name": "_tokenId",
          "type": "uint256"
        }
      ],
      "name": "MetadataUpdate",
      "type": "event"
    },
    {
      "anonymous": false,
      "inputs": [
        {
          "indexed": false,
          "internalType": "address",
          "name": "buyer",
          "type": "address"
        },
        {
          "indexed": false,
          "internalType": "uint256",
          "name": "tokenId",
          "type": "uint256"
        },
        {
          "indexed": false,
          "internalType": "uint256",
          "name": "price",
          "type": "uint256"
        }
      ],
      "name": "NFTBought",
      "type": "event"
    },
    {
      "anonymous": false,
      "inputs": [
        {
          "indexed": false,
          "internalType": "address",
          "name": "to",
          "type": "address"
        },
        {
          "indexed": false,
          "internalType": "uint256",
          "name": "tokenId",
          "type": "uint256"
        },
        {
          "indexed": false,
          "internalType": "string",
          "name": "tokenURI",
          "type": "string"
        }
      ],
      "name": "NFTCreated",
      "type": "event"
    },
    {
      "anonymous": false,
      "inputs": [
        {
          "indexed": false,
          "internalType": "address",
          "name": "from",
          "type": "address"
        },
        {
          "indexed": false,
          "internalType": "uint256",
          "name": "tokenId",
          "type": "uint256"
        },
        {
          "indexed": false,
          "internalType": "uint256",
          "name": "price",
          "type": "uint256"
        }
      ],
      "name": "NFTListed",
      "type": "event"
    },
    {
      "anonymous": false,
      "inputs": [
        {
          "indexed": false,
          "internalType": "address",
          "name": "owner",
          "type": "address"
        },
        {
          "indexed": false,
          "internalType": "uint256",
          "name": "tokenId",
          "type": "uint256"
        }
      ],
      "name": "NFTListedRemove",
      "type": "event"
    },
    {
      "anonymous": false,
      "inputs": [
        {
          "indexed": false,
          "internalType": "address",
          "name": "from",
          "type": "address"
        },
        {
          "indexed": false,
          "internalType": "address",
          "name": "to",
          "type": "address"
        },
        {
          "indexed": false,
          "internalType": "uint256",
          "name": "nftId",
          "type": "uint256"
        }
      ],
      "name": "NFTTransfer",
      "type": "event"
    },
    {
      "anonymous": false,
      "inputs": [
        {
          "indexed": true,
          "internalType": "address",
          "name": "previousOwner",
          "type": "address"
        },
        {
          "indexed": true,
          "internalType": "address",
          "name": "newOwner",
          "type": "address"
        }
      ],
      "name": "OwnershipTransferred",
      "type": "event"
    },
    {
      "anonymous": false,
      "inputs": [
        {
          "indexed": true,
          "internalType": "address",
          "name": "from",
          "type": "address"
        },
        {
          "indexed": true,
          "internalType": "address",
          "name": "to",
          "type": "address"
        },
        {
          "indexed": true,
          "internalType": "uint256",
          "name": "tokenId",
          "type": "uint256"
        }
      ],
      "name": "Transfer",
      "type": "event"
    },
    {
      "inputs": [
        {
          "internalType": "address",
          "name": "to",
          "type": "address"
        },
        {
          "internalType": "uint256",
          "name": "tokenId",
          "type": "uint256"
        }
      ],
      "name": "approve",
      "outputs": [],
      "stateMutability": "nonpayable",
      "type": "function"
    },
    {
      "inputs": [
        {
          "internalType": "address",
          "name": "owner",
          "type": "address"
        }
      ],
      "name": "balanceOf",
      "outputs": [
        {
          "internalType": "uint256",
          "name": "",
          "type": "uint256"
        }
      ],
      "stateMutability": "view",
      "type": "function"
    },
    {
      "inputs": [
        {
          "internalType": "address",
          "name": "_to",
          "type": "address"
        },
        {
          "internalType": "uint256",
          "name": "_tokenId",
          "type": "uint256"
        }
      ],
      "name": "buyNFT",
      "outputs": [
        {
          "internalType": "uint256",
          "name": "",
          "type": "uint256"
        }
      ],
      "stateMutability": "payable",
      "type": "function"
    },
    {
      "inputs": [],
      "name": "collectionURI",
      "outputs": [
        {
          "internalType": "string",
          "name": "",
          "type": "string"
        }
      ],
      "stateMutability": "view",
      "type": "function"
    },
    {
      "inputs": [],
      "name": "counter",
      "outputs": [
        {
          "internalType": "uint256",
          "name": "",
          "type": "uint256"
        }
      ],
      "stateMutability": "view",
      "type": "function"
    },
    {
      "inputs": [
        {
          "internalType": "address",
          "name": "_to",
          "type": "address"
        },
        {
          "internalType": "string",
          "name": "_tokenURI",
          "type": "string"
        },
        {
          "internalType": "uint256",
          "name": "_price",
          "type": "uint256"
        }
      ],
      "name": "createNFT",
      "outputs": [
        {
          "internalType": "uint256",
          "name": "",
          "type": "uint256"
        }
      ],
      "stateMutability": "nonpayable",
      "type": "function"
    },
    {
      "inputs": [
        {
          "internalType": "uint256",
          "name": "tokenId",
          "type": "uint256"
        }
      ],
      "name": "getApproved",
      "outputs": [
        {
          "internalType": "address",
          "name": "",
          "type": "address"
        }
      ],
      "stateMutability": "view",
      "type": "function"
    },
    {
      "inputs": [
        {
          "internalType": "uint256",
          "name": "_nftId",
          "type": "uint256"
        }
      ],
      "name": "getNFTInfo",
      "outputs": [
        {
          "components": [
            {
              "internalType": "uint256",
              "name": "id",
              "type": "uint256"
            },
            {
              "internalType": "uint256",
              "name": "price",
              "type": "uint256"
            },
            {
              "internalType": "string",
              "name": "uri",
              "type": "string"
            },
            {
              "internalType": "bool",
              "name": "isListed",
              "type": "bool"
            },
            {
              "internalType": "address",
              "name": "owner",
              "type": "address"
            }
          ],
          "internalType": "struct NFTCollection.NFTInfo",
          "name": "",
          "type": "tuple"
        }
      ],
      "stateMutability": "view",
      "type": "function"
    },
    {
      "inputs": [
        {
          "internalType": "address",
          "name": "owner",
          "type": "address"
        },
        {
          "internalType": "address",
          "name": "operator",
          "type": "address"
        }
      ],
      "name": "isApprovedForAll",
      "outputs": [
        {
          "internalType": "bool",
          "name": "",
          "type": "bool"
        }
      ],
      "stateMutability": "view",
      "type": "function"
    },
    {
      "inputs": [
        {
          "internalType": "uint256",
          "name": "_tokenId",
          "type": "uint256"
        },
        {
          "internalType": "uint256",
          "name": "_newPrice",
          "type": "uint256"
        }
      ],
      "name": "listNFT",
      "outputs": [],
      "stateMutability": "nonpayable",
      "type": "function"
    },
    {
      "inputs": [],
      "name": "name",
      "outputs": [
        {
          "internalType": "string",
          "name": "",
          "type": "string"
        }
      ],
      "stateMutability": "view",
      "type": "function"
    },
    {
      "inputs": [],
      "name": "owner",
      "outputs": [
        {
          "internalType": "address",
          "name": "",
          "type": "address"
        }
      ],
      "stateMutability": "view",
      "type": "function"
    },
    {
      "inputs": [
        {
          "internalType": "uint256",
          "name": "tokenId",
          "type": "uint256"
        }
      ],
      "name": "ownerOf",
      "outputs": [
        {
          "internalType": "address",
          "name": "",
          "type": "address"
        }
      ],
      "stateMutability": "view",
      "type": "function"
    },
    {
      "inputs": [
        {
          "internalType": "uint256",
          "name": "_tokenId",
          "type": "uint256"
        }
      ],
      "name": "removeListedNFT",
      "outputs": [],
      "stateMutability": "nonpayable",
      "type": "function"
    },
    {
      "inputs": [],
      "name": "renounceOwnership",
      "outputs": [],
      "stateMutability": "nonpayable",
      "type": "function"
    },
    {
      "inputs": [
        {
          "internalType": "address",
          "name": "from",
          "type": "address"
        },
        {
          "internalType": "address",
          "name": "to",
          "type": "address"
        },
        {
          "internalType": "uint256",
          "name": "tokenId",
          "type": "uint256"
        }
      ],
      "name": "safeTransferFrom",
      "outputs": [],
      "stateMutability": "nonpayable",
      "type": "function"
    },
    {
      "inputs": [
        {
          "internalType": "address",
          "name": "from",
          "type": "address"
        },
        {
          "internalType": "address",
          "name": "to",
          "type": "address"
        },
        {
          "internalType": "uint256",
          "name": "tokenId",
          "type": "uint256"
        },
        {
          "internalType": "bytes",
          "name": "data",
          "type": "bytes"
        }
      ],
      "name": "safeTransferFrom",
      "outputs": [],
      "stateMutability": "nonpayable",
      "type": "function"
    },
    {
      "inputs": [
        {
          "internalType": "address",
          "name": "operator",
          "type": "address"
        },
        {
          "internalType": "bool",
          "name": "approved",
          "type": "bool"
        }
      ],
      "name": "setApprovalForAll",
      "outputs": [],
      "stateMutability": "nonpayable",
      "type": "function"
    },
    {
      "inputs": [
        {
          "internalType": "bytes4",
          "name": "interfaceId",
          "type": "bytes4"
        }
      ],
      "name": "supportsInterface",
      "outputs": [
        {
          "internalType": "bool",
          "name": "",
          "type": "bool"
        }
      ],
      "stateMutability": "view",
      "type": "function"
    },
    {
      "inputs": [],
      "name": "symbol",
      "outputs": [
        {
          "internalType": "string",
          "name": "",
          "type": "string"
        }
      ],
      "stateMutability": "view",
      "type": "function"
    },
    {
      "inputs": [
        {
          "internalType": "uint256",
          "name": "tokenId",
          "type": "uint256"
        }
      ],
      "name": "tokenURI",
      "outputs": [
        {
          "internalType": "string",
          "name": "",
          "type": "string"
        }
      ],
      "stateMutability": "view",
      "type": "function"
    },
    {
      "inputs": [
        {
          "internalType": "address",
          "name": "from",
          "type": "address"
        },
        {
          "internalType": "address",
          "name": "to",
          "type": "address"
        },
        {
          "internalType": "uint256",
          "name": "tokenId",
          "type": "uint256"
        }
      ],
      "name": "transferFrom",
      "outputs": [],
      "stateMutability": "nonpayable",
      "type": "function"
    },
    {
      "inputs": [
        {
          "internalType": "address",
          "name": "_to",
          "type": "address"
        },
        {
          "internalType": "uint256",
          "name": "_tokenId",
          "type": "uint256"
        }
      ],
      "name": "transferNFT",
      "outputs": [],
      "stateMutability": "nonpayable",
      "type": "function"
    },
    {
      "inputs": [
        {
          "internalType": "address",
          "name": "newOwner",
          "type": "address"
        }
      ],
      "name": "transferOwnership",
      "outputs": [],
      "stateMutability": "nonpayable",
      "type": "function"
    }
  ],
  "bytecode": "0x608060405234801561001057600080fd5b506040516121ae3803806121ae83398101604081905261002f916101ba565b808585600061003e8382610328565b50600161004b8282610328565b5050506001600160a01b03811661007c57604051631e4fbdf760e01b81526000600482015260240160405180910390fd5b610085816100af565b50600060085560096100978482610328565b50600a6100a48382610328565b5050505050506103e6565b600780546001600160a01b038381166001600160a01b0319831681179093556040519116919082907f8be0079c531659141344cd1fd0a4f28419497f9722a3daafe3b4186f6b6457e090600090a35050565b634e487b7160e01b600052604160045260246000fd5b600082601f83011261012857600080fd5b81516001600160401b0381111561014157610141610101565b604051601f8201601f19908116603f011681016001600160401b038111828210171561016f5761016f610101565b60405281815283820160200185101561018757600080fd5b60005b828110156101a65760208186018101518383018201520161018a565b506000918101602001919091529392505050565b600080600080600060a086880312156101d257600080fd5b85516001600160401b038111156101e857600080fd5b6101f488828901610117565b602088015190965090506001600160401b0381111561021257600080fd5b61021e88828901610117565b604088015190955090506001600160401b0381111561023c57600080fd5b61024888828901610117565b606088015190945090506001600160401b0381111561026657600080fd5b61027288828901610117565b608088015190935090506001600160a01b038116811461029157600080fd5b809150509295509295909350565b600181811c908216806102b357607f821691505b6020821081036102d357634e487b7160e01b600052602260045260246000fd5b50919050565b601f82111561032357806000526020600020601f840160051c810160208510156103005750805b601f840160051c820191505b81811015610320576000815560010161030c565b50505b505050565b81516001600160401b0381111561034157610341610101565b6103558161034f845461029f565b846102d9565b6020601f82116001811461038957600083156103715750848201515b600019600385901b1c1916600184901b178455610320565b600084815260208120601f198516915b828110156103b95787850151825560209485019460019092019101610399565b50848210156103d75786840151600019600387901b60f8161c191681555b50505050600190811b01905550565b611db9806103f56000396000f3fe60806040526004361061014b5760003560e01c806394383f14116100b6578063b88d4fde1161006f578063b88d4fde14610395578063c87b56dd146103b5578063d188929f146103d5578063e985e9c514610402578063eaa6a67614610422578063f2fde38b1461044257600080fd5b806394383f14146102f857806394ab67fe1461031857806395d89b4114610338578063a22cb4651461034d578063a5097ebf1461036d578063a82ba76f1461038257600080fd5b806342842e0e1161010857806342842e0e1461024157806361bc221a146102615780636352211e1461028557806370a08231146102a5578063715018a6146102c55780638da5cb5b146102da57600080fd5b806301f3484c1461015057806301ffc9a71461017257806306fdde03146101a7578063081812fc146101c9578063095ea7b31461020157806323b872dd14610221575b600080fd5b34801561015c57600080fd5b5061017061016b36600461177b565b610462565b005b34801561017e57600080fd5b5061019261018d3660046117aa565b610509565b60405190151581526020015b60405180910390f35b3480156101b357600080fd5b506101bc610534565b60405161019e9190611817565b3480156101d557600080fd5b506101e96101e436600461177b565b6105c6565b6040516001600160a01b03909116815260200161019e565b34801561020d57600080fd5b5061017061021c366004611846565b6105ef565b34801561022d57600080fd5b5061017061023c366004611870565b6105fe565b34801561024d57600080fd5b5061017061025c366004611870565b610689565b34801561026d57600080fd5b5061027760085481565b60405190815260200161019e565b34801561029157600080fd5b506101e96102a036600461177b565b6106a9565b3480156102b157600080fd5b506102776102c03660046118ad565b6106b4565b3480156102d157600080fd5b506101706106fc565b3480156102e657600080fd5b506007546001600160a01b03166101e9565b34801561030457600080fd5b506101706103133660046118c8565b610710565b34801561032457600080fd5b50610170610333366004611846565b6107ba565b34801561034457600080fd5b506101bc610882565b34801561035957600080fd5b506101706103683660046118ea565b610891565b34801561037957600080fd5b506101bc61089c565b610277610390366004611846565b61092a565b3480156103a157600080fd5b506101706103b03660046119b6565b610b62565b3480156103c157600080fd5b506101bc6103d036600461177b565b610b79565b3480156103e157600080fd5b506103f56103f036600461177b565b610c7d565b60405161019e9190611a32565b34801561040e57600080fd5b5061019261041d366004611a8f565b610d24565b34801561042e57600080fd5b5061027761043d366004611ac2565b610d52565b34801561044e57600080fd5b5061017061045d3660046118ad565b610e03565b3361046c826106a9565b6001600160a01b0316148061048e575061048e610488826106a9565b33610d24565b6104b35760405162461bcd60e51b81526004016104aa90611b2e565b60405180910390fd5b6000818152600b6020908152604091829020600101805460ff1916905581513381529081018390527f84f3cf51dfe6e1660feefcadf6502122f4a131a65cf722abfb1a84da7744a873910160405180910390a150565b60006001600160e01b03198216632483248360e11b148061052e575061052e82610e41565b92915050565b60606000805461054390611b63565b80601f016020809104026020016040519081016040528092919081815260200182805461056f90611b63565b80156105bc5780601f10610591576101008083540402835291602001916105bc565b820191906000526020600020905b81548152906001019060200180831161059f57829003601f168201915b5050505050905090565b60006105d182610e91565b506000828152600460205260409020546001600160a01b031661052e565b6105fa828233610eca565b5050565b6001600160a01b03821661062857604051633250574960e11b8152600060048201526024016104aa565b6000610635838333610ed7565b9050836001600160a01b0316816001600160a01b031614610683576040516364283d7b60e01b81526001600160a01b03808616600483015260248201849052821660448201526064016104aa565b50505050565b6106a483838360405180602001604052806000815250610b62565b505050565b600061052e82610e91565b60006001600160a01b0382166106e0576040516322718ad960e21b8152600060048201526024016104aa565b506001600160a01b031660009081526003602052604090205490565b610704610fd0565b61070e6000610ffd565b565b3361071a836106a9565b6001600160a01b031614806107365750610736610488836106a9565b6107525760405162461bcd60e51b81526004016104aa90611b2e565b6000828152600b60209081526040918290208381556001908101805460ff1916909117905581513381529081018490529081018290527fbbf44e68296791df5535457da734bf1017c4b233a740af6d7a89b9f1af4ecb42906060015b60405180910390a15050565b336107c4826106a9565b6001600160a01b031614806107e057506107e0610488826106a9565b6107fc5760405162461bcd60e51b81526004016104aa90611b2e565b60008181526002602052604090205461081f906001600160a01b0316838361104f565b6000818152600b6020908152604091829020600101805460ff1916905581513381526001600160a01b038516918101919091529081018290527ffd19e66d1a4315847e95661bab80aff36f6801c5b2eeeca82491034bd7660abe906060016107ae565b60606001805461054390611b63565b6105fa33838361106a565b600980546108a990611b63565b80601f01602080910402602001604051908101604052809291908181526020018280546108d590611b63565b80156109225780601f106108f757610100808354040283529160200191610922565b820191906000526020600020905b81548152906001019060200180831161090557829003601f168201915b505050505081565b600080341161097b5760405162461bcd60e51b815260206004820181905260248201527f416d6f756e74206d7573742062652067726561746572207468616e207a65726f60448201526064016104aa565b6000828152600b60205260409020600181015460ff166109ce5760405162461bcd60e51b815260206004820152600e60248201526d139195081b9bdd081b1a5cdd195960921b60448201526064016104aa565b336109d8846106a9565b6001600160a01b031614806109f457506109f4610488846106a9565b610a105760405162461bcd60e51b81526004016104aa90611b2e565b6000838152600260205260409020546001600160a01b03858116911603610a695760405162461bcd60e51b815260206004820152600d60248201526c2cb7ba9030b9329037bbb732b960991b60448201526064016104aa565b8054341015610aae5760405162461bcd60e51b8152602060048201526011602482015270082dadeeadce840dcdee840cadcdeeaced607b1b60448201526064016104aa565b610ab7836106a9565b6001600160a01b03166108fc349081150290604051600060405180830381858888f19350505050158015610aef573d6000803e3d6000fd5b50610b03610afc846106a9565b858561104f565b60018101805460ff191690558054604080516001600160a01b03871681526020810186905280820192909252517f38bb180d23818aef357ad4b3806bac3fa13c3492c0ac9d1727381fb2422aaada9181900360600190a1549392505050565b610b6d8484846105fe565b61068384848484611109565b6060610b8482610e91565b5060008281526006602052604081208054610b9e90611b63565b80601f0160208091040260200160405190810160405280929190818152602001828054610bca90611b63565b8015610c175780601f10610bec57610100808354040283529160200191610c17565b820191906000526020600020905b815481529060010190602001808311610bfa57829003601f168201915b505050505090506000610c28611232565b90508051600003610c3a575092915050565b815115610c6c578082604051602001610c54929190611b9d565b60405160208183030381529060405292505050919050565b610c7584611241565b949350505050565b610cba6040518060a0016040528060008152602001600081526020016060815260200160001515815260200160006001600160a01b031681525090565b6040805160a0810182528381526000848152600b60209081528382205490830152918101610ce785610b79565b81526000858152600b60209081526040918290206001015460ff1615159083015201610d12856106a9565b6001600160a01b031690529392505050565b6001600160a01b03918216600090815260056020908152604080832093909416825291909152205460ff1690565b6000610d5c610fd0565b6008805460009182610d6d83611bcc565b919050559050610d7d85826112a9565b610d8781856112c3565b604080518082018252848152600160208083018281526000868152600b9092529084902092518355519101805460ff1916911515919091179055517f403f45e064e1472b925888509d0e5164b4642f3064c519d162e3b9261c204adc90610df390879084908890611bf3565b60405180910390a1949350505050565b610e0b610fd0565b6001600160a01b038116610e3557604051631e4fbdf760e01b8152600060048201526024016104aa565b610e3e81610ffd565b50565b60006001600160e01b031982166380ac58cd60e01b1480610e7257506001600160e01b03198216635b5e139f60e01b145b8061052e57506301ffc9a760e01b6001600160e01b031983161461052e565b6000818152600260205260408120546001600160a01b03168061052e57604051637e27328960e01b8152600481018490526024016104aa565b6106a4838383600161130c565b6000828152600260205260408120546001600160a01b0390811690831615610f0457610f04818486611412565b6001600160a01b03811615610f4257610f2160008560008061130c565b6001600160a01b038116600090815260036020526040902080546000190190555b6001600160a01b03851615610f71576001600160a01b0385166000908152600360205260409020805460010190555b60008481526002602052604080822080546001600160a01b0319166001600160a01b0389811691821790925591518793918516917fddf252ad1be2c89b69c2b068fc378daa952ba7f163c4a11628f55a4df523b3ef91a4949350505050565b6007546001600160a01b0316331461070e5760405163118cdaa760e01b81523360048201526024016104aa565b600780546001600160a01b038381166001600160a01b0319831681179093556040519116919082907f8be0079c531659141344cd1fd0a4f28419497f9722a3daafe3b4186f6b6457e090600090a35050565b6106a483838360405180602001604052806000815250611476565b6001600160a01b03821661109c57604051630b61174360e31b81526001600160a01b03831660048201526024016104aa565b6001600160a01b03838116600081815260056020908152604080832094871680845294825291829020805460ff191686151590811790915591519182527f17307eab39ab6107e8899845ad3d59bd9653f200f220920489ca2b5937696c31910160405180910390a3505050565b6001600160a01b0383163b1561068357604051630a85bd0160e11b81526001600160a01b0384169063150b7a029061114b903390889087908790600401611c23565b6020604051808303816000875af1925050508015611186575060408051601f3d908101601f1916820190925261118391810190611c60565b60015b6111ef573d8080156111b4576040519150601f19603f3d011682016040523d82523d6000602084013e6111b9565b606091505b5080516000036111e757604051633250574960e11b81526001600160a01b03851660048201526024016104aa565b805181602001fd5b6001600160e01b03198116630a85bd0160e11b1461122b57604051633250574960e11b81526001600160a01b03851660048201526024016104aa565b5050505050565b6060600a805461054390611b63565b606061124c82610e91565b506000611257611232565b9050600081511161127757604051806020016040528060008152506112a2565b8061128184611481565b604051602001611292929190611b9d565b6040516020818303038152906040525b9392505050565b6105fa828260405180602001604052806000815250611514565b60008281526006602052604090206112db8282611cc4565b506040518281527ff8e1a15aba9398e019f0b49df1a4fde98ee17ae345cb5f6b5e2c27f5033e8ce7906020016107ae565b808061132057506001600160a01b03821615155b156113e257600061133084610e91565b90506001600160a01b0383161580159061135c5750826001600160a01b0316816001600160a01b031614155b801561136f575061136d8184610d24565b155b156113985760405163a9fbf51f60e01b81526001600160a01b03841660048201526024016104aa565b81156113e05783856001600160a01b0316826001600160a01b03167f8c5be1e5ebec7d5bd14f71427d1e84f3dd0314c0f7b2291e5b200ac8c7c3b92560405160405180910390a45b505b5050600090815260046020526040902080546001600160a01b0319166001600160a01b0392909216919091179055565b61141d83838361152b565b6106a4576001600160a01b03831661144b57604051637e27328960e01b8152600481018290526024016104aa565b60405163177e802f60e01b81526001600160a01b0383166004820152602481018290526044016104aa565b610b6d84848461158e565b6060600061148e8361163e565b600101905060008167ffffffffffffffff8111156114ae576114ae611926565b6040519080825280601f01601f1916602001820160405280156114d8576020820181803683370190505b5090508181016020015b600019016f181899199a1a9b1b9c1cb0b131b232b360811b600a86061a8153600a85049450846114e257509392505050565b61151e8383611716565b6106a46000848484611109565b60006001600160a01b03831615801590610c755750826001600160a01b0316846001600160a01b0316148061156557506115658484610d24565b80610c755750506000908152600460205260409020546001600160a01b03908116911614919050565b6001600160a01b0382166115b857604051633250574960e11b8152600060048201526024016104aa565b60006115c683836000610ed7565b90506001600160a01b0381166115f257604051637e27328960e01b8152600481018390526024016104aa565b836001600160a01b0316816001600160a01b031614610683576040516364283d7b60e01b81526001600160a01b03808616600483015260248201849052821660448201526064016104aa565b60008072184f03e93ff9f4daa797ed6e38ed64bf6a1f0160401b831061167d5772184f03e93ff9f4daa797ed6e38ed64bf6a1f0160401b830492506040015b6d04ee2d6d415b85acef810000000083106116a9576d04ee2d6d415b85acef8100000000830492506020015b662386f26fc1000083106116c757662386f26fc10000830492506010015b6305f5e10083106116df576305f5e100830492506008015b61271083106116f357612710830492506004015b60648310611705576064830492506002015b600a831061052e5760010192915050565b6001600160a01b03821661174057604051633250574960e11b8152600060048201526024016104aa565b600061174e83836000610ed7565b90506001600160a01b038116156106a4576040516339e3563760e11b8152600060048201526024016104aa565b60006020828403121561178d57600080fd5b5035919050565b6001600160e01b031981168114610e3e57600080fd5b6000602082840312156117bc57600080fd5b81356112a281611794565b60005b838110156117e25781810151838201526020016117ca565b50506000910152565b600081518084526118038160208601602086016117c7565b601f01601f19169290920160200192915050565b6020815260006112a260208301846117eb565b80356001600160a01b038116811461184157600080fd5b919050565b6000806040838503121561185957600080fd5b6118628361182a565b946020939093013593505050565b60008060006060848603121561188557600080fd5b61188e8461182a565b925061189c6020850161182a565b929592945050506040919091013590565b6000602082840312156118bf57600080fd5b6112a28261182a565b600080604083850312156118db57600080fd5b50508035926020909101359150565b600080604083850312156118fd57600080fd5b6119068361182a565b91506020830135801515811461191b57600080fd5b809150509250929050565b634e487b7160e01b600052604160045260246000fd5b60008067ffffffffffffffff84111561195757611957611926565b50604051601f19601f85018116603f0116810181811067ffffffffffffffff8211171561198657611986611926565b60405283815290508082840185101561199e57600080fd5b83836020830137600060208583010152509392505050565b600080600080608085870312156119cc57600080fd5b6119d58561182a565b93506119e36020860161182a565b925060408501359150606085013567ffffffffffffffff811115611a0657600080fd5b8501601f81018713611a1757600080fd5b611a268782356020840161193c565b91505092959194509250565b6020815281516020820152602082015160408201526000604083015160a06060840152611a6260c08401826117eb565b60608501511515608085810191909152909401516001600160a01b031660a0909301929092525090919050565b60008060408385031215611aa257600080fd5b611aab8361182a565b9150611ab96020840161182a565b90509250929050565b600080600060608486031215611ad757600080fd5b611ae08461182a565b9250602084013567ffffffffffffffff811115611afc57600080fd5b8401601f81018613611b0d57600080fd5b611b1c8682356020840161193c565b93969395505050506040919091013590565b6020808252818101527f43616c6c6572206973206e6f74206f776e6572206e6f7220617070726f766564604082015260600190565b600181811c90821680611b7757607f821691505b602082108103611b9757634e487b7160e01b600052602260045260246000fd5b50919050565b60008351611baf8184602088016117c7565b835190830190611bc38183602088016117c7565b01949350505050565b600060018201611bec57634e487b7160e01b600052601160045260246000fd5b5060010190565b60018060a01b0384168152826020820152606060408201526000611c1a60608301846117eb565b95945050505050565b6001600160a01b0385811682528416602082015260408101839052608060608201819052600090611c56908301846117eb565b9695505050505050565b600060208284031215611c7257600080fd5b81516112a281611794565b601f8211156106a457806000526020600020601f840160051c81016020851015611ca45750805b601f840160051c820191505b8181101561122b5760008155600101611cb0565b815167ffffffffffffffff811115611cde57611cde611926565b611cf281611cec8454611b63565b84611c7d565b6020601f821160018114611d265760008315611d0e5750848201515b600019600385901b1c1916600184901b17845561122b565b600084815260208120601f198516915b82811015611d565787850151825560209485019460019092019101611d36565b5084821015611d745786840151600019600387901b60f8161c191681555b50505050600190811b0190555056fea2646970667358221220a1d08d2c6af6a580e3a1053a5f0eee8aa554d3350cb7994038dbefb9510f384c64736f6c634300081b0033",
  "linkReferences": {},
  "deployedLinkReferences": {}
}