{
  "_format": "hh-sol-artifact-1",
  "contractName": "NFTCollection",
  "sourceName": "contracts/NFTCollection.sol",
  "abi": [
    {
      "inputs": [
        {
          "internalType": "string",
          "name": "_name",
          "type": "string"
        },
        {
          "internalType": "string",
          "name": "_symbol",
          "type": "string"
        },
        {
          "internalType": "address",
          "name": "_initialOwner",
          "type": "address"
        }
      ],
      "stateMutability": "nonpayable",
      "type": "constructor"
    },
    {
      "inputs": [
        {
          "internalType": "address",
          "name": "sender",
          "type": "address"
        },
        {
          "internalType": "uint256",
          "name": "tokenId",
          "type": "uint256"
        },
        {
          "internalType": "address",
          "name": "owner",
          "type": "address"
        }
      ],
      "name": "ERC721IncorrectOwner",
      "type": "error"
    },
    {
      "inputs": [
        {
          "internalType": "address",
          "name": "operator",
          "type": "address"
        },
        {
          "internalType": "uint256",
          "name": "tokenId",
          "type": "uint256"
        }
      ],
      "name": "ERC721InsufficientApproval",
      "type": "error"
    },
    {
      "inputs": [
        {
          "internalType": "address",
          "name": "approver",
          "type": "address"
        }
      ],
      "name": "ERC721InvalidApprover",
      "type": "error"
    },
    {
      "inputs": [
        {
          "internalType": "address",
          "name": "operator",
          "type": "address"
        }
      ],
      "name": "ERC721InvalidOperator",
      "type": "error"
    },
    {
      "inputs": [
        {
          "internalType": "address",
          "name": "owner",
          "type": "address"
        }
      ],
      "name": "ERC721InvalidOwner",
      "type": "error"
    },
    {
      "inputs": [
        {
          "internalType": "address",
          "name": "receiver",
          "type": "address"
        }
      ],
      "name": "ERC721InvalidReceiver",
      "type": "error"
    },
    {
      "inputs": [
        {
          "internalType": "address",
          "name": "sender",
          "type": "address"
        }
      ],
      "name": "ERC721InvalidSender",
      "type": "error"
    },
    {
      "inputs": [
        {
          "internalType": "uint256",
          "name": "tokenId",
          "type": "uint256"
        }
      ],
      "name": "ERC721NonexistentToken",
      "type": "error"
    },
    {
      "inputs": [
        {
          "internalType": "address",
          "name": "owner",
          "type": "address"
        }
      ],
      "name": "OwnableInvalidOwner",
      "type": "error"
    },
    {
      "inputs": [
        {
          "internalType": "address",
          "name": "account",
          "type": "address"
        }
      ],
      "name": "OwnableUnauthorizedAccount",
      "type": "error"
    },
    {
      "anonymous": false,
      "inputs": [
        {
          "indexed": true,
          "internalType": "address",
          "name": "owner",
          "type": "address"
        },
        {
          "indexed": true,
          "internalType": "address",
          "name": "approved",
          "type": "address"
        },
        {
          "indexed": true,
          "internalType": "uint256",
          "name": "tokenId",
          "type": "uint256"
        }
      ],
      "name": "Approval",
      "type": "event"
    },
    {
      "anonymous": false,
      "inputs": [
        {
          "indexed": true,
          "internalType": "address",
          "name": "owner",
          "type": "address"
        },
        {
          "indexed": true,
          "internalType": "address",
          "name": "operator",
          "type": "address"
        },
        {
          "indexed": false,
          "internalType": "bool",
          "name": "approved",
          "type": "bool"
        }
      ],
      "name": "ApprovalForAll",
      "type": "event"
    },
    {
      "anonymous": false,
      "inputs": [
        {
          "indexed": false,
          "internalType": "uint256",
          "name": "_fromTokenId",
          "type": "uint256"
        },
        {
          "indexed": false,
          "internalType": "uint256",
          "name": "_toTokenId",
          "type": "uint256"
        }
      ],
      "name": "BatchMetadataUpdate",
      "type": "event"
    },
    {
      "anonymous": false,
      "inputs": [
        {
          "indexed": false,
          "internalType": "uint256",
          "name": "_tokenId",
          "type": "uint256"
        }
      ],
      "name": "MetadataUpdate",
      "type": "event"
    },
    {
      "anonymous": false,
      "inputs": [
        {
          "indexed": false,
          "internalType": "address",
          "name": "buyer",
          "type": "address"
        },
        {
          "indexed": false,
          "internalType": "uint256",
          "name": "tokenId",
          "type": "uint256"
        },
        {
          "indexed": false,
          "internalType": "uint256",
          "name": "price",
          "type": "uint256"
        }
      ],
      "name": "NFTBought",
      "type": "event"
    },
    {
      "anonymous": false,
      "inputs": [
        {
          "indexed": false,
          "internalType": "address",
          "name": "to",
          "type": "address"
        },
        {
          "indexed": false,
          "internalType": "uint256",
          "name": "tokenId",
          "type": "uint256"
        },
        {
          "indexed": false,
          "internalType": "string",
          "name": "tokenURI",
          "type": "string"
        }
      ],
      "name": "NFTCreated",
      "type": "event"
    },
    {
      "anonymous": false,
      "inputs": [
        {
          "indexed": false,
          "internalType": "uint256",
          "name": "tokenId",
          "type": "uint256"
        },
        {
          "indexed": false,
          "internalType": "uint256",
          "name": "price",
          "type": "uint256"
        }
      ],
      "name": "NFTListed",
      "type": "event"
    },
    {
      "anonymous": false,
      "inputs": [
        {
          "indexed": false,
          "internalType": "address",
          "name": "owner",
          "type": "address"
        },
        {
          "indexed": false,
          "internalType": "uint256",
          "name": "tokenId",
          "type": "uint256"
        }
      ],
      "name": "NFTListedRemove",
      "type": "event"
    },
    {
      "anonymous": false,
      "inputs": [
        {
          "indexed": false,
          "internalType": "address",
          "name": "receiver",
          "type": "address"
        },
        {
          "indexed": false,
          "internalType": "uint256",
          "name": "nftId",
          "type": "uint256"
        }
      ],
      "name": "NFTTransfer",
      "type": "event"
    },
    {
      "anonymous": false,
      "inputs": [
        {
          "indexed": true,
          "internalType": "address",
          "name": "previousOwner",
          "type": "address"
        },
        {
          "indexed": true,
          "internalType": "address",
          "name": "newOwner",
          "type": "address"
        }
      ],
      "name": "OwnershipTransferred",
      "type": "event"
    },
    {
      "anonymous": false,
      "inputs": [
        {
          "indexed": true,
          "internalType": "address",
          "name": "from",
          "type": "address"
        },
        {
          "indexed": true,
          "internalType": "address",
          "name": "to",
          "type": "address"
        },
        {
          "indexed": true,
          "internalType": "uint256",
          "name": "tokenId",
          "type": "uint256"
        }
      ],
      "name": "Transfer",
      "type": "event"
    },
    {
      "inputs": [
        {
          "internalType": "address",
          "name": "to",
          "type": "address"
        },
        {
          "internalType": "uint256",
          "name": "tokenId",
          "type": "uint256"
        }
      ],
      "name": "approve",
      "outputs": [],
      "stateMutability": "nonpayable",
      "type": "function"
    },
    {
      "inputs": [
        {
          "internalType": "address",
          "name": "owner",
          "type": "address"
        }
      ],
      "name": "balanceOf",
      "outputs": [
        {
          "internalType": "uint256",
          "name": "",
          "type": "uint256"
        }
      ],
      "stateMutability": "view",
      "type": "function"
    },
    {
      "inputs": [
        {
          "internalType": "uint256",
          "name": "_tokenId",
          "type": "uint256"
        }
      ],
      "name": "buyNFT",
      "outputs": [],
      "stateMutability": "payable",
      "type": "function"
    },
    {
      "inputs": [],
      "name": "counter",
      "outputs": [
        {
          "internalType": "uint256",
          "name": "",
          "type": "uint256"
        }
      ],
      "stateMutability": "view",
      "type": "function"
    },
    {
      "inputs": [
        {
          "internalType": "address",
          "name": "_to",
          "type": "address"
        },
        {
          "internalType": "string",
          "name": "_tokenURI",
          "type": "string"
        }
      ],
      "name": "createNFT",
      "outputs": [],
      "stateMutability": "nonpayable",
      "type": "function"
    },
    {
      "inputs": [],
      "name": "getAllListedInfo",
      "outputs": [
        {
          "components": [
            {
              "internalType": "uint256",
              "name": "id",
              "type": "uint256"
            },
            {
              "internalType": "uint256",
              "name": "price",
              "type": "uint256"
            },
            {
              "internalType": "string",
              "name": "uri",
              "type": "string"
            }
          ],
          "internalType": "struct NFTCollection.NFTInfo[]",
          "name": "",
          "type": "tuple[]"
        }
      ],
      "stateMutability": "view",
      "type": "function"
    },
    {
      "inputs": [],
      "name": "getAllNFTInfo",
      "outputs": [
        {
          "components": [
            {
              "internalType": "uint256",
              "name": "id",
              "type": "uint256"
            },
            {
              "internalType": "uint256",
              "name": "price",
              "type": "uint256"
            },
            {
              "internalType": "string",
              "name": "uri",
              "type": "string"
            }
          ],
          "internalType": "struct NFTCollection.NFTInfo[]",
          "name": "",
          "type": "tuple[]"
        }
      ],
      "stateMutability": "view",
      "type": "function"
    },
    {
      "inputs": [
        {
          "internalType": "uint256",
          "name": "tokenId",
          "type": "uint256"
        }
      ],
      "name": "getApproved",
      "outputs": [
        {
          "internalType": "address",
          "name": "",
          "type": "address"
        }
      ],
      "stateMutability": "view",
      "type": "function"
    },
    {
      "inputs": [
        {
          "internalType": "address",
          "name": "owner",
          "type": "address"
        },
        {
          "internalType": "address",
          "name": "operator",
          "type": "address"
        }
      ],
      "name": "isApprovedForAll",
      "outputs": [
        {
          "internalType": "bool",
          "name": "",
          "type": "bool"
        }
      ],
      "stateMutability": "view",
      "type": "function"
    },
    {
      "inputs": [
        {
          "internalType": "uint256",
          "name": "_tokenId",
          "type": "uint256"
        },
        {
          "internalType": "uint256",
          "name": "_newPrice",
          "type": "uint256"
        }
      ],
      "name": "listNFT",
      "outputs": [],
      "stateMutability": "nonpayable",
      "type": "function"
    },
    {
      "inputs": [
        {
          "internalType": "uint256",
          "name": "",
          "type": "uint256"
        }
      ],
      "name": "listed",
      "outputs": [
        {
          "internalType": "uint256",
          "name": "id",
          "type": "uint256"
        },
        {
          "internalType": "uint256",
          "name": "price",
          "type": "uint256"
        },
        {
          "internalType": "string",
          "name": "uri",
          "type": "string"
        }
      ],
      "stateMutability": "view",
      "type": "function"
    },
    {
      "inputs": [],
      "name": "name",
      "outputs": [
        {
          "internalType": "string",
          "name": "",
          "type": "string"
        }
      ],
      "stateMutability": "view",
      "type": "function"
    },
    {
      "inputs": [
        {
          "internalType": "uint256",
          "name": "",
          "type": "uint256"
        }
      ],
      "name": "nfts",
      "outputs": [
        {
          "internalType": "uint256",
          "name": "id",
          "type": "uint256"
        },
        {
          "internalType": "uint256",
          "name": "price",
          "type": "uint256"
        },
        {
          "internalType": "string",
          "name": "uri",
          "type": "string"
        }
      ],
      "stateMutability": "view",
      "type": "function"
    },
    {
      "inputs": [],
      "name": "owner",
      "outputs": [
        {
          "internalType": "address",
          "name": "",
          "type": "address"
        }
      ],
      "stateMutability": "view",
      "type": "function"
    },
    {
      "inputs": [],
      "name": "ownerCollection",
      "outputs": [
        {
          "internalType": "address",
          "name": "",
          "type": "address"
        }
      ],
      "stateMutability": "view",
      "type": "function"
    },
    {
      "inputs": [
        {
          "internalType": "uint256",
          "name": "tokenId",
          "type": "uint256"
        }
      ],
      "name": "ownerOf",
      "outputs": [
        {
          "internalType": "address",
          "name": "",
          "type": "address"
        }
      ],
      "stateMutability": "view",
      "type": "function"
    },
    {
      "inputs": [
        {
          "internalType": "uint256",
          "name": "_tokenId",
          "type": "uint256"
        }
      ],
      "name": "removeListedNFT",
      "outputs": [],
      "stateMutability": "nonpayable",
      "type": "function"
    },
    {
      "inputs": [],
      "name": "renounceOwnership",
      "outputs": [],
      "stateMutability": "nonpayable",
      "type": "function"
    },
    {
      "inputs": [
        {
          "internalType": "address",
          "name": "from",
          "type": "address"
        },
        {
          "internalType": "address",
          "name": "to",
          "type": "address"
        },
        {
          "internalType": "uint256",
          "name": "tokenId",
          "type": "uint256"
        }
      ],
      "name": "safeTransferFrom",
      "outputs": [],
      "stateMutability": "nonpayable",
      "type": "function"
    },
    {
      "inputs": [
        {
          "internalType": "address",
          "name": "from",
          "type": "address"
        },
        {
          "internalType": "address",
          "name": "to",
          "type": "address"
        },
        {
          "internalType": "uint256",
          "name": "tokenId",
          "type": "uint256"
        },
        {
          "internalType": "bytes",
          "name": "data",
          "type": "bytes"
        }
      ],
      "name": "safeTransferFrom",
      "outputs": [],
      "stateMutability": "nonpayable",
      "type": "function"
    },
    {
      "inputs": [
        {
          "internalType": "address",
          "name": "operator",
          "type": "address"
        },
        {
          "internalType": "bool",
          "name": "approved",
          "type": "bool"
        }
      ],
      "name": "setApprovalForAll",
      "outputs": [],
      "stateMutability": "nonpayable",
      "type": "function"
    },
    {
      "inputs": [
        {
          "internalType": "bytes4",
          "name": "interfaceId",
          "type": "bytes4"
        }
      ],
      "name": "supportsInterface",
      "outputs": [
        {
          "internalType": "bool",
          "name": "",
          "type": "bool"
        }
      ],
      "stateMutability": "view",
      "type": "function"
    },
    {
      "inputs": [],
      "name": "symbol",
      "outputs": [
        {
          "internalType": "string",
          "name": "",
          "type": "string"
        }
      ],
      "stateMutability": "view",
      "type": "function"
    },
    {
      "inputs": [
        {
          "internalType": "uint256",
          "name": "tokenId",
          "type": "uint256"
        }
      ],
      "name": "tokenURI",
      "outputs": [
        {
          "internalType": "string",
          "name": "",
          "type": "string"
        }
      ],
      "stateMutability": "view",
      "type": "function"
    },
    {
      "inputs": [
        {
          "internalType": "address",
          "name": "from",
          "type": "address"
        },
        {
          "internalType": "address",
          "name": "to",
          "type": "address"
        },
        {
          "internalType": "uint256",
          "name": "tokenId",
          "type": "uint256"
        }
      ],
      "name": "transferFrom",
      "outputs": [],
      "stateMutability": "nonpayable",
      "type": "function"
    },
    {
      "inputs": [
        {
          "internalType": "address",
          "name": "_to",
          "type": "address"
        },
        {
          "internalType": "uint256",
          "name": "_tokenId",
          "type": "uint256"
        }
      ],
      "name": "transferNFT",
      "outputs": [],
      "stateMutability": "nonpayable",
      "type": "function"
    },
    {
      "inputs": [
        {
          "internalType": "address",
          "name": "newOwner",
          "type": "address"
        }
      ],
      "name": "transferOwnership",
      "outputs": [],
      "stateMutability": "nonpayable",
      "type": "function"
    }
  ],
  "bytecode": "0x608060405234801561001057600080fd5b5060405161285c38038061285c83398101604081905261002f916101be565b808383600061003e83826102d2565b50600161004b82826102d2565b5050506001600160a01b03811661007c57604051631e4fbdf760e01b81526000600482015260240160405180910390fd5b610085816100b3565b506000600855600980546001600160a01b0319166001600160a01b0392909216919091179055506103909050565b600780546001600160a01b038381166001600160a01b0319831681179093556040519116919082907f8be0079c531659141344cd1fd0a4f28419497f9722a3daafe3b4186f6b6457e090600090a35050565b634e487b7160e01b600052604160045260246000fd5b600082601f83011261012c57600080fd5b81516001600160401b0381111561014557610145610105565b604051601f8201601f19908116603f011681016001600160401b038111828210171561017357610173610105565b60405281815283820160200185101561018b57600080fd5b60005b828110156101aa5760208186018101518383018201520161018e565b506000918101602001919091529392505050565b6000806000606084860312156101d357600080fd5b83516001600160401b038111156101e957600080fd5b6101f58682870161011b565b602086015190945090506001600160401b0381111561021357600080fd5b61021f8682870161011b565b604086015190935090506001600160a01b038116811461023e57600080fd5b809150509250925092565b600181811c9082168061025d57607f821691505b60208210810361027d57634e487b7160e01b600052602260045260246000fd5b50919050565b601f8211156102cd57806000526020600020601f840160051c810160208510156102aa5750805b601f840160051c820191505b818110156102ca57600081556001016102b6565b50505b505050565b81516001600160401b038111156102eb576102eb610105565b6102ff816102f98454610249565b84610283565b6020601f821160018114610333576000831561031b5750848201515b600019600385901b1c1916600184901b1784556102ca565b600084815260208120601f198516915b828110156103635787850151825560209485019460019092019101610343565b50848210156103815786840151600019600387901b60f8161c191681555b50505050600190811b01905550565b6124bd8061039f6000396000f3fe60806040526004361061019c5760003560e01c806370a08231116100ec578063a56140331161008a578063c87b56dd11610064578063c87b56dd14610497578063e985e9c5146104b7578063f2fde38b146104d7578063fa010223146104f757600080fd5b8063a561403314610442578063b88d4fde14610462578063c097649e1461048257600080fd5b806394383f14116100c657806394383f14146103cd57806394ab67fe146103ed57806395d89b411461040d578063a22cb4651461042257600080fd5b806370a082311461037a578063715018a61461039a5780638da5cb5b146103af57600080fd5b80631faea1461161015957806342842e0e1161013357806342842e0e1461030357806351ed82881461032357806361bc221a146103365780636352211e1461035a57600080fd5b80631faea146146102a157806323b872dd146102c3578063265aa621146102e357600080fd5b806301f3484c146101a157806301ffc9a7146101c357806304c31251146101f857806306fdde0314610227578063081812fc14610249578063095ea7b314610281575b600080fd5b3480156101ad57600080fd5b506101c16101bc366004611d32565b610517565b005b3480156101cf57600080fd5b506101e36101de366004611d61565b61068f565b60405190151581526020015b60405180910390f35b34801561020457600080fd5b50610218610213366004611d32565b6106ba565b6040516101ef93929190611dce565b34801561023357600080fd5b5061023c61077c565b6040516101ef9190611df6565b34801561025557600080fd5b50610269610264366004611d32565b61080e565b6040516001600160a01b0390911681526020016101ef565b34801561028d57600080fd5b506101c161029c366004611e25565b610837565b3480156102ad57600080fd5b506102b6610846565b6040516101ef9190611e4f565b3480156102cf57600080fd5b506101c16102de366004611ed5565b61094b565b3480156102ef57600080fd5b506102186102fe366004611d32565b6109d6565b34801561030f57600080fd5b506101c161031e366004611ed5565b6109fe565b6101c1610331366004611d32565b610a1e565b34801561034257600080fd5b5061034c60085481565b6040519081526020016101ef565b34801561036657600080fd5b50610269610375366004611d32565b610d4e565b34801561038657600080fd5b5061034c610395366004611f12565b610d59565b3480156103a657600080fd5b506101c1610da1565b3480156103bb57600080fd5b506007546001600160a01b0316610269565b3480156103d957600080fd5b506101c16103e8366004611f2d565b610db5565b3480156103f957600080fd5b506101c1610408366004611e25565b610ed9565b34801561041957600080fd5b5061023c610fb6565b34801561042e57600080fd5b506101c161043d366004611f4f565b610fc5565b34801561044e57600080fd5b506101c161045d36600461201b565b610fd0565b34801561046e57600080fd5b506101c161047d36600461207d565b611090565b34801561048e57600080fd5b506102b66110a7565b3480156104a357600080fd5b5061023c6104b2366004611d32565b61121a565b3480156104c357600080fd5b506101e36104d23660046120f9565b61132b565b3480156104e357600080fd5b506101c16104f2366004611f12565b611359565b34801561050357600080fd5b50600954610269906001600160a01b031681565b3361052182611397565b6001600160a01b0316146105505760405162461bcd60e51b81526004016105479061212c565b60405180910390fd5b60005b600a548110156106525781600a828154811061057157610571612157565b9060005260206000209060030201600001540361064a57600a805461059890600190612183565b815481106105a8576105a8612157565b9060005260206000209060030201600a82815481106105c9576105c9612157565b90600052602060002090600302016000820154816000015560018201548160010155600282018160020190816105ff9190612211565b50905050600a805480610614576106146122f1565b60008281526020812060036000199093019283020181815560018101829055906106416002830182611ce4565b50509055610652565b600101610553565b5060408051338152602081018390527f84f3cf51dfe6e1660feefcadf6502122f4a131a65cf722abfb1a84da7744a873910160405180910390a150565b60006001600160e01b03198216632483248360e11b14806106b457506106b4826113b2565b92915050565b600a81815481106106ca57600080fd5b90600052602060002090600302016000915090508060000154908060010154908060020180546106f990612196565b80601f016020809104026020016040519081016040528092919081815260200182805461072590612196565b80156107725780601f1061074757610100808354040283529160200191610772565b820191906000526020600020905b81548152906001019060200180831161075557829003601f168201915b5050505050905083565b60606000805461078b90612196565b80601f01602080910402602001604051908101604052809291908181526020018280546107b790612196565b80156108045780601f106107d957610100808354040283529160200191610804565b820191906000526020600020905b8154815290600101906020018083116107e757829003601f168201915b5050505050905090565b600061081982611402565b506000828152600460205260409020546001600160a01b03166106b4565b61084282823361143a565b5050565b6060600a805480602002602001604051908101604052809291908181526020016000905b82821015610942578382906000526020600020906003020160405180606001604052908160008201548152602001600182015481526020016002820180546108b190612196565b80601f01602080910402602001604051908101604052809291908181526020018280546108dd90612196565b801561092a5780601f106108ff5761010080835404028352916020019161092a565b820191906000526020600020905b81548152906001019060200180831161090d57829003601f168201915b5050505050815250508152602001906001019061086a565b50505050905090565b6001600160a01b03821661097557604051633250574960e11b815260006004820152602401610547565b6000610982838333611447565b9050836001600160a01b0316816001600160a01b0316146109d0576040516364283d7b60e01b81526001600160a01b0380861660048301526024820184905282166044820152606401610547565b50505050565b600b60205260009081526040902080546001820154600283018054929391926106f990612196565b610a1983838360405180602001604052806000815250611090565b505050565b60003411610a6e5760405162461bcd60e51b815260206004820181905260248201527f416d6f756e74206d7573742062652067726561746572207468616e207a65726f6044820152606401610547565b6000818152600b602052604090206001810154610abe5760405162461bcd60e51b815260206004820152600e60248201526d139195081b9bdd081b1a5cdd195960921b6044820152606401610547565b8060010154341015610b065760405162461bcd60e51b8152602060048201526011602482015270082dadeeadce840dcdee840cadcdeeaced607b1b6044820152606401610547565b80543390610b1390611397565b6001600160a01b031603610b595760405162461bcd60e51b815260206004820152600d60248201526c2cb7ba9030b9329037bbb732b960991b6044820152606401610547565b610b72610b698260000154611397565b8254309061153b565b610bba5760405162461bcd60e51b8152602060048201526019602482015278151a19481d1bdad95b881a5cc81b9bdd08185c1c1c9bdd9959603a1b6044820152606401610547565b60405133903480156108fc02916000818181858888f19350505050158015610be6573d6000803e3d6000fd5b50610c00610bf78260000154610d4e565b8254339061159e565b60005b600a54811015610d025782600a8281548110610c2157610c21612157565b90600052602060002090600302016000015403610cfa57600a8054610c4890600190612183565b81548110610c5857610c58612157565b9060005260206000209060030201600a8281548110610c7957610c79612157565b9060005260206000209060030201600082015481600001556001820154816001015560028201816002019081610caf9190612211565b50905050600a805480610cc457610cc46122f1565b6000828152602081206003600019909301928302018181556001810182905590610cf16002830182611ce4565b50509055610d02565b600101610c03565b50805460018201546040805133815260208101939093528201527f38bb180d23818aef357ad4b3806bac3fa13c3492c0ac9d1727381fb2422aaada906060015b60405180910390a15050565b60006106b482611402565b60006001600160a01b038216610d85576040516322718ad960e21b815260006004820152602401610547565b506001600160a01b031660009081526003602052604090205490565b610da96115b9565b610db360006115e6565b565b33610dbf83611397565b6001600160a01b031614610de55760405162461bcd60e51b81526004016105479061212c565b610def3083610837565b6000828152600b602052604081206001808201848155600a80549283018155909352815460039091027fc65a7bb8d6351c1cf70c95a316cc6a92839c986682d98bc35f958f4883f9d2a8810191825592547fc65a7bb8d6351c1cf70c95a316cc6a92839c986682d98bc35f958f4883f9d2a984015590918291907fc65a7bb8d6351c1cf70c95a316cc6a92839c986682d98bc35f958f4883f9d2aa01610e986002840182612211565b505060408051858152602081018590527fa6cd73580a273eec6c1026108f6b63479fbaef5356dde4ff43e4b38dd187485f92500160405180910390a1505050565b33610ee382611397565b6001600160a01b031614610f095760405162461bcd60e51b81526004016105479061212c565b610f1c610f1582611397565b308361153b565b610f645760405162461bcd60e51b8152602060048201526019602482015278151a19481d1bdad95b881a5cc81b9bdd08185c1c1c9bdd9959603a1b6044820152606401610547565b610f77610f7082611397565b838361159e565b604080516001600160a01b0384168152602081018390527f4beb284ded570f9274d681f37b987c82fe53628d20969d02cd65f72453d3f79c9101610d42565b60606001805461078b90612196565b610842338383611638565b610fd86115b9565b6008805460009182610fe983612307565b919050559050610ff983826116d7565b61100381836116f1565b6040805160608101825282815260006020808301828152838501878152868452600b9092529390912082518155925160018401555190918291600282019061104b9082612320565b509050507f403f45e064e1472b925888509d0e5164b4642f3064c519d162e3b9261c204adc848385604051611082939291906123d7565b60405180910390a150505050565b61109b84848461094b565b6109d08484848461173a565b6060600060085467ffffffffffffffff8111156110c6576110c6611f8b565b60405190808252806020026020018201604052801561111b57816020015b61110860405180606001604052806000815260200160008152602001606081525090565b8152602001906001900390816110e45790505b50905060005b60085481101561121457600b6000828152602001908152602001600020604051806060016040529081600082015481526020016001820154815260200160028201805461116d90612196565b80601f016020809104026020016040519081016040528092919081815260200182805461119990612196565b80156111e65780601f106111bb576101008083540402835291602001916111e6565b820191906000526020600020905b8154815290600101906020018083116111c957829003601f168201915b50505050508152505082828151811061120157611201612157565b6020908102919091010152600101611121565b50919050565b606061122582611402565b506000828152600660205260408120805461123f90612196565b80601f016020809104026020016040519081016040528092919081815260200182805461126b90612196565b80156112b85780601f1061128d576101008083540402835291602001916112b8565b820191906000526020600020905b81548152906001019060200180831161129b57829003601f168201915b5050505050905060006112d660408051602081019091526000815290565b905080516000036112e8575092915050565b81511561131a5780826040516020016113029291906123fe565b60405160208183030381529060405292505050919050565b61132384611863565b949350505050565b6001600160a01b03918216600090815260056020908152604080832093909416825291909152205460ff1690565b6113616115b9565b6001600160a01b03811661138b57604051631e4fbdf760e01b815260006004820152602401610547565b611394816115e6565b50565b6000908152600260205260409020546001600160a01b031690565b60006001600160e01b031982166380ac58cd60e01b14806113e357506001600160e01b03198216635b5e139f60e01b145b806106b457506301ffc9a760e01b6001600160e01b03198316146106b4565b60008061140e83611397565b90506001600160a01b0381166106b457604051637e27328960e01b815260048101849052602401610547565b610a1983838360016118d8565b60008061145384611397565b90506001600160a01b0383161561146f5761146f8184866119de565b6001600160a01b038116156114ad5761148c6000856000806118d8565b6001600160a01b038116600090815260036020526040902080546000190190555b6001600160a01b038516156114dc576001600160a01b0385166000908152600360205260409020805460010190555b60008481526002602052604080822080546001600160a01b0319166001600160a01b0389811691821790925591518793918516917fddf252ad1be2c89b69c2b068fc378daa952ba7f163c4a11628f55a4df523b3ef91a4949350505050565b60006001600160a01b038316158015906113235750826001600160a01b0316846001600160a01b031614806115755750611575848461132b565b806113235750506000908152600460205260409020546001600160a01b03908116911614919050565b610a1983838360405180602001604052806000815250611a42565b6007546001600160a01b03163314610db35760405163118cdaa760e01b8152336004820152602401610547565b600780546001600160a01b038381166001600160a01b0319831681179093556040519116919082907f8be0079c531659141344cd1fd0a4f28419497f9722a3daafe3b4186f6b6457e090600090a35050565b6001600160a01b03821661166a57604051630b61174360e31b81526001600160a01b0383166004820152602401610547565b6001600160a01b03838116600081815260056020908152604080832094871680845294825291829020805460ff191686151590811790915591519182527f17307eab39ab6107e8899845ad3d59bd9653f200f220920489ca2b5937696c31910160405180910390a3505050565b610842828260405180602001604052806000815250611a4d565b60008281526006602052604090206117098282612320565b506040518281527ff8e1a15aba9398e019f0b49df1a4fde98ee17ae345cb5f6b5e2c27f5033e8ce790602001610d42565b6001600160a01b0383163b156109d057604051630a85bd0160e11b81526001600160a01b0384169063150b7a029061177c90339088908790879060040161242d565b6020604051808303816000875af19250505080156117b7575060408051601f3d908101601f191682019092526117b49181019061246a565b60015b611820573d8080156117e5576040519150601f19603f3d011682016040523d82523d6000602084013e6117ea565b606091505b50805160000361181857604051633250574960e11b81526001600160a01b0385166004820152602401610547565b805181602001fd5b6001600160e01b03198116630a85bd0160e11b1461185c57604051633250574960e11b81526001600160a01b0385166004820152602401610547565b5050505050565b606061186e82611402565b50600061188660408051602081019091526000815290565b905060008151116118a657604051806020016040528060008152506118d1565b806118b084611a64565b6040516020016118c19291906123fe565b6040516020818303038152906040525b9392505050565b80806118ec57506001600160a01b03821615155b156119ae5760006118fc84611402565b90506001600160a01b038316158015906119285750826001600160a01b0316816001600160a01b031614155b801561193b5750611939818461132b565b155b156119645760405163a9fbf51f60e01b81526001600160a01b0384166004820152602401610547565b81156119ac5783856001600160a01b0316826001600160a01b03167f8c5be1e5ebec7d5bd14f71427d1e84f3dd0314c0f7b2291e5b200ac8c7c3b92560405160405180910390a45b505b5050600090815260046020526040902080546001600160a01b0319166001600160a01b0392909216919091179055565b6119e983838361153b565b610a19576001600160a01b038316611a1757604051637e27328960e01b815260048101829052602401610547565b60405163177e802f60e01b81526001600160a01b038316600482015260248101829052604401610547565b61109b848484611af7565b611a578383611ba7565b610a19600084848461173a565b60606000611a7183611c0c565b600101905060008167ffffffffffffffff811115611a9157611a91611f8b565b6040519080825280601f01601f191660200182016040528015611abb576020820181803683370190505b5090508181016020015b600019016f181899199a1a9b1b9c1cb0b131b232b360811b600a86061a8153600a8504945084611ac557509392505050565b6001600160a01b038216611b2157604051633250574960e11b815260006004820152602401610547565b6000611b2f83836000611447565b90506001600160a01b038116611b5b57604051637e27328960e01b815260048101839052602401610547565b836001600160a01b0316816001600160a01b0316146109d0576040516364283d7b60e01b81526001600160a01b0380861660048301526024820184905282166044820152606401610547565b6001600160a01b038216611bd157604051633250574960e11b815260006004820152602401610547565b6000611bdf83836000611447565b90506001600160a01b03811615610a19576040516339e3563760e11b815260006004820152602401610547565b60008072184f03e93ff9f4daa797ed6e38ed64bf6a1f0160401b8310611c4b5772184f03e93ff9f4daa797ed6e38ed64bf6a1f0160401b830492506040015b6d04ee2d6d415b85acef81000000008310611c77576d04ee2d6d415b85acef8100000000830492506020015b662386f26fc100008310611c9557662386f26fc10000830492506010015b6305f5e1008310611cad576305f5e100830492506008015b6127108310611cc157612710830492506004015b60648310611cd3576064830492506002015b600a83106106b45760010192915050565b508054611cf090612196565b6000825580601f10611d00575050565b601f01602090049060005260206000209081019061139491905b80821115611d2e5760008155600101611d1a565b5090565b600060208284031215611d4457600080fd5b5035919050565b6001600160e01b03198116811461139457600080fd5b600060208284031215611d7357600080fd5b81356118d181611d4b565b60005b83811015611d99578181015183820152602001611d81565b50506000910152565b60008151808452611dba816020860160208601611d7e565b601f01601f19169290920160200192915050565b838152826020820152606060408201526000611ded6060830184611da2565b95945050505050565b6020815260006118d16020830184611da2565b80356001600160a01b0381168114611e2057600080fd5b919050565b60008060408385031215611e3857600080fd5b611e4183611e09565b946020939093013593505050565b6000602082016020835280845180835260408501915060408160051b86010192506020860160005b82811015611ec957603f19878603018452815180518652602081015160208701526040810151905060606040870152611eb36060870182611da2565b9550506020938401939190910190600101611e77565b50929695505050505050565b600080600060608486031215611eea57600080fd5b611ef384611e09565b9250611f0160208501611e09565b929592945050506040919091013590565b600060208284031215611f2457600080fd5b6118d182611e09565b60008060408385031215611f4057600080fd5b50508035926020909101359150565b60008060408385031215611f6257600080fd5b611f6b83611e09565b915060208301358015158114611f8057600080fd5b809150509250929050565b634e487b7160e01b600052604160045260246000fd5b60008067ffffffffffffffff841115611fbc57611fbc611f8b565b50604051601f19601f85018116603f0116810181811067ffffffffffffffff82111715611feb57611feb611f8b565b60405283815290508082840185101561200357600080fd5b83836020830137600060208583010152509392505050565b6000806040838503121561202e57600080fd5b61203783611e09565b9150602083013567ffffffffffffffff81111561205357600080fd5b8301601f8101851361206457600080fd5b61207385823560208401611fa1565b9150509250929050565b6000806000806080858703121561209357600080fd5b61209c85611e09565b93506120aa60208601611e09565b925060408501359150606085013567ffffffffffffffff8111156120cd57600080fd5b8501601f810187136120de57600080fd5b6120ed87823560208401611fa1565b91505092959194509250565b6000806040838503121561210c57600080fd5b61211583611e09565b915061212360208401611e09565b90509250929050565b6020808252601190820152702cb7ba9030b932903737ba1037bbb732b960791b604082015260600190565b634e487b7160e01b600052603260045260246000fd5b634e487b7160e01b600052601160045260246000fd5b818103818111156106b4576106b461216d565b600181811c908216806121aa57607f821691505b60208210810361121457634e487b7160e01b600052602260045260246000fd5b601f821115610a1957806000526020600020601f840160051c810160208510156121f15750805b601f840160051c820191505b8181101561185c57600081556001016121fd565b81810361221c575050565b6122268254612196565b67ffffffffffffffff81111561223e5761223e611f8b565b6122528161224c8454612196565b846121ca565b6000601f821160018114612289576000831561226e5750848201545b600184901b600019600386901b1c198216175b85555061185c565b600085815260209020601f19841690600086815260209020845b838110156122c357828601548255600195860195909101906020016122a3565b50858310156122e15781850154600019600388901b60f8161c191681555b5050505050600190811b01905550565b634e487b7160e01b600052603160045260246000fd5b6000600182016123195761231961216d565b5060010190565b815167ffffffffffffffff81111561233a5761233a611f8b565b6123488161224c8454612196565b6020601f82116001811461237a576000831561226e575081850151600184901b600019600386901b1c19821617612281565b600084815260208120601f198516915b828110156123aa578785015182556020948501946001909201910161238a565b50848210156123c85786840151600019600387901b60f8161c191681555b50505050600190811b01905550565b60018060a01b0384168152826020820152606060408201526000611ded6060830184611da2565b60008351612410818460208801611d7e565b835190830190612424818360208801611d7e565b01949350505050565b6001600160a01b038581168252841660208201526040810183905260806060820181905260009061246090830184611da2565b9695505050505050565b60006020828403121561247c57600080fd5b81516118d181611d4b56fea2646970667358221220bcce863176f2c154e4c7d540aceb85c158315f7e623e15deed3571cd4ca4484064736f6c634300081b0033",
  "linkReferences": {},
  "deployedLinkReferences": {}
}