{
  "_format": "hh-sol-artifact-1",
  "contractName": "NFTERC721",
  "sourceName": "contracts/NFTERC721.sol",
  "abi": [
    {
      "inputs": [
        {
          "internalType": "string",
          "name": "_name",
          "type": "string"
        },
        {
          "internalType": "string",
          "name": "_symbol",
          "type": "string"
        },
        {
          "internalType": "string",
          "name": "_uri",
          "type": "string"
        },
        {
          "internalType": "uint256",
          "name": "_price",
          "type": "uint256"
        },
        {
          "internalType": "address",
          "name": "_initialOwner",
          "type": "address"
        }
      ],
      "stateMutability": "nonpayable",
      "type": "constructor"
    },
    {
      "inputs": [
        {
          "internalType": "address",
          "name": "sender",
          "type": "address"
        },
        {
          "internalType": "uint256",
          "name": "tokenId",
          "type": "uint256"
        },
        {
          "internalType": "address",
          "name": "owner",
          "type": "address"
        }
      ],
      "name": "ERC721IncorrectOwner",
      "type": "error"
    },
    {
      "inputs": [
        {
          "internalType": "address",
          "name": "operator",
          "type": "address"
        },
        {
          "internalType": "uint256",
          "name": "tokenId",
          "type": "uint256"
        }
      ],
      "name": "ERC721InsufficientApproval",
      "type": "error"
    },
    {
      "inputs": [
        {
          "internalType": "address",
          "name": "approver",
          "type": "address"
        }
      ],
      "name": "ERC721InvalidApprover",
      "type": "error"
    },
    {
      "inputs": [
        {
          "internalType": "address",
          "name": "operator",
          "type": "address"
        }
      ],
      "name": "ERC721InvalidOperator",
      "type": "error"
    },
    {
      "inputs": [
        {
          "internalType": "address",
          "name": "owner",
          "type": "address"
        }
      ],
      "name": "ERC721InvalidOwner",
      "type": "error"
    },
    {
      "inputs": [
        {
          "internalType": "address",
          "name": "receiver",
          "type": "address"
        }
      ],
      "name": "ERC721InvalidReceiver",
      "type": "error"
    },
    {
      "inputs": [
        {
          "internalType": "address",
          "name": "sender",
          "type": "address"
        }
      ],
      "name": "ERC721InvalidSender",
      "type": "error"
    },
    {
      "inputs": [
        {
          "internalType": "uint256",
          "name": "tokenId",
          "type": "uint256"
        }
      ],
      "name": "ERC721NonexistentToken",
      "type": "error"
    },
    {
      "inputs": [
        {
          "internalType": "address",
          "name": "owner",
          "type": "address"
        }
      ],
      "name": "OwnableInvalidOwner",
      "type": "error"
    },
    {
      "inputs": [
        {
          "internalType": "address",
          "name": "account",
          "type": "address"
        }
      ],
      "name": "OwnableUnauthorizedAccount",
      "type": "error"
    },
    {
      "anonymous": false,
      "inputs": [
        {
          "indexed": true,
          "internalType": "address",
          "name": "owner",
          "type": "address"
        },
        {
          "indexed": true,
          "internalType": "address",
          "name": "approved",
          "type": "address"
        },
        {
          "indexed": true,
          "internalType": "uint256",
          "name": "tokenId",
          "type": "uint256"
        }
      ],
      "name": "Approval",
      "type": "event"
    },
    {
      "anonymous": false,
      "inputs": [
        {
          "indexed": true,
          "internalType": "address",
          "name": "owner",
          "type": "address"
        },
        {
          "indexed": true,
          "internalType": "address",
          "name": "operator",
          "type": "address"
        },
        {
          "indexed": false,
          "internalType": "bool",
          "name": "approved",
          "type": "bool"
        }
      ],
      "name": "ApprovalForAll",
      "type": "event"
    },
    {
      "anonymous": false,
      "inputs": [
        {
          "indexed": false,
          "internalType": "uint256",
          "name": "_fromTokenId",
          "type": "uint256"
        },
        {
          "indexed": false,
          "internalType": "uint256",
          "name": "_toTokenId",
          "type": "uint256"
        }
      ],
      "name": "BatchMetadataUpdate",
      "type": "event"
    },
    {
      "anonymous": false,
      "inputs": [
        {
          "indexed": false,
          "internalType": "uint256",
          "name": "_tokenId",
          "type": "uint256"
        }
      ],
      "name": "MetadataUpdate",
      "type": "event"
    },
    {
      "anonymous": false,
      "inputs": [
        {
          "indexed": false,
          "internalType": "uint256",
          "name": "nftId",
          "type": "uint256"
        },
        {
          "indexed": false,
          "internalType": "address",
          "name": "buyer",
          "type": "address"
        },
        {
          "indexed": false,
          "internalType": "uint256",
          "name": "price",
          "type": "uint256"
        }
      ],
      "name": "NFTBought",
      "type": "event"
    },
    {
      "anonymous": false,
      "inputs": [
        {
          "indexed": false,
          "internalType": "uint256",
          "name": "nftId",
          "type": "uint256"
        },
        {
          "indexed": false,
          "internalType": "address",
          "name": "owner",
          "type": "address"
        },
        {
          "indexed": false,
          "internalType": "string",
          "name": "nftURI",
          "type": "string"
        }
      ],
      "name": "NFTMinted",
      "type": "event"
    },
    {
      "anonymous": false,
      "inputs": [
        {
          "indexed": false,
          "internalType": "uint256",
          "name": "nftId",
          "type": "uint256"
        },
        {
          "indexed": false,
          "internalType": "address",
          "name": "sender",
          "type": "address"
        },
        {
          "indexed": false,
          "internalType": "address",
          "name": "receiver",
          "type": "address"
        }
      ],
      "name": "NFTTransfer",
      "type": "event"
    },
    {
      "anonymous": false,
      "inputs": [
        {
          "indexed": true,
          "internalType": "address",
          "name": "previousOwner",
          "type": "address"
        },
        {
          "indexed": true,
          "internalType": "address",
          "name": "newOwner",
          "type": "address"
        }
      ],
      "name": "OwnershipTransferred",
      "type": "event"
    },
    {
      "anonymous": false,
      "inputs": [
        {
          "indexed": true,
          "internalType": "address",
          "name": "from",
          "type": "address"
        },
        {
          "indexed": true,
          "internalType": "address",
          "name": "to",
          "type": "address"
        },
        {
          "indexed": true,
          "internalType": "uint256",
          "name": "tokenId",
          "type": "uint256"
        }
      ],
      "name": "Transfer",
      "type": "event"
    },
    {
      "inputs": [
        {
          "internalType": "address",
          "name": "to",
          "type": "address"
        },
        {
          "internalType": "uint256",
          "name": "tokenId",
          "type": "uint256"
        }
      ],
      "name": "approve",
      "outputs": [],
      "stateMutability": "nonpayable",
      "type": "function"
    },
    {
      "inputs": [
        {
          "internalType": "address",
          "name": "owner",
          "type": "address"
        }
      ],
      "name": "balanceOf",
      "outputs": [
        {
          "internalType": "uint256",
          "name": "",
          "type": "uint256"
        }
      ],
      "stateMutability": "view",
      "type": "function"
    },
    {
      "inputs": [
        {
          "internalType": "address",
          "name": "buyer",
          "type": "address"
        }
      ],
      "name": "buyNFT",
      "outputs": [],
      "stateMutability": "payable",
      "type": "function"
    },
    {
      "inputs": [
        {
          "internalType": "uint256",
          "name": "tokenId",
          "type": "uint256"
        }
      ],
      "name": "getApproved",
      "outputs": [
        {
          "internalType": "address",
          "name": "",
          "type": "address"
        }
      ],
      "stateMutability": "view",
      "type": "function"
    },
    {
      "inputs": [],
      "name": "idNFT",
      "outputs": [
        {
          "internalType": "uint256",
          "name": "",
          "type": "uint256"
        }
      ],
      "stateMutability": "view",
      "type": "function"
    },
    {
      "inputs": [
        {
          "internalType": "address",
          "name": "owner",
          "type": "address"
        },
        {
          "internalType": "address",
          "name": "operator",
          "type": "address"
        }
      ],
      "name": "isApprovedForAll",
      "outputs": [
        {
          "internalType": "bool",
          "name": "",
          "type": "bool"
        }
      ],
      "stateMutability": "view",
      "type": "function"
    },
    {
      "inputs": [
        {
          "internalType": "address",
          "name": "_receiver",
          "type": "address"
        },
        {
          "internalType": "uint256",
          "name": "_idNFT",
          "type": "uint256"
        }
      ],
      "name": "mintNFT",
      "outputs": [],
      "stateMutability": "nonpayable",
      "type": "function"
    },
    {
      "inputs": [],
      "name": "name",
      "outputs": [
        {
          "internalType": "string",
          "name": "",
          "type": "string"
        }
      ],
      "stateMutability": "view",
      "type": "function"
    },
    {
      "inputs": [],
      "name": "owner",
      "outputs": [
        {
          "internalType": "address",
          "name": "",
          "type": "address"
        }
      ],
      "stateMutability": "view",
      "type": "function"
    },
    {
      "inputs": [
        {
          "internalType": "uint256",
          "name": "tokenId",
          "type": "uint256"
        }
      ],
      "name": "ownerOf",
      "outputs": [
        {
          "internalType": "address",
          "name": "",
          "type": "address"
        }
      ],
      "stateMutability": "view",
      "type": "function"
    },
    {
      "inputs": [],
      "name": "priceNFT",
      "outputs": [
        {
          "internalType": "uint256",
          "name": "",
          "type": "uint256"
        }
      ],
      "stateMutability": "view",
      "type": "function"
    },
    {
      "inputs": [],
      "name": "renounceOwnership",
      "outputs": [],
      "stateMutability": "nonpayable",
      "type": "function"
    },
    {
      "inputs": [
        {
          "internalType": "address",
          "name": "from",
          "type": "address"
        },
        {
          "internalType": "address",
          "name": "to",
          "type": "address"
        },
        {
          "internalType": "uint256",
          "name": "tokenId",
          "type": "uint256"
        }
      ],
      "name": "safeTransferFrom",
      "outputs": [],
      "stateMutability": "nonpayable",
      "type": "function"
    },
    {
      "inputs": [
        {
          "internalType": "address",
          "name": "from",
          "type": "address"
        },
        {
          "internalType": "address",
          "name": "to",
          "type": "address"
        },
        {
          "internalType": "uint256",
          "name": "tokenId",
          "type": "uint256"
        },
        {
          "internalType": "bytes",
          "name": "data",
          "type": "bytes"
        }
      ],
      "name": "safeTransferFrom",
      "outputs": [],
      "stateMutability": "nonpayable",
      "type": "function"
    },
    {
      "inputs": [
        {
          "internalType": "address",
          "name": "operator",
          "type": "address"
        },
        {
          "internalType": "bool",
          "name": "approved",
          "type": "bool"
        }
      ],
      "name": "setApprovalForAll",
      "outputs": [],
      "stateMutability": "nonpayable",
      "type": "function"
    },
    {
      "inputs": [
        {
          "internalType": "address",
          "name": "provider",
          "type": "address"
        },
        {
          "internalType": "uint256",
          "name": "newPrice",
          "type": "uint256"
        }
      ],
      "name": "setPriceNFT",
      "outputs": [],
      "stateMutability": "nonpayable",
      "type": "function"
    },
    {
      "inputs": [
        {
          "internalType": "bytes4",
          "name": "interfaceId",
          "type": "bytes4"
        }
      ],
      "name": "supportsInterface",
      "outputs": [
        {
          "internalType": "bool",
          "name": "",
          "type": "bool"
        }
      ],
      "stateMutability": "view",
      "type": "function"
    },
    {
      "inputs": [],
      "name": "symbol",
      "outputs": [
        {
          "internalType": "string",
          "name": "",
          "type": "string"
        }
      ],
      "stateMutability": "view",
      "type": "function"
    },
    {
      "inputs": [
        {
          "internalType": "uint256",
          "name": "tokenId",
          "type": "uint256"
        }
      ],
      "name": "tokenURI",
      "outputs": [
        {
          "internalType": "string",
          "name": "",
          "type": "string"
        }
      ],
      "stateMutability": "view",
      "type": "function"
    },
    {
      "inputs": [
        {
          "internalType": "address",
          "name": "from",
          "type": "address"
        },
        {
          "internalType": "address",
          "name": "to",
          "type": "address"
        },
        {
          "internalType": "uint256",
          "name": "tokenId",
          "type": "uint256"
        }
      ],
      "name": "transferFrom",
      "outputs": [],
      "stateMutability": "nonpayable",
      "type": "function"
    },
    {
      "inputs": [
        {
          "internalType": "address",
          "name": "receiver",
          "type": "address"
        }
      ],
      "name": "transferNFT",
      "outputs": [],
      "stateMutability": "nonpayable",
      "type": "function"
    },
    {
      "inputs": [
        {
          "internalType": "address",
          "name": "newOwner",
          "type": "address"
        }
      ],
      "name": "transferOwnership",
      "outputs": [],
      "stateMutability": "nonpayable",
      "type": "function"
    }
  ],
  "bytecode": "0x608060405234801561001057600080fd5b50604051611d3f380380611d3f83398101604081905261002f916101ad565b808585600061003e83826102f8565b50600161004b82826102f8565b5050506001600160a01b03811661007c57604051631e4fbdf760e01b81526000600482015260240160405180910390fd5b610085816100a2565b506008829055600a61009784826102f8565b5050505050506103b6565b600780546001600160a01b038381166001600160a01b0319831681179093556040519116919082907f8be0079c531659141344cd1fd0a4f28419497f9722a3daafe3b4186f6b6457e090600090a35050565b634e487b7160e01b600052604160045260246000fd5b600082601f83011261011b57600080fd5b81516001600160401b03811115610134576101346100f4565b604051601f8201601f19908116603f011681016001600160401b0381118282101715610162576101626100f4565b60405281815283820160200185101561017a57600080fd5b60005b828110156101995760208186018101518383018201520161017d565b506000918101602001919091529392505050565b600080600080600060a086880312156101c557600080fd5b85516001600160401b038111156101db57600080fd5b6101e78882890161010a565b602088015190965090506001600160401b0381111561020557600080fd5b6102118882890161010a565b604088015190955090506001600160401b0381111561022f57600080fd5b61023b8882890161010a565b60608801516080890151919550935090506001600160a01b038116811461026157600080fd5b809150509295509295909350565b600181811c9082168061028357607f821691505b6020821081036102a357634e487b7160e01b600052602260045260246000fd5b50919050565b601f8211156102f357806000526020600020601f840160051c810160208510156102d05750805b601f840160051c820191505b818110156102f057600081556001016102dc565b50505b505050565b81516001600160401b03811115610311576103116100f4565b6103258161031f845461026f565b846102a9565b6020601f82116001811461035957600083156103415750848201515b600019600385901b1c1916600184901b1784556102f0565b600084815260208120601f198516915b828110156103895787850151825560209485019460019092019101610369565b50848210156103a75786840151600019600387901b60f8161c191681555b50505050600190811b01905550565b61197a806103c56000396000f3fe6080604052600436106101355760003560e01c8063715018a6116100ab578063b88d4fde1161006f578063b88d4fde14610357578063ba79b56414610377578063c87b56dd1461038a578063da5c26b9146103aa578063e985e9c5146103c0578063f2fde38b146103e057600080fd5b8063715018a6146102d95780638da5cb5b146102ee57806395d89b411461030c5780639d03e6d014610321578063a22cb4651461033757600080fd5b806336e986ef116100fd57806336e986ef1461020b5780633b506cef1461022b5780633c168eab1461024b57806342842e0e1461026b5780636352211e1461028b57806370a08231146102ab57600080fd5b806301ffc9a71461013a57806306fdde031461016f578063081812fc14610191578063095ea7b3146101c957806323b872dd146101eb575b600080fd5b34801561014657600080fd5b5061015a610155366004611436565b610400565b60405190151581526020015b60405180910390f35b34801561017b57600080fd5b5061018461042b565b60405161016691906114a3565b34801561019d57600080fd5b506101b16101ac3660046114b6565b6104bd565b6040516001600160a01b039091168152602001610166565b3480156101d557600080fd5b506101e96101e43660046114eb565b6104e6565b005b3480156101f757600080fd5b506101e9610206366004611515565b6104f5565b34801561021757600080fd5b506101e9610226366004611552565b610585565b34801561023757600080fd5b506101e96102463660046114eb565b610641565b34801561025757600080fd5b506101e96102663660046114eb565b6106a2565b34801561027757600080fd5b506101e9610286366004611515565b61078d565b34801561029757600080fd5b506101b16102a63660046114b6565b6107ad565b3480156102b757600080fd5b506102cb6102c6366004611552565b6107b8565b604051908152602001610166565b3480156102e557600080fd5b506101e9610800565b3480156102fa57600080fd5b506007546001600160a01b03166101b1565b34801561031857600080fd5b50610184610814565b34801561032d57600080fd5b506102cb60085481565b34801561034357600080fd5b506101e961035236600461156d565b610823565b34801561036357600080fd5b506101e96103723660046115bf565b61082e565b6101e9610385366004611552565b610845565b34801561039657600080fd5b506101846103a53660046114b6565b610991565b3480156103b657600080fd5b506102cb60095481565b3480156103cc57600080fd5b5061015a6103db3660046116a3565b610aa2565b3480156103ec57600080fd5b506101e96103fb366004611552565b610ad0565b60006001600160e01b03198216632483248360e11b1480610425575061042582610b0e565b92915050565b60606000805461043a906116d6565b80601f0160208091040260200160405190810160405280929190818152602001828054610466906116d6565b80156104b35780601f10610488576101008083540402835291602001916104b3565b820191906000526020600020905b81548152906001019060200180831161049657829003601f168201915b5050505050905090565b60006104c882610b5e565b506000828152600460205260409020546001600160a01b0316610425565b6104f1828233610b97565b5050565b6001600160a01b03821661052457604051633250574960e11b8152600060048201526024015b60405180910390fd5b6000610531838333610ba4565b9050836001600160a01b0316816001600160a01b03161461057f576040516364283d7b60e01b81526001600160a01b038086166004830152602482018490528216604482015260640161051b565b50505050565b61058d610c9d565b336001600160a01b03166105a26009546107ad565b6001600160a01b0316146105e85760405162461bcd60e51b815260206004820152600d60248201526c2737ba103a34329037bbb732b960991b604482015260640161051b565b6105f53382600954610cca565b600954604080519182523360208301526001600160a01b03831682820152517f9a6430886c1b529daa4ee891154fa59de6f72582365ec268e3dbf0740647f8b99181900360600190a150565b61064c6009546107ad565b6001600160a01b0316826001600160a01b03161461069c5760405162461bcd60e51b815260206004820152600d60248201526c2737ba103a34329037bbb732b960991b604482015260640161051b565b60085550565b6106aa610c9d565b60098190556106b98282610d7a565b61074d81600a80546106ca906116d6565b80601f01602080910402602001604051908101604052809291908181526020018280546106f6906116d6565b80156107435780601f1061071857610100808354040283529160200191610743565b820191906000526020600020905b81548152906001019060200180831161072657829003601f168201915b5050505050610d94565b7f06becd955c918828f6e985541acbf49cc842c9e9bd569fffc7698e721ef135758183600a60405161078193929190611710565b60405180910390a15050565b6107a88383836040518060200160405280600081525061082e565b505050565b600061042582610b5e565b60006001600160a01b0382166107e4576040516322718ad960e21b81526000600482015260240161051b565b506001600160a01b031660009081526003602052604090205490565b610808610c9d565b6108126000610ddd565b565b60606001805461043a906116d6565b6104f1338383610e2f565b6108398484846104f5565b61057f84848484610ece565b6000600854116108975760405162461bcd60e51b815260206004820152601f60248201527f5072696365206d7573742062652067726561746572207468616e207a65726f00604482015260640161051b565b6008543410156108e25760405162461bcd60e51b8152602060048201526016602482015275125b98dbdc9c9958dd08115d1a195c88185b5bdd5b9d60521b604482015260640161051b565b60006108f66007546001600160a01b031690565b6040519091506001600160a01b038216903480156108fc02916000818181858888f1935050505015801561092e573d6000803e3d6000fd5b5061093c8183600954610cca565b600954600854604080519283526001600160a01b03851660208401528201527f26701af1547d690b8c46ed5f0fbb8d5b115492b3b898f3dfc2e87b26cfcc1b149060600160405180910390a150506000600855565b606061099c82610b5e565b50600082815260066020526040812080546109b6906116d6565b80601f01602080910402602001604051908101604052809291908181526020018280546109e2906116d6565b8015610a2f5780601f10610a0457610100808354040283529160200191610a2f565b820191906000526020600020905b815481529060010190602001808311610a1257829003601f168201915b505050505090506000610a4d60408051602081019091526000815290565b90508051600003610a5f575092915050565b815115610a91578082604051602001610a799291906117b5565b60405160208183030381529060405292505050919050565b610a9a84610ff7565b949350505050565b6001600160a01b03918216600090815260056020908152604080832093909416825291909152205460ff1690565b610ad8610c9d565b6001600160a01b038116610b0257604051631e4fbdf760e01b81526000600482015260240161051b565b610b0b81610ddd565b50565b60006001600160e01b031982166380ac58cd60e01b1480610b3f57506001600160e01b03198216635b5e139f60e01b145b8061042557506301ffc9a760e01b6001600160e01b0319831614610425565b6000818152600260205260408120546001600160a01b03168061042557604051637e27328960e01b81526004810184905260240161051b565b6107a8838383600161106c565b6000828152600260205260408120546001600160a01b0390811690831615610bd157610bd1818486611172565b6001600160a01b03811615610c0f57610bee60008560008061106c565b6001600160a01b038116600090815260036020526040902080546000190190555b6001600160a01b03851615610c3e576001600160a01b0385166000908152600360205260409020805460010190555b60008481526002602052604080822080546001600160a01b0319166001600160a01b0389811691821790925591518793918516917fddf252ad1be2c89b69c2b068fc378daa952ba7f163c4a11628f55a4df523b3ef91a4949350505050565b6007546001600160a01b031633146108125760405163118cdaa760e01b815233600482015260240161051b565b6001600160a01b038216610cf457604051633250574960e11b81526000600482015260240161051b565b6000610d0283836000610ba4565b90506001600160a01b038116610d2e57604051637e27328960e01b81526004810183905260240161051b565b836001600160a01b0316816001600160a01b03161461057f576040516364283d7b60e01b81526001600160a01b038086166004830152602482018490528216604482015260640161051b565b6104f18282604051806020016040528060008152506111d6565b6000828152600660205260409020610dac828261182b565b506040518281527ff8e1a15aba9398e019f0b49df1a4fde98ee17ae345cb5f6b5e2c27f5033e8ce790602001610781565b600780546001600160a01b038381166001600160a01b0319831681179093556040519116919082907f8be0079c531659141344cd1fd0a4f28419497f9722a3daafe3b4186f6b6457e090600090a35050565b6001600160a01b038216610e6157604051630b61174360e31b81526001600160a01b038316600482015260240161051b565b6001600160a01b03838116600081815260056020908152604080832094871680845294825291829020805460ff191686151590811790915591519182527f17307eab39ab6107e8899845ad3d59bd9653f200f220920489ca2b5937696c31910160405180910390a3505050565b6001600160a01b0383163b1561057f57604051630a85bd0160e11b81526001600160a01b0384169063150b7a0290610f109033908890879087906004016118ea565b6020604051808303816000875af1925050508015610f4b575060408051601f3d908101601f19168201909252610f4891810190611927565b60015b610fb4573d808015610f79576040519150601f19603f3d011682016040523d82523d6000602084013e610f7e565b606091505b508051600003610fac57604051633250574960e11b81526001600160a01b038516600482015260240161051b565b805181602001fd5b6001600160e01b03198116630a85bd0160e11b14610ff057604051633250574960e11b81526001600160a01b038516600482015260240161051b565b5050505050565b606061100282610b5e565b50600061101a60408051602081019091526000815290565b9050600081511161103a5760405180602001604052806000815250611065565b80611044846111ed565b6040516020016110559291906117b5565b6040516020818303038152906040525b9392505050565b808061108057506001600160a01b03821615155b1561114257600061109084610b5e565b90506001600160a01b038316158015906110bc5750826001600160a01b0316816001600160a01b031614155b80156110cf57506110cd8184610aa2565b155b156110f85760405163a9fbf51f60e01b81526001600160a01b038416600482015260240161051b565b81156111405783856001600160a01b0316826001600160a01b03167f8c5be1e5ebec7d5bd14f71427d1e84f3dd0314c0f7b2291e5b200ac8c7c3b92560405160405180910390a45b505b5050600090815260046020526040902080546001600160a01b0319166001600160a01b0392909216919091179055565b61117d838383611280565b6107a8576001600160a01b0383166111ab57604051637e27328960e01b81526004810182905260240161051b565b60405163177e802f60e01b81526001600160a01b03831660048201526024810182905260440161051b565b6111e083836112e3565b6107a86000848484610ece565b606060006111fa83611348565b600101905060008167ffffffffffffffff81111561121a5761121a6115a9565b6040519080825280601f01601f191660200182016040528015611244576020820181803683370190505b5090508181016020015b600019016f181899199a1a9b1b9c1cb0b131b232b360811b600a86061a8153600a850494508461124e57509392505050565b60006001600160a01b03831615801590610a9a5750826001600160a01b0316846001600160a01b031614806112ba57506112ba8484610aa2565b80610a9a5750506000908152600460205260409020546001600160a01b03908116911614919050565b6001600160a01b03821661130d57604051633250574960e11b81526000600482015260240161051b565b600061131b83836000610ba4565b90506001600160a01b038116156107a8576040516339e3563760e11b81526000600482015260240161051b565b60008072184f03e93ff9f4daa797ed6e38ed64bf6a1f0160401b83106113875772184f03e93ff9f4daa797ed6e38ed64bf6a1f0160401b830492506040015b6d04ee2d6d415b85acef810000000083106113b3576d04ee2d6d415b85acef8100000000830492506020015b662386f26fc1000083106113d157662386f26fc10000830492506010015b6305f5e10083106113e9576305f5e100830492506008015b61271083106113fd57612710830492506004015b6064831061140f576064830492506002015b600a83106104255760010192915050565b6001600160e01b031981168114610b0b57600080fd5b60006020828403121561144857600080fd5b813561106581611420565b60005b8381101561146e578181015183820152602001611456565b50506000910152565b6000815180845261148f816020860160208601611453565b601f01601f19169290920160200192915050565b6020815260006110656020830184611477565b6000602082840312156114c857600080fd5b5035919050565b80356001600160a01b03811681146114e657600080fd5b919050565b600080604083850312156114fe57600080fd5b611507836114cf565b946020939093013593505050565b60008060006060848603121561152a57600080fd5b611533846114cf565b9250611541602085016114cf565b929592945050506040919091013590565b60006020828403121561156457600080fd5b611065826114cf565b6000806040838503121561158057600080fd5b611589836114cf565b91506020830135801515811461159e57600080fd5b809150509250929050565b634e487b7160e01b600052604160045260246000fd5b600080600080608085870312156115d557600080fd5b6115de856114cf565b93506115ec602086016114cf565b925060408501359150606085013567ffffffffffffffff81111561160f57600080fd5b8501601f8101871361162057600080fd5b803567ffffffffffffffff81111561163a5761163a6115a9565b604051601f8201601f19908116603f0116810167ffffffffffffffff81118282101715611669576116696115a9565b60405281815282820160200189101561168157600080fd5b8160208401602083013760006020838301015280935050505092959194509250565b600080604083850312156116b657600080fd5b6116bf836114cf565b91506116cd602084016114cf565b90509250929050565b600181811c908216806116ea57607f821691505b60208210810361170a57634e487b7160e01b600052602260045260246000fd5b50919050565b8381526001600160a01b03831660208201526060604082015281546000908190611739816116d6565b80606086015260018216600081146117585760018114611774576117a8565b60ff1983166080870152608082151560051b87010193506117a8565b86600052602060002060005b8381101561179f57815488820160800152600190910190602001611780565b87016080019450505b5091979650505050505050565b600083516117c7818460208801611453565b8351908301906117db818360208801611453565b01949350505050565b601f8211156107a857806000526020600020601f840160051c8101602085101561180b5750805b601f840160051c820191505b81811015610ff05760008155600101611817565b815167ffffffffffffffff811115611845576118456115a9565b6118598161185384546116d6565b846117e4565b6020601f82116001811461188d57600083156118755750848201515b600019600385901b1c1916600184901b178455610ff0565b600084815260208120601f198516915b828110156118bd578785015182556020948501946001909201910161189d565b50848210156118db5786840151600019600387901b60f8161c191681555b50505050600190811b01905550565b6001600160a01b038581168252841660208201526040810183905260806060820181905260009061191d90830184611477565b9695505050505050565b60006020828403121561193957600080fd5b81516110658161142056fea26469706673582212207e879ba3452bbe860d6ea7b186ec72df641b1b3cbefd0431d322214a6564c37264736f6c634300081b0033",
  "linkReferences": {},
  "deployedLinkReferences": {}
}