{
  "_format": "hh-sol-artifact-1",
  "contractName": "NFTMarket",
  "sourceName": "contracts/NFTMarket.sol",
  "abi": [
    {
      "inputs": [],
      "stateMutability": "nonpayable",
      "type": "constructor"
    },
    {
      "inputs": [
        {
          "internalType": "address",
          "name": "owner",
          "type": "address"
        }
      ],
      "name": "OwnableInvalidOwner",
      "type": "error"
    },
    {
      "inputs": [
        {
          "internalType": "address",
          "name": "account",
          "type": "address"
        }
      ],
      "name": "OwnableUnauthorizedAccount",
      "type": "error"
    },
    {
      "anonymous": false,
      "inputs": [
        {
          "indexed": false,
          "internalType": "address",
          "name": "collectionAddress",
          "type": "address"
        },
        {
          "indexed": false,
          "internalType": "string",
          "name": "name",
          "type": "string"
        },
        {
          "indexed": false,
          "internalType": "string",
          "name": "symbol",
          "type": "string"
        }
      ],
      "name": "CollectionAdd",
      "type": "event"
    },
    {
      "anonymous": false,
      "inputs": [
        {
          "indexed": false,
          "internalType": "address",
          "name": "collectionAddress",
          "type": "address"
        },
        {
          "indexed": false,
          "internalType": "address",
          "name": "owner",
          "type": "address"
        },
        {
          "indexed": false,
          "internalType": "string",
          "name": "name",
          "type": "string"
        },
        {
          "indexed": false,
          "internalType": "string",
          "name": "symbol",
          "type": "string"
        }
      ],
      "name": "CollectionCreated",
      "type": "event"
    },
    {
      "anonymous": false,
      "inputs": [
        {
          "indexed": false,
          "internalType": "address",
          "name": "collectionAddress",
          "type": "address"
        },
        {
          "indexed": false,
          "internalType": "string",
          "name": "name",
          "type": "string"
        },
        {
          "indexed": false,
          "internalType": "string",
          "name": "symbol",
          "type": "string"
        }
      ],
      "name": "CollectionRemove",
      "type": "event"
    },
    {
      "anonymous": false,
      "inputs": [
        {
          "indexed": true,
          "internalType": "address",
          "name": "previousOwner",
          "type": "address"
        },
        {
          "indexed": true,
          "internalType": "address",
          "name": "newOwner",
          "type": "address"
        }
      ],
      "name": "OwnershipTransferred",
      "type": "event"
    },
    {
      "inputs": [
        {
          "internalType": "address",
          "name": "_collectionAddress",
          "type": "address"
        }
      ],
      "name": "addCollection",
      "outputs": [],
      "stateMutability": "payable",
      "type": "function"
    },
    {
      "inputs": [
        {
          "internalType": "uint256",
          "name": "",
          "type": "uint256"
        }
      ],
      "name": "collections",
      "outputs": [
        {
          "internalType": "address",
          "name": "collectionAddress",
          "type": "address"
        },
        {
          "internalType": "string",
          "name": "name",
          "type": "string"
        },
        {
          "internalType": "string",
          "name": "symbol",
          "type": "string"
        }
      ],
      "stateMutability": "view",
      "type": "function"
    },
    {
      "inputs": [],
      "name": "counter",
      "outputs": [
        {
          "internalType": "uint256",
          "name": "",
          "type": "uint256"
        }
      ],
      "stateMutability": "view",
      "type": "function"
    },
    {
      "inputs": [
        {
          "internalType": "string",
          "name": "_name",
          "type": "string"
        },
        {
          "internalType": "string",
          "name": "_symbol",
          "type": "string"
        }
      ],
      "name": "createCollection",
      "outputs": [],
      "stateMutability": "payable",
      "type": "function"
    },
    {
      "inputs": [],
      "name": "getAllCollection",
      "outputs": [
        {
          "components": [
            {
              "internalType": "address",
              "name": "collectionAddress",
              "type": "address"
            },
            {
              "internalType": "string",
              "name": "name",
              "type": "string"
            },
            {
              "internalType": "string",
              "name": "symbol",
              "type": "string"
            }
          ],
          "internalType": "struct NFTMarket.CollectionInfo[]",
          "name": "",
          "type": "tuple[]"
        }
      ],
      "stateMutability": "view",
      "type": "function"
    },
    {
      "inputs": [],
      "name": "owner",
      "outputs": [
        {
          "internalType": "address",
          "name": "",
          "type": "address"
        }
      ],
      "stateMutability": "view",
      "type": "function"
    },
    {
      "inputs": [
        {
          "internalType": "uint256",
          "name": "_collectionId",
          "type": "uint256"
        }
      ],
      "name": "removeCollection",
      "outputs": [],
      "stateMutability": "nonpayable",
      "type": "function"
    },
    {
      "inputs": [],
      "name": "renounceOwnership",
      "outputs": [],
      "stateMutability": "nonpayable",
      "type": "function"
    },
    {
      "inputs": [
        {
          "internalType": "address",
          "name": "newOwner",
          "type": "address"
        }
      ],
      "name": "transferOwnership",
      "outputs": [],
      "stateMutability": "nonpayable",
      "type": "function"
    }
  ],
  "bytecode": "0x6080604052348015600f57600080fd5b503380603557604051631e4fbdf760e01b81526000600482015260240160405180910390fd5b603c816046565b5060006001556096565b600080546001600160a01b038381166001600160a01b0319831681178455604051919092169283917f8be0079c531659141344cd1fd0a4f28419497f9722a3daafe3b4186f6b6457e09190a35050565b613b0e806100a56000396000f3fe6080604052600436106100865760003560e01c8063a174e77a11610059578063a174e77a14610106578063dadd458914610119578063eec3104214610139578063f2fde38b1461015b578063fdbda0ec1461017b57600080fd5b8063176b9b751461008b57806361bc221a146100a0578063715018a6146100c95780638da5cb5b146100de575b600080fd5b61009e610099366004610d24565b6101aa565b005b3480156100ac57600080fd5b506100b660015481565b6040519081526020015b60405180910390f35b3480156100d557600080fd5b5061009e6102cb565b3480156100ea57600080fd5b506000546040516001600160a01b0390911681526020016100c0565b61009e610114366004610d8d565b6102df565b34801561012557600080fd5b5061009e610134366004610dbd565b6105ed565b34801561014557600080fd5b5061014e610852565b6040516100c09190610e26565b34801561016757600080fd5b5061009e610176366004610d8d565b610a5a565b34801561018757600080fd5b5061019b610196366004610dbd565b610a98565b6040516100c093929190610ec7565b6101b2610bd5565b60008282336040516101c390610c52565b6101cf93929190610f07565b604051809103906000f0801580156101eb573d6000803e3d6000fd5b50604080516060810182526001600160a01b0383168152602081018690529081018490526001805492935090916000918261022583610f5b565b909155506000818152600260209081526040909120845181546001600160a01b0319166001600160a01b03909116178155908401519192508391600182019061026e9082610ff7565b50604082015160028201906102839082610ff7565b509050507f5fead977881b23a0dbf2f905699203f29cefea57a576d2d4f412523191258e84833387876040516102bc94939291906110b9565b60405180910390a15050505050565b6102d3610bd5565b6102dd6000610c02565b565b670de0b6b3a764000034101561034a5760405162461bcd60e51b815260206004820152602560248201527f4e6f7420656e6f756768206665652061646420746f206d61726b657420697320604482015264062408aa8960db1b60648201526084015b60405180910390fd5b60405133903480156108fc02916000818181858888f19350505050158015610376573d6000803e3d6000fd5b50600081905060006040518060600160405280836001600160a01b03168152602001836001600160a01b03166306fdde036040518163ffffffff1660e01b8152600401600060405180830381865afa1580156103d6573d6000803e3d6000fd5b505050506040513d6000823e601f3d908101601f191682016040526103fe9190810190611102565b8152602001836001600160a01b03166395d89b416040518163ffffffff1660e01b8152600401600060405180830381865afa158015610441573d6000803e3d6000fd5b505050506040513d6000823e601f3d908101601f191682016040526104699190810190611102565b905260018054919250600091908261048083610f5b565b909155506000818152600260209081526040909120845181546001600160a01b0319166001600160a01b0390911617815590840151919250839160018201906104c99082610ff7565b50604082015160028201906104de9082610ff7565b509050507fce4d54333023f80fd9cde193007743ddfa7e56fbbb4e28e0429c5a698852cd3e83846001600160a01b03166306fdde036040518163ffffffff1660e01b8152600401600060405180830381865afa158015610542573d6000803e3d6000fd5b505050506040513d6000823e601f3d908101601f1916820160405261056a9190810190611102565b856001600160a01b03166395d89b416040518163ffffffff1660e01b8152600401600060405180830381865afa1580156105a8573d6000803e3d6000fd5b505050506040513d6000823e601f3d908101601f191682016040526105d09190810190611102565b6040516105df93929190610ec7565b60405180910390a150505050565b6105f5610bd5565b60006001541161063f5760405162461bcd60e51b81526020600482015260156024820152742737ba103430b99030b71031b7b63632b1ba34b7b760591b6044820152606401610341565b600060016000815461065090611179565b9182905550600083815260026020908152604080832081516060810190925280546001600160a01b0316825260018101805495965093949193909284019161069790610f74565b80601f01602080910402602001604051908101604052809291908181526020018280546106c390610f74565b80156107105780601f106106e557610100808354040283529160200191610710565b820191906000526020600020905b8154815290600101906020018083116106f357829003601f168201915b5050505050815260200160028201805461072990610f74565b80601f016020809104026020016040519081016040528092919081815260200182805461075590610f74565b80156107a25780601f10610777576101008083540402835291602001916107a2565b820191906000526020600020905b81548152906001019060200180831161078557829003601f168201915b505050919092525050506000838152600260205260408082208683529120815481546001600160a01b0319166001600160a01b03909116178155919250906001808201906107f290840182611190565b5060028181019061080590840182611190565b50508151602083015160408085015190517ff3ccda7c7ddd8c27fccbc53334db64343d50101395b8464e723fd4bbe30e1272945061084593929190610ec7565b60405180910390a1505050565b6060600060015467ffffffffffffffff81111561087157610871610c5f565b6040519080825280602002602001820160405280156108cf57816020015b6108bc604051806060016040528060006001600160a01b0316815260200160608152602001606081525090565b81526020019060019003908161088f5790505b50905060005b600154811015610a545760008181526002602090815260409182902082516060810190935280546001600160a01b03168352600181018054919284019161091b90610f74565b80601f016020809104026020016040519081016040528092919081815260200182805461094790610f74565b80156109945780601f1061096957610100808354040283529160200191610994565b820191906000526020600020905b81548152906001019060200180831161097757829003601f168201915b505050505081526020016002820180546109ad90610f74565b80601f01602080910402602001604051908101604052809291908181526020018280546109d990610f74565b8015610a265780601f106109fb57610100808354040283529160200191610a26565b820191906000526020600020905b815481529060010190602001808311610a0957829003601f168201915b505050505081525050828281518110610a4157610a41611265565b60209081029190910101526001016108d5565b50919050565b610a62610bd5565b6001600160a01b038116610a8c57604051631e4fbdf760e01b815260006004820152602401610341565b610a9581610c02565b50565b600260205260009081526040902080546001820180546001600160a01b039092169291610ac490610f74565b80601f0160208091040260200160405190810160405280929190818152602001828054610af090610f74565b8015610b3d5780601f10610b1257610100808354040283529160200191610b3d565b820191906000526020600020905b815481529060010190602001808311610b2057829003601f168201915b505050505090806002018054610b5290610f74565b80601f0160208091040260200160405190810160405280929190818152602001828054610b7e90610f74565b8015610bcb5780601f10610ba057610100808354040283529160200191610bcb565b820191906000526020600020905b815481529060010190602001808311610bae57829003601f168201915b5050505050905083565b6000546001600160a01b031633146102dd5760405163118cdaa760e01b8152336004820152602401610341565b600080546001600160a01b038381166001600160a01b0319831681178455604051919092169283917f8be0079c531659141344cd1fd0a4f28419497f9722a3daafe3b4186f6b6457e09190a35050565b61285d8061127c83390190565b634e487b7160e01b600052604160045260246000fd5b604051601f8201601f1916810167ffffffffffffffff81118282101715610c9e57610c9e610c5f565b604052919050565b600067ffffffffffffffff821115610cc057610cc0610c5f565b50601f01601f191660200190565b600082601f830112610cdf57600080fd5b8135610cf2610ced82610ca6565b610c75565b818152846020838601011115610d0757600080fd5b816020850160208301376000918101602001919091529392505050565b60008060408385031215610d3757600080fd5b823567ffffffffffffffff811115610d4e57600080fd5b610d5a85828601610cce565b925050602083013567ffffffffffffffff811115610d7757600080fd5b610d8385828601610cce565b9150509250929050565b600060208284031215610d9f57600080fd5b81356001600160a01b0381168114610db657600080fd5b9392505050565b600060208284031215610dcf57600080fd5b5035919050565b60005b83811015610df1578181015183820152602001610dd9565b50506000910152565b60008151808452610e12816020860160208601610dd6565b601f01601f19169290920160200192915050565b6000602082016020835280845180835260408501915060408160051b86010192506020860160005b82811015610ebb57868503603f19018452815180516001600160a01b03168652602080820151606091880182905290610e8990880182610dfa565b9050604082015191508681036040880152610ea48183610dfa565b965050506020938401939190910190600101610e4e565b50929695505050505050565b6001600160a01b0384168152606060208201819052600090610eeb90830185610dfa565b8281036040840152610efd8185610dfa565b9695505050505050565b606081526000610f1a6060830186610dfa565b8281036020840152610f2c8186610dfa565b91505060018060a01b0383166040830152949350505050565b634e487b7160e01b600052601160045260246000fd5b600060018201610f6d57610f6d610f45565b5060010190565b600181811c90821680610f8857607f821691505b602082108103610a5457634e487b7160e01b600052602260045260246000fd5b601f821115610ff257806000526020600020601f840160051c81016020851015610fcf5750805b601f840160051c820191505b81811015610fef5760008155600101610fdb565b50505b505050565b815167ffffffffffffffff81111561101157611011610c5f565b6110258161101f8454610f74565b84610fa8565b6020601f82116001811461105c57600083156110415750848201515b600184901b600019600386901b1c198216175b855550610fef565b600084815260208120601f198516915b8281101561108c578785015182556020948501946001909201910161106c565b50848210156110aa5786840151600019600387901b60f8161c191681555b50505050600190811b01905550565b6001600160a01b038581168252841660208201526080604082018190526000906110e590830185610dfa565b82810360608401526110f78185610dfa565b979650505050505050565b60006020828403121561111457600080fd5b815167ffffffffffffffff81111561112b57600080fd5b8201601f8101841361113c57600080fd5b805161114a610ced82610ca6565b81815285602083850101111561115f57600080fd5b611170826020830160208601610dd6565b95945050505050565b60008161118857611188610f45565b506000190190565b81810361119b575050565b6111a58254610f74565b67ffffffffffffffff8111156111bd576111bd610c5f565b6111cb8161101f8454610f74565b6000601f8211600181146111fd5760008315611041575081850154600184901b600019600386901b1c19821617611054565b600085815260209020601f19841690600086815260209020845b838110156112375782860154825560019586019590910190602001611217565b50858310156112555781850154600019600388901b60f8161c191681555b5050505050600190811b01905550565b634e487b7160e01b600052603260045260246000fdfe608060405234801561001057600080fd5b5060405161285d38038061285d83398101604081905261002f916101be565b808383600061003e83826102d2565b50600161004b82826102d2565b5050506001600160a01b03811661007c57604051631e4fbdf760e01b81526000600482015260240160405180910390fd5b610085816100b3565b506000600855600980546001600160a01b0319166001600160a01b0392909216919091179055506103909050565b600780546001600160a01b038381166001600160a01b0319831681179093556040519116919082907f8be0079c531659141344cd1fd0a4f28419497f9722a3daafe3b4186f6b6457e090600090a35050565b634e487b7160e01b600052604160045260246000fd5b600082601f83011261012c57600080fd5b81516001600160401b0381111561014557610145610105565b604051601f8201601f19908116603f011681016001600160401b038111828210171561017357610173610105565b60405281815283820160200185101561018b57600080fd5b60005b828110156101aa5760208186018101518383018201520161018e565b506000918101602001919091529392505050565b6000806000606084860312156101d357600080fd5b83516001600160401b038111156101e957600080fd5b6101f58682870161011b565b602086015190945090506001600160401b0381111561021357600080fd5b61021f8682870161011b565b604086015190935090506001600160a01b038116811461023e57600080fd5b809150509250925092565b600181811c9082168061025d57607f821691505b60208210810361027d57634e487b7160e01b600052602260045260246000fd5b50919050565b601f8211156102cd57806000526020600020601f840160051c810160208510156102aa5750805b601f840160051c820191505b818110156102ca57600081556001016102b6565b50505b505050565b81516001600160401b038111156102eb576102eb610105565b6102ff816102f98454610249565b84610283565b6020601f821160018114610333576000831561031b5750848201515b600019600385901b1c1916600184901b1784556102ca565b600084815260208120601f198516915b828110156103635787850151825560209485019460019092019101610343565b50848210156103815786840151600019600387901b60f8161c191681555b50505050600190811b01905550565b6124be8061039f6000396000f3fe60806040526004361061019c5760003560e01c806370a08231116100ec578063a56140331161008a578063c87b56dd11610064578063c87b56dd14610497578063e985e9c5146104b7578063f2fde38b146104d7578063fa010223146104f757600080fd5b8063a561403314610442578063b88d4fde14610462578063c097649e1461048257600080fd5b806394383f14116100c657806394383f14146103cd57806394ab67fe146103ed57806395d89b411461040d578063a22cb4651461042257600080fd5b806370a082311461037a578063715018a61461039a5780638da5cb5b146103af57600080fd5b80631faea1461161015957806342842e0e1161013357806342842e0e1461030357806351ed82881461032357806361bc221a146103365780636352211e1461035a57600080fd5b80631faea146146102a157806323b872dd146102c3578063265aa621146102e357600080fd5b806301f3484c146101a157806301ffc9a7146101c357806304c31251146101f857806306fdde0314610227578063081812fc14610249578063095ea7b314610281575b600080fd5b3480156101ad57600080fd5b506101c16101bc366004611d33565b610517565b005b3480156101cf57600080fd5b506101e36101de366004611d62565b61068f565b60405190151581526020015b60405180910390f35b34801561020457600080fd5b50610218610213366004611d33565b6106ba565b6040516101ef93929190611dcf565b34801561023357600080fd5b5061023c61077c565b6040516101ef9190611df7565b34801561025557600080fd5b50610269610264366004611d33565b61080e565b6040516001600160a01b0390911681526020016101ef565b34801561028d57600080fd5b506101c161029c366004611e26565b610837565b3480156102ad57600080fd5b506102b6610846565b6040516101ef9190611e50565b3480156102cf57600080fd5b506101c16102de366004611ed6565b61094b565b3480156102ef57600080fd5b506102186102fe366004611d33565b6109d6565b34801561030f57600080fd5b506101c161031e366004611ed6565b6109fe565b6101c1610331366004611d33565b610a1e565b34801561034257600080fd5b5061034c60085481565b6040519081526020016101ef565b34801561036657600080fd5b50610269610375366004611d33565b610d4e565b34801561038657600080fd5b5061034c610395366004611f13565b610d59565b3480156103a657600080fd5b506101c1610da1565b3480156103bb57600080fd5b506007546001600160a01b0316610269565b3480156103d957600080fd5b506101c16103e8366004611f2e565b610db5565b3480156103f957600080fd5b506101c1610408366004611e26565b610ed9565b34801561041957600080fd5b5061023c610fb6565b34801561042e57600080fd5b506101c161043d366004611f50565b610fc5565b34801561044e57600080fd5b506101c161045d36600461201c565b610fd0565b34801561046e57600080fd5b506101c161047d36600461207e565b611091565b34801561048e57600080fd5b506102b66110a8565b3480156104a357600080fd5b5061023c6104b2366004611d33565b61121b565b3480156104c357600080fd5b506101e36104d23660046120fa565b61132c565b3480156104e357600080fd5b506101c16104f2366004611f13565b61135a565b34801561050357600080fd5b50600954610269906001600160a01b031681565b3361052182611398565b6001600160a01b0316146105505760405162461bcd60e51b81526004016105479061212d565b60405180910390fd5b60005b600a548110156106525781600a828154811061057157610571612158565b9060005260206000209060030201600001540361064a57600a805461059890600190612184565b815481106105a8576105a8612158565b9060005260206000209060030201600a82815481106105c9576105c9612158565b90600052602060002090600302016000820154816000015560018201548160010155600282018160020190816105ff9190612212565b50905050600a805480610614576106146122f2565b60008281526020812060036000199093019283020181815560018101829055906106416002830182611ce5565b50509055610652565b600101610553565b5060408051338152602081018390527f84f3cf51dfe6e1660feefcadf6502122f4a131a65cf722abfb1a84da7744a873910160405180910390a150565b60006001600160e01b03198216632483248360e11b14806106b457506106b4826113b3565b92915050565b600a81815481106106ca57600080fd5b90600052602060002090600302016000915090508060000154908060010154908060020180546106f990612197565b80601f016020809104026020016040519081016040528092919081815260200182805461072590612197565b80156107725780601f1061074757610100808354040283529160200191610772565b820191906000526020600020905b81548152906001019060200180831161075557829003601f168201915b5050505050905083565b60606000805461078b90612197565b80601f01602080910402602001604051908101604052809291908181526020018280546107b790612197565b80156108045780601f106107d957610100808354040283529160200191610804565b820191906000526020600020905b8154815290600101906020018083116107e757829003601f168201915b5050505050905090565b600061081982611403565b506000828152600460205260409020546001600160a01b03166106b4565b61084282823361143b565b5050565b6060600a805480602002602001604051908101604052809291908181526020016000905b82821015610942578382906000526020600020906003020160405180606001604052908160008201548152602001600182015481526020016002820180546108b190612197565b80601f01602080910402602001604051908101604052809291908181526020018280546108dd90612197565b801561092a5780601f106108ff5761010080835404028352916020019161092a565b820191906000526020600020905b81548152906001019060200180831161090d57829003601f168201915b5050505050815250508152602001906001019061086a565b50505050905090565b6001600160a01b03821661097557604051633250574960e11b815260006004820152602401610547565b6000610982838333611448565b9050836001600160a01b0316816001600160a01b0316146109d0576040516364283d7b60e01b81526001600160a01b0380861660048301526024820184905282166044820152606401610547565b50505050565b600b60205260009081526040902080546001820154600283018054929391926106f990612197565b610a1983838360405180602001604052806000815250611091565b505050565b60003411610a6e5760405162461bcd60e51b815260206004820181905260248201527f416d6f756e74206d7573742062652067726561746572207468616e207a65726f6044820152606401610547565b6000818152600b602052604090206001810154610abe5760405162461bcd60e51b815260206004820152600e60248201526d139195081b9bdd081b1a5cdd195960921b6044820152606401610547565b8060010154341015610b065760405162461bcd60e51b8152602060048201526011602482015270082dadeeadce840dcdee840cadcdeeaced607b1b6044820152606401610547565b80543390610b1390611398565b6001600160a01b031603610b595760405162461bcd60e51b815260206004820152600d60248201526c2cb7ba9030b9329037bbb732b960991b6044820152606401610547565b610b72610b698260000154611398565b8254309061153c565b610bba5760405162461bcd60e51b8152602060048201526019602482015278151a19481d1bdad95b881a5cc81b9bdd08185c1c1c9bdd9959603a1b6044820152606401610547565b60405133903480156108fc02916000818181858888f19350505050158015610be6573d6000803e3d6000fd5b50610c00610bf78260000154610d4e565b8254339061159f565b60005b600a54811015610d025782600a8281548110610c2157610c21612158565b90600052602060002090600302016000015403610cfa57600a8054610c4890600190612184565b81548110610c5857610c58612158565b9060005260206000209060030201600a8281548110610c7957610c79612158565b9060005260206000209060030201600082015481600001556001820154816001015560028201816002019081610caf9190612212565b50905050600a805480610cc457610cc46122f2565b6000828152602081206003600019909301928302018181556001810182905590610cf16002830182611ce5565b50509055610d02565b600101610c03565b50805460018201546040805133815260208101939093528201527f38bb180d23818aef357ad4b3806bac3fa13c3492c0ac9d1727381fb2422aaada906060015b60405180910390a15050565b60006106b482611403565b60006001600160a01b038216610d85576040516322718ad960e21b815260006004820152602401610547565b506001600160a01b031660009081526003602052604090205490565b610da96115ba565b610db360006115e7565b565b33610dbf83611398565b6001600160a01b031614610de55760405162461bcd60e51b81526004016105479061212d565b610def3083610837565b6000828152600b602052604081206001808201848155600a80549283018155909352815460039091027fc65a7bb8d6351c1cf70c95a316cc6a92839c986682d98bc35f958f4883f9d2a8810191825592547fc65a7bb8d6351c1cf70c95a316cc6a92839c986682d98bc35f958f4883f9d2a984015590918291907fc65a7bb8d6351c1cf70c95a316cc6a92839c986682d98bc35f958f4883f9d2aa01610e986002840182612212565b505060408051858152602081018590527fa6cd73580a273eec6c1026108f6b63479fbaef5356dde4ff43e4b38dd187485f92500160405180910390a1505050565b33610ee382611398565b6001600160a01b031614610f095760405162461bcd60e51b81526004016105479061212d565b610f1c610f1582611398565b308361153c565b610f645760405162461bcd60e51b8152602060048201526019602482015278151a19481d1bdad95b881a5cc81b9bdd08185c1c1c9bdd9959603a1b6044820152606401610547565b610f77610f7082611398565b838361159f565b604080516001600160a01b0384168152602081018390527f4beb284ded570f9274d681f37b987c82fe53628d20969d02cd65f72453d3f79c9101610d42565b60606001805461078b90612197565b610842338383611639565b610fd86115ba565b6000600860008154610fe990612308565b91829055509050610ffa83826116d8565b61100481836116f2565b6040805160608101825282815260006020808301828152838501878152868452600b9092529390912082518155925160018401555190918291600282019061104c9082612321565b509050507f403f45e064e1472b925888509d0e5164b4642f3064c519d162e3b9261c204adc848385604051611083939291906123d8565b60405180910390a150505050565b61109c84848461094b565b6109d08484848461173b565b6060600060085467ffffffffffffffff8111156110c7576110c7611f8c565b60405190808252806020026020018201604052801561111c57816020015b61110960405180606001604052806000815260200160008152602001606081525090565b8152602001906001900390816110e55790505b50905060005b60085481101561121557600b6000828152602001908152602001600020604051806060016040529081600082015481526020016001820154815260200160028201805461116e90612197565b80601f016020809104026020016040519081016040528092919081815260200182805461119a90612197565b80156111e75780601f106111bc576101008083540402835291602001916111e7565b820191906000526020600020905b8154815290600101906020018083116111ca57829003601f168201915b50505050508152505082828151811061120257611202612158565b6020908102919091010152600101611122565b50919050565b606061122682611403565b506000828152600660205260408120805461124090612197565b80601f016020809104026020016040519081016040528092919081815260200182805461126c90612197565b80156112b95780601f1061128e576101008083540402835291602001916112b9565b820191906000526020600020905b81548152906001019060200180831161129c57829003601f168201915b5050505050905060006112d760408051602081019091526000815290565b905080516000036112e9575092915050565b81511561131b5780826040516020016113039291906123ff565b60405160208183030381529060405292505050919050565b61132484611864565b949350505050565b6001600160a01b03918216600090815260056020908152604080832093909416825291909152205460ff1690565b6113626115ba565b6001600160a01b03811661138c57604051631e4fbdf760e01b815260006004820152602401610547565b611395816115e7565b50565b6000908152600260205260409020546001600160a01b031690565b60006001600160e01b031982166380ac58cd60e01b14806113e457506001600160e01b03198216635b5e139f60e01b145b806106b457506301ffc9a760e01b6001600160e01b03198316146106b4565b60008061140f83611398565b90506001600160a01b0381166106b457604051637e27328960e01b815260048101849052602401610547565b610a1983838360016118d9565b60008061145484611398565b90506001600160a01b03831615611470576114708184866119df565b6001600160a01b038116156114ae5761148d6000856000806118d9565b6001600160a01b038116600090815260036020526040902080546000190190555b6001600160a01b038516156114dd576001600160a01b0385166000908152600360205260409020805460010190555b60008481526002602052604080822080546001600160a01b0319166001600160a01b0389811691821790925591518793918516917fddf252ad1be2c89b69c2b068fc378daa952ba7f163c4a11628f55a4df523b3ef91a4949350505050565b60006001600160a01b038316158015906113245750826001600160a01b0316846001600160a01b031614806115765750611576848461132c565b806113245750506000908152600460205260409020546001600160a01b03908116911614919050565b610a1983838360405180602001604052806000815250611a43565b6007546001600160a01b03163314610db35760405163118cdaa760e01b8152336004820152602401610547565b600780546001600160a01b038381166001600160a01b0319831681179093556040519116919082907f8be0079c531659141344cd1fd0a4f28419497f9722a3daafe3b4186f6b6457e090600090a35050565b6001600160a01b03821661166b57604051630b61174360e31b81526001600160a01b0383166004820152602401610547565b6001600160a01b03838116600081815260056020908152604080832094871680845294825291829020805460ff191686151590811790915591519182527f17307eab39ab6107e8899845ad3d59bd9653f200f220920489ca2b5937696c31910160405180910390a3505050565b610842828260405180602001604052806000815250611a4e565b600082815260066020526040902061170a8282612321565b506040518281527ff8e1a15aba9398e019f0b49df1a4fde98ee17ae345cb5f6b5e2c27f5033e8ce790602001610d42565b6001600160a01b0383163b156109d057604051630a85bd0160e11b81526001600160a01b0384169063150b7a029061177d90339088908790879060040161242e565b6020604051808303816000875af19250505080156117b8575060408051601f3d908101601f191682019092526117b59181019061246b565b60015b611821573d8080156117e6576040519150601f19603f3d011682016040523d82523d6000602084013e6117eb565b606091505b50805160000361181957604051633250574960e11b81526001600160a01b0385166004820152602401610547565b805181602001fd5b6001600160e01b03198116630a85bd0160e11b1461185d57604051633250574960e11b81526001600160a01b0385166004820152602401610547565b5050505050565b606061186f82611403565b50600061188760408051602081019091526000815290565b905060008151116118a757604051806020016040528060008152506118d2565b806118b184611a65565b6040516020016118c29291906123ff565b6040516020818303038152906040525b9392505050565b80806118ed57506001600160a01b03821615155b156119af5760006118fd84611403565b90506001600160a01b038316158015906119295750826001600160a01b0316816001600160a01b031614155b801561193c575061193a818461132c565b155b156119655760405163a9fbf51f60e01b81526001600160a01b0384166004820152602401610547565b81156119ad5783856001600160a01b0316826001600160a01b03167f8c5be1e5ebec7d5bd14f71427d1e84f3dd0314c0f7b2291e5b200ac8c7c3b92560405160405180910390a45b505b5050600090815260046020526040902080546001600160a01b0319166001600160a01b0392909216919091179055565b6119ea83838361153c565b610a19576001600160a01b038316611a1857604051637e27328960e01b815260048101829052602401610547565b60405163177e802f60e01b81526001600160a01b038316600482015260248101829052604401610547565b61109c848484611af8565b611a588383611ba8565b610a19600084848461173b565b60606000611a7283611c0d565b600101905060008167ffffffffffffffff811115611a9257611a92611f8c565b6040519080825280601f01601f191660200182016040528015611abc576020820181803683370190505b5090508181016020015b600019016f181899199a1a9b1b9c1cb0b131b232b360811b600a86061a8153600a8504945084611ac657509392505050565b6001600160a01b038216611b2257604051633250574960e11b815260006004820152602401610547565b6000611b3083836000611448565b90506001600160a01b038116611b5c57604051637e27328960e01b815260048101839052602401610547565b836001600160a01b0316816001600160a01b0316146109d0576040516364283d7b60e01b81526001600160a01b0380861660048301526024820184905282166044820152606401610547565b6001600160a01b038216611bd257604051633250574960e11b815260006004820152602401610547565b6000611be083836000611448565b90506001600160a01b03811615610a19576040516339e3563760e11b815260006004820152602401610547565b60008072184f03e93ff9f4daa797ed6e38ed64bf6a1f0160401b8310611c4c5772184f03e93ff9f4daa797ed6e38ed64bf6a1f0160401b830492506040015b6d04ee2d6d415b85acef81000000008310611c78576d04ee2d6d415b85acef8100000000830492506020015b662386f26fc100008310611c9657662386f26fc10000830492506010015b6305f5e1008310611cae576305f5e100830492506008015b6127108310611cc257612710830492506004015b60648310611cd4576064830492506002015b600a83106106b45760010192915050565b508054611cf190612197565b6000825580601f10611d01575050565b601f01602090049060005260206000209081019061139591905b80821115611d2f5760008155600101611d1b565b5090565b600060208284031215611d4557600080fd5b5035919050565b6001600160e01b03198116811461139557600080fd5b600060208284031215611d7457600080fd5b81356118d281611d4c565b60005b83811015611d9a578181015183820152602001611d82565b50506000910152565b60008151808452611dbb816020860160208601611d7f565b601f01601f19169290920160200192915050565b838152826020820152606060408201526000611dee6060830184611da3565b95945050505050565b6020815260006118d26020830184611da3565b80356001600160a01b0381168114611e2157600080fd5b919050565b60008060408385031215611e3957600080fd5b611e4283611e0a565b946020939093013593505050565b6000602082016020835280845180835260408501915060408160051b86010192506020860160005b82811015611eca57603f19878603018452815180518652602081015160208701526040810151905060606040870152611eb46060870182611da3565b9550506020938401939190910190600101611e78565b50929695505050505050565b600080600060608486031215611eeb57600080fd5b611ef484611e0a565b9250611f0260208501611e0a565b929592945050506040919091013590565b600060208284031215611f2557600080fd5b6118d282611e0a565b60008060408385031215611f4157600080fd5b50508035926020909101359150565b60008060408385031215611f6357600080fd5b611f6c83611e0a565b915060208301358015158114611f8157600080fd5b809150509250929050565b634e487b7160e01b600052604160045260246000fd5b60008067ffffffffffffffff841115611fbd57611fbd611f8c565b50604051601f19601f85018116603f0116810181811067ffffffffffffffff82111715611fec57611fec611f8c565b60405283815290508082840185101561200457600080fd5b83836020830137600060208583010152509392505050565b6000806040838503121561202f57600080fd5b61203883611e0a565b9150602083013567ffffffffffffffff81111561205457600080fd5b8301601f8101851361206557600080fd5b61207485823560208401611fa2565b9150509250929050565b6000806000806080858703121561209457600080fd5b61209d85611e0a565b93506120ab60208601611e0a565b925060408501359150606085013567ffffffffffffffff8111156120ce57600080fd5b8501601f810187136120df57600080fd5b6120ee87823560208401611fa2565b91505092959194509250565b6000806040838503121561210d57600080fd5b61211683611e0a565b915061212460208401611e0a565b90509250929050565b6020808252601190820152702cb7ba9030b932903737ba1037bbb732b960791b604082015260600190565b634e487b7160e01b600052603260045260246000fd5b634e487b7160e01b600052601160045260246000fd5b818103818111156106b4576106b461216e565b600181811c908216806121ab57607f821691505b60208210810361121557634e487b7160e01b600052602260045260246000fd5b601f821115610a1957806000526020600020601f840160051c810160208510156121f25750805b601f840160051c820191505b8181101561185d57600081556001016121fe565b81810361221d575050565b6122278254612197565b67ffffffffffffffff81111561223f5761223f611f8c565b6122538161224d8454612197565b846121cb565b6000601f82116001811461228a576000831561226f5750848201545b600184901b600019600386901b1c198216175b85555061185d565b600085815260209020601f19841690600086815260209020845b838110156122c457828601548255600195860195909101906020016122a4565b50858310156122e25781850154600019600388901b60f8161c191681555b5050505050600190811b01905550565b634e487b7160e01b600052603160045260246000fd5b60006001820161231a5761231a61216e565b5060010190565b815167ffffffffffffffff81111561233b5761233b611f8c565b6123498161224d8454612197565b6020601f82116001811461237b576000831561226f575081850151600184901b600019600386901b1c19821617612282565b600084815260208120601f198516915b828110156123ab578785015182556020948501946001909201910161238b565b50848210156123c95786840151600019600387901b60f8161c191681555b50505050600190811b01905550565b60018060a01b0384168152826020820152606060408201526000611dee6060830184611da3565b60008351612411818460208801611d7f565b835190830190612425818360208801611d7f565b01949350505050565b6001600160a01b038581168252841660208201526040810183905260806060820181905260009061246190830184611da3565b9695505050505050565b60006020828403121561247d57600080fd5b81516118d281611d4c56fea2646970667358221220e25db1533c77bdbab222b3d456decc3af9f95bc97b83bfc7837d7a9553b066cf64736f6c634300081b0033a2646970667358221220895fa344c298cad1473ccfa920d9206d08b38951c2e6b7caaf3b613392ad460064736f6c634300081b0033",
  "linkReferences": {},
  "deployedLinkReferences": {}
}