{
  "_format": "hh-sol-artifact-1",
  "contractName": "NFTMarket",
  "sourceName": "contracts/NFTMarket.sol",
  "abi": [
    {
      "inputs": [],
      "stateMutability": "nonpayable",
      "type": "constructor"
    },
    {
      "inputs": [
        {
          "internalType": "address",
          "name": "owner",
          "type": "address"
        }
      ],
      "name": "OwnableInvalidOwner",
      "type": "error"
    },
    {
      "inputs": [
        {
          "internalType": "address",
          "name": "account",
          "type": "address"
        }
      ],
      "name": "OwnableUnauthorizedAccount",
      "type": "error"
    },
    {
      "anonymous": false,
      "inputs": [
        {
          "indexed": false,
          "internalType": "address",
          "name": "collectionAddress",
          "type": "address"
        },
        {
          "indexed": false,
          "internalType": "string",
          "name": "name",
          "type": "string"
        },
        {
          "indexed": false,
          "internalType": "string",
          "name": "symbol",
          "type": "string"
        }
      ],
      "name": "CollectionAdd",
      "type": "event"
    },
    {
      "anonymous": false,
      "inputs": [
        {
          "indexed": false,
          "internalType": "address",
          "name": "collectionAddress",
          "type": "address"
        },
        {
          "indexed": false,
          "internalType": "address",
          "name": "owner",
          "type": "address"
        },
        {
          "indexed": false,
          "internalType": "string",
          "name": "name",
          "type": "string"
        },
        {
          "indexed": false,
          "internalType": "string",
          "name": "symbol",
          "type": "string"
        }
      ],
      "name": "CollectionCreated",
      "type": "event"
    },
    {
      "anonymous": false,
      "inputs": [
        {
          "indexed": false,
          "internalType": "address",
          "name": "collectionAddress",
          "type": "address"
        },
        {
          "indexed": false,
          "internalType": "string",
          "name": "name",
          "type": "string"
        },
        {
          "indexed": false,
          "internalType": "string",
          "name": "symbol",
          "type": "string"
        }
      ],
      "name": "CollectionRemove",
      "type": "event"
    },
    {
      "anonymous": false,
      "inputs": [
        {
          "indexed": true,
          "internalType": "address",
          "name": "previousOwner",
          "type": "address"
        },
        {
          "indexed": true,
          "internalType": "address",
          "name": "newOwner",
          "type": "address"
        }
      ],
      "name": "OwnershipTransferred",
      "type": "event"
    },
    {
      "inputs": [
        {
          "internalType": "address",
          "name": "_collectionAddress",
          "type": "address"
        }
      ],
      "name": "addCollection",
      "outputs": [],
      "stateMutability": "payable",
      "type": "function"
    },
    {
      "inputs": [
        {
          "internalType": "uint256",
          "name": "",
          "type": "uint256"
        }
      ],
      "name": "collections",
      "outputs": [
        {
          "internalType": "address",
          "name": "collectionAddress",
          "type": "address"
        },
        {
          "internalType": "string",
          "name": "name",
          "type": "string"
        },
        {
          "internalType": "string",
          "name": "symbol",
          "type": "string"
        }
      ],
      "stateMutability": "view",
      "type": "function"
    },
    {
      "inputs": [],
      "name": "counter",
      "outputs": [
        {
          "internalType": "uint256",
          "name": "",
          "type": "uint256"
        }
      ],
      "stateMutability": "view",
      "type": "function"
    },
    {
      "inputs": [
        {
          "internalType": "string",
          "name": "_name",
          "type": "string"
        },
        {
          "internalType": "string",
          "name": "_symbol",
          "type": "string"
        }
      ],
      "name": "createCollection",
      "outputs": [],
      "stateMutability": "payable",
      "type": "function"
    },
    {
      "inputs": [],
      "name": "getAllCollection",
      "outputs": [
        {
          "components": [
            {
              "internalType": "address",
              "name": "collectionAddress",
              "type": "address"
            },
            {
              "internalType": "string",
              "name": "name",
              "type": "string"
            },
            {
              "internalType": "string",
              "name": "symbol",
              "type": "string"
            }
          ],
          "internalType": "struct NFTMarket.CollectionInfo[]",
          "name": "",
          "type": "tuple[]"
        }
      ],
      "stateMutability": "view",
      "type": "function"
    },
    {
      "inputs": [],
      "name": "owner",
      "outputs": [
        {
          "internalType": "address",
          "name": "",
          "type": "address"
        }
      ],
      "stateMutability": "view",
      "type": "function"
    },
    {
      "inputs": [
        {
          "internalType": "uint256",
          "name": "_collectionId",
          "type": "uint256"
        }
      ],
      "name": "removeCollection",
      "outputs": [],
      "stateMutability": "nonpayable",
      "type": "function"
    },
    {
      "inputs": [],
      "name": "renounceOwnership",
      "outputs": [],
      "stateMutability": "nonpayable",
      "type": "function"
    },
    {
      "inputs": [
        {
          "internalType": "address",
          "name": "newOwner",
          "type": "address"
        }
      ],
      "name": "transferOwnership",
      "outputs": [],
      "stateMutability": "nonpayable",
      "type": "function"
    }
  ],
  "bytecode": "0x6080604052348015600f57600080fd5b503380603557604051631e4fbdf760e01b81526000600482015260240160405180910390fd5b603c816046565b5060006001556096565b600080546001600160a01b038381166001600160a01b0319831681178455604051919092169283917f8be0079c531659141344cd1fd0a4f28419497f9722a3daafe3b4186f6b6457e09190a35050565b6135bd806100a56000396000f3fe6080604052600436106100865760003560e01c8063a174e77a11610059578063a174e77a14610106578063dadd458914610119578063eec3104214610139578063f2fde38b1461015b578063fdbda0ec1461017b57600080fd5b8063176b9b751461008b57806361bc221a146100a0578063715018a6146100c95780638da5cb5b146100de575b600080fd5b61009e610099366004610d24565b6101aa565b005b3480156100ac57600080fd5b506100b660015481565b6040519081526020015b60405180910390f35b3480156100d557600080fd5b5061009e6102cb565b3480156100ea57600080fd5b506000546040516001600160a01b0390911681526020016100c0565b61009e610114366004610d8d565b6102df565b34801561012557600080fd5b5061009e610134366004610dbd565b6105ed565b34801561014557600080fd5b5061014e610852565b6040516100c09190610e26565b34801561016757600080fd5b5061009e610176366004610d8d565b610a5a565b34801561018757600080fd5b5061019b610196366004610dbd565b610a98565b6040516100c093929190610ec7565b6101b2610bd5565b60008282336040516101c390610c52565b6101cf93929190610f07565b604051809103906000f0801580156101eb573d6000803e3d6000fd5b50604080516060810182526001600160a01b0383168152602081018690529081018490526001805492935090916000918261022583610f5b565b909155506000818152600260209081526040909120845181546001600160a01b0319166001600160a01b03909116178155908401519192508391600182019061026e9082610ff7565b50604082015160028201906102839082610ff7565b509050507f5fead977881b23a0dbf2f905699203f29cefea57a576d2d4f412523191258e84833387876040516102bc94939291906110b9565b60405180910390a15050505050565b6102d3610bd5565b6102dd6000610c02565b565b670de0b6b3a764000034101561034a5760405162461bcd60e51b815260206004820152602560248201527f4e6f7420656e6f756768206665652061646420746f206d61726b657420697320604482015264062408aa8960db1b60648201526084015b60405180910390fd5b60405133903480156108fc02916000818181858888f19350505050158015610376573d6000803e3d6000fd5b50600081905060006040518060600160405280836001600160a01b03168152602001836001600160a01b03166306fdde036040518163ffffffff1660e01b8152600401600060405180830381865afa1580156103d6573d6000803e3d6000fd5b505050506040513d6000823e601f3d908101601f191682016040526103fe9190810190611102565b8152602001836001600160a01b03166395d89b416040518163ffffffff1660e01b8152600401600060405180830381865afa158015610441573d6000803e3d6000fd5b505050506040513d6000823e601f3d908101601f191682016040526104699190810190611102565b905260018054919250600091908261048083610f5b565b909155506000818152600260209081526040909120845181546001600160a01b0319166001600160a01b0390911617815590840151919250839160018201906104c99082610ff7565b50604082015160028201906104de9082610ff7565b509050507fce4d54333023f80fd9cde193007743ddfa7e56fbbb4e28e0429c5a698852cd3e83846001600160a01b03166306fdde036040518163ffffffff1660e01b8152600401600060405180830381865afa158015610542573d6000803e3d6000fd5b505050506040513d6000823e601f3d908101601f1916820160405261056a9190810190611102565b856001600160a01b03166395d89b416040518163ffffffff1660e01b8152600401600060405180830381865afa1580156105a8573d6000803e3d6000fd5b505050506040513d6000823e601f3d908101601f191682016040526105d09190810190611102565b6040516105df93929190610ec7565b60405180910390a150505050565b6105f5610bd5565b60006001541161063f5760405162461bcd60e51b81526020600482015260156024820152742737ba103430b99030b71031b7b63632b1ba34b7b760591b6044820152606401610341565b600060016000815461065090611179565b9182905550600083815260026020908152604080832081516060810190925280546001600160a01b0316825260018101805495965093949193909284019161069790610f74565b80601f01602080910402602001604051908101604052809291908181526020018280546106c390610f74565b80156107105780601f106106e557610100808354040283529160200191610710565b820191906000526020600020905b8154815290600101906020018083116106f357829003601f168201915b5050505050815260200160028201805461072990610f74565b80601f016020809104026020016040519081016040528092919081815260200182805461075590610f74565b80156107a25780601f10610777576101008083540402835291602001916107a2565b820191906000526020600020905b81548152906001019060200180831161078557829003601f168201915b505050919092525050506000838152600260205260408082208683529120815481546001600160a01b0319166001600160a01b03909116178155919250906001808201906107f290840182611190565b5060028181019061080590840182611190565b50508151602083015160408085015190517ff3ccda7c7ddd8c27fccbc53334db64343d50101395b8464e723fd4bbe30e1272945061084593929190610ec7565b60405180910390a1505050565b6060600060015467ffffffffffffffff81111561087157610871610c5f565b6040519080825280602002602001820160405280156108cf57816020015b6108bc604051806060016040528060006001600160a01b0316815260200160608152602001606081525090565b81526020019060019003908161088f5790505b50905060005b600154811015610a545760008181526002602090815260409182902082516060810190935280546001600160a01b03168352600181018054919284019161091b90610f74565b80601f016020809104026020016040519081016040528092919081815260200182805461094790610f74565b80156109945780601f1061096957610100808354040283529160200191610994565b820191906000526020600020905b81548152906001019060200180831161097757829003601f168201915b505050505081526020016002820180546109ad90610f74565b80601f01602080910402602001604051908101604052809291908181526020018280546109d990610f74565b8015610a265780601f106109fb57610100808354040283529160200191610a26565b820191906000526020600020905b815481529060010190602001808311610a0957829003601f168201915b505050505081525050828281518110610a4157610a41611265565b60209081029190910101526001016108d5565b50919050565b610a62610bd5565b6001600160a01b038116610a8c57604051631e4fbdf760e01b815260006004820152602401610341565b610a9581610c02565b50565b600260205260009081526040902080546001820180546001600160a01b039092169291610ac490610f74565b80601f0160208091040260200160405190810160405280929190818152602001828054610af090610f74565b8015610b3d5780601f10610b1257610100808354040283529160200191610b3d565b820191906000526020600020905b815481529060010190602001808311610b2057829003601f168201915b505050505090806002018054610b5290610f74565b80601f0160208091040260200160405190810160405280929190818152602001828054610b7e90610f74565b8015610bcb5780601f10610ba057610100808354040283529160200191610bcb565b820191906000526020600020905b815481529060010190602001808311610bae57829003601f168201915b5050505050905083565b6000546001600160a01b031633146102dd5760405163118cdaa760e01b8152336004820152602401610341565b600080546001600160a01b038381166001600160a01b0319831681178455604051919092169283917f8be0079c531659141344cd1fd0a4f28419497f9722a3daafe3b4186f6b6457e09190a35050565b61230c8061127c83390190565b634e487b7160e01b600052604160045260246000fd5b604051601f8201601f1916810167ffffffffffffffff81118282101715610c9e57610c9e610c5f565b604052919050565b600067ffffffffffffffff821115610cc057610cc0610c5f565b50601f01601f191660200190565b600082601f830112610cdf57600080fd5b8135610cf2610ced82610ca6565b610c75565b818152846020838601011115610d0757600080fd5b816020850160208301376000918101602001919091529392505050565b60008060408385031215610d3757600080fd5b823567ffffffffffffffff811115610d4e57600080fd5b610d5a85828601610cce565b925050602083013567ffffffffffffffff811115610d7757600080fd5b610d8385828601610cce565b9150509250929050565b600060208284031215610d9f57600080fd5b81356001600160a01b0381168114610db657600080fd5b9392505050565b600060208284031215610dcf57600080fd5b5035919050565b60005b83811015610df1578181015183820152602001610dd9565b50506000910152565b60008151808452610e12816020860160208601610dd6565b601f01601f19169290920160200192915050565b6000602082016020835280845180835260408501915060408160051b86010192506020860160005b82811015610ebb57868503603f19018452815180516001600160a01b03168652602080820151606091880182905290610e8990880182610dfa565b9050604082015191508681036040880152610ea48183610dfa565b965050506020938401939190910190600101610e4e565b50929695505050505050565b6001600160a01b0384168152606060208201819052600090610eeb90830185610dfa565b8281036040840152610efd8185610dfa565b9695505050505050565b606081526000610f1a6060830186610dfa565b8281036020840152610f2c8186610dfa565b91505060018060a01b0383166040830152949350505050565b634e487b7160e01b600052601160045260246000fd5b600060018201610f6d57610f6d610f45565b5060010190565b600181811c90821680610f8857607f821691505b602082108103610a5457634e487b7160e01b600052602260045260246000fd5b601f821115610ff257806000526020600020601f840160051c81016020851015610fcf5750805b601f840160051c820191505b81811015610fef5760008155600101610fdb565b50505b505050565b815167ffffffffffffffff81111561101157611011610c5f565b6110258161101f8454610f74565b84610fa8565b6020601f82116001811461105c57600083156110415750848201515b600184901b600019600386901b1c198216175b855550610fef565b600084815260208120601f198516915b8281101561108c578785015182556020948501946001909201910161106c565b50848210156110aa5786840151600019600387901b60f8161c191681555b50505050600190811b01905550565b6001600160a01b038581168252841660208201526080604082018190526000906110e590830185610dfa565b82810360608401526110f78185610dfa565b979650505050505050565b60006020828403121561111457600080fd5b815167ffffffffffffffff81111561112b57600080fd5b8201601f8101841361113c57600080fd5b805161114a610ced82610ca6565b81815285602083850101111561115f57600080fd5b611170826020830160208601610dd6565b95945050505050565b60008161118857611188610f45565b506000190190565b81810361119b575050565b6111a58254610f74565b67ffffffffffffffff8111156111bd576111bd610c5f565b6111cb8161101f8454610f74565b6000601f8211600181146111fd5760008315611041575081850154600184901b600019600386901b1c19821617611054565b600085815260209020601f19841690600086815260209020845b838110156112375782860154825560019586019590910190602001611217565b50858310156112555781850154600019600388901b60f8161c191681555b5050505050600190811b01905550565b634e487b7160e01b600052603260045260246000fdfe608060405234801561001057600080fd5b5060405161230c38038061230c83398101604081905261002f9161019f565b808383600061003e83826102b3565b50600161004b82826102b3565b5050506001600160a01b03811661007c57604051631e4fbdf760e01b81526000600482015260240160405180910390fd5b61008581610094565b50506001600855506103719050565b600780546001600160a01b038381166001600160a01b0319831681179093556040519116919082907f8be0079c531659141344cd1fd0a4f28419497f9722a3daafe3b4186f6b6457e090600090a35050565b634e487b7160e01b600052604160045260246000fd5b600082601f83011261010d57600080fd5b81516001600160401b03811115610126576101266100e6565b604051601f8201601f19908116603f011681016001600160401b0381118282101715610154576101546100e6565b60405281815283820160200185101561016c57600080fd5b60005b8281101561018b5760208186018101518383018201520161016f565b506000918101602001919091529392505050565b6000806000606084860312156101b457600080fd5b83516001600160401b038111156101ca57600080fd5b6101d6868287016100fc565b602086015190945090506001600160401b038111156101f457600080fd5b610200868287016100fc565b604086015190935090506001600160a01b038116811461021f57600080fd5b809150509250925092565b600181811c9082168061023e57607f821691505b60208210810361025e57634e487b7160e01b600052602260045260246000fd5b50919050565b601f8211156102ae57806000526020600020601f840160051c8101602085101561028b5750805b601f840160051c820191505b818110156102ab5760008155600101610297565b50505b505050565b81516001600160401b038111156102cc576102cc6100e6565b6102e0816102da845461022a565b84610264565b6020601f82116001811461031457600083156102fc5750848201515b600019600385901b1c1916600184901b1784556102ab565b600084815260208120601f198516915b828110156103445787850151825560209485019460019092019101610324565b50848210156103625786840151600019600387901b60f8161c191681555b50505050600190811b01905550565b611f8c806103806000396000f3fe60806040526004361061014b5760003560e01c8063715018a6116100b6578063a56140331161006f578063a5614033146103b0578063b88d4fde146103d0578063c097649e146103f0578063c87b56dd14610412578063e985e9c514610432578063f2fde38b1461045257600080fd5b8063715018a6146103085780638da5cb5b1461031d57806394383f141461033b57806394ab67fe1461035b57806395d89b411461037b578063a22cb4651461039057600080fd5b8063265aa62111610108578063265aa6211461024157806342842e0e1461027157806351ed82881461029157806361bc221a146102a45780636352211e146102c857806370a08231146102e857600080fd5b806301f3484c1461015057806301ffc9a71461017257806306fdde03146101a7578063081812fc146101c9578063095ea7b31461020157806323b872dd14610221575b600080fd5b34801561015c57600080fd5b5061017061016b3660046118ea565b610472565b005b34801561017e57600080fd5b5061019261018d366004611919565b610501565b60405190151581526020015b60405180910390f35b3480156101b357600080fd5b506101bc61052c565b60405161019e9190611986565b3480156101d557600080fd5b506101e96101e43660046118ea565b6105be565b6040516001600160a01b03909116815260200161019e565b34801561020d57600080fd5b5061017061021c3660046119b5565b6105e7565b34801561022d57600080fd5b5061017061023c3660046119df565b6105f6565b34801561024d57600080fd5b5061026161025c3660046118ea565b610681565b60405161019e9493929190611a1c565b34801561027d57600080fd5b5061017061028c3660046119df565b610735565b61017061029f3660046118ea565b610755565b3480156102b057600080fd5b506102ba60085481565b60405190815260200161019e565b3480156102d457600080fd5b506101e96102e33660046118ea565b6109a5565b3480156102f457600080fd5b506102ba610303366004611a4e565b6109b0565b34801561031457600080fd5b506101706109f8565b34801561032957600080fd5b506007546001600160a01b03166101e9565b34801561034757600080fd5b50610170610356366004611a69565b610a0c565b34801561036757600080fd5b506101706103763660046119b5565b610aa3565b34801561038757600080fd5b506101bc610b80565b34801561039c57600080fd5b506101706103ab366004611a8b565b610b8f565b3480156103bc57600080fd5b506101706103cb366004611b57565b610b9a565b3480156103dc57600080fd5b506101706103eb366004611bb9565b610c7a565b3480156103fc57600080fd5b50610405610c91565b60405161019e9190611c35565b34801561041e57600080fd5b506101bc61042d3660046118ea565b610e20565b34801561043e57600080fd5b5061019261044d366004611cc8565b610f31565b34801561045e57600080fd5b5061017061046d366004611a4e565b610f5f565b3361047c82610f9d565b6001600160a01b0316146104ab5760405162461bcd60e51b81526004016104a290611cfb565b60405180910390fd5b600081815260096020908152604091829020600301805460ff1916905581513381529081018390527f84f3cf51dfe6e1660feefcadf6502122f4a131a65cf722abfb1a84da7744a873910160405180910390a150565b60006001600160e01b03198216632483248360e11b1480610526575061052682610fb8565b92915050565b60606000805461053b90611d26565b80601f016020809104026020016040519081016040528092919081815260200182805461056790611d26565b80156105b45780601f10610589576101008083540402835291602001916105b4565b820191906000526020600020905b81548152906001019060200180831161059757829003601f168201915b5050505050905090565b60006105c982611008565b506000828152600460205260409020546001600160a01b0316610526565b6105f2828233611040565b5050565b6001600160a01b03821661062057604051633250574960e11b8152600060048201526024016104a2565b600061062d83833361104d565b9050836001600160a01b0316816001600160a01b03161461067b576040516364283d7b60e01b81526001600160a01b03808616600483015260248201849052821660448201526064016104a2565b50505050565b600960205260009081526040902080546001820154600283018054929391926106a990611d26565b80601f01602080910402602001604051908101604052809291908181526020018280546106d590611d26565b80156107225780601f106106f757610100808354040283529160200191610722565b820191906000526020600020905b81548152906001019060200180831161070557829003601f168201915b5050506003909301549192505060ff1684565b61075083838360405180602001604052806000815250610c7a565b505050565b600034116107a55760405162461bcd60e51b815260206004820181905260248201527f416d6f756e74206d7573742062652067726561746572207468616e207a65726f60448201526064016104a2565b600081815260096020526040902060018101546107f55760405162461bcd60e51b815260206004820152600e60248201526d139195081b9bdd081b1a5cdd195960921b60448201526064016104a2565b806001015434101561083d5760405162461bcd60e51b8152602060048201526011602482015270082dadeeadce840dcdee840cadcdeeaced607b1b60448201526064016104a2565b8054339061084a90610f9d565b6001600160a01b0316036108905760405162461bcd60e51b815260206004820152600d60248201526c2cb7ba9030b9329037bbb732b960991b60448201526064016104a2565b6108a96108a08260000154610f9d565b82543090611141565b6108f15760405162461bcd60e51b8152602060048201526019602482015278151a19481d1bdad95b881a5cc81b9bdd08185c1c1c9bdd9959603a1b60448201526064016104a2565b80546108fc906109a5565b6001600160a01b03166108fc349081150290604051600060405180830381858888f19350505050158015610934573d6000803e3d6000fd5b5061094e61094582600001546109a5565b825433906111a4565b60038101805460ff19169055805460018201546040805133815260208101939093528201527f38bb180d23818aef357ad4b3806bac3fa13c3492c0ac9d1727381fb2422aaada906060015b60405180910390a15050565b600061052682611008565b60006001600160a01b0382166109dc576040516322718ad960e21b8152600060048201526024016104a2565b506001600160a01b031660009081526003602052604090205490565b610a006111bf565b610a0a60006111ec565b565b33610a1683610f9d565b6001600160a01b031614610a3c5760405162461bcd60e51b81526004016104a290611cfb565b610a4630836105e7565b60008281526009602090815260409182902060018082018590556003909101805460ff1916909117905581518481529081018390527fa6cd73580a273eec6c1026108f6b63479fbaef5356dde4ff43e4b38dd187485f9101610999565b33610aad82610f9d565b6001600160a01b031614610ad35760405162461bcd60e51b81526004016104a290611cfb565b610ae6610adf82610f9d565b3083611141565b610b2e5760405162461bcd60e51b8152602060048201526019602482015278151a19481d1bdad95b881a5cc81b9bdd08185c1c1c9bdd9959603a1b60448201526064016104a2565b610b41610b3a82610f9d565b83836111a4565b604080516001600160a01b0384168152602081018390527f4beb284ded570f9274d681f37b987c82fe53628d20969d02cd65f72453d3f79c9101610999565b60606001805461053b90611d26565b6105f233838361123e565b610ba26111bf565b6008805460009182610bb383611d5a565b919050559050610bc383826112dd565b610bcd81836112f7565b604080516080810182528281526000602080830182815283850187815260608501849052868452600990925293909120825181559251600184015551909182916002820190610c1c9082611dc8565b50606091909101516003909101805460ff19169115159190911790556040517f403f45e064e1472b925888509d0e5164b4642f3064c519d162e3b9261c204adc90610c6c90869085908790611e87565b60405180910390a150505050565b610c858484846105f6565b61067b84848484611340565b6060600060085467ffffffffffffffff811115610cb057610cb0611ac7565b604051908082528060200260200182016040528015610d0e57816020015b610cfb60405180608001604052806000815260200160008152602001606081526020016000151581525090565b815260200190600190039081610cce5790505b50905060015b600854811015610e1a57600960008281526020019081526020016000206040518060800160405290816000820154815260200160018201548152602001600282018054610d6090611d26565b80601f0160208091040260200160405190810160405280929190818152602001828054610d8c90611d26565b8015610dd95780601f10610dae57610100808354040283529160200191610dd9565b820191906000526020600020905b815481529060010190602001808311610dbc57829003601f168201915b50505091835250506003919091015460ff1615156020909101528251839083908110610e0757610e07611eb7565b6020908102919091010152600101610d14565b50919050565b6060610e2b82611008565b5060008281526006602052604081208054610e4590611d26565b80601f0160208091040260200160405190810160405280929190818152602001828054610e7190611d26565b8015610ebe5780601f10610e9357610100808354040283529160200191610ebe565b820191906000526020600020905b815481529060010190602001808311610ea157829003601f168201915b505050505090506000610edc60408051602081019091526000815290565b90508051600003610eee575092915050565b815115610f20578082604051602001610f08929190611ecd565b60405160208183030381529060405292505050919050565b610f2984611469565b949350505050565b6001600160a01b03918216600090815260056020908152604080832093909416825291909152205460ff1690565b610f676111bf565b6001600160a01b038116610f9157604051631e4fbdf760e01b8152600060048201526024016104a2565b610f9a816111ec565b50565b6000908152600260205260409020546001600160a01b031690565b60006001600160e01b031982166380ac58cd60e01b1480610fe957506001600160e01b03198216635b5e139f60e01b145b8061052657506301ffc9a760e01b6001600160e01b0319831614610526565b60008061101483610f9d565b90506001600160a01b03811661052657604051637e27328960e01b8152600481018490526024016104a2565b61075083838360016114de565b60008061105984610f9d565b90506001600160a01b03831615611075576110758184866115e4565b6001600160a01b038116156110b3576110926000856000806114de565b6001600160a01b038116600090815260036020526040902080546000190190555b6001600160a01b038516156110e2576001600160a01b0385166000908152600360205260409020805460010190555b60008481526002602052604080822080546001600160a01b0319166001600160a01b0389811691821790925591518793918516917fddf252ad1be2c89b69c2b068fc378daa952ba7f163c4a11628f55a4df523b3ef91a4949350505050565b60006001600160a01b03831615801590610f295750826001600160a01b0316846001600160a01b0316148061117b575061117b8484610f31565b80610f295750506000908152600460205260409020546001600160a01b03908116911614919050565b61075083838360405180602001604052806000815250611648565b6007546001600160a01b03163314610a0a5760405163118cdaa760e01b81523360048201526024016104a2565b600780546001600160a01b038381166001600160a01b0319831681179093556040519116919082907f8be0079c531659141344cd1fd0a4f28419497f9722a3daafe3b4186f6b6457e090600090a35050565b6001600160a01b03821661127057604051630b61174360e31b81526001600160a01b03831660048201526024016104a2565b6001600160a01b03838116600081815260056020908152604080832094871680845294825291829020805460ff191686151590811790915591519182527f17307eab39ab6107e8899845ad3d59bd9653f200f220920489ca2b5937696c31910160405180910390a3505050565b6105f2828260405180602001604052806000815250611653565b600082815260066020526040902061130f8282611dc8565b506040518281527ff8e1a15aba9398e019f0b49df1a4fde98ee17ae345cb5f6b5e2c27f5033e8ce790602001610999565b6001600160a01b0383163b1561067b57604051630a85bd0160e11b81526001600160a01b0384169063150b7a0290611382903390889087908790600401611efc565b6020604051808303816000875af19250505080156113bd575060408051601f3d908101601f191682019092526113ba91810190611f39565b60015b611426573d8080156113eb576040519150601f19603f3d011682016040523d82523d6000602084013e6113f0565b606091505b50805160000361141e57604051633250574960e11b81526001600160a01b03851660048201526024016104a2565b805181602001fd5b6001600160e01b03198116630a85bd0160e11b1461146257604051633250574960e11b81526001600160a01b03851660048201526024016104a2565b5050505050565b606061147482611008565b50600061148c60408051602081019091526000815290565b905060008151116114ac57604051806020016040528060008152506114d7565b806114b68461166a565b6040516020016114c7929190611ecd565b6040516020818303038152906040525b9392505050565b80806114f257506001600160a01b03821615155b156115b457600061150284611008565b90506001600160a01b0383161580159061152e5750826001600160a01b0316816001600160a01b031614155b8015611541575061153f8184610f31565b155b1561156a5760405163a9fbf51f60e01b81526001600160a01b03841660048201526024016104a2565b81156115b25783856001600160a01b0316826001600160a01b03167f8c5be1e5ebec7d5bd14f71427d1e84f3dd0314c0f7b2291e5b200ac8c7c3b92560405160405180910390a45b505b5050600090815260046020526040902080546001600160a01b0319166001600160a01b0392909216919091179055565b6115ef838383611141565b610750576001600160a01b03831661161d57604051637e27328960e01b8152600481018290526024016104a2565b60405163177e802f60e01b81526001600160a01b0383166004820152602481018290526044016104a2565b610c858484846116fd565b61165d83836117ad565b6107506000848484611340565b6060600061167783611812565b600101905060008167ffffffffffffffff81111561169757611697611ac7565b6040519080825280601f01601f1916602001820160405280156116c1576020820181803683370190505b5090508181016020015b600019016f181899199a1a9b1b9c1cb0b131b232b360811b600a86061a8153600a85049450846116cb57509392505050565b6001600160a01b03821661172757604051633250574960e11b8152600060048201526024016104a2565b60006117358383600061104d565b90506001600160a01b03811661176157604051637e27328960e01b8152600481018390526024016104a2565b836001600160a01b0316816001600160a01b03161461067b576040516364283d7b60e01b81526001600160a01b03808616600483015260248201849052821660448201526064016104a2565b6001600160a01b0382166117d757604051633250574960e11b8152600060048201526024016104a2565b60006117e58383600061104d565b90506001600160a01b03811615610750576040516339e3563760e11b8152600060048201526024016104a2565b60008072184f03e93ff9f4daa797ed6e38ed64bf6a1f0160401b83106118515772184f03e93ff9f4daa797ed6e38ed64bf6a1f0160401b830492506040015b6d04ee2d6d415b85acef8100000000831061187d576d04ee2d6d415b85acef8100000000830492506020015b662386f26fc10000831061189b57662386f26fc10000830492506010015b6305f5e10083106118b3576305f5e100830492506008015b61271083106118c757612710830492506004015b606483106118d9576064830492506002015b600a83106105265760010192915050565b6000602082840312156118fc57600080fd5b5035919050565b6001600160e01b031981168114610f9a57600080fd5b60006020828403121561192b57600080fd5b81356114d781611903565b60005b83811015611951578181015183820152602001611939565b50506000910152565b60008151808452611972816020860160208601611936565b601f01601f19169290920160200192915050565b6020815260006114d7602083018461195a565b80356001600160a01b03811681146119b057600080fd5b919050565b600080604083850312156119c857600080fd5b6119d183611999565b946020939093013593505050565b6000806000606084860312156119f457600080fd5b6119fd84611999565b9250611a0b60208501611999565b929592945050506040919091013590565b848152836020820152608060408201526000611a3b608083018561195a565b9050821515606083015295945050505050565b600060208284031215611a6057600080fd5b6114d782611999565b60008060408385031215611a7c57600080fd5b50508035926020909101359150565b60008060408385031215611a9e57600080fd5b611aa783611999565b915060208301358015158114611abc57600080fd5b809150509250929050565b634e487b7160e01b600052604160045260246000fd5b60008067ffffffffffffffff841115611af857611af8611ac7565b50604051601f19601f85018116603f0116810181811067ffffffffffffffff82111715611b2757611b27611ac7565b604052838152905080828401851015611b3f57600080fd5b83836020830137600060208583010152509392505050565b60008060408385031215611b6a57600080fd5b611b7383611999565b9150602083013567ffffffffffffffff811115611b8f57600080fd5b8301601f81018513611ba057600080fd5b611baf85823560208401611add565b9150509250929050565b60008060008060808587031215611bcf57600080fd5b611bd885611999565b9350611be660208601611999565b925060408501359150606085013567ffffffffffffffff811115611c0957600080fd5b8501601f81018713611c1a57600080fd5b611c2987823560208401611add565b91505092959194509250565b6000602082016020835280845180835260408501915060408160051b86010192506020860160005b82811015611cbc57603f1987860301845281518051865260208101516020870152604081015160806040880152611c97608088018261195a565b6060928301511515979092019690965294506020938401939190910190600101611c5d565b50929695505050505050565b60008060408385031215611cdb57600080fd5b611ce483611999565b9150611cf260208401611999565b90509250929050565b6020808252601190820152702cb7ba9030b932903737ba1037bbb732b960791b604082015260600190565b600181811c90821680611d3a57607f821691505b602082108103610e1a57634e487b7160e01b600052602260045260246000fd5b600060018201611d7a57634e487b7160e01b600052601160045260246000fd5b5060010190565b601f82111561075057806000526020600020601f840160051c81016020851015611da85750805b601f840160051c820191505b818110156114625760008155600101611db4565b815167ffffffffffffffff811115611de257611de2611ac7565b611df681611df08454611d26565b84611d81565b6020601f821160018114611e2a5760008315611e125750848201515b600019600385901b1c1916600184901b178455611462565b600084815260208120601f198516915b82811015611e5a5787850151825560209485019460019092019101611e3a565b5084821015611e785786840151600019600387901b60f8161c191681555b50505050600190811b01905550565b60018060a01b0384168152826020820152606060408201526000611eae606083018461195a565b95945050505050565b634e487b7160e01b600052603260045260246000fd5b60008351611edf818460208801611936565b835190830190611ef3818360208801611936565b01949350505050565b6001600160a01b0385811682528416602082015260408101839052608060608201819052600090611f2f9083018461195a565b9695505050505050565b600060208284031215611f4b57600080fd5b81516114d78161190356fea264697066735822122077f886d3617972163cfab5ae6bc2db4ad9a5018b8ce4afae0768736bcccc662a64736f6c634300081b0033a264697066735822122005ec645def683a8307d003193eeb3c1279f84426e57f1a694d917cd348cedd4b64736f6c634300081b0033",
  "linkReferences": {},
  "deployedLinkReferences": {}
}