{
  "_format": "hh-sol-artifact-1",
  "contractName": "TokenERC20",
  "sourceName": "contracts/TokenERC20.sol",
  "abi": [
    {
      "inputs": [
        {
          "internalType": "string",
          "name": "nameERC20",
          "type": "string"
        },
        {
          "internalType": "string",
          "name": "symbolERC20",
          "type": "string"
        },
        {
          "internalType": "address",
          "name": "initialOwner",
          "type": "address"
        },
        {
          "internalType": "uint256",
          "name": "initialSupply",
          "type": "uint256"
        },
        {
          "internalType": "uint8",
          "name": "_decimal",
          "type": "uint8"
        }
      ],
      "stateMutability": "nonpayable",
      "type": "constructor"
    },
    {
      "inputs": [
        {
          "internalType": "address",
          "name": "spender",
          "type": "address"
        },
        {
          "internalType": "uint256",
          "name": "allowance",
          "type": "uint256"
        },
        {
          "internalType": "uint256",
          "name": "needed",
          "type": "uint256"
        }
      ],
      "name": "ERC20InsufficientAllowance",
      "type": "error"
    },
    {
      "inputs": [
        {
          "internalType": "address",
          "name": "sender",
          "type": "address"
        },
        {
          "internalType": "uint256",
          "name": "balance",
          "type": "uint256"
        },
        {
          "internalType": "uint256",
          "name": "needed",
          "type": "uint256"
        }
      ],
      "name": "ERC20InsufficientBalance",
      "type": "error"
    },
    {
      "inputs": [
        {
          "internalType": "address",
          "name": "approver",
          "type": "address"
        }
      ],
      "name": "ERC20InvalidApprover",
      "type": "error"
    },
    {
      "inputs": [
        {
          "internalType": "address",
          "name": "receiver",
          "type": "address"
        }
      ],
      "name": "ERC20InvalidReceiver",
      "type": "error"
    },
    {
      "inputs": [
        {
          "internalType": "address",
          "name": "sender",
          "type": "address"
        }
      ],
      "name": "ERC20InvalidSender",
      "type": "error"
    },
    {
      "inputs": [
        {
          "internalType": "address",
          "name": "spender",
          "type": "address"
        }
      ],
      "name": "ERC20InvalidSpender",
      "type": "error"
    },
    {
      "anonymous": false,
      "inputs": [
        {
          "indexed": true,
          "internalType": "address",
          "name": "owner",
          "type": "address"
        },
        {
          "indexed": true,
          "internalType": "address",
          "name": "spender",
          "type": "address"
        },
        {
          "indexed": false,
          "internalType": "uint256",
          "name": "value",
          "type": "uint256"
        }
      ],
      "name": "Approval",
      "type": "event"
    },
    {
      "anonymous": false,
      "inputs": [
        {
          "indexed": true,
          "internalType": "address",
          "name": "from",
          "type": "address"
        },
        {
          "indexed": true,
          "internalType": "address",
          "name": "to",
          "type": "address"
        },
        {
          "indexed": false,
          "internalType": "uint256",
          "name": "value",
          "type": "uint256"
        }
      ],
      "name": "Transfer",
      "type": "event"
    },
    {
      "inputs": [
        {
          "internalType": "address",
          "name": "owner",
          "type": "address"
        },
        {
          "internalType": "address",
          "name": "spender",
          "type": "address"
        }
      ],
      "name": "allowance",
      "outputs": [
        {
          "internalType": "uint256",
          "name": "",
          "type": "uint256"
        }
      ],
      "stateMutability": "view",
      "type": "function"
    },
    {
      "inputs": [
        {
          "internalType": "address",
          "name": "spender",
          "type": "address"
        },
        {
          "internalType": "uint256",
          "name": "value",
          "type": "uint256"
        }
      ],
      "name": "approve",
      "outputs": [
        {
          "internalType": "bool",
          "name": "",
          "type": "bool"
        }
      ],
      "stateMutability": "nonpayable",
      "type": "function"
    },
    {
      "inputs": [
        {
          "internalType": "address",
          "name": "account",
          "type": "address"
        }
      ],
      "name": "balanceOf",
      "outputs": [
        {
          "internalType": "uint256",
          "name": "",
          "type": "uint256"
        }
      ],
      "stateMutability": "view",
      "type": "function"
    },
    {
      "inputs": [],
      "name": "decimals",
      "outputs": [
        {
          "internalType": "uint8",
          "name": "",
          "type": "uint8"
        }
      ],
      "stateMutability": "view",
      "type": "function"
    },
    {
      "inputs": [
        {
          "internalType": "address",
          "name": "receiver",
          "type": "address"
        },
        {
          "internalType": "uint256",
          "name": "amount",
          "type": "uint256"
        }
      ],
      "name": "mintToken",
      "outputs": [
        {
          "internalType": "uint256",
          "name": "",
          "type": "uint256"
        }
      ],
      "stateMutability": "nonpayable",
      "type": "function"
    },
    {
      "inputs": [],
      "name": "name",
      "outputs": [
        {
          "internalType": "string",
          "name": "",
          "type": "string"
        }
      ],
      "stateMutability": "view",
      "type": "function"
    },
    {
      "inputs": [],
      "name": "symbol",
      "outputs": [
        {
          "internalType": "string",
          "name": "",
          "type": "string"
        }
      ],
      "stateMutability": "view",
      "type": "function"
    },
    {
      "inputs": [],
      "name": "totalSupply",
      "outputs": [
        {
          "internalType": "uint256",
          "name": "",
          "type": "uint256"
        }
      ],
      "stateMutability": "view",
      "type": "function"
    },
    {
      "inputs": [
        {
          "internalType": "address",
          "name": "to",
          "type": "address"
        },
        {
          "internalType": "uint256",
          "name": "value",
          "type": "uint256"
        }
      ],
      "name": "transfer",
      "outputs": [
        {
          "internalType": "bool",
          "name": "",
          "type": "bool"
        }
      ],
      "stateMutability": "nonpayable",
      "type": "function"
    },
    {
      "inputs": [
        {
          "internalType": "address",
          "name": "from",
          "type": "address"
        },
        {
          "internalType": "address",
          "name": "to",
          "type": "address"
        },
        {
          "internalType": "uint256",
          "name": "value",
          "type": "uint256"
        }
      ],
      "name": "transferFrom",
      "outputs": [
        {
          "internalType": "bool",
          "name": "",
          "type": "bool"
        }
      ],
      "stateMutability": "nonpayable",
      "type": "function"
    }
  ],
  "bytecode": "0x60806040526005805460ff1916601217905534801561001d57600080fd5b50604051610f12380380610f1283398101604081905261003c916102bf565b8484600361004a83826103f7565b50600461005782826103f7565b50506005805460ff191660ff8416179055506100938361007960055460ff1690565b61008490600a6105b4565b61008e90856105ca565b61009d565b50505050506105f4565b6001600160a01b0382166100cc5760405163ec442f0560e01b8152600060048201526024015b60405180910390fd5b6100d8600083836100dc565b5050565b6001600160a01b0383166101075780600260008282546100fc91906105e1565b909155506101799050565b6001600160a01b0383166000908152602081905260409020548181101561015a5760405163391434e360e21b81526001600160a01b038516600482015260248101829052604481018390526064016100c3565b6001600160a01b03841660009081526020819052604090209082900390555b6001600160a01b038216610195576002805482900390556101b4565b6001600160a01b03821660009081526020819052604090208054820190555b816001600160a01b0316836001600160a01b03167fddf252ad1be2c89b69c2b068fc378daa952ba7f163c4a11628f55a4df523b3ef836040516101f991815260200190565b60405180910390a3505050565b634e487b7160e01b600052604160045260246000fd5b600082601f83011261022d57600080fd5b81516001600160401b0381111561024657610246610206565b604051601f8201601f19908116603f011681016001600160401b038111828210171561027457610274610206565b60405281815283820160200185101561028c57600080fd5b60005b828110156102ab5760208186018101518383018201520161028f565b506000918101602001919091529392505050565b600080600080600060a086880312156102d757600080fd5b85516001600160401b038111156102ed57600080fd5b6102f98882890161021c565b602088015190965090506001600160401b0381111561031757600080fd5b6103238882890161021c565b604088015190955090506001600160a01b038116811461034257600080fd5b60608701516080880151919450925060ff8116811461036057600080fd5b809150509295509295909350565b600181811c9082168061038257607f821691505b6020821081036103a257634e487b7160e01b600052602260045260246000fd5b50919050565b601f8211156103f257806000526020600020601f840160051c810160208510156103cf5750805b601f840160051c820191505b818110156103ef57600081556001016103db565b50505b505050565b81516001600160401b0381111561041057610410610206565b6104248161041e845461036e565b846103a8565b6020601f82116001811461045857600083156104405750848201515b600019600385901b1c1916600184901b1784556103ef565b600084815260208120601f198516915b828110156104885787850151825560209485019460019092019101610468565b50848210156104a65786840151600019600387901b60f8161c191681555b50505050600190811b01905550565b634e487b7160e01b600052601160045260246000fd5b6001815b6001841115610506578085048111156104ea576104ea6104b5565b60018416156104f857908102905b60019390931c9280026104cf565b935093915050565b60008261051d575060016105ae565b8161052a575060006105ae565b8160018114610540576002811461054a57610566565b60019150506105ae565b60ff84111561055b5761055b6104b5565b50506001821b6105ae565b5060208310610133831016604e8410600b8410161715610589575081810a6105ae565b61059660001984846104cb565b80600019048211156105aa576105aa6104b5565b0290505b92915050565b60006105c360ff84168361050e565b9392505050565b80820281158282048414176105ae576105ae6104b5565b808201808211156105ae576105ae6104b5565b61090f806106036000396000f3fe608060405234801561001057600080fd5b506004361061009e5760003560e01c806370a082311161006657806370a082311461011e57806379c650681461014757806395d89b411461015a578063a9059cbb14610162578063dd62ed3e1461017557600080fd5b806306fdde03146100a3578063095ea7b3146100c157806318160ddd146100e457806323b872dd146100f6578063313ce56714610109575b600080fd5b6100ab6101ae565b6040516100b89190610649565b60405180910390f35b6100d46100cf3660046106b3565b610240565b60405190151581526020016100b8565b6002545b6040519081526020016100b8565b6100d46101043660046106dd565b61025a565b60055460405160ff90911681526020016100b8565b6100e861012c36600461071a565b6001600160a01b031660009081526020819052604090205490565b6100e86101553660046106b3565b61027e565b6100ab610304565b6100d46101703660046106b3565b610313565b6100e861018336600461073c565b6001600160a01b03918216600090815260016020908152604080832093909416825291909152205490565b6060600380546101bd9061076f565b80601f01602080910402602001604051908101604052809291908181526020018280546101e99061076f565b80156102365780601f1061020b57610100808354040283529160200191610236565b820191906000526020600020905b81548152906001019060200180831161021957829003601f168201915b5050505050905090565b60003361024e818585610321565b60019150505b92915050565b600033610268858285610333565b6102738585856103b1565b506001949350505050565b60008082116102d45760405162461bcd60e51b815260206004820152601960248201527f416d6f756e742063616e6e6f74206265206e656761746976650000000000000060448201526064015b60405180910390fd5b6102fe836102e460055460ff1690565b6102ef90600a6108a0565b6102f990856108af565b610410565b50919050565b6060600480546101bd9061076f565b60003361024e8185856103b1565b61032e838383600161044a565b505050565b6001600160a01b0383811660009081526001602090815260408083209386168352929052205460001981146103ab578181101561039c57604051637dc7a0d960e11b81526001600160a01b038416600482015260248101829052604481018390526064016102cb565b6103ab8484848403600061044a565b50505050565b6001600160a01b0383166103db57604051634b637e8f60e11b8152600060048201526024016102cb565b6001600160a01b0382166104055760405163ec442f0560e01b8152600060048201526024016102cb565b61032e83838361051f565b6001600160a01b03821661043a5760405163ec442f0560e01b8152600060048201526024016102cb565b6104466000838361051f565b5050565b6001600160a01b0384166104745760405163e602df0560e01b8152600060048201526024016102cb565b6001600160a01b03831661049e57604051634a1406b160e11b8152600060048201526024016102cb565b6001600160a01b03808516600090815260016020908152604080832093871683529290522082905580156103ab57826001600160a01b0316846001600160a01b03167f8c5be1e5ebec7d5bd14f71427d1e84f3dd0314c0f7b2291e5b200ac8c7c3b9258460405161051191815260200190565b60405180910390a350505050565b6001600160a01b03831661054a57806002600082825461053f91906108c6565b909155506105bc9050565b6001600160a01b0383166000908152602081905260409020548181101561059d5760405163391434e360e21b81526001600160a01b038516600482015260248101829052604481018390526064016102cb565b6001600160a01b03841660009081526020819052604090209082900390555b6001600160a01b0382166105d8576002805482900390556105f7565b6001600160a01b03821660009081526020819052604090208054820190555b816001600160a01b0316836001600160a01b03167fddf252ad1be2c89b69c2b068fc378daa952ba7f163c4a11628f55a4df523b3ef8360405161063c91815260200190565b60405180910390a3505050565b602081526000825180602084015260005b81811015610677576020818601810151604086840101520161065a565b506000604082850101526040601f19601f83011684010191505092915050565b80356001600160a01b03811681146106ae57600080fd5b919050565b600080604083850312156106c657600080fd5b6106cf83610697565b946020939093013593505050565b6000806000606084860312156106f257600080fd5b6106fb84610697565b925061070960208501610697565b929592945050506040919091013590565b60006020828403121561072c57600080fd5b61073582610697565b9392505050565b6000806040838503121561074f57600080fd5b61075883610697565b915061076660208401610697565b90509250929050565b600181811c9082168061078357607f821691505b6020821081036102fe57634e487b7160e01b600052602260045260246000fd5b634e487b7160e01b600052601160045260246000fd5b6001815b60018411156107f4578085048111156107d8576107d86107a3565b60018416156107e657908102905b60019390931c9280026107bd565b935093915050565b60008261080b57506001610254565b8161081857506000610254565b816001811461082e576002811461083857610854565b6001915050610254565b60ff841115610849576108496107a3565b50506001821b610254565b5060208310610133831016604e8410600b8410161715610877575081810a610254565b61088460001984846107b9565b8060001904821115610898576108986107a3565b029392505050565b600061073560ff8416836107fc565b8082028115828204841417610254576102546107a3565b80820180821115610254576102546107a356fea2646970667358221220587108c1729c212633a6ed766dc34eef324894df11d380d7d5a8d845b5dd10ad64736f6c634300081b0033",
  "linkReferences": {},
  "deployedLinkReferences": {}
}